{
  "address": "0x96Cc0F947b6C8F4675159Ea03144f8c17d5A2fC8",
  "abi": [
    {
      "constant": false,
      "inputs": [
        {
          "internalType": "contract CToken",
          "name": "cToken",
          "type": "address"
        },
        {
          "internalType": "address payable",
          "name": "account",
          "type": "address"
        }
      ],
      "name": "cTokenBalances",
      "outputs": [
        {
          "components": [
            {
              "internalType": "address",
              "name": "cToken",
              "type": "address"
            },
            {
              "internalType": "uint256",
              "name": "balanceOf",
              "type": "uint256"
            },
            {
              "internalType": "uint256",
              "name": "borrowBalanceCurrent",
              "type": "uint256"
            },
            {
              "internalType": "uint256",
              "name": "balanceOfUnderlying",
              "type": "uint256"
            },
            {
              "internalType": "uint256",
              "name": "tokenBalance",
              "type": "uint256"
            },
            {
              "internalType": "uint256",
              "name": "tokenAllowance",
              "type": "uint256"
            },
            {
              "internalType": "bool",
              "name": "collateralEnabled",
              "type": "bool"
            },
            {
              "internalType": "uint256",
              "name": "collateralBalance",
              "type": "uint256"
            },
            {
              "internalType": "uint256",
              "name": "nativeTokenBalance",
              "type": "uint256"
            }
          ],
          "internalType": "struct CompoundLens.CTokenBalances",
          "name": "",
          "type": "tuple"
        }
      ],
      "payable": false,
      "stateMutability": "nonpayable",
      "type": "function"
    },
    {
      "constant": false,
      "inputs": [
        {
          "internalType": "contract CToken[]",
          "name": "cTokens",
          "type": "address[]"
        },
        {
          "internalType": "address payable",
          "name": "account",
          "type": "address"
        }
      ],
      "name": "cTokenBalancesAll",
      "outputs": [
        {
          "components": [
            {
              "internalType": "address",
              "name": "cToken",
              "type": "address"
            },
            {
              "internalType": "uint256",
              "name": "balanceOf",
              "type": "uint256"
            },
            {
              "internalType": "uint256",
              "name": "borrowBalanceCurrent",
              "type": "uint256"
            },
            {
              "internalType": "uint256",
              "name": "balanceOfUnderlying",
              "type": "uint256"
            },
            {
              "internalType": "uint256",
              "name": "tokenBalance",
              "type": "uint256"
            },
            {
              "internalType": "uint256",
              "name": "tokenAllowance",
              "type": "uint256"
            },
            {
              "internalType": "bool",
              "name": "collateralEnabled",
              "type": "bool"
            },
            {
              "internalType": "uint256",
              "name": "collateralBalance",
              "type": "uint256"
            },
            {
              "internalType": "uint256",
              "name": "nativeTokenBalance",
              "type": "uint256"
            }
          ],
          "internalType": "struct CompoundLens.CTokenBalances[]",
          "name": "",
          "type": "tuple[]"
        }
      ],
      "payable": false,
      "stateMutability": "nonpayable",
      "type": "function"
    },
    {
      "constant": false,
      "inputs": [
        {
          "internalType": "contract CToken",
          "name": "cToken",
          "type": "address"
        }
      ],
      "name": "cTokenMetadata",
      "outputs": [
        {
          "components": [
            {
              "internalType": "address",
              "name": "cToken",
              "type": "address"
            },
            {
              "internalType": "uint256",
              "name": "exchangeRateCurrent",
              "type": "uint256"
            },
            {
              "internalType": "uint256",
              "name": "supplyRatePerBlock",
              "type": "uint256"
            },
            {
              "internalType": "uint256",
              "name": "borrowRatePerBlock",
              "type": "uint256"
            },
            {
              "internalType": "uint256",
              "name": "reserveFactorMantissa",
              "type": "uint256"
            },
            {
              "internalType": "uint256",
              "name": "totalBorrows",
              "type": "uint256"
            },
            {
              "internalType": "uint256",
              "name": "totalReserves",
              "type": "uint256"
            },
            {
              "internalType": "uint256",
              "name": "totalSupply",
              "type": "uint256"
            },
            {
              "internalType": "uint256",
              "name": "totalCash",
              "type": "uint256"
            },
            {
              "internalType": "uint256",
              "name": "totalCollateralTokens",
              "type": "uint256"
            },
            {
              "internalType": "bool",
              "name": "isListed",
              "type": "bool"
            },
            {
              "internalType": "uint256",
              "name": "collateralFactorMantissa",
              "type": "uint256"
            },
            {
              "internalType": "address",
              "name": "underlyingAssetAddress",
              "type": "address"
            },
            {
              "internalType": "uint256",
              "name": "cTokenDecimals",
              "type": "uint256"
            },
            {
              "internalType": "uint256",
              "name": "underlyingDecimals",
              "type": "uint256"
            },
            {
              "internalType": "enum ComptrollerV1Storage.Version",
              "name": "version",
              "type": "uint8"
            },
            {
              "internalType": "uint256",
              "name": "collateralCap",
              "type": "uint256"
            },
            {
              "internalType": "uint256",
              "name": "underlyingPrice",
              "type": "uint256"
            },
            {
              "internalType": "bool",
              "name": "supplyPaused",
              "type": "bool"
            },
            {
              "internalType": "bool",
              "name": "borrowPaused",
              "type": "bool"
            },
            {
              "internalType": "uint256",
              "name": "supplyCap",
              "type": "uint256"
            },
            {
              "internalType": "uint256",
              "name": "borrowCap",
              "type": "uint256"
            }
          ],
          "internalType": "struct CompoundLens.CTokenMetadata",
          "name": "",
          "type": "tuple"
        }
      ],
      "payable": false,
      "stateMutability": "nonpayable",
      "type": "function"
    },
    {
      "constant": false,
      "inputs": [
        {
          "internalType": "contract CToken[]",
          "name": "cTokens",
          "type": "address[]"
        }
      ],
      "name": "cTokenMetadataAll",
      "outputs": [
        {
          "components": [
            {
              "internalType": "address",
              "name": "cToken",
              "type": "address"
            },
            {
              "internalType": "uint256",
              "name": "exchangeRateCurrent",
              "type": "uint256"
            },
            {
              "internalType": "uint256",
              "name": "supplyRatePerBlock",
              "type": "uint256"
            },
            {
              "internalType": "uint256",
              "name": "borrowRatePerBlock",
              "type": "uint256"
            },
            {
              "internalType": "uint256",
              "name": "reserveFactorMantissa",
              "type": "uint256"
            },
            {
              "internalType": "uint256",
              "name": "totalBorrows",
              "type": "uint256"
            },
            {
              "internalType": "uint256",
              "name": "totalReserves",
              "type": "uint256"
            },
            {
              "internalType": "uint256",
              "name": "totalSupply",
              "type": "uint256"
            },
            {
              "internalType": "uint256",
              "name": "totalCash",
              "type": "uint256"
            },
            {
              "internalType": "uint256",
              "name": "totalCollateralTokens",
              "type": "uint256"
            },
            {
              "internalType": "bool",
              "name": "isListed",
              "type": "bool"
            },
            {
              "internalType": "uint256",
              "name": "collateralFactorMantissa",
              "type": "uint256"
            },
            {
              "internalType": "address",
              "name": "underlyingAssetAddress",
              "type": "address"
            },
            {
              "internalType": "uint256",
              "name": "cTokenDecimals",
              "type": "uint256"
            },
            {
              "internalType": "uint256",
              "name": "underlyingDecimals",
              "type": "uint256"
            },
            {
              "internalType": "enum ComptrollerV1Storage.Version",
              "name": "version",
              "type": "uint8"
            },
            {
              "internalType": "uint256",
              "name": "collateralCap",
              "type": "uint256"
            },
            {
              "internalType": "uint256",
              "name": "underlyingPrice",
              "type": "uint256"
            },
            {
              "internalType": "bool",
              "name": "supplyPaused",
              "type": "bool"
            },
            {
              "internalType": "bool",
              "name": "borrowPaused",
              "type": "bool"
            },
            {
              "internalType": "uint256",
              "name": "supplyCap",
              "type": "uint256"
            },
            {
              "internalType": "uint256",
              "name": "borrowCap",
              "type": "uint256"
            }
          ],
          "internalType": "struct CompoundLens.CTokenMetadata[]",
          "name": "",
          "type": "tuple[]"
        }
      ],
      "payable": false,
      "stateMutability": "nonpayable",
      "type": "function"
    },
    {
      "constant": false,
      "inputs": [
        {
          "internalType": "contract Comptroller",
          "name": "comptroller",
          "type": "address"
        },
        {
          "internalType": "address",
          "name": "account",
          "type": "address"
        }
      ],
      "name": "getAccountLimits",
      "outputs": [
        {
          "components": [
            {
              "internalType": "contract CToken[]",
              "name": "markets",
              "type": "address[]"
            },
            {
              "internalType": "uint256",
              "name": "liquidity",
              "type": "uint256"
            },
            {
              "internalType": "uint256",
              "name": "shortfall",
              "type": "uint256"
            }
          ],
          "internalType": "struct CompoundLens.AccountLimits",
          "name": "",
          "type": "tuple"
        }
      ],
      "payable": false,
      "stateMutability": "nonpayable",
      "type": "function"
    },
    {
      "constant": false,
      "inputs": [
        {
          "internalType": "contract CCTokenInterface[]",
          "name": "cTokens",
          "type": "address[]"
        },
        {
          "internalType": "address",
          "name": "comp",
          "type": "address"
        },
        {
          "internalType": "address",
          "name": "account",
          "type": "address"
        }
      ],
      "name": "getClaimableCompRewards",
      "outputs": [
        {
          "internalType": "uint256[]",
          "name": "",
          "type": "uint256[]"
        }
      ],
      "payable": false,
      "stateMutability": "nonpayable",
      "type": "function"
    },
    {
      "constant": false,
      "inputs": [
        {
          "internalType": "contract CSLPInterface[]",
          "name": "cTokens",
          "type": "address[]"
        },
        {
          "internalType": "address",
          "name": "sushi",
          "type": "address"
        },
        {
          "internalType": "address",
          "name": "account",
          "type": "address"
        }
      ],
      "name": "getClaimableSushiRewards",
      "outputs": [
        {
          "internalType": "uint256[]",
          "name": "",
          "type": "uint256[]"
        }
      ],
      "payable": false,
      "stateMutability": "nonpayable",
      "type": "function"
    }
  ],
  "transactionHash": "0xe9b535c038101ecabe808f2405fc0e4755dda3b11824502196ec51c0e1f369b9",
  "args": [],
  "solcInputHash": "c65136ab18c21117e4a03efdbaa30ddb",
  "bytecode": "0x608060405234801561001057600080fd5b50612a6b806100206000396000f3fe608060405234801561001057600080fd5b506004361061007d5760003560e01c80634b70d84b1161005b5780634b70d84b146100eb5780637dd8f6d91461010b578063bdf950c91461012b578063da84fefe1461014b5761007d565b80630972bf8b146100825780630e23cffd146100ab578063158eca8b146100cb575b600080fd5b610095610090366004612028565b61015e565b6040516100a2919061282c565b60405180910390f35b6100be6100b9366004611f7d565b610201565b6040516100a2919061284e565b6100de6100d9366004612113565b610416565b6040516100a291906128be565b6100fe6100f9366004611fe6565b61051d565b6040516100a2919061283d565b61011e610119366004612131565b6107b4565b6040516100a2919061289e565b61013e610139366004612131565b6108f0565b6040516100a291906128af565b6100be610159366004611f7d565b610e7f565b6040805183815260208085028201019091526060908390829082801561019e57816020015b61018b611ca6565b8152602001906001900390816101835790505b50905060005b828110156101f5576101d68787838181106101bb57fe5b90506020020160206101d09190810190612113565b866108f0565b8282815181106101e257fe5b60209081029190910101526001016101a4565b509150505b9392505050565b60408051848152602080860282010190915260609084908290828015610231578160200160208202803883390190505b50905060005b8281101561040b576040516370a0823160e01b81526000906001600160a01b038816906370a082319061026e9089906004016127da565b60206040518083038186803b15801561028657600080fd5b505afa15801561029a573d6000803e3d6000fd5b505050506040513d601f19601f820116820180604052506102be91908101906121be565b90508888838181106102cc57fe5b90506020020160206102e19190810190612113565b6001600160a01b0316632781e0d5876040518263ffffffff1660e01b815260040161030c91906127da565b602060405180830381600087803b15801561032657600080fd5b505af115801561033a573d6000803e3d6000fd5b505050506040513d601f19601f8201168201806040525061035e91908101906121be565b506040516370a0823160e01b81526000906001600160a01b038916906370a082319061038e908a906004016127da565b60206040518083038186803b1580156103a657600080fd5b505afa1580156103ba573d6000803e3d6000fd5b505050506040513d601f19601f820116820180604052506103de91908101906121be565b90506103ea8183611089565b8484815181106103f657fe5b60209081029190910101525050600101610237565b509695505050505050565b61041e611cfd565b6000826001600160a01b0316635fe3b5676040518163ffffffff1660e01b815260040160206040518083038186803b15801561045957600080fd5b505afa15801561046d573d6000803e3d6000fd5b505050506040513d601f19601f82011682018060405250610491919081019061216b565b90506000816001600160a01b0316637dc0d1d06040518163ffffffff1660e01b815260040160206040518083038186803b1580156104ce57600080fd5b505afa1580156104e2573d6000803e3d6000fd5b505050506040513d601f19601f82011682018060405250610506919081019061216b565b90506105138483836110c3565b925050505b919050565b606081806105465760405162461bcd60e51b815260040161053d9061288e565b60405180910390fd5b60608160405190808252806020026020018201604052801561058257816020015b61056f611cfd565b8152602001906001900390816105675790505b50905060008585600081811061059457fe5b90506020020160206105a99190810190612113565b6001600160a01b0316635fe3b5676040518163ffffffff1660e01b815260040160206040518083038186803b1580156105e157600080fd5b505afa1580156105f5573d6000803e3d6000fd5b505050506040513d601f19601f82011682018060405250610619919081019061216b565b90506000816001600160a01b0316637dc0d1d06040518163ffffffff1660e01b815260040160206040518083038186803b15801561065657600080fd5b505afa15801561066a573d6000803e3d6000fd5b505050506040513d601f19601f8201168201806040525061068e919081019061216b565b905060005b848110156107a6578787828181106106a757fe5b90506020020160206106bc9190810190612113565b6001600160a01b0316635fe3b5676040518163ffffffff1660e01b815260040160206040518083038186803b1580156106f457600080fd5b505afa158015610708573d6000803e3d6000fd5b505050506040513d601f19601f8201168201806040525061072c919081019061216b565b6001600160a01b0316836001600160a01b03161461075c5760405162461bcd60e51b815260040161053d9061287e565b61078788888381811061076b57fe5b90506020020160206107809190810190612113565b84846110c3565b84828151811061079357fe5b6020908102919091010152600101610693565b509193505050505b92915050565b6107bc611dc7565b6000806000856001600160a01b0316635ec88c79866040518263ffffffff1660e01b81526004016107ed91906127da565b60606040518083038186803b15801561080557600080fd5b505afa158015610819573d6000803e3d6000fd5b505050506040513d601f19601f8201168201806040525061083d91908101906121dc565b9250925092508260001461085057600080fd5b604080516060810191829052632aff3bff60e21b909152806001600160a01b03881663abfceffc61088489606485016127da565b60006040518083038186803b15801561089c57600080fd5b505afa1580156108b0573d6000803e3d6000fd5b505050506040513d6000823e601f3d908101601f191682016040526108d8919081019061207d565b81526020810193909352604090920152949350505050565b6108f8611ca6565b6000836001600160a01b0316635fe3b5676040518163ffffffff1660e01b815260040160206040518083038186803b15801561093357600080fd5b505afa158015610947573d6000803e3d6000fd5b505050506040513d601f19601f8201168201806040525061096b919081019061216b565b90506000816001600160a01b031663929fe9a185876040518363ffffffff1660e01b815260040161099d929190612811565b60206040518083038186803b1580156109b557600080fd5b505afa1580156109c9573d6000803e3d6000fd5b505050506040513d601f19601f820116820180604052506109ed91908101906120b2565b90506000806000610a8f886001600160a01b03166395d89b416040518163ffffffff1660e01b815260040160006040518083038186803b158015610a3057600080fd5b505afa158015610a44573d6000803e3d6000fd5b505050506040513d6000823e601f3d908101601f19168201604052610a6c9190810190612189565b60405180604001604052806005815260200164637246544d60d81b815250611c21565b15610aaa576001600160a01b03871680319350319150610c27565b60008890506000816001600160a01b0316636f307dc36040518163ffffffff1660e01b815260040160206040518083038186803b158015610aea57600080fd5b505afa158015610afe573d6000803e3d6000fd5b505050506040513d601f19601f82011682018060405250610b229190810190611f57565b6040516370a0823160e01b81529091506001600160a01b038216906370a0823190610b51908c906004016127e8565b60206040518083038186803b158015610b6957600080fd5b505afa158015610b7d573d6000803e3d6000fd5b505050506040513d601f19601f82011682018060405250610ba191908101906121be565b604051636eb1769f60e11b81529095506001600160a01b0382169063dd62ed3e90610bd2908c908e906004016127f6565b60206040518083038186803b158015610bea57600080fd5b505afa158015610bfe573d6000803e3d6000fd5b505050506040513d601f19601f82011682018060405250610c2291908101906121be565b935050505b8315610cb0576040516361bfb47160e11b81526001600160a01b0389169063c37f68e290610c59908a906004016127e8565b60806040518083038186803b158015610c7157600080fd5b505afa158015610c85573d6000803e3d6000fd5b505050506040513d601f19601f82011682018060405250610ca9919081019061221f565b5090925050505b60408051610120810182526001600160a01b038a1680825291516370a0823160e01b8152909160208301916370a0823190610cef908c906004016127e8565b60206040518083038186803b158015610d0757600080fd5b505afa158015610d1b573d6000803e3d6000fd5b505050506040513d601f19601f82011682018060405250610d3f91908101906121be565b8152602001896001600160a01b03166317bfdfbc8a6040518263ffffffff1660e01b8152600401610d7091906127e8565b602060405180830381600087803b158015610d8a57600080fd5b505af1158015610d9e573d6000803e3d6000fd5b505050506040513d601f19601f82011682018060405250610dc291908101906121be565b8152602001896001600160a01b0316633af9e6698a6040518263ffffffff1660e01b8152600401610df391906127e8565b602060405180830381600087803b158015610e0d57600080fd5b505af1158015610e21573d6000803e3d6000fd5b505050506040513d601f19601f82011682018060405250610e4591908101906121be565b81526020018481526020018381526020018515158152602001828152602001886001600160a01b0316318152509550505050505092915050565b60408051848152602080860282010190915260609084908290828015610eaf578160200160208202803883390190505b50905060005b8281101561040b576040516370a0823160e01b81526000906001600160a01b038816906370a0823190610eec9089906004016127da565b60206040518083038186803b158015610f0457600080fd5b505afa158015610f18573d6000803e3d6000fd5b505050506040513d601f19601f82011682018060405250610f3c91908101906121be565b9050888883818110610f4a57fe5b9050602002016020610f5f9190810190612113565b6001600160a01b031663e9af0292876040518263ffffffff1660e01b8152600401610f8a91906127da565b602060405180830381600087803b158015610fa457600080fd5b505af1158015610fb8573d6000803e3d6000fd5b505050506040513d601f19601f82011682018060405250610fdc91908101906121be565b506040516370a0823160e01b81526000906001600160a01b038916906370a082319061100c908a906004016127da565b60206040518083038186803b15801561102457600080fd5b505afa158015611038573d6000803e3d6000fd5b505050506040513d601f19601f8201168201806040525061105c91908101906121be565b90506110688183611089565b84848151811061107457fe5b60209081029190910101525050600101610eb5565b60006101fa8383604051806040016040528060158152602001747375627472616374696f6e20756e646572666c6f7760581b815250611c7a565b6110cb611cfd565b6000846001600160a01b031663bd6d894d6040518163ffffffff1660e01b8152600401602060405180830381600087803b15801561110857600080fd5b505af115801561111c573d6000803e3d6000fd5b505050506040513d601f19601f8201168201806040525061114091908101906121be565b90506000806000866001600160a01b0316638e8f294b896040518263ffffffff1660e01b815260040161117391906127da565b60606040518083038186803b15801561118b57600080fd5b505afa15801561119f573d6000803e3d6000fd5b505050506040513d601f19601f820116820180604052506111c391908101906120d0565b92509250925060008060008061120b8c6001600160a01b03166395d89b416040518163ffffffff1660e01b815260040160006040518083038186803b158015610a3057600080fd5b1561121d57600093506012925061137d565b60008c9050806001600160a01b0316636f307dc36040518163ffffffff1660e01b815260040160206040518083038186803b15801561125b57600080fd5b505afa15801561126f573d6000803e3d6000fd5b505050506040513d601f19601f820116820180604052506112939190810190611f57565b9450806001600160a01b0316636f307dc36040518163ffffffff1660e01b815260040160206040518083038186803b1580156112ce57600080fd5b505afa1580156112e2573d6000803e3d6000fd5b505050506040513d601f19601f820116820180604052506113069190810190611f57565b6001600160a01b031663313ce5676040518163ffffffff1660e01b815260040160206040518083038186803b15801561133e57600080fd5b505afa158015611352573d6000803e3d6000fd5b505050506040513d601f19601f820116820180604052506113769190810190612274565b60ff169350505b600185600281111561138b57fe5b141561147c578b6001600160a01b031663d2bb18e96040518163ffffffff1660e01b815260040160206040518083038186803b1580156113ca57600080fd5b505afa1580156113de573d6000803e3d6000fd5b505050506040513d601f19601f8201168201806040525061140291908101906121be565b91508b6001600160a01b03166319a4dd3c6040518163ffffffff1660e01b815260040160206040518083038186803b15801561143d57600080fd5b505afa158015611451573d6000803e3d6000fd5b505050506040513d601f19601f8201168201806040525061147591908101906121be565b9050611577565b600285600281111561148a57fe5b1415611577578b6001600160a01b031663d2bb18e96040518163ffffffff1660e01b815260040160206040518083038186803b1580156114c957600080fd5b505afa1580156114dd573d6000803e3d6000fd5b505050506040513d601f19601f8201168201806040525061150191908101906121be565b91508b6001600160a01b03166319a4dd3c6040518163ffffffff1660e01b815260040160206040518083038186803b15801561153c57600080fd5b505afa158015611550573d6000803e3d6000fd5b505050506040513d601f19601f8201168201806040525061157491908101906121be565b90505b604051806102c001604052808d6001600160a01b031681526020018981526020018d6001600160a01b031663ae9d70b06040518163ffffffff1660e01b815260040160206040518083038186803b1580156115d157600080fd5b505afa1580156115e5573d6000803e3d6000fd5b505050506040513d601f19601f8201168201806040525061160991908101906121be565b81526020018d6001600160a01b031663f8f9da286040518163ffffffff1660e01b815260040160206040518083038186803b15801561164757600080fd5b505afa15801561165b573d6000803e3d6000fd5b505050506040513d601f19601f8201168201806040525061167f91908101906121be565b81526020018d6001600160a01b031663173b99046040518163ffffffff1660e01b815260040160206040518083038186803b1580156116bd57600080fd5b505afa1580156116d1573d6000803e3d6000fd5b505050506040513d601f19601f820116820180604052506116f591908101906121be565b81526020018d6001600160a01b03166347bd37186040518163ffffffff1660e01b815260040160206040518083038186803b15801561173357600080fd5b505afa158015611747573d6000803e3d6000fd5b505050506040513d601f19601f8201168201806040525061176b91908101906121be565b81526020018d6001600160a01b0316638f840ddd6040518163ffffffff1660e01b815260040160206040518083038186803b1580156117a957600080fd5b505afa1580156117bd573d6000803e3d6000fd5b505050506040513d601f19601f820116820180604052506117e191908101906121be565b81526020018d6001600160a01b03166318160ddd6040518163ffffffff1660e01b815260040160206040518083038186803b15801561181f57600080fd5b505afa158015611833573d6000803e3d6000fd5b505050506040513d601f19601f8201168201806040525061185791908101906121be565b81526020018d6001600160a01b0316633b1d21a26040518163ffffffff1660e01b815260040160206040518083038186803b15801561189557600080fd5b505afa1580156118a9573d6000803e3d6000fd5b505050506040513d601f19601f820116820180604052506118cd91908101906121be565b81526020018281526020018815158152602001878152602001856001600160a01b031681526020018d6001600160a01b031663313ce5676040518163ffffffff1660e01b815260040160206040518083038186803b15801561192e57600080fd5b505afa158015611942573d6000803e3d6000fd5b505050506040513d601f19601f820116820180604052506119669190810190612274565b60ff16815260200184815260200186600281111561198057fe5b81526020018381526020018b6001600160a01b031663fc57d4df8f6040518263ffffffff1660e01b81526004016119b7919061285f565b60206040518083038186803b1580156119cf57600080fd5b505afa1580156119e3573d6000803e3d6000fd5b505050506040513d601f19601f82011682018060405250611a0791908101906121be565b81526020018c6001600160a01b031663731f0c2b8f6040518263ffffffff1660e01b8152600401611a3891906127da565b60206040518083038186803b158015611a5057600080fd5b505afa158015611a64573d6000803e3d6000fd5b505050506040513d601f19601f82011682018060405250611a8891908101906120b2565b151581526020018c6001600160a01b0316636d154ea58f6040518263ffffffff1660e01b8152600401611abb91906127da565b60206040518083038186803b158015611ad357600080fd5b505afa158015611ae7573d6000803e3d6000fd5b505050506040513d601f19601f82011682018060405250611b0b91908101906120b2565b151581526020018c6001600160a01b03166302c3bcbb8f6040518263ffffffff1660e01b8152600401611b3e91906127da565b60206040518083038186803b158015611b5657600080fd5b505afa158015611b6a573d6000803e3d6000fd5b505050506040513d601f19601f82011682018060405250611b8e91908101906121be565b81526020018c6001600160a01b0316634a5844328f6040518263ffffffff1660e01b8152600401611bbf91906127da565b60206040518083038186803b158015611bd757600080fd5b505afa158015611beb573d6000803e3d6000fd5b505050506040513d601f19601f82011682018060405250611c0f91908101906121be565b90529c9b505050505050505050505050565b600081604051602001611c3491906127ce565b6040516020818303038152906040528051906020012083604051602001611c5b91906127ce565b6040516020818303038152906040528051906020012014905092915050565b60008184841115611c9e5760405162461bcd60e51b815260040161053d919061286d565b505050900390565b60405180610120016040528060006001600160a01b03168152602001600081526020016000815260200160008152602001600081526020016000815260200160001515815260200160008152602001600081525090565b604051806102c0016040528060006001600160a01b031681526020016000815260200160008152602001600081526020016000815260200160008152602001600081526020016000815260200160008152602001600081526020016000151581526020016000815260200160006001600160a01b03168152602001600081526020016000815260200160006002811115611d9357fe5b8152602001600081526020016000815260200160001515815260200160001515815260200160008152602001600081525090565b60405180606001604052806060815260200160008152602001600081525090565b80356107ae816129e3565b80516107ae816129e3565b60008083601f840112611e1057600080fd5b50813567ffffffffffffffff811115611e2857600080fd5b602083019150836020820283011115611e4057600080fd5b9250929050565b600082601f830112611e5857600080fd5b8151611e6b611e66826128f4565b6128cd565b91508181835260208401935060208101905083856020840282011115611e9057600080fd5b60005b83811015611ebc5781611ea68882611edc565b8452506020928301929190910190600101611e93565b5050505092915050565b80516107ae816129f7565b80356107ae81612a00565b80516107ae81612a00565b80516107ae81612a09565b600082601f830112611f0357600080fd5b8151611f11611e6682612915565b91508082526020830160208301858383011115611f2d57600080fd5b611f388382846129a0565b50505092915050565b80516107ae81612a16565b80516107ae81612a1f565b600060208284031215611f6957600080fd5b6000611f758484611df3565b949350505050565b60008060008060608587031215611f9357600080fd5b843567ffffffffffffffff811115611faa57600080fd5b611fb687828801611dfe565b94509450506020611fc987828801611de8565b9250506040611fda87828801611de8565b91505092959194509250565b60008060208385031215611ff957600080fd5b823567ffffffffffffffff81111561201057600080fd5b61201c85828601611dfe565b92509250509250929050565b60008060006040848603121561203d57600080fd5b833567ffffffffffffffff81111561205457600080fd5b61206086828701611dfe565b9350935050602061207386828701611de8565b9150509250925092565b60006020828403121561208f57600080fd5b815167ffffffffffffffff8111156120a657600080fd5b611f7584828501611e47565b6000602082840312156120c457600080fd5b6000611f758484611ec6565b6000806000606084860312156120e557600080fd5b60006120f18686611ec6565b935050602061210286828701611f41565b925050604061207386828701611ee7565b60006020828403121561212557600080fd5b6000611f758484611ed1565b6000806040838503121561214457600080fd5b60006121508585611ed1565b925050602061216185828601611de8565b9150509250929050565b60006020828403121561217d57600080fd5b6000611f758484611edc565b60006020828403121561219b57600080fd5b815167ffffffffffffffff8111156121b257600080fd5b611f7584828501611ef2565b6000602082840312156121d057600080fd5b6000611f758484611f41565b6000806000606084860312156121f157600080fd5b60006121fd8686611f41565b935050602061220e86828701611f41565b925050604061207386828701611f41565b6000806000806080858703121561223557600080fd5b60006122418787611f41565b945050602061225287828801611f41565b935050604061226387828801611f41565b9250506060611fda87828801611f41565b60006020828403121561228657600080fd5b6000611f758484611f4c565b600061229e8383612440565b505060200190565b60006122b2838361255a565b50506101200190565b60006122c7838361260c565b50506102c00190565b600061229e83836127c5565b6122e58161298a565b82525050565b6122e581612950565b60006122ff82612943565b6123098185612947565b93506123148361293d565b8060005b8381101561234257815161232c8882612292565b97506123378361293d565b925050600101612318565b509495945050505050565b600061235882612943565b6123628185612947565b935061236d8361293d565b8060005b8381101561234257815161238588826122a6565b97506123908361293d565b925050600101612371565b60006123a682612943565b6123b08185612947565b93506123bb8361293d565b8060005b838110156123425781516123d388826122bb565b97506123de8361293d565b9250506001016123bf565b60006123f482612943565b6123fe8185612947565b93506124098361293d565b8060005b8381101561234257815161242188826122d0565b975061242c8361293d565b92505060010161240d565b6122e58161295b565b6122e581612960565b6122e581612995565b600061245d82612943565b6124678185612947565b93506124778185602086016129a0565b612480816129cc565b9093019392505050565b600061249582612943565b61249f8185610518565b93506124af8185602086016129a0565b9290920192915050565b60006124c6601483612947565b7336b4b9b6b0ba31b41031b7b6b83a3937b63632b960611b815260200192915050565b60006124f6600d83612947565b6c1a5b9d985b1a59081a5b9c1d5d609a1b815260200192915050565b805160608084526000919084019061252a82826122f4565b915050602083015161253f60208601826127c5565b50604083015161255260408601826127c5565b509392505050565b805161012083019061256c84826122eb565b50602082015161257f60208501826127c5565b50604082015161259260408501826127c5565b5060608201516125a560608501826127c5565b5060808201516125b860808501826127c5565b5060a08201516125cb60a08501826127c5565b5060c08201516125de60c0850182612437565b5060e08201516125f160e08501826127c5565b506101008201516126066101008501826127c5565b50505050565b80516102c083019061261e84826122eb565b50602082015161263160208501826127c5565b50604082015161264460408501826127c5565b50606082015161265760608501826127c5565b50608082015161266a60808501826127c5565b5060a082015161267d60a08501826127c5565b5060c082015161269060c08501826127c5565b5060e08201516126a360e08501826127c5565b506101008201516126b86101008501826127c5565b506101208201516126cd6101208501826127c5565b506101408201516126e2610140850182612437565b506101608201516126f76101608501826127c5565b5061018082015161270c6101808501826122eb565b506101a08201516127216101a08501826127c5565b506101c08201516127366101c08501826127c5565b506101e082015161274b6101e0850182612449565b506102008201516127606102008501826127c5565b506102208201516127756102208501826127c5565b5061024082015161278a610240850182612437565b5061026082015161279f610260850182612437565b506102808201516127b46102808501826127c5565b506102a08201516126066102a08501825b6122e581612981565b60006101fa828461248a565b602081016107ae82846122eb565b602081016107ae82846122dc565b6040810161280482856122dc565b6101fa60208301846122eb565b6040810161281f82856122dc565b6101fa6020830184612440565b602080825281016101fa818461234d565b602080825281016101fa818461239b565b602080825281016101fa81846123e9565b602081016107ae8284612440565b602080825281016101fa8184612452565b602080825281016107ae816124b9565b602080825281016107ae816124e9565b602080825281016101fa8184612512565b61012081016107ae828461255a565b6102c081016107ae828461260c565b60405181810167ffffffffffffffff811182821017156128ec57600080fd5b604052919050565b600067ffffffffffffffff82111561290b57600080fd5b5060209081020190565b600067ffffffffffffffff82111561292c57600080fd5b506020601f91909101601f19160190565b60200190565b5190565b90815260200190565b60006107ae82612975565b151590565b60006107ae82612950565b80610518816129d6565b6001600160a01b031690565b90565b60ff1690565b60006107ae82612960565b60006107ae8261296b565b60005b838110156129bb5781810151838201526020016129a3565b838111156126065750506000910152565b601f01601f191690565b600381106129e057fe5b50565b6129ec81612950565b81146129e057600080fd5b6129ec8161295b565b6129ec81612960565b600381106129e057600080fd5b6129ec81612981565b6129ec8161298456fea365627a7a72315820853c1eb0d7da2098d0b9e7e5b2cff35af39c2745ec8d13c636908abd66b852336c6578706572696d656e74616cf564736f6c63430005110040",
  "devdoc": {
    "methods": {}
  },
  "userdoc": {
    "methods": {}
  },
  "storageLayout": {
    "storage": [],
    "types": null
  }
}