{
  "address": "0x5261918AbA48774ea7061a7895766BB55B091751",
  "abi": [
    {
      "inputs": [],
      "payable": false,
      "stateMutability": "nonpayable",
      "type": "constructor"
    },
    {
      "anonymous": false,
      "inputs": [
        {
          "indexed": false,
          "internalType": "string",
          "name": "action",
          "type": "string"
        },
        {
          "indexed": false,
          "internalType": "bool",
          "name": "pauseState",
          "type": "bool"
        }
      ],
      "name": "ActionPaused",
      "type": "event"
    },
    {
      "anonymous": false,
      "inputs": [
        {
          "indexed": false,
          "internalType": "contract CToken",
          "name": "cToken",
          "type": "address"
        },
        {
          "indexed": false,
          "internalType": "string",
          "name": "action",
          "type": "string"
        },
        {
          "indexed": false,
          "internalType": "bool",
          "name": "pauseState",
          "type": "bool"
        }
      ],
      "name": "ActionPaused",
      "type": "event"
    },
    {
      "anonymous": false,
      "inputs": [
        {
          "indexed": false,
          "internalType": "address",
          "name": "protocol",
          "type": "address"
        },
        {
          "indexed": false,
          "internalType": "address",
          "name": "market",
          "type": "address"
        },
        {
          "indexed": false,
          "internalType": "uint256",
          "name": "creditLimit",
          "type": "uint256"
        }
      ],
      "name": "CreditLimitChanged",
      "type": "event"
    },
    {
      "anonymous": false,
      "inputs": [
        {
          "indexed": false,
          "internalType": "uint256",
          "name": "error",
          "type": "uint256"
        },
        {
          "indexed": false,
          "internalType": "uint256",
          "name": "info",
          "type": "uint256"
        },
        {
          "indexed": false,
          "internalType": "uint256",
          "name": "detail",
          "type": "uint256"
        }
      ],
      "name": "Failure",
      "type": "event"
    },
    {
      "anonymous": false,
      "inputs": [
        {
          "indexed": false,
          "internalType": "contract CToken",
          "name": "cToken",
          "type": "address"
        }
      ],
      "name": "MarketDelisted",
      "type": "event"
    },
    {
      "anonymous": false,
      "inputs": [
        {
          "indexed": false,
          "internalType": "contract CToken",
          "name": "cToken",
          "type": "address"
        },
        {
          "indexed": false,
          "internalType": "address",
          "name": "account",
          "type": "address"
        }
      ],
      "name": "MarketEntered",
      "type": "event"
    },
    {
      "anonymous": false,
      "inputs": [
        {
          "indexed": false,
          "internalType": "contract CToken",
          "name": "cToken",
          "type": "address"
        },
        {
          "indexed": false,
          "internalType": "address",
          "name": "account",
          "type": "address"
        }
      ],
      "name": "MarketExited",
      "type": "event"
    },
    {
      "anonymous": false,
      "inputs": [
        {
          "indexed": false,
          "internalType": "contract CToken",
          "name": "cToken",
          "type": "address"
        }
      ],
      "name": "MarketListed",
      "type": "event"
    },
    {
      "anonymous": false,
      "inputs": [
        {
          "indexed": true,
          "internalType": "contract CToken",
          "name": "cToken",
          "type": "address"
        },
        {
          "indexed": false,
          "internalType": "uint256",
          "name": "newBorrowCap",
          "type": "uint256"
        }
      ],
      "name": "NewBorrowCap",
      "type": "event"
    },
    {
      "anonymous": false,
      "inputs": [
        {
          "indexed": false,
          "internalType": "address",
          "name": "oldBorrowCapGuardian",
          "type": "address"
        },
        {
          "indexed": false,
          "internalType": "address",
          "name": "newBorrowCapGuardian",
          "type": "address"
        }
      ],
      "name": "NewBorrowCapGuardian",
      "type": "event"
    },
    {
      "anonymous": false,
      "inputs": [
        {
          "indexed": false,
          "internalType": "contract CToken",
          "name": "cToken",
          "type": "address"
        },
        {
          "indexed": false,
          "internalType": "enum ComptrollerV1Storage.Version",
          "name": "oldVersion",
          "type": "uint8"
        },
        {
          "indexed": false,
          "internalType": "enum ComptrollerV1Storage.Version",
          "name": "newVersion",
          "type": "uint8"
        }
      ],
      "name": "NewCTokenVersion",
      "type": "event"
    },
    {
      "anonymous": false,
      "inputs": [
        {
          "indexed": false,
          "internalType": "uint256",
          "name": "oldCloseFactorMantissa",
          "type": "uint256"
        },
        {
          "indexed": false,
          "internalType": "uint256",
          "name": "newCloseFactorMantissa",
          "type": "uint256"
        }
      ],
      "name": "NewCloseFactor",
      "type": "event"
    },
    {
      "anonymous": false,
      "inputs": [
        {
          "indexed": false,
          "internalType": "contract CToken",
          "name": "cToken",
          "type": "address"
        },
        {
          "indexed": false,
          "internalType": "uint256",
          "name": "oldCollateralFactorMantissa",
          "type": "uint256"
        },
        {
          "indexed": false,
          "internalType": "uint256",
          "name": "newCollateralFactorMantissa",
          "type": "uint256"
        }
      ],
      "name": "NewCollateralFactor",
      "type": "event"
    },
    {
      "anonymous": false,
      "inputs": [
        {
          "indexed": false,
          "internalType": "uint256",
          "name": "oldLiquidationIncentiveMantissa",
          "type": "uint256"
        },
        {
          "indexed": false,
          "internalType": "uint256",
          "name": "newLiquidationIncentiveMantissa",
          "type": "uint256"
        }
      ],
      "name": "NewLiquidationIncentive",
      "type": "event"
    },
    {
      "anonymous": false,
      "inputs": [
        {
          "indexed": false,
          "internalType": "address",
          "name": "oldLiquidityMining",
          "type": "address"
        },
        {
          "indexed": false,
          "internalType": "address",
          "name": "newLiquidityMining",
          "type": "address"
        }
      ],
      "name": "NewLiquidityMining",
      "type": "event"
    },
    {
      "anonymous": false,
      "inputs": [
        {
          "indexed": false,
          "internalType": "address",
          "name": "oldPauseGuardian",
          "type": "address"
        },
        {
          "indexed": false,
          "internalType": "address",
          "name": "newPauseGuardian",
          "type": "address"
        }
      ],
      "name": "NewPauseGuardian",
      "type": "event"
    },
    {
      "anonymous": false,
      "inputs": [
        {
          "indexed": false,
          "internalType": "contract PriceOracle",
          "name": "oldPriceOracle",
          "type": "address"
        },
        {
          "indexed": false,
          "internalType": "contract PriceOracle",
          "name": "newPriceOracle",
          "type": "address"
        }
      ],
      "name": "NewPriceOracle",
      "type": "event"
    },
    {
      "anonymous": false,
      "inputs": [
        {
          "indexed": true,
          "internalType": "contract CToken",
          "name": "cToken",
          "type": "address"
        },
        {
          "indexed": false,
          "internalType": "uint256",
          "name": "newSupplyCap",
          "type": "uint256"
        }
      ],
      "name": "NewSupplyCap",
      "type": "event"
    },
    {
      "anonymous": false,
      "inputs": [
        {
          "indexed": false,
          "internalType": "address",
          "name": "oldSupplyCapGuardian",
          "type": "address"
        },
        {
          "indexed": false,
          "internalType": "address",
          "name": "newSupplyCapGuardian",
          "type": "address"
        }
      ],
      "name": "NewSupplyCapGuardian",
      "type": "event"
    },
    {
      "constant": false,
      "inputs": [
        {
          "internalType": "contract Unitroller",
          "name": "unitroller",
          "type": "address"
        }
      ],
      "name": "_become",
      "outputs": [],
      "payable": false,
      "stateMutability": "nonpayable",
      "type": "function"
    },
    {
      "constant": true,
      "inputs": [],
      "name": "_borrowGuardianPaused",
      "outputs": [
        {
          "internalType": "bool",
          "name": "",
          "type": "bool"
        }
      ],
      "payable": false,
      "stateMutability": "view",
      "type": "function"
    },
    {
      "constant": false,
      "inputs": [
        {
          "internalType": "contract CToken",
          "name": "cToken",
          "type": "address"
        }
      ],
      "name": "_delistMarket",
      "outputs": [],
      "payable": false,
      "stateMutability": "nonpayable",
      "type": "function"
    },
    {
      "constant": true,
      "inputs": [],
      "name": "_mintGuardianPaused",
      "outputs": [
        {
          "internalType": "bool",
          "name": "",
          "type": "bool"
        }
      ],
      "payable": false,
      "stateMutability": "view",
      "type": "function"
    },
    {
      "constant": false,
      "inputs": [
        {
          "internalType": "address",
          "name": "newBorrowCapGuardian",
          "type": "address"
        }
      ],
      "name": "_setBorrowCapGuardian",
      "outputs": [],
      "payable": false,
      "stateMutability": "nonpayable",
      "type": "function"
    },
    {
      "constant": false,
      "inputs": [
        {
          "internalType": "contract CToken",
          "name": "cToken",
          "type": "address"
        },
        {
          "internalType": "bool",
          "name": "state",
          "type": "bool"
        }
      ],
      "name": "_setBorrowPaused",
      "outputs": [
        {
          "internalType": "bool",
          "name": "",
          "type": "bool"
        }
      ],
      "payable": false,
      "stateMutability": "nonpayable",
      "type": "function"
    },
    {
      "constant": false,
      "inputs": [
        {
          "internalType": "uint256",
          "name": "newCloseFactorMantissa",
          "type": "uint256"
        }
      ],
      "name": "_setCloseFactor",
      "outputs": [
        {
          "internalType": "uint256",
          "name": "",
          "type": "uint256"
        }
      ],
      "payable": false,
      "stateMutability": "nonpayable",
      "type": "function"
    },
    {
      "constant": false,
      "inputs": [
        {
          "internalType": "contract CToken",
          "name": "cToken",
          "type": "address"
        },
        {
          "internalType": "uint256",
          "name": "newCollateralFactorMantissa",
          "type": "uint256"
        }
      ],
      "name": "_setCollateralFactor",
      "outputs": [
        {
          "internalType": "uint256",
          "name": "",
          "type": "uint256"
        }
      ],
      "payable": false,
      "stateMutability": "nonpayable",
      "type": "function"
    },
    {
      "constant": false,
      "inputs": [
        {
          "internalType": "address",
          "name": "protocol",
          "type": "address"
        },
        {
          "internalType": "address",
          "name": "market",
          "type": "address"
        },
        {
          "internalType": "uint256",
          "name": "creditLimit",
          "type": "uint256"
        }
      ],
      "name": "_setCreditLimit",
      "outputs": [],
      "payable": false,
      "stateMutability": "nonpayable",
      "type": "function"
    },
    {
      "constant": false,
      "inputs": [
        {
          "internalType": "contract CToken",
          "name": "cToken",
          "type": "address"
        },
        {
          "internalType": "bool",
          "name": "state",
          "type": "bool"
        }
      ],
      "name": "_setFlashloanPaused",
      "outputs": [
        {
          "internalType": "bool",
          "name": "",
          "type": "bool"
        }
      ],
      "payable": false,
      "stateMutability": "nonpayable",
      "type": "function"
    },
    {
      "constant": false,
      "inputs": [
        {
          "internalType": "uint256",
          "name": "newLiquidationIncentiveMantissa",
          "type": "uint256"
        }
      ],
      "name": "_setLiquidationIncentive",
      "outputs": [
        {
          "internalType": "uint256",
          "name": "",
          "type": "uint256"
        }
      ],
      "payable": false,
      "stateMutability": "nonpayable",
      "type": "function"
    },
    {
      "constant": false,
      "inputs": [
        {
          "internalType": "address",
          "name": "newLiquidityMining",
          "type": "address"
        }
      ],
      "name": "_setLiquidityMining",
      "outputs": [],
      "payable": false,
      "stateMutability": "nonpayable",
      "type": "function"
    },
    {
      "constant": false,
      "inputs": [
        {
          "internalType": "contract CToken[]",
          "name": "cTokens",
          "type": "address[]"
        },
        {
          "internalType": "uint256[]",
          "name": "newBorrowCaps",
          "type": "uint256[]"
        }
      ],
      "name": "_setMarketBorrowCaps",
      "outputs": [],
      "payable": false,
      "stateMutability": "nonpayable",
      "type": "function"
    },
    {
      "constant": false,
      "inputs": [
        {
          "internalType": "contract CToken[]",
          "name": "cTokens",
          "type": "address[]"
        },
        {
          "internalType": "uint256[]",
          "name": "newSupplyCaps",
          "type": "uint256[]"
        }
      ],
      "name": "_setMarketSupplyCaps",
      "outputs": [],
      "payable": false,
      "stateMutability": "nonpayable",
      "type": "function"
    },
    {
      "constant": false,
      "inputs": [
        {
          "internalType": "contract CToken",
          "name": "cToken",
          "type": "address"
        },
        {
          "internalType": "bool",
          "name": "state",
          "type": "bool"
        }
      ],
      "name": "_setMintPaused",
      "outputs": [
        {
          "internalType": "bool",
          "name": "",
          "type": "bool"
        }
      ],
      "payable": false,
      "stateMutability": "nonpayable",
      "type": "function"
    },
    {
      "constant": false,
      "inputs": [
        {
          "internalType": "address",
          "name": "newPauseGuardian",
          "type": "address"
        }
      ],
      "name": "_setPauseGuardian",
      "outputs": [
        {
          "internalType": "uint256",
          "name": "",
          "type": "uint256"
        }
      ],
      "payable": false,
      "stateMutability": "nonpayable",
      "type": "function"
    },
    {
      "constant": false,
      "inputs": [
        {
          "internalType": "contract PriceOracle",
          "name": "newOracle",
          "type": "address"
        }
      ],
      "name": "_setPriceOracle",
      "outputs": [
        {
          "internalType": "uint256",
          "name": "",
          "type": "uint256"
        }
      ],
      "payable": false,
      "stateMutability": "nonpayable",
      "type": "function"
    },
    {
      "constant": false,
      "inputs": [
        {
          "internalType": "bool",
          "name": "state",
          "type": "bool"
        }
      ],
      "name": "_setSeizePaused",
      "outputs": [
        {
          "internalType": "bool",
          "name": "",
          "type": "bool"
        }
      ],
      "payable": false,
      "stateMutability": "nonpayable",
      "type": "function"
    },
    {
      "constant": false,
      "inputs": [
        {
          "internalType": "address",
          "name": "newSupplyCapGuardian",
          "type": "address"
        }
      ],
      "name": "_setSupplyCapGuardian",
      "outputs": [],
      "payable": false,
      "stateMutability": "nonpayable",
      "type": "function"
    },
    {
      "constant": false,
      "inputs": [
        {
          "internalType": "bool",
          "name": "state",
          "type": "bool"
        }
      ],
      "name": "_setTransferPaused",
      "outputs": [
        {
          "internalType": "bool",
          "name": "",
          "type": "bool"
        }
      ],
      "payable": false,
      "stateMutability": "nonpayable",
      "type": "function"
    },
    {
      "constant": false,
      "inputs": [
        {
          "internalType": "contract CToken",
          "name": "cToken",
          "type": "address"
        },
        {
          "internalType": "enum ComptrollerV1Storage.Version",
          "name": "version",
          "type": "uint8"
        }
      ],
      "name": "_supportMarket",
      "outputs": [
        {
          "internalType": "uint256",
          "name": "",
          "type": "uint256"
        }
      ],
      "payable": false,
      "stateMutability": "nonpayable",
      "type": "function"
    },
    {
      "constant": true,
      "inputs": [
        {
          "internalType": "address",
          "name": "",
          "type": "address"
        },
        {
          "internalType": "uint256",
          "name": "",
          "type": "uint256"
        }
      ],
      "name": "accountAssets",
      "outputs": [
        {
          "internalType": "contract CToken",
          "name": "",
          "type": "address"
        }
      ],
      "payable": false,
      "stateMutability": "view",
      "type": "function"
    },
    {
      "constant": true,
      "inputs": [],
      "name": "admin",
      "outputs": [
        {
          "internalType": "address",
          "name": "",
          "type": "address"
        }
      ],
      "payable": false,
      "stateMutability": "view",
      "type": "function"
    },
    {
      "constant": true,
      "inputs": [
        {
          "internalType": "uint256",
          "name": "",
          "type": "uint256"
        }
      ],
      "name": "allMarkets",
      "outputs": [
        {
          "internalType": "contract CToken",
          "name": "",
          "type": "address"
        }
      ],
      "payable": false,
      "stateMutability": "view",
      "type": "function"
    },
    {
      "constant": false,
      "inputs": [
        {
          "internalType": "address",
          "name": "cToken",
          "type": "address"
        },
        {
          "internalType": "address",
          "name": "borrower",
          "type": "address"
        },
        {
          "internalType": "uint256",
          "name": "borrowAmount",
          "type": "uint256"
        }
      ],
      "name": "borrowAllowed",
      "outputs": [
        {
          "internalType": "uint256",
          "name": "",
          "type": "uint256"
        }
      ],
      "payable": false,
      "stateMutability": "nonpayable",
      "type": "function"
    },
    {
      "constant": true,
      "inputs": [],
      "name": "borrowCapGuardian",
      "outputs": [
        {
          "internalType": "address",
          "name": "",
          "type": "address"
        }
      ],
      "payable": false,
      "stateMutability": "view",
      "type": "function"
    },
    {
      "constant": true,
      "inputs": [
        {
          "internalType": "address",
          "name": "",
          "type": "address"
        }
      ],
      "name": "borrowCaps",
      "outputs": [
        {
          "internalType": "uint256",
          "name": "",
          "type": "uint256"
        }
      ],
      "payable": false,
      "stateMutability": "view",
      "type": "function"
    },
    {
      "constant": true,
      "inputs": [
        {
          "internalType": "address",
          "name": "",
          "type": "address"
        }
      ],
      "name": "borrowGuardianPaused",
      "outputs": [
        {
          "internalType": "bool",
          "name": "",
          "type": "bool"
        }
      ],
      "payable": false,
      "stateMutability": "view",
      "type": "function"
    },
    {
      "constant": false,
      "inputs": [
        {
          "internalType": "address",
          "name": "cToken",
          "type": "address"
        },
        {
          "internalType": "address",
          "name": "borrower",
          "type": "address"
        },
        {
          "internalType": "uint256",
          "name": "borrowAmount",
          "type": "uint256"
        }
      ],
      "name": "borrowVerify",
      "outputs": [],
      "payable": false,
      "stateMutability": "nonpayable",
      "type": "function"
    },
    {
      "constant": true,
      "inputs": [
        {
          "internalType": "address",
          "name": "account",
          "type": "address"
        },
        {
          "internalType": "contract CToken",
          "name": "cToken",
          "type": "address"
        }
      ],
      "name": "checkMembership",
      "outputs": [
        {
          "internalType": "bool",
          "name": "",
          "type": "bool"
        }
      ],
      "payable": false,
      "stateMutability": "view",
      "type": "function"
    },
    {
      "constant": true,
      "inputs": [],
      "name": "closeFactorMantissa",
      "outputs": [
        {
          "internalType": "uint256",
          "name": "",
          "type": "uint256"
        }
      ],
      "payable": false,
      "stateMutability": "view",
      "type": "function"
    },
    {
      "constant": true,
      "inputs": [
        {
          "internalType": "address",
          "name": "",
          "type": "address"
        }
      ],
      "name": "compAccrued",
      "outputs": [
        {
          "internalType": "uint256",
          "name": "",
          "type": "uint256"
        }
      ],
      "payable": false,
      "stateMutability": "view",
      "type": "function"
    },
    {
      "constant": true,
      "inputs": [
        {
          "internalType": "address",
          "name": "",
          "type": "address"
        }
      ],
      "name": "compBorrowState",
      "outputs": [
        {
          "internalType": "uint224",
          "name": "index",
          "type": "uint224"
        },
        {
          "internalType": "uint32",
          "name": "block",
          "type": "uint32"
        }
      ],
      "payable": false,
      "stateMutability": "view",
      "type": "function"
    },
    {
      "constant": true,
      "inputs": [
        {
          "internalType": "address",
          "name": "",
          "type": "address"
        },
        {
          "internalType": "address",
          "name": "",
          "type": "address"
        }
      ],
      "name": "compBorrowerIndex",
      "outputs": [
        {
          "internalType": "uint256",
          "name": "",
          "type": "uint256"
        }
      ],
      "payable": false,
      "stateMutability": "view",
      "type": "function"
    },
    {
      "constant": true,
      "inputs": [
        {
          "internalType": "address",
          "name": "",
          "type": "address"
        }
      ],
      "name": "compSpeeds",
      "outputs": [
        {
          "internalType": "uint256",
          "name": "",
          "type": "uint256"
        }
      ],
      "payable": false,
      "stateMutability": "view",
      "type": "function"
    },
    {
      "constant": true,
      "inputs": [
        {
          "internalType": "address",
          "name": "",
          "type": "address"
        },
        {
          "internalType": "address",
          "name": "",
          "type": "address"
        }
      ],
      "name": "compSupplierIndex",
      "outputs": [
        {
          "internalType": "uint256",
          "name": "",
          "type": "uint256"
        }
      ],
      "payable": false,
      "stateMutability": "view",
      "type": "function"
    },
    {
      "constant": true,
      "inputs": [
        {
          "internalType": "address",
          "name": "",
          "type": "address"
        }
      ],
      "name": "compSupplyState",
      "outputs": [
        {
          "internalType": "uint224",
          "name": "index",
          "type": "uint224"
        },
        {
          "internalType": "uint32",
          "name": "block",
          "type": "uint32"
        }
      ],
      "payable": false,
      "stateMutability": "view",
      "type": "function"
    },
    {
      "constant": true,
      "inputs": [],
      "name": "comptrollerImplementation",
      "outputs": [
        {
          "internalType": "address",
          "name": "",
          "type": "address"
        }
      ],
      "payable": false,
      "stateMutability": "view",
      "type": "function"
    },
    {
      "constant": true,
      "inputs": [
        {
          "internalType": "address",
          "name": "protocol",
          "type": "address"
        },
        {
          "internalType": "address",
          "name": "market",
          "type": "address"
        }
      ],
      "name": "creditLimits",
      "outputs": [
        {
          "internalType": "uint256",
          "name": "",
          "type": "uint256"
        }
      ],
      "payable": false,
      "stateMutability": "view",
      "type": "function"
    },
    {
      "constant": true,
      "inputs": [
        {
          "internalType": "address",
          "name": "protocol",
          "type": "address"
        }
      ],
      "name": "creditLimits",
      "outputs": [
        {
          "internalType": "uint256",
          "name": "",
          "type": "uint256"
        }
      ],
      "payable": false,
      "stateMutability": "view",
      "type": "function"
    },
    {
      "constant": false,
      "inputs": [
        {
          "internalType": "address[]",
          "name": "cTokens",
          "type": "address[]"
        }
      ],
      "name": "enterMarkets",
      "outputs": [
        {
          "internalType": "uint256[]",
          "name": "",
          "type": "uint256[]"
        }
      ],
      "payable": false,
      "stateMutability": "nonpayable",
      "type": "function"
    },
    {
      "constant": false,
      "inputs": [
        {
          "internalType": "address",
          "name": "cTokenAddress",
          "type": "address"
        }
      ],
      "name": "exitMarket",
      "outputs": [
        {
          "internalType": "uint256",
          "name": "",
          "type": "uint256"
        }
      ],
      "payable": false,
      "stateMutability": "nonpayable",
      "type": "function"
    },
    {
      "constant": true,
      "inputs": [
        {
          "internalType": "address",
          "name": "cToken",
          "type": "address"
        },
        {
          "internalType": "address",
          "name": "receiver",
          "type": "address"
        },
        {
          "internalType": "uint256",
          "name": "amount",
          "type": "uint256"
        },
        {
          "internalType": "bytes",
          "name": "params",
          "type": "bytes"
        }
      ],
      "name": "flashloanAllowed",
      "outputs": [
        {
          "internalType": "bool",
          "name": "",
          "type": "bool"
        }
      ],
      "payable": false,
      "stateMutability": "view",
      "type": "function"
    },
    {
      "constant": true,
      "inputs": [
        {
          "internalType": "address",
          "name": "",
          "type": "address"
        }
      ],
      "name": "flashloanGuardianPaused",
      "outputs": [
        {
          "internalType": "bool",
          "name": "",
          "type": "bool"
        }
      ],
      "payable": false,
      "stateMutability": "view",
      "type": "function"
    },
    {
      "constant": true,
      "inputs": [
        {
          "internalType": "address",
          "name": "account",
          "type": "address"
        }
      ],
      "name": "getAccountLiquidity",
      "outputs": [
        {
          "internalType": "uint256",
          "name": "",
          "type": "uint256"
        },
        {
          "internalType": "uint256",
          "name": "",
          "type": "uint256"
        },
        {
          "internalType": "uint256",
          "name": "",
          "type": "uint256"
        }
      ],
      "payable": false,
      "stateMutability": "view",
      "type": "function"
    },
    {
      "constant": true,
      "inputs": [],
      "name": "getAllMarkets",
      "outputs": [
        {
          "internalType": "contract CToken[]",
          "name": "",
          "type": "address[]"
        }
      ],
      "payable": false,
      "stateMutability": "view",
      "type": "function"
    },
    {
      "constant": true,
      "inputs": [
        {
          "internalType": "address",
          "name": "account",
          "type": "address"
        }
      ],
      "name": "getAssetsIn",
      "outputs": [
        {
          "internalType": "contract CToken[]",
          "name": "",
          "type": "address[]"
        }
      ],
      "payable": false,
      "stateMutability": "view",
      "type": "function"
    },
    {
      "constant": true,
      "inputs": [],
      "name": "getBlockNumber",
      "outputs": [
        {
          "internalType": "uint256",
          "name": "",
          "type": "uint256"
        }
      ],
      "payable": false,
      "stateMutability": "view",
      "type": "function"
    },
    {
      "constant": true,
      "inputs": [
        {
          "internalType": "address",
          "name": "account",
          "type": "address"
        },
        {
          "internalType": "address",
          "name": "cTokenModify",
          "type": "address"
        },
        {
          "internalType": "uint256",
          "name": "redeemTokens",
          "type": "uint256"
        },
        {
          "internalType": "uint256",
          "name": "borrowAmount",
          "type": "uint256"
        }
      ],
      "name": "getHypotheticalAccountLiquidity",
      "outputs": [
        {
          "internalType": "uint256",
          "name": "",
          "type": "uint256"
        },
        {
          "internalType": "uint256",
          "name": "",
          "type": "uint256"
        },
        {
          "internalType": "uint256",
          "name": "",
          "type": "uint256"
        }
      ],
      "payable": false,
      "stateMutability": "view",
      "type": "function"
    },
    {
      "constant": true,
      "inputs": [],
      "name": "isComptroller",
      "outputs": [
        {
          "internalType": "bool",
          "name": "",
          "type": "bool"
        }
      ],
      "payable": false,
      "stateMutability": "view",
      "type": "function"
    },
    {
      "constant": true,
      "inputs": [
        {
          "internalType": "address",
          "name": "account",
          "type": "address"
        },
        {
          "internalType": "address",
          "name": "cToken",
          "type": "address"
        }
      ],
      "name": "isCreditAccount",
      "outputs": [
        {
          "internalType": "bool",
          "name": "",
          "type": "bool"
        }
      ],
      "payable": false,
      "stateMutability": "view",
      "type": "function"
    },
    {
      "constant": true,
      "inputs": [
        {
          "internalType": "address",
          "name": "",
          "type": "address"
        }
      ],
      "name": "isMarkertDelisted",
      "outputs": [
        {
          "internalType": "bool",
          "name": "",
          "type": "bool"
        }
      ],
      "payable": false,
      "stateMutability": "view",
      "type": "function"
    },
    {
      "constant": true,
      "inputs": [
        {
          "internalType": "address",
          "name": "cTokenAddress",
          "type": "address"
        }
      ],
      "name": "isMarketListed",
      "outputs": [
        {
          "internalType": "bool",
          "name": "",
          "type": "bool"
        }
      ],
      "payable": false,
      "stateMutability": "view",
      "type": "function"
    },
    {
      "constant": false,
      "inputs": [
        {
          "internalType": "address",
          "name": "cTokenBorrowed",
          "type": "address"
        },
        {
          "internalType": "address",
          "name": "cTokenCollateral",
          "type": "address"
        },
        {
          "internalType": "address",
          "name": "liquidator",
          "type": "address"
        },
        {
          "internalType": "address",
          "name": "borrower",
          "type": "address"
        },
        {
          "internalType": "uint256",
          "name": "repayAmount",
          "type": "uint256"
        }
      ],
      "name": "liquidateBorrowAllowed",
      "outputs": [
        {
          "internalType": "uint256",
          "name": "",
          "type": "uint256"
        }
      ],
      "payable": false,
      "stateMutability": "nonpayable",
      "type": "function"
    },
    {
      "constant": false,
      "inputs": [
        {
          "internalType": "address",
          "name": "cTokenBorrowed",
          "type": "address"
        },
        {
          "internalType": "address",
          "name": "cTokenCollateral",
          "type": "address"
        },
        {
          "internalType": "address",
          "name": "liquidator",
          "type": "address"
        },
        {
          "internalType": "address",
          "name": "borrower",
          "type": "address"
        },
        {
          "internalType": "uint256",
          "name": "actualRepayAmount",
          "type": "uint256"
        },
        {
          "internalType": "uint256",
          "name": "seizeTokens",
          "type": "uint256"
        }
      ],
      "name": "liquidateBorrowVerify",
      "outputs": [],
      "payable": false,
      "stateMutability": "nonpayable",
      "type": "function"
    },
    {
      "constant": true,
      "inputs": [
        {
          "internalType": "address",
          "name": "cTokenBorrowed",
          "type": "address"
        },
        {
          "internalType": "address",
          "name": "cTokenCollateral",
          "type": "address"
        },
        {
          "internalType": "uint256",
          "name": "actualRepayAmount",
          "type": "uint256"
        }
      ],
      "name": "liquidateCalculateSeizeTokens",
      "outputs": [
        {
          "internalType": "uint256",
          "name": "",
          "type": "uint256"
        },
        {
          "internalType": "uint256",
          "name": "",
          "type": "uint256"
        }
      ],
      "payable": false,
      "stateMutability": "view",
      "type": "function"
    },
    {
      "constant": true,
      "inputs": [],
      "name": "liquidationIncentiveMantissa",
      "outputs": [
        {
          "internalType": "uint256",
          "name": "",
          "type": "uint256"
        }
      ],
      "payable": false,
      "stateMutability": "view",
      "type": "function"
    },
    {
      "constant": true,
      "inputs": [],
      "name": "liquidityMining",
      "outputs": [
        {
          "internalType": "address",
          "name": "",
          "type": "address"
        }
      ],
      "payable": false,
      "stateMutability": "view",
      "type": "function"
    },
    {
      "constant": true,
      "inputs": [
        {
          "internalType": "address",
          "name": "",
          "type": "address"
        }
      ],
      "name": "markets",
      "outputs": [
        {
          "internalType": "bool",
          "name": "isListed",
          "type": "bool"
        },
        {
          "internalType": "uint256",
          "name": "collateralFactorMantissa",
          "type": "uint256"
        },
        {
          "internalType": "enum ComptrollerV1Storage.Version",
          "name": "version",
          "type": "uint8"
        }
      ],
      "payable": false,
      "stateMutability": "view",
      "type": "function"
    },
    {
      "constant": false,
      "inputs": [
        {
          "internalType": "address",
          "name": "cToken",
          "type": "address"
        },
        {
          "internalType": "address",
          "name": "minter",
          "type": "address"
        },
        {
          "internalType": "uint256",
          "name": "mintAmount",
          "type": "uint256"
        }
      ],
      "name": "mintAllowed",
      "outputs": [
        {
          "internalType": "uint256",
          "name": "",
          "type": "uint256"
        }
      ],
      "payable": false,
      "stateMutability": "nonpayable",
      "type": "function"
    },
    {
      "constant": true,
      "inputs": [
        {
          "internalType": "address",
          "name": "",
          "type": "address"
        }
      ],
      "name": "mintGuardianPaused",
      "outputs": [
        {
          "internalType": "bool",
          "name": "",
          "type": "bool"
        }
      ],
      "payable": false,
      "stateMutability": "view",
      "type": "function"
    },
    {
      "constant": false,
      "inputs": [
        {
          "internalType": "address",
          "name": "cToken",
          "type": "address"
        },
        {
          "internalType": "address",
          "name": "minter",
          "type": "address"
        },
        {
          "internalType": "uint256",
          "name": "actualMintAmount",
          "type": "uint256"
        },
        {
          "internalType": "uint256",
          "name": "mintTokens",
          "type": "uint256"
        }
      ],
      "name": "mintVerify",
      "outputs": [],
      "payable": false,
      "stateMutability": "nonpayable",
      "type": "function"
    },
    {
      "constant": true,
      "inputs": [],
      "name": "oracle",
      "outputs": [
        {
          "internalType": "contract PriceOracle",
          "name": "",
          "type": "address"
        }
      ],
      "payable": false,
      "stateMutability": "view",
      "type": "function"
    },
    {
      "constant": true,
      "inputs": [],
      "name": "pauseGuardian",
      "outputs": [
        {
          "internalType": "address",
          "name": "",
          "type": "address"
        }
      ],
      "payable": false,
      "stateMutability": "view",
      "type": "function"
    },
    {
      "constant": true,
      "inputs": [],
      "name": "pendingAdmin",
      "outputs": [
        {
          "internalType": "address",
          "name": "",
          "type": "address"
        }
      ],
      "payable": false,
      "stateMutability": "view",
      "type": "function"
    },
    {
      "constant": true,
      "inputs": [],
      "name": "pendingComptrollerImplementation",
      "outputs": [
        {
          "internalType": "address",
          "name": "",
          "type": "address"
        }
      ],
      "payable": false,
      "stateMutability": "view",
      "type": "function"
    },
    {
      "constant": false,
      "inputs": [
        {
          "internalType": "address",
          "name": "cToken",
          "type": "address"
        },
        {
          "internalType": "address",
          "name": "redeemer",
          "type": "address"
        },
        {
          "internalType": "uint256",
          "name": "redeemTokens",
          "type": "uint256"
        }
      ],
      "name": "redeemAllowed",
      "outputs": [
        {
          "internalType": "uint256",
          "name": "",
          "type": "uint256"
        }
      ],
      "payable": false,
      "stateMutability": "nonpayable",
      "type": "function"
    },
    {
      "constant": false,
      "inputs": [
        {
          "internalType": "address",
          "name": "cToken",
          "type": "address"
        },
        {
          "internalType": "address",
          "name": "redeemer",
          "type": "address"
        },
        {
          "internalType": "uint256",
          "name": "redeemAmount",
          "type": "uint256"
        },
        {
          "internalType": "uint256",
          "name": "redeemTokens",
          "type": "uint256"
        }
      ],
      "name": "redeemVerify",
      "outputs": [],
      "payable": false,
      "stateMutability": "nonpayable",
      "type": "function"
    },
    {
      "constant": false,
      "inputs": [
        {
          "internalType": "address",
          "name": "cToken",
          "type": "address"
        },
        {
          "internalType": "address",
          "name": "payer",
          "type": "address"
        },
        {
          "internalType": "address",
          "name": "borrower",
          "type": "address"
        },
        {
          "internalType": "uint256",
          "name": "repayAmount",
          "type": "uint256"
        }
      ],
      "name": "repayBorrowAllowed",
      "outputs": [
        {
          "internalType": "uint256",
          "name": "",
          "type": "uint256"
        }
      ],
      "payable": false,
      "stateMutability": "nonpayable",
      "type": "function"
    },
    {
      "constant": false,
      "inputs": [
        {
          "internalType": "address",
          "name": "cToken",
          "type": "address"
        },
        {
          "internalType": "address",
          "name": "payer",
          "type": "address"
        },
        {
          "internalType": "address",
          "name": "borrower",
          "type": "address"
        },
        {
          "internalType": "uint256",
          "name": "actualRepayAmount",
          "type": "uint256"
        },
        {
          "internalType": "uint256",
          "name": "borrowerIndex",
          "type": "uint256"
        }
      ],
      "name": "repayBorrowVerify",
      "outputs": [],
      "payable": false,
      "stateMutability": "nonpayable",
      "type": "function"
    },
    {
      "constant": false,
      "inputs": [
        {
          "internalType": "address",
          "name": "cTokenCollateral",
          "type": "address"
        },
        {
          "internalType": "address",
          "name": "cTokenBorrowed",
          "type": "address"
        },
        {
          "internalType": "address",
          "name": "liquidator",
          "type": "address"
        },
        {
          "internalType": "address",
          "name": "borrower",
          "type": "address"
        },
        {
          "internalType": "uint256",
          "name": "seizeTokens",
          "type": "uint256"
        }
      ],
      "name": "seizeAllowed",
      "outputs": [
        {
          "internalType": "uint256",
          "name": "",
          "type": "uint256"
        }
      ],
      "payable": false,
      "stateMutability": "nonpayable",
      "type": "function"
    },
    {
      "constant": true,
      "inputs": [],
      "name": "seizeGuardianPaused",
      "outputs": [
        {
          "internalType": "bool",
          "name": "",
          "type": "bool"
        }
      ],
      "payable": false,
      "stateMutability": "view",
      "type": "function"
    },
    {
      "constant": false,
      "inputs": [
        {
          "internalType": "address",
          "name": "cTokenCollateral",
          "type": "address"
        },
        {
          "internalType": "address",
          "name": "cTokenBorrowed",
          "type": "address"
        },
        {
          "internalType": "address",
          "name": "liquidator",
          "type": "address"
        },
        {
          "internalType": "address",
          "name": "borrower",
          "type": "address"
        },
        {
          "internalType": "uint256",
          "name": "seizeTokens",
          "type": "uint256"
        }
      ],
      "name": "seizeVerify",
      "outputs": [],
      "payable": false,
      "stateMutability": "nonpayable",
      "type": "function"
    },
    {
      "constant": true,
      "inputs": [],
      "name": "supplyCapGuardian",
      "outputs": [
        {
          "internalType": "address",
          "name": "",
          "type": "address"
        }
      ],
      "payable": false,
      "stateMutability": "view",
      "type": "function"
    },
    {
      "constant": true,
      "inputs": [
        {
          "internalType": "address",
          "name": "",
          "type": "address"
        }
      ],
      "name": "supplyCaps",
      "outputs": [
        {
          "internalType": "uint256",
          "name": "",
          "type": "uint256"
        }
      ],
      "payable": false,
      "stateMutability": "view",
      "type": "function"
    },
    {
      "constant": false,
      "inputs": [
        {
          "internalType": "address",
          "name": "cToken",
          "type": "address"
        },
        {
          "internalType": "address",
          "name": "src",
          "type": "address"
        },
        {
          "internalType": "address",
          "name": "dst",
          "type": "address"
        },
        {
          "internalType": "uint256",
          "name": "transferTokens",
          "type": "uint256"
        }
      ],
      "name": "transferAllowed",
      "outputs": [
        {
          "internalType": "uint256",
          "name": "",
          "type": "uint256"
        }
      ],
      "payable": false,
      "stateMutability": "nonpayable",
      "type": "function"
    },
    {
      "constant": true,
      "inputs": [],
      "name": "transferGuardianPaused",
      "outputs": [
        {
          "internalType": "bool",
          "name": "",
          "type": "bool"
        }
      ],
      "payable": false,
      "stateMutability": "view",
      "type": "function"
    },
    {
      "constant": false,
      "inputs": [
        {
          "internalType": "address",
          "name": "cToken",
          "type": "address"
        },
        {
          "internalType": "address",
          "name": "src",
          "type": "address"
        },
        {
          "internalType": "address",
          "name": "dst",
          "type": "address"
        },
        {
          "internalType": "uint256",
          "name": "transferTokens",
          "type": "uint256"
        }
      ],
      "name": "transferVerify",
      "outputs": [],
      "payable": false,
      "stateMutability": "nonpayable",
      "type": "function"
    },
    {
      "constant": false,
      "inputs": [
        {
          "internalType": "address",
          "name": "cToken",
          "type": "address"
        },
        {
          "internalType": "enum ComptrollerV1Storage.Version",
          "name": "newVersion",
          "type": "uint8"
        }
      ],
      "name": "updateCTokenVersion",
      "outputs": [],
      "payable": false,
      "stateMutability": "nonpayable",
      "type": "function"
    }
  ],
  "transactionHash": "0x97fa311b8b98cbe6067a1143354c51d6d67a6afa1118571f693c3ff6418b05f8",
  "args": [],
  "solcInputHash": "c65136ab18c21117e4a03efdbaa30ddb",
  "bytecode": "0x608060405234801561001057600080fd5b50600080546001600160a01b0319163317905561594f80620000336000396000f3fe608060405234801561001057600080fd5b50600436106104745760003560e01c80636b79c38d11610257578063bdcdc25811610146578063dcfbc0c7116100c3578063ea95af2f11610087578063ea95af2f1461125e578063eabe7d9114611284578063ede4edd0146112ba578063f3497600146112e0578063f851a4401461130657610474565b8063dcfbc0c7146111f4578063e4028eee146111fc578063e6653f3d14611228578063e875544614611230578063ea5d01041461123857610474565b8063d02f73511161010a578063d02f7351146110f0578063d672d3e214611136578063d84f6aeb1461115c578063da3d454c14611192578063dce15449146111c857610474565b8063bdcdc25814610f70578063c299823814610fac578063c488847b1461104d578063ca0af0431461109c578063cc7ebdc4146110ca57610474565b8063929fe9a1116101d4578063b0772d0b11610198578063b0772d0b14610e76578063b1ab78e614610e7e578063b1e1af2414610f0c578063b21be7fd14610f3a578063bb82aa5e14610f6857610474565b8063929fe9a114610d9c57806399bc187314610dca578063a979f0c514610df0578063abfceffc14610df8578063ac0b0bb714610e6e57610474565b806385b2d5351161021b57806385b2d53514610ceb57806387f7630314610cf35780638c57804e14610cfb5780638e8f294b14610d215780638ebf636414610d7d57610474565b80636b79c38d14610c035780636d154ea514610c515780636d35bf9114610c77578063731f0c2b14610cbd5780637dc0d1d014610ce357610474565b80633d98a1e51161037357806351a485e4116102f05780635ec88c79116102b45780635ec88c7914610a775780635f5af1aa14610a9d5780635fc7e71e14610ac3578063607ef6c114610b095780636a56947e14610bc757610474565b806351a485e41461090457806351dff989146109c257806352d84d1e146109fe57806355ee1fe114610a1b5780635c77860514610a4157610474565b80634a584432116103375780634a584432146108295780634ada90af1461084f5780634e79238f146108575780634ef4c3e1146108b15780634fd42e17146108e757610474565b80633d98a1e51461074457806341c728b91461076a57806342cbb15c146107a657806344e3de73146107ae57806347ef3b3b146107dd57610474565b806324a3d6221161040157806338b8f4c3116103c557806338b8f4c314610694578063391957d7146106ba5780633b3af257146106e05780633bcf7ec11461070e5780633c94786f1461073c57610474565b806324a3d6221461061957806326782247146106215780632d70db7814610629578063317b0b771461064857806336bdd0871461066557610474565b80631d504dc6116104485780631d504dc6146105295780631d7b33d7146105515780631ededc911461057757806321af4569146105b957806324008a62146105dd57610474565b80627e3dd21461047957806302c3bcbb146104955780630445254d146104cd57806318c882a5146104fb575b600080fd5b61048161130e565b604080519115158252519081900360200190f35b6104bb600480360360208110156104ab57600080fd5b50356001600160a01b0316611313565b60408051918252519081900360200190f35b6104bb600480360360408110156104e357600080fd5b506001600160a01b0381358116916020013516611325565b6104816004803603604081101561051157600080fd5b506001600160a01b0381351690602001351515611352565b61054f6004803603602081101561053f57600080fd5b50356001600160a01b03166114e5565b005b6104bb6004803603602081101561056757600080fd5b50356001600160a01b0316611649565b61054f600480360360a081101561058d57600080fd5b506001600160a01b0381358116916020810135821691604082013516906060810135906080013561165b565b6105c1611662565b604080516001600160a01b039092168252519081900360200190f35b6104bb600480360360808110156105f357600080fd5b506001600160a01b03813581169160208101358216916040820135169060600135611671565b6105c1611847565b6105c1611856565b6104816004803603602081101561063f57600080fd5b50351515611865565b6104bb6004803603602081101561065e57600080fd5b50356119a2565b6104bb6004803603604081101561067b57600080fd5b5080356001600160a01b0316906020013560ff16611a15565b61054f600480360360208110156106aa57600080fd5b50356001600160a01b0316611bed565b61054f600480360360208110156106d057600080fd5b50356001600160a01b0316611c9c565b610481600480360360408110156106f657600080fd5b506001600160a01b0381358116916020013516611d4b565b6104816004803603604081101561072457600080fd5b506001600160a01b0381351690602001351515611d78565b610481611f09565b6104816004803603602081101561075a57600080fd5b50356001600160a01b0316611f19565b61054f6004803603608081101561078057600080fd5b506001600160a01b03813581169160208101359091169060408101359060600135611f37565b6104bb611f3d565b61054f600480360360408110156107c457600080fd5b5080356001600160a01b0316906020013560ff16611f42565b61054f600480360360c08110156107f357600080fd5b506001600160a01b0381358116916020810135821691604082013581169160608101359091169060808101359060a00135612051565b6104bb6004803603602081101561083f57600080fd5b50356001600160a01b0316612059565b6104bb61206b565b6108936004803603608081101561086d57600080fd5b506001600160a01b03813581169160208101359091169060408101359060600135612071565b60408051938452602084019290925282820152519081900360600190f35b6104bb600480360360608110156108c757600080fd5b506001600160a01b038135811691602081013590911690604001356120ab565b6104bb600480360360208110156108fd57600080fd5b50356124f7565b61054f6004803603604081101561091a57600080fd5b810190602081018135600160201b81111561093457600080fd5b82018360208201111561094657600080fd5b803590602001918460208302840111600160201b8311171561096757600080fd5b919390929091602081019035600160201b81111561098457600080fd5b82018360208201111561099657600080fd5b803590602001918460208302840111600160201b831117156109b757600080fd5b509092509050612560565b61054f600480360360808110156109d857600080fd5b506001600160a01b038135811691602081013590911690604081013590606001356126f0565b6105c160048036036020811015610a1457600080fd5b5035612744565b6104bb60048036036020811015610a3157600080fd5b50356001600160a01b031661276b565b61054f60048036036060811015610a5757600080fd5b506001600160a01b038135811691602081013590911690604001356127f0565b61089360048036036020811015610a8d57600080fd5b50356001600160a01b03166127f5565b6104bb60048036036020811015610ab357600080fd5b50356001600160a01b031661282a565b6104bb600480360360a0811015610ad957600080fd5b506001600160a01b03813581169160208101358216916040820135811691606081013590911690608001356128ae565b61054f60048036036040811015610b1f57600080fd5b810190602081018135600160201b811115610b3957600080fd5b820183602082011115610b4b57600080fd5b803590602001918460208302840111600160201b83111715610b6c57600080fd5b919390929091602081019035600160201b811115610b8957600080fd5b820183602082011115610b9b57600080fd5b803590602001918460208302840111600160201b83111715610bbc57600080fd5b509092509050612af1565b61054f60048036036080811015610bdd57600080fd5b506001600160a01b03813581169160208101358216916040820135169060600135611f37565b610c2960048036036020811015610c1957600080fd5b50356001600160a01b0316612c78565b604080516001600160e01b03909316835263ffffffff90911660208301528051918290030190f35b61048160048036036020811015610c6757600080fd5b50356001600160a01b0316612ca2565b61054f600480360360a0811015610c8d57600080fd5b506001600160a01b038135811691602081013582169160408201358116916060810135909116906080013561165b565b61048160048036036020811015610cd357600080fd5b50356001600160a01b0316612cb7565b6105c1612ccc565b6105c1612cdb565b610481612cea565b610c2960048036036020811015610d1157600080fd5b50356001600160a01b0316612cfa565b610d4760048036036020811015610d3757600080fd5b50356001600160a01b0316612d24565b6040518084151515158152602001838152602001826002811115610d6757fe5b60ff168152602001935050505060405180910390f35b61048160048036036020811015610d9357600080fd5b50351515612d4a565b61048160048036036040811015610db257600080fd5b506001600160a01b0381358116916020013516612e86565b6104bb60048036036020811015610de057600080fd5b50356001600160a01b0316612eb9565b6105c1612ebf565b610e1e60048036036020811015610e0e57600080fd5b50356001600160a01b0316612ece565b60408051602080825283518183015283519192839290830191858101910280838360005b83811015610e5a578181015183820152602001610e42565b505050509050019250505060405180910390f35b610481612f57565b610e1e612f67565b61048160048036036080811015610e9457600080fd5b6001600160a01b03823581169260208101359091169160408201359190810190608081016060820135600160201b811115610ece57600080fd5b820183602082011115610ee057600080fd5b803590602001918460018302840111600160201b83111715610f0157600080fd5b509092509050612fc9565b61048160048036036040811015610f2257600080fd5b506001600160a01b0381351690602001351515612fec565b6104bb60048036036040811015610f5057600080fd5b506001600160a01b0381358116916020013516613182565b6105c161319f565b6104bb60048036036080811015610f8657600080fd5b506001600160a01b038135811691602081013582169160408201351690606001356131ae565b610e1e60048036036020811015610fc257600080fd5b810190602081018135600160201b811115610fdc57600080fd5b820183602082011115610fee57600080fd5b803590602001918460208302840111600160201b8311171561100f57600080fd5b91908080602002602001604051908101604052809392919081815260200183836020028082843760009201919091525092955061339d945050505050565b6110836004803603606081101561106357600080fd5b506001600160a01b03813581169160208101359091169060400135613434565b6040805192835260208301919091528051918290030190f35b6104bb600480360360408110156110b257600080fd5b506001600160a01b038135811691602001351661368a565b6104bb600480360360208110156110e057600080fd5b50356001600160a01b03166136a7565b6104bb600480360360a081101561110657600080fd5b506001600160a01b03813581169160208101358216916040820135811691606081013590911690608001356136b9565b6104816004803603602081101561114c57600080fd5b50356001600160a01b0316613929565b61054f6004803603606081101561117257600080fd5b506001600160a01b0381358116916020810135909116906040013561393e565b6104bb600480360360608110156111a857600080fd5b506001600160a01b03813581169160208101359091169060400135613a40565b6105c1600480360360408110156111de57600080fd5b506001600160a01b038135169060200135614093565b6105c16140c8565b6104bb6004803603604081101561121257600080fd5b506001600160a01b0381351690602001356140d7565b610481614287565b6104bb614297565b61054f6004803603602081101561124e57600080fd5b50356001600160a01b031661429d565b6104816004803603602081101561127457600080fd5b50356001600160a01b031661440c565b6104bb6004803603606081101561129a57600080fd5b506001600160a01b03813581169160208101359091169060400135614421565b6104bb600480360360208110156112d057600080fd5b50356001600160a01b031661443e565b61054f600480360360208110156112f657600080fd5b50356001600160a01b0316614833565b6105c1614b04565b600181565b60166020526000908152604090205481565b6001600160a01b038083166000908152601a60209081526040808320938516835292905220545b92915050565b600061135d83611f19565b61139c576040805162461bcd60e51b815260206004820152601160248201526000805160206158ae833981519152604482015290519081900360640190fd5b6009546001600160a01b03163314806113bf57506000546001600160a01b031633145b611409576040805162461bcd60e51b8152602060048201526016602482015275677561726469616e206f722061646d696e206f6e6c7960501b604482015290519081900360640190fd5b6000546001600160a01b031633148061142457506001821515145b611462576040805162461bcd60e51b815260206004820152600a60248201526961646d696e206f6e6c7960b01b604482015290519081900360640190fd5b6001600160a01b0383166000818152600b6020908152604091829020805486151560ff199091168117909155825193845283830152606090830181905260069083015265426f72726f7760d01b6080830152517f71aec636243f9709bb0007ae15e9afb8150ab01716d75fd7573be5cc096e03b09181900360a00190a150919050565b806001600160a01b031663f851a4406040518163ffffffff1660e01b815260040160206040518083038186803b15801561151e57600080fd5b505afa158015611532573d6000803e3d6000fd5b505050506040513d602081101561154857600080fd5b50516001600160a01b0316331461159e576040805162461bcd60e51b8152602060048201526015602482015274756e6974726f6c6c65722061646d696e206f6e6c7960581b604482015290519081900360640190fd5b806001600160a01b031663c1e803346040518163ffffffff1660e01b8152600401602060405180830381600087803b1580156115d957600080fd5b505af11580156115ed573d6000803e3d6000fd5b505050506040513d602081101561160357600080fd5b505115611646576040805162461bcd60e51b815260206004820152600c60248201526b1d5b985d5d1a1bdc9a5e995960a21b604482015290519081900360640190fd5b50565b600d6020526000908152604090205481565b5050505050565b6013546001600160a01b031681565b600061167c85611f19565b8061169f57506001600160a01b0385166000908152601b602052604090205460ff165b6116de576040805162461bcd60e51b815260206004820152601160248201526000805160206158ae833981519152604482015290519081900360640190fd5b6116e88386611d4b565b1561173d57836001600160a01b0316836001600160a01b03161461173d5760405162461bcd60e51b81526004018080602001828103825260288152602001806158f36028913960400191505060405180910390fd5b6019546001600160a01b03161561183b5760408051600180825281830190925260609160208083019080388339019050509050838160008151811061177e57fe5b6001600160a01b03928316602091820292909201810191909152601954604080516371e760d160e11b81528a85166004820190815260248201928352865160448301528651939095169463e3cec1a2948c948894929360640191858101910280838360005b838110156117fb5781810151838201526020016117e3565b505050509050019350505050600060405180830381600087803b15801561182157600080fd5b505af1158015611835573d6000803e3d6000fd5b50505050505b5060005b949350505050565b6009546001600160a01b031681565b6001546001600160a01b031681565b6009546000906001600160a01b031633148061188b57506000546001600160a01b031633145b6118d5576040805162461bcd60e51b8152602060048201526016602482015275677561726469616e206f722061646d696e206f6e6c7960501b604482015290519081900360640190fd5b6000546001600160a01b03163314806118f057506001821515145b61192e576040805162461bcd60e51b815260206004820152600a60248201526961646d696e206f6e6c7960b01b604482015290519081900360640190fd5b60098054831515600160b81b810260ff60b81b1990921691909117909155604080516020810192909252808252600582820152645365697a6560d81b6060830152517fef159d9a32b2472e32b098f954f3ce62d232939f1c207070b584df1814de2de09181900360800190a150805b919050565b600080546001600160a01b031633146119c8576119c160016004614b13565b905061199d565b6005805490839055604080518281526020810185905281517f3b9670cf975d26958e754b57098eaa2ac914d8d2a31b83257997b9f346110fd9929181900390910190a160005b9392505050565b600080546001600160a01b03163314611a62576040805162461bcd60e51b815260206004820152600a60248201526961646d696e206f6e6c7960b01b604482015290519081900360640190fd5b611a6b83611f19565b15611ab5576040805162461bcd60e51b81526020600482015260156024820152741b585c9ad95d08185b1c9958591e481b1a5cdd1959605a1b604482015290519081900360640190fd5b826001600160a01b031663fe9c44ae6040518163ffffffff1660e01b815260040160206040518083038186803b158015611aee57600080fd5b505afa158015611b02573d6000803e3d6000fd5b505050506040513d6020811015611b1857600080fd5b5050604080516060810182526001815260006020820152908101836002811115611b3e57fe5b90526001600160a01b0384166000908152600860209081526040918290208351815490151560ff1991821617825591840151600180830191909155928401516003820180549294919390921690836002811115611b9757fe5b0217905550905050611ba883614b79565b604080516001600160a01b038516815290517fcf583bb0c569eb967f806b11601c4cb93c10310485c67add5f8362c2f212321f9181900360200190a160009392505050565b6000546001600160a01b03163314611c39576040805162461bcd60e51b815260206004820152600a60248201526961646d696e206f6e6c7960b01b604482015290519081900360640190fd5b601580546001600160a01b038381166001600160a01b0319831681179093556040805191909216808252602082019390935281517fb0d3622c24ac9bd967d8f37a25808b3e668fe7ed4f3075bbe82842d3e287c044929181900390910190a15050565b6000546001600160a01b03163314611ce8576040805162461bcd60e51b815260206004820152600a60248201526961646d696e206f6e6c7960b01b604482015290519081900360640190fd5b601380546001600160a01b038381166001600160a01b0319831681179093556040805191909216808252602082019390935281517feda98690e518e9a05f8ec6837663e188211b2da8f4906648b323f2c1d4434e29929181900390910190a15050565b6001600160a01b039182166000908152601a60209081526040808320939094168252919091522054151590565b6000611d8383611f19565b611dc2576040805162461bcd60e51b815260206004820152601160248201526000805160206158ae833981519152604482015290519081900360640190fd5b6009546001600160a01b0316331480611de557506000546001600160a01b031633145b611e2f576040805162461bcd60e51b8152602060048201526016602482015275677561726469616e206f722061646d696e206f6e6c7960501b604482015290519081900360640190fd5b6000546001600160a01b0316331480611e4a57506001821515145b611e88576040805162461bcd60e51b815260206004820152600a60248201526961646d696e206f6e6c7960b01b604482015290519081900360640190fd5b6001600160a01b0383166000818152600a6020908152604091829020805486151560ff199091168117909155825193845283830152606090830181905260049083015263135a5b9d60e21b6080830152517f71aec636243f9709bb0007ae15e9afb8150ab01716d75fd7573be5cc096e03b09181900360a00190a150919050565b600954600160a01b900460ff1681565b6001600160a01b031660009081526008602052604090205460ff1690565b50505050565b425b90565b336001600160a01b03831614611f8d576040805162461bcd60e51b815260206004820152600b60248201526a63546f6b656e206f6e6c7960a81b604482015290519081900360640190fd5b611f9682611f19565b1561204d576001600160a01b0382166000908152600860205260409020600301805460ff811691839160ff19166001836002811115611fd157fe5b02179055507f98dee10aa964316ab03f317c320c9dafb4f29c7f9de510cb35196f727a4d2f0383828460405180846001600160a01b03166001600160a01b0316815260200183600281111561202257fe5b60ff16815260200182600281111561203657fe5b60ff168152602001935050505060405180910390a1505b5050565b505050505050565b60146020526000908152604090205481565b60065481565b6000806000806000806120868a8a8a8a614c57565b92509250925082601181111561209857fe5b95509093509150505b9450945094915050565b6001600160a01b0383166000908152600a602052604081205460ff161561210a576040805162461bcd60e51b815260206004820152600e60248201526d1b5a5b9d081a5cc81c185d5cd95960921b604482015290519081900360640190fd5b6121148385611d4b565b15612166576040805162461bcd60e51b815260206004820152601a60248201527f637265646974206163636f756e742063616e6e6f74206d696e74000000000000604482015290519081900360640190fd5b61216f84611f19565b6121ae576040805162461bcd60e51b815260206004820152601160248201526000805160206158ae833981519152604482015290519081900360640190fd5b6001600160a01b03841660009081526016602052604090205480156123ed576000856001600160a01b0316633b1d21a26040518163ffffffff1660e01b815260040160206040518083038186803b15801561220857600080fd5b505afa15801561221c573d6000803e3d6000fd5b505050506040513d602081101561223257600080fd5b5051604080516308f7a6e360e31b815290519192506000916001600160a01b038916916347bd3718916004808301926020929190829003018186803b15801561227a57600080fd5b505afa15801561228e573d6000803e3d6000fd5b505050506040513d60208110156122a457600080fd5b505160408051638f840ddd60e01b815290519192506000916001600160a01b038a1691638f840ddd916004808301926020929190829003018186803b1580156122ec57600080fd5b505afa158015612300573d6000803e3d6000fd5b505050506040513d602081101561231657600080fd5b5051905060008061232885858561502d565b9092509050600082600381111561233b57fe5b14612384576040805162461bcd60e51b81526020600482015260146024820152731d1bdd185b14dd5c1c1b1a595cc819985a5b195960621b604482015290519081900360640190fd5b6000612390828a615079565b90508681106123e6576040805162461bcd60e51b815260206004820152601960248201527f6d61726b657420737570706c7920636170207265616368656400000000000000604482015290519081900360640190fd5b5050505050505b6019546001600160a01b0316156124eb5760408051600180825281830190925260609160208083019080388339019050509050848160008151811061242e57fe5b6001600160a01b039283166020918202929092018101919091526019546040805163491172b960e11b81528a851660048201908152602482019283528651604483015286519390951694639222e572948c948894929360640191858101910280838360005b838110156124ab578181015183820152602001612493565b505050509050019350505050600060405180830381600087803b1580156124d157600080fd5b505af11580156124e5573d6000803e3d6000fd5b50505050505b60005b95945050505050565b600080546001600160a01b03163314612516576119c16001600b614b13565b6006805490839055604080518281526020810185905281517faeba5a6c40a8ac138134bff1aaa65debf25971188a58804bad717f82f0ec1316929181900390910190a16000611a0e565b6000546001600160a01b031633148061258357506015546001600160a01b031633145b6125be5760405162461bcd60e51b815260040180806020018281038252602181526020018061588d6021913960400191505060405180910390fd5b828181158015906125ce57508082145b61260f576040805162461bcd60e51b815260206004820152600d60248201526c1a5b9d985b1a59081a5b9c1d5d609a1b604482015290519081900360640190fd5b60005b828110156126e75784848281811061262657fe5b905060200201356016600089898581811061263d57fe5b905060200201356001600160a01b03166001600160a01b03166001600160a01b031681526020019081526020016000208190555086868281811061267d57fe5b905060200201356001600160a01b03166001600160a01b03167f9e0ad9cee10bdf36b7fbd38910c0bdff0f275ace679b45b922381c2723d676f88686848181106126c357fe5b905060200201356040518082815260200191505060405180910390a2600101612612565b50505050505050565b801580156126fe5750600082115b15611f37576040805162461bcd60e51b815260206004820152601160248201527072656465656d546f6b656e73207a65726f60781b604482015290519081900360640190fd5b600c818154811061275157fe5b6000918252602090912001546001600160a01b0316905081565b600080546001600160a01b0316331461278a576119c160016010614b13565b600480546001600160a01b038481166001600160a01b0319831681179093556040805191909216808252602082019390935281517fd52b2b9b7e9ee655fcb95d2e5b9e0c9f69e7ef2b8e9d2d0ea78402d576d22e22929181900390910190a16000611a0e565b505050565b60008060008060008061280c876000806000614c57565b92509250925082601181111561281e57fe5b97919650945092505050565b600080546001600160a01b03163314612849576119c160016013614b13565b600980546001600160a01b038481166001600160a01b0319831617928390556040805192821680845293909116602083015280517f0613b6ee6a04f0d09f390e4d9318894b9f6ac7fd83897cd8d18896ba579c401e9281900390910190a16000611a0e565b60006128ba8387611d4b565b1561290c576040805162461bcd60e51b815260206004820152601f60248201527f63616e6e6f74206c697175696461746520637265646974206163636f756e7400604482015290519081900360640190fd5b61291586611f19565b8015612925575061292585611f19565b612964576040805162461bcd60e51b815260206004820152601160248201526000805160206158ae833981519152604482015290519081900360640190fd5b600080612970856150af565b9193509091506000905082601181111561298657fe5b146129d8576040805162461bcd60e51b815260206004820152601f60248201527f6661696c656420746f20676574206163636f756e74206c697175696469747900604482015290519081900360640190fd5b60008111612a26576040805162461bcd60e51b81526020600482015260166024820152751a5b9cdd59999a58da595b9d081cda1bdc9d19985b1b60521b604482015290519081900360640190fd5b6000886001600160a01b03166395dd9193876040518263ffffffff1660e01b815260040180826001600160a01b03166001600160a01b0316815260200191505060206040518083038186803b158015612a7e57600080fd5b505afa158015612a92573d6000803e3d6000fd5b505050506040513d6020811015612aa857600080fd5b505160408051602081019091526005548152909150600090612aca90836150cf565b905080861115612ae15760119450505050506124ee565b5060009998505050505050505050565b6000546001600160a01b0316331480612b1457506013546001600160a01b031633145b612b4f5760405162461bcd60e51b81526004018080602001828103825260218152602001806158496021913960400191505060405180910390fd5b82818115801590612b5f57508082145b612ba0576040805162461bcd60e51b815260206004820152600d60248201526c1a5b9d985b1a59081a5b9c1d5d609a1b604482015290519081900360640190fd5b60005b828110156126e757848482818110612bb757fe5b9050602002013560146000898985818110612bce57fe5b905060200201356001600160a01b03166001600160a01b03166001600160a01b0316815260200190815260200160002081905550868682818110612c0e57fe5b905060200201356001600160a01b03166001600160a01b03167f6f1951b2aad10f3fc81b86d91105b413a5b3f847a34bbc5ce1904201b14438f6868684818110612c5457fe5b905060200201356040518082815260200191505060405180910390a2600101612ba3565b600e602052600090815260409020546001600160e01b03811690600160e01b900463ffffffff1682565b600b6020526000908152604090205460ff1681565b600a6020526000908152604090205460ff1681565b6004546001600160a01b031681565b6019546001600160a01b031681565b600954600160b01b900460ff1681565b600f602052600090815260409020546001600160e01b03811690600160e01b900463ffffffff1682565b60086020526000908152604090208054600182015460039092015460ff91821692911683565b6009546000906001600160a01b0316331480612d7057506000546001600160a01b031633145b612dba576040805162461bcd60e51b8152602060048201526016602482015275677561726469616e206f722061646d696e206f6e6c7960501b604482015290519081900360640190fd5b6000546001600160a01b0316331480612dd557506001821515145b612e13576040805162461bcd60e51b815260206004820152600a60248201526961646d696e206f6e6c7960b01b604482015290519081900360640190fd5b60098054831515600160b01b810260ff60b01b1990921691909117909155604080516020810192909252808252600882820152672a3930b739b332b960c11b6060830152517fef159d9a32b2472e32b098f954f3ce62d232939f1c207070b584df1814de2de09181900360800190a15090565b6001600160a01b038082166000908152600860209081526040808320938616835260029093019052205460ff1692915050565b50600090565b6015546001600160a01b031681565b60608060076000846001600160a01b03166001600160a01b03168152602001908152602001600020805480602002602001604051908101604052809291908181526020018280548015612f4a57602002820191906000526020600020905b81546001600160a01b03168152600190910190602001808311612f2c575b5093979650505050505050565b600954600160b81b900460ff1681565b6060600c805480602002602001604051908101604052809291908181526020018280548015612fbf57602002820191906000526020600020905b81546001600160a01b03168152600190910190602001808311612fa1575b5050505050905090565b505050506001600160a01b031660009081526018602052604090205460ff161590565b6000612ff783611f19565b613036576040805162461bcd60e51b815260206004820152601160248201526000805160206158ae833981519152604482015290519081900360640190fd5b6009546001600160a01b031633148061305957506000546001600160a01b031633145b6130a3576040805162461bcd60e51b8152602060048201526016602482015275677561726469616e206f722061646d696e206f6e6c7960501b604482015290519081900360640190fd5b6000546001600160a01b03163314806130be57506001821515145b6130fc576040805162461bcd60e51b815260206004820152600a60248201526961646d696e206f6e6c7960b01b604482015290519081900360640190fd5b6001600160a01b038316600081815260186020908152604091829020805486151560ff199091168117909155825193845283830152606090830181905260099083015268233630b9b43637b0b760b91b6080830152517f71aec636243f9709bb0007ae15e9afb8150ab01716d75fd7573be5cc096e03b09181900360a00190a150919050565b601060209081526000928352604080842090915290825290205481565b6002546001600160a01b031681565b600954600090600160b01b900460ff1615613205576040805162461bcd60e51b81526020600482015260126024820152711d1c985b9cd9995c881a5cc81c185d5cd95960721b604482015290519081900360640190fd5b61320f8386611d4b565b1561324b5760405162461bcd60e51b815260040180806020018281038252602381526020018061586a6023913960400191505060405180910390fd5b60006132588686856150ee565b9050801561326757905061183f565b6019546001600160a01b03161561339157604080516002808252606080830184529260208301908038833901905050905085816000815181106132a657fe5b60200260200101906001600160a01b031690816001600160a01b03168152505084816001815181106132d457fe5b6001600160a01b039283166020918202929092018101919091526019546040805163491172b960e11b81528b851660048201908152602482019283528651604483015286519390951694639222e572948d948894929360640191858101910280838360005b83811015613351578181015183820152602001613339565b505050509050019350505050600060405180830381600087803b15801561337757600080fd5b505af115801561338b573d6000803e3d6000fd5b50505050505b60009695505050505050565b60606000825190506060816040519080825280602002602001820160405280156133d1578160200160208202803883390190505b50905060005b8281101561342c5760008582815181106133ed57fe5b6020026020010151905061340181336152b4565b601181111561340c57fe5b83838151811061341857fe5b6020908102919091010152506001016133d7565b509392505050565b600480546040805163fc57d4df60e01b81526001600160a01b038781169482019490945290516000938493849391169163fc57d4df91602480820192602092909190829003018186803b15801561348a57600080fd5b505afa15801561349e573d6000803e3d6000fd5b505050506040513d60208110156134b457600080fd5b5051600480546040805163fc57d4df60e01b81526001600160a01b038a8116948201949094529051939450600093929091169163fc57d4df91602480820192602092909190829003018186803b15801561350d57600080fd5b505afa158015613521573d6000803e3d6000fd5b505050506040513d602081101561353757600080fd5b50519050811580159061354a5750600081115b613589576040805162461bcd60e51b815260206004820152600b60248201526a383934b1b29032b93937b960a91b604482015290519081900360640190fd5b6000866001600160a01b031663182df0f56040518163ffffffff1660e01b815260040160206040518083038186803b1580156135c457600080fd5b505afa1580156135d8573d6000803e3d6000fd5b505050506040513d60208110156135ee57600080fd5b505190506135fa615789565b613622604051806020016040528060065481525060405180602001604052808781525061547b565b905061362c615789565b61365260405180602001604052808681525060405180602001604052808681525061547b565b905061365c615789565b61366683836154ba565b90506000613674828b6150cf565b600099509750505050505050505b935093915050565b601160209081526000928352604080842090915290825290205481565b60126020526000908152604090205481565b600954600090600160b81b900460ff161561370d576040805162461bcd60e51b815260206004820152600f60248201526e1cd95a5e99481a5cc81c185d5cd959608a1b604482015290519081900360640190fd5b6137178386611d4b565b15613769576040805162461bcd60e51b815260206004820181905260248201527f63616e6e6f74207369657a652066726f6d20637265646974206163636f756e74604482015290519081900360640190fd5b61377285611f19565b8015613782575061378286611f19565b6137c1576040805162461bcd60e51b815260206004820152601160248201526000805160206158ae833981519152604482015290519081900360640190fd5b846001600160a01b0316635fe3b5676040518163ffffffff1660e01b815260040160206040518083038186803b1580156137fa57600080fd5b505afa15801561380e573d6000803e3d6000fd5b505050506040513d602081101561382457600080fd5b505160408051635fe3b56760e01b815290516001600160a01b0392831692891691635fe3b567916004808301926020929190829003018186803b15801561386a57600080fd5b505afa15801561387e573d6000803e3d6000fd5b505050506040513d602081101561389457600080fd5b50516001600160a01b0316146138ea576040805162461bcd60e51b815260206004820152601660248201527518dbdb5c1d1c9bdb1b195c881b5a5cdb585d18da195960521b604482015290519081900360640190fd5b6019546001600160a01b03161561339157604080516002808252606080830184529260208301908038833901905050905083816000815181106132a657fe5b60186020526000908152604090205460ff1681565b6000546001600160a01b0316331461398a576040805162461bcd60e51b815260206004820152600a60248201526961646d696e206f6e6c7960b01b604482015290519081900360640190fd5b61399382611f19565b6139d2576040805162461bcd60e51b815260206004820152601160248201526000805160206158ae833981519152604482015290519081900360640190fd5b6001600160a01b038084166000818152601a6020908152604080832094871680845294825291829020859055815192835282019290925280820183905290517fd2430896b2083037d8bf873ee97e05de0442c7137b4c9413b9e928f7212869e99181900360600190a1505050565b6001600160a01b0383166000908152600b602052604081205460ff1615613aa1576040805162461bcd60e51b815260206004820152601060248201526f189bdc9c9bddc81a5cc81c185d5cd95960821b604482015290519081900360640190fd5b613aaa84611f19565b613ae9576040805162461bcd60e51b815260206004820152601160248201526000805160206158ae833981519152604482015290519081900360640190fd5b6001600160a01b038085166000908152600860209081526040808320938716835260029093019052205460ff16613c0257336001600160a01b03851614613b6f576040805162461bcd60e51b815260206004820152601560248201527439b2b73232b91036bab9ba1031329031aa37b5b2b760591b604482015290519081900360640190fd5b6000613b7b85856152b4565b6011811115613b8657fe5b14613bcf576040805162461bcd60e51b815260206004820152601460248201527319985a5b1959081d1bc8185919081b585c9ad95d60621b604482015290519081900360640190fd5b6001600160a01b038085166000908152600860209081526040808320938716835260029093019052205460ff16613c0257fe5b600480546040805163fc57d4df60e01b81526001600160a01b03888116948201949094529051929091169163fc57d4df91602480820192602092909190829003018186803b158015613c5357600080fd5b505afa158015613c67573d6000803e3d6000fd5b505050506040513d6020811015613c7d57600080fd5b5051613cbe576040805162461bcd60e51b815260206004820152600b60248201526a383934b1b29032b93937b960a91b604482015290519081900360640190fd5b6001600160a01b0384166000908152601460205260409020548015613dab576000856001600160a01b03166347bd37186040518163ffffffff1660e01b815260040160206040518083038186803b158015613d1857600080fd5b505afa158015613d2c573d6000803e3d6000fd5b505050506040513d6020811015613d4257600080fd5b505190506000613d528286615079565b9050828110613da8576040805162461bcd60e51b815260206004820152601960248201527f6d61726b657420626f72726f7720636170207265616368656400000000000000604482015290519081900360640190fd5b50505b6001600160a01b038085166000908152601a60209081526040808320938916835292905220548015613f1157600080876001600160a01b031663c37f68e2886040518263ffffffff1660e01b815260040180826001600160a01b03166001600160a01b0316815260200191505060806040518083038186803b158015613e3057600080fd5b505afa158015613e44573d6000803e3d6000fd5b505050506040513d6080811015613e5a57600080fd5b50805160409091015190925090508115613eac576040805162461bcd60e51b815260206004820152600e60248201526d39b730b839b437ba1032b93937b960911b604482015290519081900360640190fd5b613eb68187615079565b831015613f0a576040805162461bcd60e51b815260206004820152601960248201527f696e73756666696369656e7420637265646974206c696d697400000000000000604482015290519081900360640190fd5b5050613fd8565b600080613f218789600089614c57565b91935090915060009050826011811115613f3757fe5b14613f89576040805162461bcd60e51b815260206004820152601f60248201527f6661696c656420746f20676574206163636f756e74206c697175696469747900604482015290519081900360640190fd5b8015613fd5576040805162461bcd60e51b8152602060048201526016602482015275696e73756666696369656e74206c697175696469747960501b604482015290519081900360640190fd5b50505b6019546001600160a01b0316156133915760408051600180825281830190925260609160208083019080388339019050509050858160008151811061401957fe5b6001600160a01b03928316602091820292909201810191909152601954604080516371e760d160e11b81528b85166004820190815260248201928352865160448301528651939095169463e3cec1a2948d948894929360640191858101910280838360008315613351578181015183820152602001613339565b600760205281600052604060002081815481106140ac57fe5b6000918252602090912001546001600160a01b03169150829050565b6003546001600160a01b031681565b600080546001600160a01b031633146140fd576140f660016006614b13565b905061134c565b6001600160a01b0383166000908152600860205260409020805460ff166141325761412a60096007614b13565b91505061134c565b61413a615789565b506040805160208101909152838152614151615789565b506040805160208101909152670c7d713b49da0000815261417281836154f6565b1561418d5761418360066008614b13565b935050505061134c565b84158015906142165750600480546040805163fc57d4df60e01b81526001600160a01b038a8116948201949094529051929091169163fc57d4df91602480820192602092909190829003018186803b1580156141e857600080fd5b505afa1580156141fc573d6000803e3d6000fd5b505050506040513d602081101561421257600080fd5b5051155b1561422757614183600d6009614b13565b60018301805490869055604080516001600160a01b03891681526020810183905280820188905290517f70483e6592cd5182d45ac970e05bc62cdcc90e9d8ef2c2dbe686cf383bcd7fc59181900360600190a16000979650505050505050565b600954600160a81b900460ff1681565b60055481565b6000546001600160a01b031633146142e9576040805162461bcd60e51b815260206004820152600a60248201526961646d696e206f6e6c7960b01b604482015290519081900360640190fd5b306001600160a01b0316816001600160a01b0316635fe3b5676040518163ffffffff1660e01b815260040160206040518083038186803b15801561432c57600080fd5b505afa158015614340573d6000803e3d6000fd5b505050506040513d602081101561435657600080fd5b50516001600160a01b0316146143aa576040805162461bcd60e51b815260206004820152601460248201527336b4b9b6b0ba31b41031b7b6b83a3937b63632b960611b604482015290519081900360640190fd5b601980546001600160a01b038381166001600160a01b0319831617928390556040805192821680845293909116602083015280517f4247a233ab0926daf14619c57e7d333975443a34cc5e1a30478bc4e7e716c8a29281900390910190a15050565b601b6020526000908152604090205460ff1681565b60008061442f8585856150ee565b905080156123ed579050611a0e565b6000808290506000806000836001600160a01b031663c37f68e2336040518263ffffffff1660e01b815260040180826001600160a01b03166001600160a01b0316815260200191505060806040518083038186803b15801561449f57600080fd5b505afa1580156144b3573d6000803e3d6000fd5b505050506040513d60808110156144c957600080fd5b50805160208201516040909201519094509092509050821561451c5760405162461bcd60e51b81526004018080602001828103825260258152602001806158ce6025913960400191505060405180910390fd5b8015614568576040805162461bcd60e51b81526020600482015260166024820152756e6f6e7a65726f20626f72726f772062616c616e636560501b604482015290519081900360640190fd5b6145738633846150ee565b156145bd576040805162461bcd60e51b815260206004820152601560248201527419985a5b1959081d1bc8195e1a5d081b585c9ad95d605a1b604482015290519081900360640190fd5b6001600160a01b03861660009081526008602052604090206001600382015460ff1660028111156145ea57fe5b14156146505760408051638b35776b60e01b815233600482015290516001600160a01b03891691638b35776b91602480830192600092919082900301818387803b15801561463757600080fd5b505af115801561464b573d6000803e3d6000fd5b505050505b33600090815260028201602052604090205460ff166146775760009550505050505061199d565b3360009081526002820160209081526040808320805460ff1916905560078252918290208054835181840281018401909452808452606093928301828280156146e957602002820191906000526020600020905b81546001600160a01b031681526001909101906020018083116146cb575b5050835193945083925060009150505b8281101561473e57886001600160a01b031684828151811061471757fe5b60200260200101516001600160a01b031614156147365780915061473e565b6001016146f9565b5081811061474857fe5b33600090815260076020526040902080546000190182146147ce5780548190600019810190811061477557fe5b9060005260206000200160009054906101000a90046001600160a01b031681838154811061479f57fe5b9060005260206000200160006101000a8154816001600160a01b0302191690836001600160a01b031602179055505b80546147de82600019830161579c565b50604080516001600160a01b038b16815233602082015281517fe699a64c18b07ac5b7301aa273f36a2287239eb9501d81950672794afba29a0d929181900390910190a160009b9a5050505050505050505050565b6000546001600160a01b0316331461487f576040805162461bcd60e51b815260206004820152600a60248201526961646d696e206f6e6c7960b01b604482015290519081900360640190fd5b61488881611f19565b6148c7576040805162461bcd60e51b815260206004820152601160248201526000805160206158ae833981519152604482015290519081900360640190fd5b6001600160a01b0381166000908152600860205260409020600101541561492d576040805162461bcd60e51b81526020600482015260156024820152741b585c9ad95d081a185cc818dbdb1b185d195c985b605a1b604482015290519081900360640190fd5b806001600160a01b031663fe9c44ae6040518163ffffffff1660e01b815260040160206040518083038186803b15801561496657600080fd5b505afa15801561497a573d6000803e3d6000fd5b505050506040513d602081101561499057600080fd5b50506001600160a01b0381166000908152601b602090815260408083208054600160ff1991821681179092556008909352908320805483168155908101839055600301805490911690555b600c54811015614ac457816001600160a01b0316600c82815481106149fc57fe5b6000918252602090912001546001600160a01b03161415614abc57600c80546000198101908110614a2957fe5b600091825260209091200154600c80546001600160a01b039092169183908110614a4f57fe5b600091825260209091200180546001600160a01b0319166001600160a01b0392909216919091179055600c80546000198101908110614a8a57fe5b600091825260209091200180546001600160a01b0319169055600c805490614ab690600019830161579c565b50614ac4565b6001016149db565b50604080516001600160a01b038316815290517f9710c341258431a6380fd1febe8985e6b6221e8398c287ea971f2ba85a6e1a109181900360200190a150565b6000546001600160a01b031681565b60007f45b96fe442630264581b197e84bbada861235052c5a1aadfff9ea4e40a969aa0836011811115614b4257fe5b836013811115614b4e57fe5b604080519283526020830191909152600082820152519081900360600190a1826011811115611a0e57fe5b60005b600c54811015614c0457816001600160a01b0316600c8281548110614b9d57fe5b6000918252602090912001546001600160a01b03161415614bfc576040805162461bcd60e51b81526020600482015260146024820152731b585c9ad95d08185b1c9958591e48185919195960621b604482015290519081900360640190fd5b600101614b7c565b50600c80546001810182556000919091527fdf6966c971051c3d54ec59162606531493a51404a002842f56009d7e5cf4a8c70180546001600160a01b0319166001600160a01b0392909216919091179055565b6000806000614c646157c0565b6001600160a01b03881660009081526007602090815260408083208054825181850281018501909352808352606093830182828015614ccc57602002820191906000526020600020905b81546001600160a01b03168152600190910190602001808311614cae575b50939450600093505050505b8151811015614fee576000828281518110614cef57fe5b60200260200101519050614d0281611f19565b614d0c5750614fe6565b806001600160a01b031663c37f68e28d6040518263ffffffff1660e01b815260040180826001600160a01b03166001600160a01b0316815260200191505060806040518083038186803b158015614d6257600080fd5b505afa158015614d76573d6000803e3d6000fd5b505050506040513d6080811015614d8c57600080fd5b508051602082015160408084015160609485015160808b0152938901939093529187019190915293508315614df9576040805162461bcd60e51b815260206004820152600e60248201526d39b730b839b437ba1032b93937b960911b604482015290519081900360640190fd5b6040850151158015614e0d57506060850151155b8015614e2b57508a6001600160a01b0316816001600160a01b031614155b15614e365750614fe6565b60408051602080820183526001600160a01b0380851660008181526008845285902060010154845260c08a01939093528351808301855260808a0151815260e08a015260048054855163fc57d4df60e01b815291820194909452935192169263fc57d4df9260248083019392829003018186803b158015614eb657600080fd5b505afa158015614eca573d6000803e3d6000fd5b505050506040513d6020811015614ee057600080fd5b505160a08601819052614f28576040805162461bcd60e51b815260206004820152600b60248201526a383934b1b29032b93937b960a91b604482015290519081900360640190fd5b604080516020810190915260a0860151815261010086015260c085015160e0860151614f6291614f579161547b565b86610100015161547b565b610120860181905260408601518651614f7c9291906154fd565b855261010085015160608601516020870151614f999291906154fd565b60208601526001600160a01b03818116908c161415614fe457614fc68561012001518b87602001516154fd565b60208601819052610100860151614fde918b906154fd565b60208601525b505b600101614cd8565b5060208301518351111561501457505060208101519051600094500391508290506120a1565b50508051602090910151600094508493500390506120a1565b60008060008061503d8787615525565b9092509050600082600381111561505057fe5b146150615750915060009050613682565b61506b818661554e565b935093505050935093915050565b6000611a0e8383604051806040016040528060118152602001706164646974696f6e206f766572666c6f7760781b815250615571565b60008060006150c2846000806000614c57565b9250925092509193909250565b60006150d9615789565b6150e3848461560c565b905061183f8161562d565b60006150f984611f19565b8061511c57506001600160a01b0384166000908152601b602052604090205460ff165b61515b576040805162461bcd60e51b815260206004820152601160248201526000805160206158ae833981519152604482015290519081900360640190fd5b6151658385611d4b565b156151b7576040805162461bcd60e51b815260206004820152601c60248201527f637265646974206163636f756e742063616e6e6f742072656465656d00000000604482015290519081900360640190fd5b6001600160a01b038085166000908152600860209081526040808320938716835260029093019052205460ff166151f057506000611a0e565b6000806152008587866000614c57565b9193509091506000905082601181111561521657fe5b14615268576040805162461bcd60e51b815260206004820152601f60248201527f6661696c656420746f20676574206163636f756e74206c697175696469747900604482015290519081900360640190fd5b8015613391576040805162461bcd60e51b8152602060048201526016602482015275696e73756666696369656e74206c697175696469747960501b604482015290519081900360640190fd5b6001600160a01b0382166000908152600860205260408120805460ff16615310576040805162461bcd60e51b815260206004820152601160248201526000805160206158ae833981519152604482015290519081900360640190fd5b6001600382015460ff16600281111561532557fe5b14156153b057836001600160a01b0316638897bd85846040518263ffffffff1660e01b815260040180826001600160a01b03166001600160a01b03168152602001915050602060405180830381600087803b15801561538357600080fd5b505af1158015615397573d6000803e3d6000fd5b505050506040513d60208110156153ad57600080fd5b50505b6001600160a01b038316600090815260028201602052604090205460ff161515600114156153e257600091505061134c565b6001600160a01b0380841660008181526002840160209081526040808320805460ff19166001908117909155600783528184208054918201815584529282902090920180549489166001600160a01b031990951685179055815193845283019190915280517f3ab23ab0d51cccc0c3085aec51f99228625aa1a922b3a8ca89a26b0f2027a1a59281900390910190a15060009392505050565b615483615789565b6040518060200160405280670de0b6b3a76400006154a98660000151866000015161563c565b816154b057fe5b0490529392505050565b6154c2615789565b60405180602001604052806154ed6154e68660000151670de0b6b3a764000061563c565b855161567e565b90529392505050565b5190511090565b6000615507615789565b615511858561560c565b90506124ee61551f8261562d565b84615079565b60008083830184811061553d57600092509050615547565b5060029150600090505b9250929050565b600080838311615565575060009050818303615547565b50600390506000615547565b600083830182858210156156035760405162461bcd60e51b81526004018080602001828103825283818151815260200191508051906020019080838360005b838110156155c85781810151838201526020016155b0565b50505050905090810190601f1680156155f55780820380516001836020036101000a031916815260200191505b509250505060405180910390fd5b50949350505050565b615614615789565b60405180602001604052806154ed85600001518561563c565b51670de0b6b3a7640000900490565b6000611a0e83836040518060400160405280601781526020017f6d756c7469706c69636174696f6e206f766572666c6f770000000000000000008152506156b1565b6000611a0e83836040518060400160405280600e81526020016d646976696465206279207a65726f60901b815250615727565b60008315806156be575082155b156156cb57506000611a0e565b838302838582816156d857fe5b041483906156035760405162461bcd60e51b81526020600482018181528351602484015283519092839260449091019190850190808383600083156155c85781810151838201526020016155b0565b600081836157765760405162461bcd60e51b81526020600482018181528351602484015283519092839260449091019190850190808383600083156155c85781810151838201526020016155b0565b5082848161578057fe5b04949350505050565b6040518060200160405280600081525090565b8154818355818111156127f0576000838152602090206127f091810190830161582a565b6040518061014001604052806000815260200160008152602001600081526020016000815260200160008152602001600081526020016157fe615789565b815260200161580b615789565b8152602001615818615789565b8152602001615825615789565b905290565b611f3f91905b808211156158445760008155600101615830565b509056fe61646d696e206f7220626f72726f772063617020677561726469616e206f6e6c7963616e6e6f74207472616e7366657220746f206120637265646974206163636f756e7461646d696e206f7220737570706c792063617020677561726469616e206f6e6c796d61726b6574206e6f74206c6973746564000000000000000000000000000000657869744d61726b65743a206765744163636f756e74536e617073686f74206661696c656463616e6e6f74207265706179206f6e20626568616c66206f6620637265646974206163636f756e74a265627a7a72315820d5d72dfcd800125a03590c9afe39f321005846cd45a760e70ed724420e39e17764736f6c63430005110032",
  "devdoc": {
    "author": "Compound (modified by Cream)",
    "methods": {
      "_delistMarket(address)": {
        "params": {
          "cToken": "The address of the market (token) to delist"
        }
      },
      "_setBorrowCapGuardian(address)": {
        "params": {
          "newBorrowCapGuardian": "The address of the new Borrow Cap Guardian"
        }
      },
      "_setCloseFactor(uint256)": {
        "details": "Admin function to set closeFactor",
        "params": {
          "newCloseFactorMantissa": "New close factor, scaled by 1e18"
        },
        "return": "uint 0=success, otherwise a failure. (See ErrorReporter for details)"
      },
      "_setCollateralFactor(address,uint256)": {
        "details": "Admin function to set per-market collateralFactor",
        "params": {
          "cToken": "The market to set the factor on",
          "newCollateralFactorMantissa": "The new collateral factor, scaled by 1e18"
        },
        "return": "uint 0=success, otherwise a failure. (See ErrorReporter for details)"
      },
      "_setCreditLimit(address,address,uint256)": {
        "params": {
          "creditLimit": "The credit limit",
          "market": "The market",
          "protocol": "The address of the protocol"
        }
      },
      "_setLiquidationIncentive(uint256)": {
        "details": "Admin function to set liquidationIncentive",
        "params": {
          "newLiquidationIncentiveMantissa": "New liquidationIncentive scaled by 1e18"
        },
        "return": "uint 0=success, otherwise a failure. (See ErrorReporter for details)"
      },
      "_setLiquidityMining(address)": {
        "details": "Removing the liquidity mining module address could cause the inconsistency in the LM module.",
        "params": {
          "newLiquidityMining": "The address of the new liquidity mining module"
        }
      },
      "_setMarketBorrowCaps(address[],uint256[])": {
        "details": "Admin or borrowCapGuardian function to set the borrow caps. A borrow cap of 0 corresponds to unlimited borrowing. If the total supplies     already exceeded the cap, it will prevent anyone to mint.",
        "params": {
          "cTokens": "The addresses of the markets (tokens) to change the borrow caps for",
          "newBorrowCaps": "The new borrow cap values in underlying to be set. A value of 0 corresponds to unlimited borrowing."
        }
      },
      "_setMarketSupplyCaps(address[],uint256[])": {
        "details": "Admin or supplyCapGuardian function to set the supply caps. A supply cap of 0 corresponds to unlimited supplying. If the total borrows     already exceeded the cap, it will prevent anyone to borrow.",
        "params": {
          "cTokens": "The addresses of the markets (tokens) to change the supply caps for",
          "newSupplyCaps": "The new supply cap values in underlying to be set. A value of 0 corresponds to unlimited supplying."
        }
      },
      "_setPauseGuardian(address)": {
        "params": {
          "newPauseGuardian": "The address of the new Pause Guardian"
        },
        "return": "uint 0=success, otherwise a failure. (See enum Error for details)"
      },
      "_setPriceOracle(address)": {
        "details": "Admin function to set a new price oracle",
        "return": "uint 0=success, otherwise a failure (see ErrorReporter.sol for details)"
      },
      "_setSupplyCapGuardian(address)": {
        "params": {
          "newSupplyCapGuardian": "The address of the new Supply Cap Guardian"
        }
      },
      "_supportMarket(address,uint8)": {
        "details": "Admin function to set isListed and add support for the market",
        "params": {
          "cToken": "The address of the market (token) to list",
          "version": "The version of the market (token)"
        },
        "return": "uint 0=success, otherwise a failure. (See enum Error for details)"
      },
      "borrowAllowed(address,address,uint256)": {
        "params": {
          "borrowAmount": "The amount of underlying the account would borrow",
          "borrower": "The account which would borrow the asset",
          "cToken": "The market to verify the borrow against"
        },
        "return": "0 if the borrow is allowed, otherwise a semi-opaque error code (See ErrorReporter.sol)"
      },
      "borrowVerify(address,address,uint256)": {
        "params": {
          "borrowAmount": "The amount of the underlying asset requested to borrow",
          "borrower": "The address borrowing the underlying",
          "cToken": "Asset whose underlying is being borrowed"
        }
      },
      "checkMembership(address,address)": {
        "params": {
          "account": "The address of the account to check",
          "cToken": "The cToken to check"
        },
        "return": "True if the account is in the asset, otherwise false."
      },
      "creditLimits(address)": {
        "details": "This function shouldn't be called. It exists only for backward compatibility.",
        "params": {
          "protocol": "The address of the protocol"
        },
        "return": "The credit"
      },
      "creditLimits(address,address)": {
        "params": {
          "market": "The market",
          "protocol": "The address of the protocol"
        },
        "return": "The credit"
      },
      "enterMarkets(address[])": {
        "params": {
          "cTokens": "The list of addresses of the cToken markets to be enabled"
        },
        "return": "Success indicator for whether each corresponding market was entered"
      },
      "exitMarket(address)": {
        "details": "Sender must not have an outstanding borrow balance in the asset, or be providing necessary collateral for an outstanding borrow.",
        "params": {
          "cTokenAddress": "The address of the asset to be removed"
        },
        "return": "Whether or not the account successfully exited the market"
      },
      "flashloanAllowed(address,address,uint256,bytes)": {
        "params": {
          "amount": "The amount of the tokens",
          "cToken": "The market to verify the transfer against",
          "params": "The other parameters",
          "receiver": "The account which receives the tokens"
        }
      },
      "getAccountLiquidity(address)": {
        "return": "(possible error code (semi-opaque), account liquidity in excess of collateral requirements,         account shortfall below collateral requirements)"
      },
      "getAllMarkets()": {
        "details": "The automatic getter may be used to access an individual market.",
        "return": "The list of market addresses"
      },
      "getAssetsIn(address)": {
        "params": {
          "account": "The address of the account to pull assets for"
        },
        "return": "A dynamic list with the assets the account has entered"
      },
      "getHypotheticalAccountLiquidity(address,address,uint256,uint256)": {
        "params": {
          "account": "The account to determine liquidity for",
          "borrowAmount": "The amount of underlying to hypothetically borrow",
          "cTokenModify": "The market to hypothetically redeem/borrow in",
          "redeemTokens": "The number of tokens to hypothetically redeem"
        },
        "return": "(possible error code (semi-opaque), hypothetical account liquidity in excess of collateral requirements,         hypothetical account shortfall below collateral requirements)"
      },
      "isCreditAccount(address,address)": {
        "params": {
          "account": "The account needs to be checked",
          "cToken": "The market"
        },
        "return": "The account is a credit account or not"
      },
      "isMarketListed(address)": {
        "params": {
          "cTokenAddress": "The address of the asset to be checked"
        },
        "return": "Whether or not the market is listed"
      },
      "liquidateBorrowAllowed(address,address,address,address,uint256)": {
        "params": {
          "borrower": "The address of the borrower",
          "cTokenBorrowed": "Asset which was borrowed by the borrower",
          "cTokenCollateral": "Asset which was used as collateral and will be seized",
          "liquidator": "The address repaying the borrow and seizing the collateral",
          "repayAmount": "The amount of underlying being repaid"
        }
      },
      "liquidateBorrowVerify(address,address,address,address,uint256,uint256)": {
        "params": {
          "actualRepayAmount": "The amount of underlying being repaid",
          "borrower": "The address of the borrower",
          "cTokenBorrowed": "Asset which was borrowed by the borrower",
          "cTokenCollateral": "Asset which was used as collateral and will be seized",
          "liquidator": "The address repaying the borrow and seizing the collateral"
        }
      },
      "liquidateCalculateSeizeTokens(address,address,uint256)": {
        "details": "Used in liquidation (called in cToken.liquidateBorrowFresh)",
        "params": {
          "actualRepayAmount": "The amount of cTokenBorrowed underlying to convert into cTokenCollateral tokens",
          "cTokenBorrowed": "The address of the borrowed cToken",
          "cTokenCollateral": "The address of the collateral cToken"
        },
        "return": "(errorCode, number of cTokenCollateral tokens to be seized in a liquidation)"
      },
      "mintAllowed(address,address,uint256)": {
        "params": {
          "cToken": "The market to verify the mint against",
          "mintAmount": "The amount of underlying being supplied to the market in exchange for tokens",
          "minter": "The account which would get the minted tokens"
        },
        "return": "0 if the mint is allowed, otherwise a semi-opaque error code (See ErrorReporter.sol)"
      },
      "mintVerify(address,address,uint256,uint256)": {
        "params": {
          "actualMintAmount": "The amount of the underlying asset being minted",
          "cToken": "Asset being minted",
          "mintTokens": "The number of tokens being minted",
          "minter": "The address minting the tokens"
        }
      },
      "redeemAllowed(address,address,uint256)": {
        "params": {
          "cToken": "The market to verify the redeem against",
          "redeemTokens": "The number of cTokens to exchange for the underlying asset in the market",
          "redeemer": "The account which would redeem the tokens"
        },
        "return": "0 if the redeem is allowed, otherwise a semi-opaque error code (See ErrorReporter.sol)"
      },
      "redeemVerify(address,address,uint256,uint256)": {
        "params": {
          "cToken": "Asset being redeemed",
          "redeemAmount": "The amount of the underlying asset being redeemed",
          "redeemTokens": "The number of tokens being redeemed",
          "redeemer": "The address redeeming the tokens"
        }
      },
      "repayBorrowAllowed(address,address,address,uint256)": {
        "params": {
          "borrower": "The account which would borrowed the asset",
          "cToken": "The market to verify the repay against",
          "payer": "The account which would repay the asset",
          "repayAmount": "The amount of the underlying asset the account would repay"
        },
        "return": "0 if the repay is allowed, otherwise a semi-opaque error code (See ErrorReporter.sol)"
      },
      "repayBorrowVerify(address,address,address,uint256,uint256)": {
        "params": {
          "actualRepayAmount": "The amount of underlying being repaid",
          "borrower": "The address of the borrower",
          "cToken": "Asset being repaid",
          "payer": "The address repaying the borrow"
        }
      },
      "seizeAllowed(address,address,address,address,uint256)": {
        "params": {
          "borrower": "The address of the borrower",
          "cTokenBorrowed": "Asset which was borrowed by the borrower",
          "cTokenCollateral": "Asset which was used as collateral and will be seized",
          "liquidator": "The address repaying the borrow and seizing the collateral",
          "seizeTokens": "The number of collateral tokens to seize"
        }
      },
      "seizeVerify(address,address,address,address,uint256)": {
        "params": {
          "borrower": "The address of the borrower",
          "cTokenBorrowed": "Asset which was borrowed by the borrower",
          "cTokenCollateral": "Asset which was used as collateral and will be seized",
          "liquidator": "The address repaying the borrow and seizing the collateral",
          "seizeTokens": "The number of collateral tokens to seize"
        }
      },
      "transferAllowed(address,address,address,uint256)": {
        "params": {
          "cToken": "The market to verify the transfer against",
          "dst": "The account which receives the tokens",
          "src": "The account which sources the tokens",
          "transferTokens": "The number of cTokens to transfer"
        },
        "return": "0 if the transfer is allowed, otherwise a semi-opaque error code (See ErrorReporter.sol)"
      },
      "transferVerify(address,address,address,uint256)": {
        "params": {
          "cToken": "Asset being transferred",
          "dst": "The account which receives the tokens",
          "src": "The account which sources the tokens",
          "transferTokens": "The number of cTokens to transfer"
        }
      },
      "updateCTokenVersion(address,uint8)": {
        "params": {
          "cToken": "Version of the asset being updated",
          "newVersion": "The new version"
        }
      }
    },
    "title": "Compound's Comptroller Contract"
  },
  "userdoc": {
    "methods": {
      "_delistMarket(address)": {
        "notice": "Remove the market from the markets mapping"
      },
      "_setBorrowCapGuardian(address)": {
        "notice": "Admin function to change the Borrow Cap Guardian"
      },
      "_setCloseFactor(uint256)": {
        "notice": "Sets the closeFactor used when liquidating borrows"
      },
      "_setCollateralFactor(address,uint256)": {
        "notice": "Sets the collateralFactor for a market"
      },
      "_setCreditLimit(address,address,uint256)": {
        "notice": "Sets protocol's credit limit by market"
      },
      "_setLiquidationIncentive(uint256)": {
        "notice": "Sets liquidationIncentive"
      },
      "_setLiquidityMining(address)": {
        "notice": "Admin function to set the liquidity mining module address"
      },
      "_setMarketBorrowCaps(address[],uint256[])": {
        "notice": "Set the given borrow caps for the given cToken markets. Borrowing that brings total borrows to or above borrow cap will revert."
      },
      "_setMarketSupplyCaps(address[],uint256[])": {
        "notice": "Set the given supply caps for the given cToken markets. Supplying that brings total supplys to or above supply cap will revert."
      },
      "_setPauseGuardian(address)": {
        "notice": "Admin function to change the Pause Guardian"
      },
      "_setPriceOracle(address)": {
        "notice": "Sets a new price oracle for the comptroller"
      },
      "_setSupplyCapGuardian(address)": {
        "notice": "Admin function to change the Supply Cap Guardian"
      },
      "_supportMarket(address,uint8)": {
        "notice": "Add the market to the markets mapping and set it as listed"
      },
      "borrowAllowed(address,address,uint256)": {
        "notice": "Checks if the account should be allowed to borrow the underlying asset of the given market"
      },
      "borrowVerify(address,address,uint256)": {
        "notice": "Validates borrow and reverts on rejection. May emit logs."
      },
      "checkMembership(address,address)": {
        "notice": "Returns whether the given account is entered in the given asset"
      },
      "creditLimits(address)": {
        "notice": "Return the credit limit of a specific protocol"
      },
      "creditLimits(address,address)": {
        "notice": "Return the credit limit of a specific protocol for a specific market"
      },
      "enterMarkets(address[])": {
        "notice": "Add assets to be included in account liquidity calculation"
      },
      "exitMarket(address)": {
        "notice": "Removes asset from sender's account liquidity calculation"
      },
      "flashloanAllowed(address,address,uint256,bytes)": {
        "notice": "Checks if the account should be allowed to transfer tokens in the given market"
      },
      "getAccountLiquidity(address)": {
        "notice": "Determine the current account liquidity wrt collateral requirements"
      },
      "getAllMarkets()": {
        "notice": "Return all of the markets"
      },
      "getAssetsIn(address)": {
        "notice": "Returns the assets an account has entered"
      },
      "getHypotheticalAccountLiquidity(address,address,uint256,uint256)": {
        "notice": "Determine what the account liquidity would be if the given amounts were redeemed/borrowed"
      },
      "isCreditAccount(address,address)": {
        "notice": "Check if the account is a credit account"
      },
      "isMarketListed(address)": {
        "notice": "Return a specific market is listed or not"
      },
      "liquidateBorrowAllowed(address,address,address,address,uint256)": {
        "notice": "Checks if the liquidation should be allowed to occur"
      },
      "liquidateBorrowVerify(address,address,address,address,uint256,uint256)": {
        "notice": "Validates liquidateBorrow and reverts on rejection. May emit logs."
      },
      "liquidateCalculateSeizeTokens(address,address,uint256)": {
        "notice": "Calculate number of tokens of collateral asset to seize given an underlying amount"
      },
      "mintAllowed(address,address,uint256)": {
        "notice": "Checks if the account should be allowed to mint tokens in the given market"
      },
      "mintVerify(address,address,uint256,uint256)": {
        "notice": "Validates mint and reverts on rejection. May emit logs."
      },
      "redeemAllowed(address,address,uint256)": {
        "notice": "Checks if the account should be allowed to redeem tokens in the given market"
      },
      "redeemVerify(address,address,uint256,uint256)": {
        "notice": "Validates redeem and reverts on rejection. May emit logs."
      },
      "repayBorrowAllowed(address,address,address,uint256)": {
        "notice": "Checks if the account should be allowed to repay a borrow in the given market"
      },
      "repayBorrowVerify(address,address,address,uint256,uint256)": {
        "notice": "Validates repayBorrow and reverts on rejection. May emit logs."
      },
      "seizeAllowed(address,address,address,address,uint256)": {
        "notice": "Checks if the seizing of assets should be allowed to occur"
      },
      "seizeVerify(address,address,address,address,uint256)": {
        "notice": "Validates seize and reverts on rejection. May emit logs."
      },
      "transferAllowed(address,address,address,uint256)": {
        "notice": "Checks if the account should be allowed to transfer tokens in the given market"
      },
      "transferVerify(address,address,address,uint256)": {
        "notice": "Validates transfer and reverts on rejection. May emit logs."
      },
      "updateCTokenVersion(address,uint8)": {
        "notice": "Update CToken's version."
      }
    }
  },
  "storageLayout": {
    "storage": [
      {
        "astId": 20905,
        "contract": "contracts/Comptroller.sol:Comptroller",
        "label": "admin",
        "offset": 0,
        "slot": "0",
        "type": "t_address"
      },
      {
        "astId": 20907,
        "contract": "contracts/Comptroller.sol:Comptroller",
        "label": "pendingAdmin",
        "offset": 0,
        "slot": "1",
        "type": "t_address"
      },
      {
        "astId": 20909,
        "contract": "contracts/Comptroller.sol:Comptroller",
        "label": "comptrollerImplementation",
        "offset": 0,
        "slot": "2",
        "type": "t_address"
      },
      {
        "astId": 20911,
        "contract": "contracts/Comptroller.sol:Comptroller",
        "label": "pendingComptrollerImplementation",
        "offset": 0,
        "slot": "3",
        "type": "t_address"
      },
      {
        "astId": 20916,
        "contract": "contracts/Comptroller.sol:Comptroller",
        "label": "oracle",
        "offset": 0,
        "slot": "4",
        "type": "t_contract(PriceOracle)35395"
      },
      {
        "astId": 20918,
        "contract": "contracts/Comptroller.sol:Comptroller",
        "label": "closeFactorMantissa",
        "offset": 0,
        "slot": "5",
        "type": "t_uint256"
      },
      {
        "astId": 20920,
        "contract": "contracts/Comptroller.sol:Comptroller",
        "label": "liquidationIncentiveMantissa",
        "offset": 0,
        "slot": "6",
        "type": "t_uint256"
      },
      {
        "astId": 20925,
        "contract": "contracts/Comptroller.sol:Comptroller",
        "label": "accountAssets",
        "offset": 0,
        "slot": "7",
        "type": "t_mapping(t_address,t_array(t_contract(CToken)9097)dyn_storage)"
      },
      {
        "astId": 20944,
        "contract": "contracts/Comptroller.sol:Comptroller",
        "label": "markets",
        "offset": 0,
        "slot": "8",
        "type": "t_mapping(t_address,t_struct(Market)20940_storage)"
      },
      {
        "astId": 20946,
        "contract": "contracts/Comptroller.sol:Comptroller",
        "label": "pauseGuardian",
        "offset": 0,
        "slot": "9",
        "type": "t_address"
      },
      {
        "astId": 20948,
        "contract": "contracts/Comptroller.sol:Comptroller",
        "label": "_mintGuardianPaused",
        "offset": 20,
        "slot": "9",
        "type": "t_bool"
      },
      {
        "astId": 20950,
        "contract": "contracts/Comptroller.sol:Comptroller",
        "label": "_borrowGuardianPaused",
        "offset": 21,
        "slot": "9",
        "type": "t_bool"
      },
      {
        "astId": 20952,
        "contract": "contracts/Comptroller.sol:Comptroller",
        "label": "transferGuardianPaused",
        "offset": 22,
        "slot": "9",
        "type": "t_bool"
      },
      {
        "astId": 20954,
        "contract": "contracts/Comptroller.sol:Comptroller",
        "label": "seizeGuardianPaused",
        "offset": 23,
        "slot": "9",
        "type": "t_bool"
      },
      {
        "astId": 20958,
        "contract": "contracts/Comptroller.sol:Comptroller",
        "label": "mintGuardianPaused",
        "offset": 0,
        "slot": "10",
        "type": "t_mapping(t_address,t_bool)"
      },
      {
        "astId": 20962,
        "contract": "contracts/Comptroller.sol:Comptroller",
        "label": "borrowGuardianPaused",
        "offset": 0,
        "slot": "11",
        "type": "t_mapping(t_address,t_bool)"
      },
      {
        "astId": 20970,
        "contract": "contracts/Comptroller.sol:Comptroller",
        "label": "allMarkets",
        "offset": 0,
        "slot": "12",
        "type": "t_array(t_contract(CToken)9097)dyn_storage"
      },
      {
        "astId": 20974,
        "contract": "contracts/Comptroller.sol:Comptroller",
        "label": "compSpeeds",
        "offset": 0,
        "slot": "13",
        "type": "t_mapping(t_address,t_uint256)"
      },
      {
        "astId": 20978,
        "contract": "contracts/Comptroller.sol:Comptroller",
        "label": "compSupplyState",
        "offset": 0,
        "slot": "14",
        "type": "t_mapping(t_address,t_struct(CompMarketState)20967_storage)"
      },
      {
        "astId": 20982,
        "contract": "contracts/Comptroller.sol:Comptroller",
        "label": "compBorrowState",
        "offset": 0,
        "slot": "15",
        "type": "t_mapping(t_address,t_struct(CompMarketState)20967_storage)"
      },
      {
        "astId": 20988,
        "contract": "contracts/Comptroller.sol:Comptroller",
        "label": "compSupplierIndex",
        "offset": 0,
        "slot": "16",
        "type": "t_mapping(t_address,t_mapping(t_address,t_uint256))"
      },
      {
        "astId": 20994,
        "contract": "contracts/Comptroller.sol:Comptroller",
        "label": "compBorrowerIndex",
        "offset": 0,
        "slot": "17",
        "type": "t_mapping(t_address,t_mapping(t_address,t_uint256))"
      },
      {
        "astId": 20998,
        "contract": "contracts/Comptroller.sol:Comptroller",
        "label": "compAccrued",
        "offset": 0,
        "slot": "18",
        "type": "t_mapping(t_address,t_uint256)"
      },
      {
        "astId": 21000,
        "contract": "contracts/Comptroller.sol:Comptroller",
        "label": "borrowCapGuardian",
        "offset": 0,
        "slot": "19",
        "type": "t_address"
      },
      {
        "astId": 21004,
        "contract": "contracts/Comptroller.sol:Comptroller",
        "label": "borrowCaps",
        "offset": 0,
        "slot": "20",
        "type": "t_mapping(t_address,t_uint256)"
      },
      {
        "astId": 21006,
        "contract": "contracts/Comptroller.sol:Comptroller",
        "label": "supplyCapGuardian",
        "offset": 0,
        "slot": "21",
        "type": "t_address"
      },
      {
        "astId": 21010,
        "contract": "contracts/Comptroller.sol:Comptroller",
        "label": "supplyCaps",
        "offset": 0,
        "slot": "22",
        "type": "t_mapping(t_address,t_uint256)"
      },
      {
        "astId": 21014,
        "contract": "contracts/Comptroller.sol:Comptroller",
        "label": "_oldCreditLimits",
        "offset": 0,
        "slot": "23",
        "type": "t_mapping(t_address,t_uint256)"
      },
      {
        "astId": 21018,
        "contract": "contracts/Comptroller.sol:Comptroller",
        "label": "flashloanGuardianPaused",
        "offset": 0,
        "slot": "24",
        "type": "t_mapping(t_address,t_bool)"
      },
      {
        "astId": 21020,
        "contract": "contracts/Comptroller.sol:Comptroller",
        "label": "liquidityMining",
        "offset": 0,
        "slot": "25",
        "type": "t_address"
      },
      {
        "astId": 21026,
        "contract": "contracts/Comptroller.sol:Comptroller",
        "label": "_creditLimits",
        "offset": 0,
        "slot": "26",
        "type": "t_mapping(t_address,t_mapping(t_address,t_uint256))"
      },
      {
        "astId": 21030,
        "contract": "contracts/Comptroller.sol:Comptroller",
        "label": "isMarkertDelisted",
        "offset": 0,
        "slot": "27",
        "type": "t_mapping(t_address,t_bool)"
      }
    ],
    "types": {
      "t_address": {
        "encoding": "inplace",
        "label": "address",
        "numberOfBytes": "20"
      },
      "t_array(t_contract(CToken)9097)dyn_storage": {
        "base": "t_contract(CToken)9097",
        "encoding": "dynamic_array",
        "label": "contract CToken[]",
        "numberOfBytes": "32"
      },
      "t_bool": {
        "encoding": "inplace",
        "label": "bool",
        "numberOfBytes": "1"
      },
      "t_contract(CToken)9097": {
        "encoding": "inplace",
        "label": "contract CToken",
        "numberOfBytes": "20"
      },
      "t_contract(PriceOracle)35395": {
        "encoding": "inplace",
        "label": "contract PriceOracle",
        "numberOfBytes": "20"
      },
      "t_enum(Version)20929": {
        "encoding": "inplace",
        "label": "enum ComptrollerV1Storage.Version",
        "numberOfBytes": "1"
      },
      "t_mapping(t_address,t_array(t_contract(CToken)9097)dyn_storage)": {
        "encoding": "mapping",
        "key": "t_address",
        "label": "mapping(address => contract CToken[])",
        "numberOfBytes": "32",
        "value": "t_array(t_contract(CToken)9097)dyn_storage"
      },
      "t_mapping(t_address,t_bool)": {
        "encoding": "mapping",
        "key": "t_address",
        "label": "mapping(address => bool)",
        "numberOfBytes": "32",
        "value": "t_bool"
      },
      "t_mapping(t_address,t_mapping(t_address,t_uint256))": {
        "encoding": "mapping",
        "key": "t_address",
        "label": "mapping(address => mapping(address => uint256))",
        "numberOfBytes": "32",
        "value": "t_mapping(t_address,t_uint256)"
      },
      "t_mapping(t_address,t_struct(CompMarketState)20967_storage)": {
        "encoding": "mapping",
        "key": "t_address",
        "label": "mapping(address => struct ComptrollerV1Storage.CompMarketState)",
        "numberOfBytes": "32",
        "value": "t_struct(CompMarketState)20967_storage"
      },
      "t_mapping(t_address,t_struct(Market)20940_storage)": {
        "encoding": "mapping",
        "key": "t_address",
        "label": "mapping(address => struct ComptrollerV1Storage.Market)",
        "numberOfBytes": "32",
        "value": "t_struct(Market)20940_storage"
      },
      "t_mapping(t_address,t_uint256)": {
        "encoding": "mapping",
        "key": "t_address",
        "label": "mapping(address => uint256)",
        "numberOfBytes": "32",
        "value": "t_uint256"
      },
      "t_struct(CompMarketState)20967_storage": {
        "encoding": "inplace",
        "label": "struct ComptrollerV1Storage.CompMarketState",
        "members": [
          {
            "astId": 20964,
            "contract": "contracts/Comptroller.sol:Comptroller",
            "label": "index",
            "offset": 0,
            "slot": "0",
            "type": "t_uint224"
          },
          {
            "astId": 20966,
            "contract": "contracts/Comptroller.sol:Comptroller",
            "label": "block",
            "offset": 28,
            "slot": "0",
            "type": "t_uint32"
          }
        ],
        "numberOfBytes": "32"
      },
      "t_struct(Market)20940_storage": {
        "encoding": "inplace",
        "label": "struct ComptrollerV1Storage.Market",
        "members": [
          {
            "astId": 20931,
            "contract": "contracts/Comptroller.sol:Comptroller",
            "label": "isListed",
            "offset": 0,
            "slot": "0",
            "type": "t_bool"
          },
          {
            "astId": 20933,
            "contract": "contracts/Comptroller.sol:Comptroller",
            "label": "collateralFactorMantissa",
            "offset": 0,
            "slot": "1",
            "type": "t_uint256"
          },
          {
            "astId": 20937,
            "contract": "contracts/Comptroller.sol:Comptroller",
            "label": "accountMembership",
            "offset": 0,
            "slot": "2",
            "type": "t_mapping(t_address,t_bool)"
          },
          {
            "astId": 20939,
            "contract": "contracts/Comptroller.sol:Comptroller",
            "label": "version",
            "offset": 0,
            "slot": "3",
            "type": "t_enum(Version)20929"
          }
        ],
        "numberOfBytes": "128"
      },
      "t_uint224": {
        "encoding": "inplace",
        "label": "uint224",
        "numberOfBytes": "28"
      },
      "t_uint256": {
        "encoding": "inplace",
        "label": "uint256",
        "numberOfBytes": "32"
      },
      "t_uint32": {
        "encoding": "inplace",
        "label": "uint32",
        "numberOfBytes": "4"
      }
    }
  }
}