{
  "address": "0xB277194c947f44b6eAc11513b52E4A4D1B6620fE",
  "abi": [
    {
      "inputs": [],
      "payable": false,
      "stateMutability": "nonpayable",
      "type": "constructor"
    },
    {
      "anonymous": false,
      "inputs": [
        {
          "indexed": false,
          "internalType": "uint256",
          "name": "cashPrior",
          "type": "uint256"
        },
        {
          "indexed": false,
          "internalType": "uint256",
          "name": "interestAccumulated",
          "type": "uint256"
        },
        {
          "indexed": false,
          "internalType": "uint256",
          "name": "borrowIndex",
          "type": "uint256"
        },
        {
          "indexed": false,
          "internalType": "uint256",
          "name": "totalBorrows",
          "type": "uint256"
        }
      ],
      "name": "AccrueInterest",
      "type": "event"
    },
    {
      "anonymous": false,
      "inputs": [
        {
          "indexed": true,
          "internalType": "address",
          "name": "owner",
          "type": "address"
        },
        {
          "indexed": true,
          "internalType": "address",
          "name": "spender",
          "type": "address"
        },
        {
          "indexed": false,
          "internalType": "uint256",
          "name": "amount",
          "type": "uint256"
        }
      ],
      "name": "Approval",
      "type": "event"
    },
    {
      "anonymous": false,
      "inputs": [
        {
          "indexed": false,
          "internalType": "address",
          "name": "borrower",
          "type": "address"
        },
        {
          "indexed": false,
          "internalType": "uint256",
          "name": "borrowAmount",
          "type": "uint256"
        },
        {
          "indexed": false,
          "internalType": "uint256",
          "name": "accountBorrows",
          "type": "uint256"
        },
        {
          "indexed": false,
          "internalType": "uint256",
          "name": "totalBorrows",
          "type": "uint256"
        }
      ],
      "name": "Borrow",
      "type": "event"
    },
    {
      "anonymous": false,
      "inputs": [
        {
          "indexed": false,
          "internalType": "uint256",
          "name": "error",
          "type": "uint256"
        },
        {
          "indexed": false,
          "internalType": "uint256",
          "name": "info",
          "type": "uint256"
        },
        {
          "indexed": false,
          "internalType": "uint256",
          "name": "detail",
          "type": "uint256"
        }
      ],
      "name": "Failure",
      "type": "event"
    },
    {
      "anonymous": false,
      "inputs": [
        {
          "indexed": true,
          "internalType": "address",
          "name": "receiver",
          "type": "address"
        },
        {
          "indexed": false,
          "internalType": "uint256",
          "name": "amount",
          "type": "uint256"
        },
        {
          "indexed": false,
          "internalType": "uint256",
          "name": "totalFee",
          "type": "uint256"
        },
        {
          "indexed": false,
          "internalType": "uint256",
          "name": "reservesFee",
          "type": "uint256"
        }
      ],
      "name": "Flashloan",
      "type": "event"
    },
    {
      "anonymous": false,
      "inputs": [
        {
          "indexed": false,
          "internalType": "address",
          "name": "liquidator",
          "type": "address"
        },
        {
          "indexed": false,
          "internalType": "address",
          "name": "borrower",
          "type": "address"
        },
        {
          "indexed": false,
          "internalType": "uint256",
          "name": "repayAmount",
          "type": "uint256"
        },
        {
          "indexed": false,
          "internalType": "address",
          "name": "cTokenCollateral",
          "type": "address"
        },
        {
          "indexed": false,
          "internalType": "uint256",
          "name": "seizeTokens",
          "type": "uint256"
        }
      ],
      "name": "LiquidateBorrow",
      "type": "event"
    },
    {
      "anonymous": false,
      "inputs": [
        {
          "indexed": false,
          "internalType": "address",
          "name": "minter",
          "type": "address"
        },
        {
          "indexed": false,
          "internalType": "uint256",
          "name": "mintAmount",
          "type": "uint256"
        },
        {
          "indexed": false,
          "internalType": "uint256",
          "name": "mintTokens",
          "type": "uint256"
        }
      ],
      "name": "Mint",
      "type": "event"
    },
    {
      "anonymous": false,
      "inputs": [
        {
          "indexed": false,
          "internalType": "address",
          "name": "oldAdmin",
          "type": "address"
        },
        {
          "indexed": false,
          "internalType": "address",
          "name": "newAdmin",
          "type": "address"
        }
      ],
      "name": "NewAdmin",
      "type": "event"
    },
    {
      "anonymous": false,
      "inputs": [
        {
          "indexed": false,
          "internalType": "address",
          "name": "token",
          "type": "address"
        },
        {
          "indexed": false,
          "internalType": "uint256",
          "name": "newCap",
          "type": "uint256"
        }
      ],
      "name": "NewCollateralCap",
      "type": "event"
    },
    {
      "anonymous": false,
      "inputs": [
        {
          "indexed": false,
          "internalType": "contract ComptrollerInterface",
          "name": "oldComptroller",
          "type": "address"
        },
        {
          "indexed": false,
          "internalType": "contract ComptrollerInterface",
          "name": "newComptroller",
          "type": "address"
        }
      ],
      "name": "NewComptroller",
      "type": "event"
    },
    {
      "anonymous": false,
      "inputs": [
        {
          "indexed": false,
          "internalType": "contract InterestRateModel",
          "name": "oldInterestRateModel",
          "type": "address"
        },
        {
          "indexed": false,
          "internalType": "contract InterestRateModel",
          "name": "newInterestRateModel",
          "type": "address"
        }
      ],
      "name": "NewMarketInterestRateModel",
      "type": "event"
    },
    {
      "anonymous": false,
      "inputs": [
        {
          "indexed": false,
          "internalType": "address",
          "name": "oldPendingAdmin",
          "type": "address"
        },
        {
          "indexed": false,
          "internalType": "address",
          "name": "newPendingAdmin",
          "type": "address"
        }
      ],
      "name": "NewPendingAdmin",
      "type": "event"
    },
    {
      "anonymous": false,
      "inputs": [
        {
          "indexed": false,
          "internalType": "uint256",
          "name": "oldReserveFactorMantissa",
          "type": "uint256"
        },
        {
          "indexed": false,
          "internalType": "uint256",
          "name": "newReserveFactorMantissa",
          "type": "uint256"
        }
      ],
      "name": "NewReserveFactor",
      "type": "event"
    },
    {
      "anonymous": false,
      "inputs": [
        {
          "indexed": false,
          "internalType": "address",
          "name": "redeemer",
          "type": "address"
        },
        {
          "indexed": false,
          "internalType": "uint256",
          "name": "redeemAmount",
          "type": "uint256"
        },
        {
          "indexed": false,
          "internalType": "uint256",
          "name": "redeemTokens",
          "type": "uint256"
        }
      ],
      "name": "Redeem",
      "type": "event"
    },
    {
      "anonymous": false,
      "inputs": [
        {
          "indexed": false,
          "internalType": "address",
          "name": "payer",
          "type": "address"
        },
        {
          "indexed": false,
          "internalType": "address",
          "name": "borrower",
          "type": "address"
        },
        {
          "indexed": false,
          "internalType": "uint256",
          "name": "repayAmount",
          "type": "uint256"
        },
        {
          "indexed": false,
          "internalType": "uint256",
          "name": "accountBorrows",
          "type": "uint256"
        },
        {
          "indexed": false,
          "internalType": "uint256",
          "name": "totalBorrows",
          "type": "uint256"
        }
      ],
      "name": "RepayBorrow",
      "type": "event"
    },
    {
      "anonymous": false,
      "inputs": [
        {
          "indexed": false,
          "internalType": "address",
          "name": "benefactor",
          "type": "address"
        },
        {
          "indexed": false,
          "internalType": "uint256",
          "name": "addAmount",
          "type": "uint256"
        },
        {
          "indexed": false,
          "internalType": "uint256",
          "name": "newTotalReserves",
          "type": "uint256"
        }
      ],
      "name": "ReservesAdded",
      "type": "event"
    },
    {
      "anonymous": false,
      "inputs": [
        {
          "indexed": false,
          "internalType": "address",
          "name": "admin",
          "type": "address"
        },
        {
          "indexed": false,
          "internalType": "uint256",
          "name": "reduceAmount",
          "type": "uint256"
        },
        {
          "indexed": false,
          "internalType": "uint256",
          "name": "newTotalReserves",
          "type": "uint256"
        }
      ],
      "name": "ReservesReduced",
      "type": "event"
    },
    {
      "anonymous": false,
      "inputs": [
        {
          "indexed": true,
          "internalType": "address",
          "name": "from",
          "type": "address"
        },
        {
          "indexed": true,
          "internalType": "address",
          "name": "to",
          "type": "address"
        },
        {
          "indexed": false,
          "internalType": "uint256",
          "name": "amount",
          "type": "uint256"
        }
      ],
      "name": "Transfer",
      "type": "event"
    },
    {
      "anonymous": false,
      "inputs": [
        {
          "indexed": false,
          "internalType": "address",
          "name": "account",
          "type": "address"
        },
        {
          "indexed": false,
          "internalType": "uint256",
          "name": "newCollateralTokens",
          "type": "uint256"
        }
      ],
      "name": "UserCollateralChanged",
      "type": "event"
    },
    {
      "constant": false,
      "inputs": [],
      "name": "_acceptAdmin",
      "outputs": [
        {
          "internalType": "uint256",
          "name": "",
          "type": "uint256"
        }
      ],
      "payable": false,
      "stateMutability": "nonpayable",
      "type": "function"
    },
    {
      "constant": false,
      "inputs": [
        {
          "internalType": "uint256",
          "name": "addAmount",
          "type": "uint256"
        }
      ],
      "name": "_addReserves",
      "outputs": [
        {
          "internalType": "uint256",
          "name": "",
          "type": "uint256"
        }
      ],
      "payable": false,
      "stateMutability": "nonpayable",
      "type": "function"
    },
    {
      "constant": false,
      "inputs": [
        {
          "internalType": "bytes",
          "name": "data",
          "type": "bytes"
        }
      ],
      "name": "_becomeImplementation",
      "outputs": [],
      "payable": false,
      "stateMutability": "nonpayable",
      "type": "function"
    },
    {
      "constant": false,
      "inputs": [
        {
          "internalType": "uint256",
          "name": "reduceAmount",
          "type": "uint256"
        }
      ],
      "name": "_reduceReserves",
      "outputs": [
        {
          "internalType": "uint256",
          "name": "",
          "type": "uint256"
        }
      ],
      "payable": false,
      "stateMutability": "nonpayable",
      "type": "function"
    },
    {
      "constant": false,
      "inputs": [],
      "name": "_resignImplementation",
      "outputs": [],
      "payable": false,
      "stateMutability": "nonpayable",
      "type": "function"
    },
    {
      "constant": false,
      "inputs": [
        {
          "internalType": "uint256",
          "name": "newCollateralCap",
          "type": "uint256"
        }
      ],
      "name": "_setCollateralCap",
      "outputs": [],
      "payable": false,
      "stateMutability": "nonpayable",
      "type": "function"
    },
    {
      "constant": false,
      "inputs": [
        {
          "internalType": "contract ComptrollerInterface",
          "name": "newComptroller",
          "type": "address"
        }
      ],
      "name": "_setComptroller",
      "outputs": [
        {
          "internalType": "uint256",
          "name": "",
          "type": "uint256"
        }
      ],
      "payable": false,
      "stateMutability": "nonpayable",
      "type": "function"
    },
    {
      "constant": false,
      "inputs": [
        {
          "internalType": "contract InterestRateModel",
          "name": "newInterestRateModel",
          "type": "address"
        }
      ],
      "name": "_setInterestRateModel",
      "outputs": [
        {
          "internalType": "uint256",
          "name": "",
          "type": "uint256"
        }
      ],
      "payable": false,
      "stateMutability": "nonpayable",
      "type": "function"
    },
    {
      "constant": false,
      "inputs": [
        {
          "internalType": "address payable",
          "name": "newPendingAdmin",
          "type": "address"
        }
      ],
      "name": "_setPendingAdmin",
      "outputs": [
        {
          "internalType": "uint256",
          "name": "",
          "type": "uint256"
        }
      ],
      "payable": false,
      "stateMutability": "nonpayable",
      "type": "function"
    },
    {
      "constant": false,
      "inputs": [
        {
          "internalType": "uint256",
          "name": "newReserveFactorMantissa",
          "type": "uint256"
        }
      ],
      "name": "_setReserveFactor",
      "outputs": [
        {
          "internalType": "uint256",
          "name": "",
          "type": "uint256"
        }
      ],
      "payable": false,
      "stateMutability": "nonpayable",
      "type": "function"
    },
    {
      "constant": true,
      "inputs": [
        {
          "internalType": "address",
          "name": "",
          "type": "address"
        }
      ],
      "name": "accountCollateralTokens",
      "outputs": [
        {
          "internalType": "uint256",
          "name": "",
          "type": "uint256"
        }
      ],
      "payable": false,
      "stateMutability": "view",
      "type": "function"
    },
    {
      "constant": true,
      "inputs": [],
      "name": "accrualBlockNumber",
      "outputs": [
        {
          "internalType": "uint256",
          "name": "",
          "type": "uint256"
        }
      ],
      "payable": false,
      "stateMutability": "view",
      "type": "function"
    },
    {
      "constant": false,
      "inputs": [],
      "name": "accrueInterest",
      "outputs": [
        {
          "internalType": "uint256",
          "name": "",
          "type": "uint256"
        }
      ],
      "payable": false,
      "stateMutability": "nonpayable",
      "type": "function"
    },
    {
      "constant": true,
      "inputs": [],
      "name": "admin",
      "outputs": [
        {
          "internalType": "address payable",
          "name": "",
          "type": "address"
        }
      ],
      "payable": false,
      "stateMutability": "view",
      "type": "function"
    },
    {
      "constant": true,
      "inputs": [
        {
          "internalType": "address",
          "name": "owner",
          "type": "address"
        },
        {
          "internalType": "address",
          "name": "spender",
          "type": "address"
        }
      ],
      "name": "allowance",
      "outputs": [
        {
          "internalType": "uint256",
          "name": "",
          "type": "uint256"
        }
      ],
      "payable": false,
      "stateMutability": "view",
      "type": "function"
    },
    {
      "constant": false,
      "inputs": [
        {
          "internalType": "address",
          "name": "spender",
          "type": "address"
        },
        {
          "internalType": "uint256",
          "name": "amount",
          "type": "uint256"
        }
      ],
      "name": "approve",
      "outputs": [
        {
          "internalType": "bool",
          "name": "",
          "type": "bool"
        }
      ],
      "payable": false,
      "stateMutability": "nonpayable",
      "type": "function"
    },
    {
      "constant": true,
      "inputs": [
        {
          "internalType": "address",
          "name": "owner",
          "type": "address"
        }
      ],
      "name": "balanceOf",
      "outputs": [
        {
          "internalType": "uint256",
          "name": "",
          "type": "uint256"
        }
      ],
      "payable": false,
      "stateMutability": "view",
      "type": "function"
    },
    {
      "constant": false,
      "inputs": [
        {
          "internalType": "address",
          "name": "owner",
          "type": "address"
        }
      ],
      "name": "balanceOfUnderlying",
      "outputs": [
        {
          "internalType": "uint256",
          "name": "",
          "type": "uint256"
        }
      ],
      "payable": false,
      "stateMutability": "nonpayable",
      "type": "function"
    },
    {
      "constant": false,
      "inputs": [
        {
          "internalType": "uint256",
          "name": "borrowAmount",
          "type": "uint256"
        }
      ],
      "name": "borrow",
      "outputs": [
        {
          "internalType": "uint256",
          "name": "",
          "type": "uint256"
        }
      ],
      "payable": false,
      "stateMutability": "nonpayable",
      "type": "function"
    },
    {
      "constant": false,
      "inputs": [
        {
          "internalType": "address",
          "name": "account",
          "type": "address"
        }
      ],
      "name": "borrowBalanceCurrent",
      "outputs": [
        {
          "internalType": "uint256",
          "name": "",
          "type": "uint256"
        }
      ],
      "payable": false,
      "stateMutability": "nonpayable",
      "type": "function"
    },
    {
      "constant": true,
      "inputs": [
        {
          "internalType": "address",
          "name": "account",
          "type": "address"
        }
      ],
      "name": "borrowBalanceStored",
      "outputs": [
        {
          "internalType": "uint256",
          "name": "",
          "type": "uint256"
        }
      ],
      "payable": false,
      "stateMutability": "view",
      "type": "function"
    },
    {
      "constant": true,
      "inputs": [],
      "name": "borrowIndex",
      "outputs": [
        {
          "internalType": "uint256",
          "name": "",
          "type": "uint256"
        }
      ],
      "payable": false,
      "stateMutability": "view",
      "type": "function"
    },
    {
      "constant": true,
      "inputs": [],
      "name": "borrowRatePerBlock",
      "outputs": [
        {
          "internalType": "uint256",
          "name": "",
          "type": "uint256"
        }
      ],
      "payable": false,
      "stateMutability": "view",
      "type": "function"
    },
    {
      "constant": true,
      "inputs": [],
      "name": "collateralCap",
      "outputs": [
        {
          "internalType": "uint256",
          "name": "",
          "type": "uint256"
        }
      ],
      "payable": false,
      "stateMutability": "view",
      "type": "function"
    },
    {
      "constant": true,
      "inputs": [],
      "name": "comptroller",
      "outputs": [
        {
          "internalType": "contract ComptrollerInterface",
          "name": "",
          "type": "address"
        }
      ],
      "payable": false,
      "stateMutability": "view",
      "type": "function"
    },
    {
      "constant": true,
      "inputs": [],
      "name": "decimals",
      "outputs": [
        {
          "internalType": "uint8",
          "name": "",
          "type": "uint8"
        }
      ],
      "payable": false,
      "stateMutability": "view",
      "type": "function"
    },
    {
      "constant": true,
      "inputs": [
        {
          "internalType": "uint256",
          "name": "change",
          "type": "uint256"
        },
        {
          "internalType": "bool",
          "name": "repay",
          "type": "bool"
        }
      ],
      "name": "estimateBorrowRatePerBlockAfterChange",
      "outputs": [
        {
          "internalType": "uint256",
          "name": "",
          "type": "uint256"
        }
      ],
      "payable": false,
      "stateMutability": "view",
      "type": "function"
    },
    {
      "constant": true,
      "inputs": [
        {
          "internalType": "uint256",
          "name": "change",
          "type": "uint256"
        },
        {
          "internalType": "bool",
          "name": "repay",
          "type": "bool"
        }
      ],
      "name": "estimateSupplyRatePerBlockAfterChange",
      "outputs": [
        {
          "internalType": "uint256",
          "name": "",
          "type": "uint256"
        }
      ],
      "payable": false,
      "stateMutability": "view",
      "type": "function"
    },
    {
      "constant": false,
      "inputs": [],
      "name": "exchangeRateCurrent",
      "outputs": [
        {
          "internalType": "uint256",
          "name": "",
          "type": "uint256"
        }
      ],
      "payable": false,
      "stateMutability": "nonpayable",
      "type": "function"
    },
    {
      "constant": true,
      "inputs": [],
      "name": "exchangeRateStored",
      "outputs": [
        {
          "internalType": "uint256",
          "name": "",
          "type": "uint256"
        }
      ],
      "payable": false,
      "stateMutability": "view",
      "type": "function"
    },
    {
      "constant": true,
      "inputs": [
        {
          "internalType": "address",
          "name": "token",
          "type": "address"
        },
        {
          "internalType": "uint256",
          "name": "amount",
          "type": "uint256"
        }
      ],
      "name": "flashFee",
      "outputs": [
        {
          "internalType": "uint256",
          "name": "",
          "type": "uint256"
        }
      ],
      "payable": false,
      "stateMutability": "view",
      "type": "function"
    },
    {
      "constant": true,
      "inputs": [],
      "name": "flashFeeBips",
      "outputs": [
        {
          "internalType": "uint256",
          "name": "",
          "type": "uint256"
        }
      ],
      "payable": false,
      "stateMutability": "view",
      "type": "function"
    },
    {
      "constant": false,
      "inputs": [
        {
          "internalType": "contract ERC3156FlashBorrowerInterface",
          "name": "receiver",
          "type": "address"
        },
        {
          "internalType": "address",
          "name": "token",
          "type": "address"
        },
        {
          "internalType": "uint256",
          "name": "amount",
          "type": "uint256"
        },
        {
          "internalType": "bytes",
          "name": "data",
          "type": "bytes"
        }
      ],
      "name": "flashLoan",
      "outputs": [
        {
          "internalType": "bool",
          "name": "",
          "type": "bool"
        }
      ],
      "payable": false,
      "stateMutability": "nonpayable",
      "type": "function"
    },
    {
      "constant": true,
      "inputs": [
        {
          "internalType": "address",
          "name": "account",
          "type": "address"
        }
      ],
      "name": "getAccountSnapshot",
      "outputs": [
        {
          "internalType": "uint256",
          "name": "",
          "type": "uint256"
        },
        {
          "internalType": "uint256",
          "name": "",
          "type": "uint256"
        },
        {
          "internalType": "uint256",
          "name": "",
          "type": "uint256"
        },
        {
          "internalType": "uint256",
          "name": "",
          "type": "uint256"
        }
      ],
      "payable": false,
      "stateMutability": "view",
      "type": "function"
    },
    {
      "constant": true,
      "inputs": [],
      "name": "getCash",
      "outputs": [
        {
          "internalType": "uint256",
          "name": "",
          "type": "uint256"
        }
      ],
      "payable": false,
      "stateMutability": "view",
      "type": "function"
    },
    {
      "constant": false,
      "inputs": [],
      "name": "gulp",
      "outputs": [],
      "payable": false,
      "stateMutability": "nonpayable",
      "type": "function"
    },
    {
      "constant": true,
      "inputs": [],
      "name": "implementation",
      "outputs": [
        {
          "internalType": "address",
          "name": "",
          "type": "address"
        }
      ],
      "payable": false,
      "stateMutability": "view",
      "type": "function"
    },
    {
      "constant": false,
      "inputs": [
        {
          "internalType": "address",
          "name": "underlying_",
          "type": "address"
        },
        {
          "internalType": "contract ComptrollerInterface",
          "name": "comptroller_",
          "type": "address"
        },
        {
          "internalType": "contract InterestRateModel",
          "name": "interestRateModel_",
          "type": "address"
        },
        {
          "internalType": "uint256",
          "name": "initialExchangeRateMantissa_",
          "type": "uint256"
        },
        {
          "internalType": "string",
          "name": "name_",
          "type": "string"
        },
        {
          "internalType": "string",
          "name": "symbol_",
          "type": "string"
        },
        {
          "internalType": "uint8",
          "name": "decimals_",
          "type": "uint8"
        }
      ],
      "name": "initialize",
      "outputs": [],
      "payable": false,
      "stateMutability": "nonpayable",
      "type": "function"
    },
    {
      "constant": false,
      "inputs": [
        {
          "internalType": "contract ComptrollerInterface",
          "name": "comptroller_",
          "type": "address"
        },
        {
          "internalType": "contract InterestRateModel",
          "name": "interestRateModel_",
          "type": "address"
        },
        {
          "internalType": "uint256",
          "name": "initialExchangeRateMantissa_",
          "type": "uint256"
        },
        {
          "internalType": "string",
          "name": "name_",
          "type": "string"
        },
        {
          "internalType": "string",
          "name": "symbol_",
          "type": "string"
        },
        {
          "internalType": "uint8",
          "name": "decimals_",
          "type": "uint8"
        }
      ],
      "name": "initialize",
      "outputs": [],
      "payable": false,
      "stateMutability": "nonpayable",
      "type": "function"
    },
    {
      "constant": true,
      "inputs": [],
      "name": "interestRateModel",
      "outputs": [
        {
          "internalType": "contract InterestRateModel",
          "name": "",
          "type": "address"
        }
      ],
      "payable": false,
      "stateMutability": "view",
      "type": "function"
    },
    {
      "constant": true,
      "inputs": [],
      "name": "internalCash",
      "outputs": [
        {
          "internalType": "uint256",
          "name": "",
          "type": "uint256"
        }
      ],
      "payable": false,
      "stateMutability": "view",
      "type": "function"
    },
    {
      "constant": true,
      "inputs": [],
      "name": "isCToken",
      "outputs": [
        {
          "internalType": "bool",
          "name": "",
          "type": "bool"
        }
      ],
      "payable": false,
      "stateMutability": "view",
      "type": "function"
    },
    {
      "constant": true,
      "inputs": [
        {
          "internalType": "address",
          "name": "",
          "type": "address"
        }
      ],
      "name": "isCollateralTokenInit",
      "outputs": [
        {
          "internalType": "bool",
          "name": "",
          "type": "bool"
        }
      ],
      "payable": false,
      "stateMutability": "view",
      "type": "function"
    },
    {
      "constant": false,
      "inputs": [
        {
          "internalType": "address",
          "name": "borrower",
          "type": "address"
        },
        {
          "internalType": "uint256",
          "name": "repayAmount",
          "type": "uint256"
        },
        {
          "internalType": "contract CTokenInterface",
          "name": "cTokenCollateral",
          "type": "address"
        }
      ],
      "name": "liquidateBorrow",
      "outputs": [
        {
          "internalType": "uint256",
          "name": "",
          "type": "uint256"
        }
      ],
      "payable": false,
      "stateMutability": "nonpayable",
      "type": "function"
    },
    {
      "constant": true,
      "inputs": [
        {
          "internalType": "address",
          "name": "token",
          "type": "address"
        }
      ],
      "name": "maxFlashLoan",
      "outputs": [
        {
          "internalType": "uint256",
          "name": "",
          "type": "uint256"
        }
      ],
      "payable": false,
      "stateMutability": "view",
      "type": "function"
    },
    {
      "constant": false,
      "inputs": [
        {
          "internalType": "uint256",
          "name": "mintAmount",
          "type": "uint256"
        }
      ],
      "name": "mint",
      "outputs": [
        {
          "internalType": "uint256",
          "name": "",
          "type": "uint256"
        }
      ],
      "payable": false,
      "stateMutability": "nonpayable",
      "type": "function"
    },
    {
      "constant": true,
      "inputs": [],
      "name": "name",
      "outputs": [
        {
          "internalType": "string",
          "name": "",
          "type": "string"
        }
      ],
      "payable": false,
      "stateMutability": "view",
      "type": "function"
    },
    {
      "constant": true,
      "inputs": [],
      "name": "pendingAdmin",
      "outputs": [
        {
          "internalType": "address payable",
          "name": "",
          "type": "address"
        }
      ],
      "payable": false,
      "stateMutability": "view",
      "type": "function"
    },
    {
      "constant": false,
      "inputs": [
        {
          "internalType": "uint256",
          "name": "redeemTokens",
          "type": "uint256"
        }
      ],
      "name": "redeem",
      "outputs": [
        {
          "internalType": "uint256",
          "name": "",
          "type": "uint256"
        }
      ],
      "payable": false,
      "stateMutability": "nonpayable",
      "type": "function"
    },
    {
      "constant": false,
      "inputs": [
        {
          "internalType": "uint256",
          "name": "redeemAmount",
          "type": "uint256"
        }
      ],
      "name": "redeemUnderlying",
      "outputs": [
        {
          "internalType": "uint256",
          "name": "",
          "type": "uint256"
        }
      ],
      "payable": false,
      "stateMutability": "nonpayable",
      "type": "function"
    },
    {
      "constant": false,
      "inputs": [
        {
          "internalType": "address",
          "name": "account",
          "type": "address"
        }
      ],
      "name": "registerCollateral",
      "outputs": [
        {
          "internalType": "uint256",
          "name": "",
          "type": "uint256"
        }
      ],
      "payable": false,
      "stateMutability": "nonpayable",
      "type": "function"
    },
    {
      "constant": false,
      "inputs": [
        {
          "internalType": "uint256",
          "name": "repayAmount",
          "type": "uint256"
        }
      ],
      "name": "repayBorrow",
      "outputs": [
        {
          "internalType": "uint256",
          "name": "",
          "type": "uint256"
        }
      ],
      "payable": false,
      "stateMutability": "nonpayable",
      "type": "function"
    },
    {
      "constant": false,
      "inputs": [
        {
          "internalType": "address",
          "name": "borrower",
          "type": "address"
        },
        {
          "internalType": "uint256",
          "name": "repayAmount",
          "type": "uint256"
        }
      ],
      "name": "repayBorrowBehalf",
      "outputs": [
        {
          "internalType": "uint256",
          "name": "",
          "type": "uint256"
        }
      ],
      "payable": false,
      "stateMutability": "nonpayable",
      "type": "function"
    },
    {
      "constant": true,
      "inputs": [],
      "name": "reserveFactorMantissa",
      "outputs": [
        {
          "internalType": "uint256",
          "name": "",
          "type": "uint256"
        }
      ],
      "payable": false,
      "stateMutability": "view",
      "type": "function"
    },
    {
      "constant": false,
      "inputs": [
        {
          "internalType": "address",
          "name": "liquidator",
          "type": "address"
        },
        {
          "internalType": "address",
          "name": "borrower",
          "type": "address"
        },
        {
          "internalType": "uint256",
          "name": "seizeTokens",
          "type": "uint256"
        }
      ],
      "name": "seize",
      "outputs": [
        {
          "internalType": "uint256",
          "name": "",
          "type": "uint256"
        }
      ],
      "payable": false,
      "stateMutability": "nonpayable",
      "type": "function"
    },
    {
      "constant": true,
      "inputs": [],
      "name": "supplyRatePerBlock",
      "outputs": [
        {
          "internalType": "uint256",
          "name": "",
          "type": "uint256"
        }
      ],
      "payable": false,
      "stateMutability": "view",
      "type": "function"
    },
    {
      "constant": true,
      "inputs": [],
      "name": "symbol",
      "outputs": [
        {
          "internalType": "string",
          "name": "",
          "type": "string"
        }
      ],
      "payable": false,
      "stateMutability": "view",
      "type": "function"
    },
    {
      "constant": true,
      "inputs": [],
      "name": "totalBorrows",
      "outputs": [
        {
          "internalType": "uint256",
          "name": "",
          "type": "uint256"
        }
      ],
      "payable": false,
      "stateMutability": "view",
      "type": "function"
    },
    {
      "constant": false,
      "inputs": [],
      "name": "totalBorrowsCurrent",
      "outputs": [
        {
          "internalType": "uint256",
          "name": "",
          "type": "uint256"
        }
      ],
      "payable": false,
      "stateMutability": "nonpayable",
      "type": "function"
    },
    {
      "constant": true,
      "inputs": [],
      "name": "totalCollateralTokens",
      "outputs": [
        {
          "internalType": "uint256",
          "name": "",
          "type": "uint256"
        }
      ],
      "payable": false,
      "stateMutability": "view",
      "type": "function"
    },
    {
      "constant": true,
      "inputs": [],
      "name": "totalReserves",
      "outputs": [
        {
          "internalType": "uint256",
          "name": "",
          "type": "uint256"
        }
      ],
      "payable": false,
      "stateMutability": "view",
      "type": "function"
    },
    {
      "constant": true,
      "inputs": [],
      "name": "totalSupply",
      "outputs": [
        {
          "internalType": "uint256",
          "name": "",
          "type": "uint256"
        }
      ],
      "payable": false,
      "stateMutability": "view",
      "type": "function"
    },
    {
      "constant": false,
      "inputs": [
        {
          "internalType": "address",
          "name": "dst",
          "type": "address"
        },
        {
          "internalType": "uint256",
          "name": "amount",
          "type": "uint256"
        }
      ],
      "name": "transfer",
      "outputs": [
        {
          "internalType": "bool",
          "name": "",
          "type": "bool"
        }
      ],
      "payable": false,
      "stateMutability": "nonpayable",
      "type": "function"
    },
    {
      "constant": false,
      "inputs": [
        {
          "internalType": "address",
          "name": "src",
          "type": "address"
        },
        {
          "internalType": "address",
          "name": "dst",
          "type": "address"
        },
        {
          "internalType": "uint256",
          "name": "amount",
          "type": "uint256"
        }
      ],
      "name": "transferFrom",
      "outputs": [
        {
          "internalType": "bool",
          "name": "",
          "type": "bool"
        }
      ],
      "payable": false,
      "stateMutability": "nonpayable",
      "type": "function"
    },
    {
      "constant": true,
      "inputs": [],
      "name": "underlying",
      "outputs": [
        {
          "internalType": "address",
          "name": "",
          "type": "address"
        }
      ],
      "payable": false,
      "stateMutability": "view",
      "type": "function"
    },
    {
      "constant": false,
      "inputs": [
        {
          "internalType": "address",
          "name": "account",
          "type": "address"
        }
      ],
      "name": "unregisterCollateral",
      "outputs": [],
      "payable": false,
      "stateMutability": "nonpayable",
      "type": "function"
    }
  ],
  "transactionHash": "0x24d6cd8fffdc651a106695b9bacf6b1f8f42837eece56bfd12065d9c8a7b2aa5",
  "args": [],
  "solcInputHash": "c0aecf3333c4dc7ec1c19f681d1ad00c",
  "bytecode": "0x608060405234801561001057600080fd5b50615ee180620000216000396000f3fe608060405234801561001057600080fd5b50600436106103e65760003560e01c8063852a12e31161020a578063bd6d894d11610125578063e9c714f2116100b8578063f5e3c46211610087578063f5e3c46214610df8578063f851a44014610e2e578063f8f9da2814610e36578063fca7820b14610e3e578063fe9c44ae14610e5b576103e6565b8063e9c714f214610dba578063ea11eea414610dc2578063f2b3abbd14610dca578063f3fdb15a14610df0576103e6565b8063d2bb18e9116100f4578063d2bb18e914610d3b578063d9d98ce414610d43578063db006a7514610d6f578063dd62ed3e14610d8c576103e6565b8063bd6d894d14610ca4578063c37f68e214610cac578063c5ebeaec14610cf8578063d240d64a14610d15576103e6565b806399d8c1b41161019d578063aa5af0fd1161016c578063aa5af0fd14610c38578063ae9d70b014610c40578063b2a02ff114610c48578063b71d1a0c14610c7e576103e6565b806399d8c1b414610a99578063a0712d6814610be7578063a6afed9514610c04578063a9059cbb14610c0c576103e6565b80638f840ddd116101d95780638f840ddd14610a5b57806394909e6214610a6357806395d89b4114610a6b57806395dd919314610a73576103e6565b8063852a12e3146109cc57806385d8a2e6146109e95780638897bd8514610a0f5780638b35776b14610a35576103e6565b8063313ce567116103055780635cffe9de116102985780636c540baf116102675780636c540baf146109715780636f307dc31461097957806370a082311461098157806373acee98146109a757806381cf00eb146109af576103e6565b80635cffe9de146108985780635fe3b56714610926578063601a0bf11461092e578063613255ab1461094b576103e6565b80634576b5db116102d45780634576b5db146107be57806347bd3718146107e457806356e67728146107ec5780635c60da1b14610890576103e6565b8063313ce567146107555780633af9e669146107735780633b1d21a2146107995780633e941010146107a1576103e6565b806318160ddd1161037d57806322abdbf51161034c57806322abdbf5146106c757806323b872dd146106cf5780632608f818146107055780632678224714610731576103e6565b806318160ddd14610559578063182df0f51461056157806319a4dd3c146105695780631a31d46514610571576103e6565b80630f226888116103b95780630f226888146104fc578063153ab50514610521578063173b99041461052b57806317bfdfbc14610533576103e6565b806305dd00b8146103eb57806306fdde0314610422578063095ea7b31461049f5780630e752702146104df575b600080fd5b6104106004803603604081101561040157600080fd5b50803590602001351515610e63565b60408051918252519081900360200190f35b61042a610f4a565b6040805160208082528351818301528351919283929083019185019080838360005b8381101561046457818101518382015260200161044c565b50505050905090810190601f1680156104915780820380516001836020036101000a031916815260200191505b509250505060405180910390f35b6104cb600480360360408110156104b557600080fd5b506001600160a01b038135169060200135610fd7565b604080519115158252519081900360200190f35b610410600480360360208110156104f557600080fd5b5035611042565b6104106004803603604081101561051257600080fd5b5080359060200135151561109b565b61052961114a565b005b61041061119d565b6104106004803603602081101561054957600080fd5b50356001600160a01b03166111a3565b610410611219565b61041061121f565b61041061122f565b610529600480360360e081101561058757600080fd5b6001600160a01b03823581169260208101358216926040820135909216916060820135919081019060a081016080820135600160201b8111156105c957600080fd5b8201836020820111156105db57600080fd5b803590602001918460018302840111600160201b831117156105fc57600080fd5b91908080601f0160208091040260200160405190810160405280939291908181526020018383808284376000920191909152509295949360208101935035915050600160201b81111561064e57600080fd5b82018360208201111561066057600080fd5b803590602001918460018302840111600160201b8311171561068157600080fd5b91908080601f0160208091040260200160405190810160405280939291908181526020018383808284376000920191909152509295505050903560ff1691506112359050565b6104106112d4565b6104cb600480360360608110156106e557600080fd5b506001600160a01b038135811691602081013590911690604001356112da565b6104106004803603604081101561071b57600080fd5b506001600160a01b03813516906020013561134c565b6107396113ae565b604080516001600160a01b039092168252519081900360200190f35b61075d6113bd565b6040805160ff9092168252519081900360200190f35b6104106004803603602081101561078957600080fd5b50356001600160a01b03166113c6565b610410611415565b610410600480360360208110156107b757600080fd5b503561141f565b610410600480360360208110156107d457600080fd5b50356001600160a01b0316611474565b6104106115b8565b6105296004803603602081101561080257600080fd5b810190602081018135600160201b81111561081c57600080fd5b82018360208201111561082e57600080fd5b803590602001918460018302840111600160201b8311171561084f57600080fd5b91908080601f0160208091040260200160405190810160405280939291908181526020018383808284376000920191909152509295506115be945050505050565b610739611688565b6104cb600480360360808110156108ae57600080fd5b6001600160a01b03823581169260208101359091169160408201359190810190608081016060820135600160201b8111156108e857600080fd5b8201836020820111156108fa57600080fd5b803590602001918460018302840111600160201b8311171561091b57600080fd5b509092509050611697565b610739611b95565b6104106004803603602081101561094457600080fd5b5035611ba4565b6104106004803603602081101561096157600080fd5b50356001600160a01b0316611c3f565b610410611d04565b610739611d0a565b6104106004803603602081101561099757600080fd5b50356001600160a01b0316611d19565b610410611d34565b610529600480360360208110156109c557600080fd5b5035611da0565b610410600480360360208110156109e257600080fd5b5035611e34565b6104cb600480360360208110156109ff57600080fd5b50356001600160a01b0316611e93565b61041060048036036020811015610a2557600080fd5b50356001600160a01b0316611ea8565b61052960048036036020811015610a4b57600080fd5b50356001600160a01b0316611f3f565b610410612095565b61052961209b565b61042a612130565b61041060048036036020811015610a8957600080fd5b50356001600160a01b0316612188565b610529600480360360c0811015610aaf57600080fd5b6001600160a01b03823581169260208101359091169160408201359190810190608081016060820135600160201b811115610ae957600080fd5b820183602082011115610afb57600080fd5b803590602001918460018302840111600160201b83111715610b1c57600080fd5b91908080601f0160208091040260200160405190810160405280939291908181526020018383808284376000920191909152509295949360208101935035915050600160201b811115610b6e57600080fd5b820183602082011115610b8057600080fd5b803590602001918460018302840111600160201b83111715610ba157600080fd5b91908080601f0160208091040260200160405190810160405280939291908181526020018383808284376000920191909152509295505050903560ff1691506121939050565b61041060048036036020811015610bfd57600080fd5b5035612399565b6104106123eb565b6104cb60048036036040811015610c2257600080fd5b506001600160a01b0381351690602001356125f2565b610410612664565b61041061266a565b61041060048036036060811015610c5e57600080fd5b506001600160a01b03813581169160208101359091169060400135612709565b61041060048036036020811015610c9457600080fd5b50356001600160a01b031661277a565b610410612806565b610cd260048036036020811015610cc257600080fd5b50356001600160a01b0316612878565b604080519485526020850193909352838301919091526060830152519081900360800190f35b61041060048036036020811015610d0e57600080fd5b50356128b4565b61041060048036036020811015610d2b57600080fd5b50356001600160a01b0316612903565b610410612915565b61041060048036036040811015610d5957600080fd5b506001600160a01b03813516906020013561291b565b61041060048036036020811015610d8557600080fd5b5035612a5b565b61041060048036036040811015610da257600080fd5b506001600160a01b0381358116916020013516612aaa565b610410612ad5565b610410612bd8565b61041060048036036020811015610de057600080fd5b50356001600160a01b0316612bdd565b610739612c17565b61041060048036036060811015610e0e57600080fd5b506001600160a01b03813581169160208101359160409091013516612c26565b610739612c94565b610410612ca8565b61041060048036036020811015610e5457600080fd5b5035612d0c565b6104cb612d8a565b60008060008315610e9457610e7f610e79612d8f565b86612d95565b9150610e8d600b5486612dcb565b9050610eb6565b610ea5610e9f612d8f565b86612dcb565b9150610eb3600b5486612d95565b90505b600654600c54604080516315f2405360e01b815260048101869052602481018590526044810192909252516001600160a01b03909216916315f2405391606480820192602092909190829003018186803b158015610f1357600080fd5b505afa158015610f27573d6000803e3d6000fd5b505050506040513d6020811015610f3d57600080fd5b5051925050505b92915050565b60018054604080516020600284861615610100026000190190941693909304601f81018490048402820184019092528181529291830182828015610fcf5780601f10610fa457610100808354040283529160200191610fcf565b820191906000526020600020905b815481529060010190602001808311610fb257829003601f168201915b505050505081565b336000818152600f602090815260408083206001600160a01b03871680855290835281842086905581518681529151939493909284927f8c5be1e5ebec7d5bd14f71427d1e84f3dd0314c0f7b2291e5b200ac8c7c3b925929081900390910190a35060019392505050565b600080611050836000612e05565b5090508015611095576040805162461bcd60e51b815260206004820152600c60248201526b1c995c185e4819985a5b195960a21b604482015290519081900360640190fd5b50919050565b600080600083156110c6576110b1610e79612d8f565b91506110bf600b5486612dcb565b90506110e2565b6110d1610e9f612d8f565b91506110df600b5486612d95565b90505b600654600c5460085460408051635c0b440b60e11b8152600481018790526024810186905260448101939093526064830191909152516001600160a01b039092169163b816881691608480820192602092909190829003018186803b158015610f1357600080fd5b60035461010090046001600160a01b0316331461119b576040805162461bcd60e51b815260206004820152600a60248201526961646d696e206f6e6c7960b01b604482015290519081900360640190fd5b565b60085481565b6000805460ff166111e8576040805162461bcd60e51b815260206004820152600a6024820152691c994b595b9d195c995960b21b604482015290519081900360640190fd5b6000805460ff191690556111fa6123eb565b5061120482612188565b90505b6000805460ff19166001179055919050565b600d5481565b6000611229612e85565b90505b90565b60145481565b611243868686868686612193565b601180546001600160a01b0319166001600160a01b038981169190911791829055604080516318160ddd60e01b8152905192909116916318160ddd91600480820192602092909190829003018186803b15801561129f57600080fd5b505afa1580156112b3573d6000803e3d6000fd5b505050506040513d60208110156112c957600080fd5b505050505050505050565b60135481565b6000805460ff1661131f576040805162461bcd60e51b815260206004820152600a6024820152691c994b595b9d195c995960b21b604482015290519081900360640190fd5b6000805460ff1916815561133533868686612eeb565b1490506000805460ff191660011790559392505050565b60008061135b84846000613300565b50905080156113a7576040805162461bcd60e51b81526020600482015260136024820152721c995c185e4818995a185b198819985a5b1959606a1b604482015290519081900360640190fd5b5092915050565b6004546001600160a01b031681565b60035460ff1681565b60006113d0615ce4565b60405180602001604052806113e3612806565b90526001600160a01b0384166000908152600e602052604090205490915061140c908290613381565b9150505b919050565b6000611229612d8f565b600061142c8260006133a0565b15611410576040805162461bcd60e51b8152602060048201526013602482015272185919081c995cd95c9d995cc819985a5b1959606a1b604482015290519081900360640190fd5b60035460009061010090046001600160a01b031633146114a15761149a6001602961343e565b9050611410565b60055460408051623f1ee960e11b815290516001600160a01b0392831692851691627e3dd2916004808301926020929190829003018186803b1580156114e657600080fd5b505afa1580156114fa573d6000803e3d6000fd5b505050506040513d602081101561151057600080fd5b5051611555576040805162461bcd60e51b815260206004820152600f60248201526e3737ba1031b7b6b83a3937b63632b960891b604482015290519081900360640190fd5b600580546001600160a01b0319166001600160a01b03858116918217909255604080519284168352602083019190915280517f7ac369dbd14fa5ea3f473ed67cc9d598964a77501540ba6751eb0b3decf5870d9281900390910190a1600061140c565b600b5481565b60035461010090046001600160a01b0316331461160f576040805162461bcd60e51b815260206004820152600a60248201526961646d696e206f6e6c7960b01b604482015290519081900360640190fd5b6116176134a4565b601355600554604080516344e3de7360e01b81523060048201526001602482015290516001600160a01b03909216916344e3de739160448082019260009290919082900301818387803b15801561166d57600080fd5b505af1158015611681573d6000803e3d6000fd5b5050505050565b6012546001600160a01b031681565b6000805460ff166116dc576040805162461bcd60e51b815260206004820152600a6024820152691c994b595b9d195c995960b21b604482015290519081900360640190fd5b6000805460ff1916905583611738576040805162461bcd60e51b815260206004820152601860248201527f696e76616c696420666c6173686c6f616e20616d6f756e740000000000000000604482015290519081900360640190fd5b6011546001600160a01b03868116911614611791576040805162461bcd60e51b8152602060048201526014602482015273756e737570706f727465642063757272656e637960601b604482015290519081900360640190fd5b6117996123eb565b506005546040516358d5bc7360e11b815230600482018181526001600160a01b038a81166024850152604484018990526080606485019081526084850188905294169363b1ab78e6938b928a928a928a92919060a401848480828437600081840152601f19601f820116905080830192505050965050505050505060206040518083038186803b15801561182c57600080fd5b505afa158015611840573d6000803e3d6000fd5b505050506040513d602081101561185657600080fd5b505161189f576040805162461bcd60e51b8152602060048201526013602482015272199b185cda1b1bd85b881a5cc81c185d5cd959606a1b604482015290519081900360640190fd5b60006118a96134a4565b905060006118b5612d8f565b905085811015611905576040805162461bcd60e51b8152602060048201526016602482015275494e53554646494349454e545f4c495155494449545960501b604482015290519081900360640190fd5b60006119118888613524565b905061191f8988600061353c565b61192b600b5488612d95565b600b55604051806029615e4482396040519081900360290181206011546323e30c8b60e01b835233600484018181526001600160a01b0392831660248601819052604486018e90526064860188905260a06084870190815260a487018d9052949650928f16946323e30c8b949293928e9289928f928f929160c401848480828437600081840152601f19601f820116905080830192505050975050505050505050602060405180830381600087803b1580156119e657600080fd5b505af11580156119fa573d6000803e3d6000fd5b505050506040513d6020811015611a1057600080fd5b505114611a64576040805162461bcd60e51b815260206004820152601960248201527f49455243333135363a2043616c6c6261636b206661696c656400000000000000604482015290519081900360640190fd5b6000611a708883612d95565b9050611a7e8a826000613635565b506000611a896134a4565b9050611a958584612d95565b8114611adf576040805162461bcd60e51b8152602060048201526014602482015273109053105390d157d25390d3d394d254d511539560621b604482015290519081900360640190fd5b6000611afb604051806020016040528060085481525085613381565b9050611b09600c5482612d95565b600c55611b168585612d95565b601355600b54611b26908b612dcb565b600b55604080518b81526020810186905280820183905290516001600160a01b038e16917f33c8e097c526683cbdb29adf782fac95e9d0fbe0ed635c13d8c75fdf726557d9919081900360600190a2600196505050505050506000805460ff1916600117905595945050505050565b6005546001600160a01b031681565b6000805460ff16611be9576040805162461bcd60e51b815260206004820152600a6024820152691c994b595b9d195c995960b21b604482015290519081900360640190fd5b6000805460ff19168155611bfb6123eb565b90508015611c2157611c19816010811115611c1257fe5b601d61343e565b915050611207565b611c2a83613838565b9150506000805460ff19166001179055919050565b60115460009081906001600160a01b038481169116148015611cf05750600554604080516358d5bc7360e11b81523060048201526000602482018190526044820185905260806064830152608482015290516001600160a01b039092169163b1ab78e69160c480820192602092909190829003018186803b158015611cc357600080fd5b505afa158015611cd7573d6000803e3d6000fd5b505050506040513d6020811015611ced57600080fd5b50515b15610f4457611cfd612d8f565b9392505050565b60095481565b6011546001600160a01b031681565b6001600160a01b03166000908152600e602052604090205490565b6000805460ff16611d79576040805162461bcd60e51b815260206004820152600a6024820152691c994b595b9d195c995960b21b604482015290519081900360640190fd5b6000805460ff19169055611d8b6123eb565b5050600b546000805460ff1916600117905590565b60035461010090046001600160a01b03163314611df1576040805162461bcd60e51b815260206004820152600a60248201526961646d696e206f6e6c7960b01b604482015290519081900360640190fd5b6017819055604080513081526020810183905281517f01b7c780e0f385803fe80cbe0efc086d13b8eb443a2ce43e2061fd92bc0e34f1929181900390910190a150565b6000611e41826000613936565b15611410576040805162461bcd60e51b815260206004820152601860248201527f72656465656d20756e6465726c79696e67206661696c65640000000000000000604482015290519081900360640190fd5b60166020526000908152604090205460ff1681565b6000611eb3826139b0565b6005546001600160a01b03163314611f05576040805162461bcd60e51b815260206004820152601060248201526f636f6d7074726f6c6c6572206f6e6c7960801b604482015290519081900360640190fd5b6001600160a01b0382166000908152600e60209081526040808320546015909252822054611f339190612dcb565b905061140c8382613af2565b611f48816139b0565b6005546001600160a01b03163314611f9a576040805162461bcd60e51b815260206004820152601060248201526f636f6d7074726f6c6c6572206f6e6c7960801b604482015290519081900360640190fd5b6005546001600160a01b03828116600081815260156020908152604080832054815163eabe7d9160e01b81523060048201526024810195909552604485015251939094169363eabe7d9193606480850194929391928390030190829087803b15801561200557600080fd5b505af1158015612019573d6000803e3d6000fd5b505050506040513d602081101561202f57600080fd5b50511561206e576040805162461bcd60e51b81526020600482015260086024820152671c995a9958dd195960c21b604482015290519081900360640190fd5b6001600160a01b038116600090815260156020526040902054612092908290613c45565b50565b600c5481565b60005460ff166120df576040805162461bcd60e51b815260206004820152600a6024820152691c994b595b9d195c995960b21b604482015290519081900360640190fd5b6000805460ff191681556120f16134a4565b905060006120fd612d8f565b9050600061210b8383612dcb565b9050612119600c5482612d95565b600c5550506013556000805460ff19166001179055565b6002805460408051602060018416156101000260001901909316849004601f81018490048402820184019092528181529291830182828015610fcf5780601f10610fa457610100808354040283529160200191610fcf565b6000610f4482613ccb565b60035461010090046001600160a01b031633146121e4576040805162461bcd60e51b815260206004820152600a60248201526961646d696e206f6e6c7960b01b604482015290519081900360640190fd5b6009541580156121f45750600a54155b612233576040805162461bcd60e51b815260206004820152600b60248201526a1a5b9a5d1a585b1a5e995960aa1b604482015290519081900360640190fd5b600784905583612282576040805162461bcd60e51b8152602060048201526015602482015274696e76616c69642065786368616e6765207261746560581b604482015290519081900360640190fd5b600061228d87611474565b905080156122e2576040805162461bcd60e51b815260206004820152601960248201527f6661696c656420746f2073657420636f6d7074726f6c6c657200000000000000604482015290519081900360640190fd5b6122ea613d20565b600955670de0b6b3a7640000600a5561230286613d24565b9050801561234b576040805162461bcd60e51b81526020600482015260116024820152706661696c656420746f207365742049524d60781b604482015290519081900360640190fd5b835161235e906001906020870190615cf7565b508251612372906002906020860190615cf7565b50506003805460ff90921660ff199283161790556000805490911660011790555050505050565b6000806123a7836000613e87565b5090508015611095576040805162461bcd60e51b815260206004820152600b60248201526a1b5a5b9d0819985a5b195960aa1b604482015290519081900360640190fd5b6000806123f6613d20565b6009549091508082141561240f5760009250505061122c565b6000612419612d8f565b600b54600c54600a54600654604080516315f2405360e01b815260048101879052602481018690526044810185905290519596509394929391926000926001600160a01b03909216916315f24053916064808301926020929190829003018186803b15801561248757600080fd5b505afa15801561249b573d6000803e3d6000fd5b505050506040513d60208110156124b157600080fd5b5051905065048c27395000811115612507576040805162461bcd60e51b81526020600482015260146024820152730c4dee4e4deee40e4c2e8ca40e8dede40d0d2ced60631b604482015290519081900360640190fd5b60006125138888612dcb565b905061251d615ce4565b61253560405180602001604052808581525083613eec565b905060006125438288613381565b905060006125518289612d95565b905060006125706040518060200160405280600854815250848a613f16565b9050600061257f85898a613f16565b60098e9055600a819055600b849055600c839055604080518d8152602081018790528082018390526060810186905290519192507f4dec04e750ca11537cabcd8a9eab06494de08da3735bc8871cd41250e190bc04919081900360800190a160009d505050505050505050505050505090565b6000805460ff16612637576040805162461bcd60e51b815260206004820152600a6024820152691c994b595b9d195c995960b21b604482015290519081900360640190fd5b6000805460ff1916815561264d33338686612eeb565b1490505b6000805460ff1916600117905592915050565b600a5481565b6006546000906001600160a01b031663b8168816612686612d8f565b600b54600c546008546040518563ffffffff1660e01b81526004018085815260200184815260200183815260200182815260200194505050505060206040518083038186803b1580156126d857600080fd5b505afa1580156126ec573d6000803e3d6000fd5b505050506040513d602081101561270257600080fd5b5051905090565b6000805460ff1661274e576040805162461bcd60e51b815260206004820152600a6024820152691c994b595b9d195c995960b21b604482015290519081900360640190fd5b6000805460ff1916905561276433858585613f3e565b90506000805460ff191660011790559392505050565b60035460009061010090046001600160a01b031633146127a05761149a6001602f61343e565b600480546001600160a01b038481166001600160a01b0319831681179093556040805191909216808252602082019390935281517fca4f2f25d0898edd99413412fb94012f9e54ec8142f9b093e7720646a95b16a9929181900390910190a1600061140c565b6000805460ff1661284b576040805162461bcd60e51b815260206004820152600a6024820152691c994b595b9d195c995960b21b604482015290519081900360640190fd5b6000805460ff1916905561285d6123eb565b5061286661121f565b90506000805460ff1916600117905590565b60008060008060006128898661429a565b9050600061289687613ccb565b905060006128a2612e85565b90506000989297509095509350915050565b60006128c18260006142f9565b15611410576040805162461bcd60e51b815260206004820152600d60248201526c189bdc9c9bddc819985a5b1959609a1b604482015290519081900360640190fd5b60156020526000908152604090205481565b60175481565b6011546000906001600160a01b03848116911614612977576040805162461bcd60e51b8152602060048201526014602482015273756e737570706f727465642063757272656e637960601b604482015290519081900360640190fd5b600554604080516358d5bc7360e11b81523060048201526000602482018190526044820186905260806064830152608482015290516001600160a01b039092169163b1ab78e69160c480820192602092909190829003018186803b1580156129de57600080fd5b505afa1580156129f2573d6000803e3d6000fd5b505050506040513d6020811015612a0857600080fd5b5051612a51576040805162461bcd60e51b8152602060048201526013602482015272199b185cda1b1bd85b881a5cc81c185d5cd959606a1b604482015290519081900360640190fd5b611cfd8383613524565b6000612a6882600061435c565b15611410576040805162461bcd60e51b815260206004820152600d60248201526c1c995919595b4819985a5b1959609a1b604482015290519081900360640190fd5b6001600160a01b039182166000908152600f6020908152604080832093909416825291909152205490565b6004546000906001600160a01b031633141580612af0575033155b15612b0857612b016001600061343e565b905061122c565b60038054600480546001600160a01b03818116610100818102610100600160a81b0319871617968790556001600160a01b031990931690935560408051948390048216808652929095041660208401528351909391927ff9ffabca9c8276e99321725bcb43fb076a6c66a54b7f21c4e8146d8519b417dc92908290030190a1600454604080516001600160a01b038085168252909216602083015280517fca4f2f25d0898edd99413412fb94012f9e54ec8142f9b093e7720646a95b16a99281900390910190a160009250505090565b600381565b600080612be86123eb565b90508015612c0e57612c06816010811115612bff57fe5b602a61343e565b915050611410565b61140c83613d24565b6006546001600160a01b031681565b600080612c3685858560006143c1565b5090508015612c8c576040805162461bcd60e51b815260206004820152601760248201527f6c697175696461746520626f72726f77206661696c6564000000000000000000604482015290519081900360640190fd5b509392505050565b60035461010090046001600160a01b031681565b6006546000906001600160a01b03166315f24053612cc4612d8f565b600b54600c546040518463ffffffff1660e01b815260040180848152602001838152602001828152602001935050505060206040518083038186803b1580156126d857600080fd5b6000805460ff16612d51576040805162461bcd60e51b815260206004820152600a6024820152691c994b595b9d195c995960b21b604482015290519081900360640190fd5b6000805460ff19168155612d636123eb565b90508015612d8157611c19816010811115612d7a57fe5b603061343e565b611c2a836144f8565b600181565b60135490565b6000611cfd8383604051806040016040528060118152602001706164646974696f6e206f766572666c6f7760781b8152506145a0565b6000611cfd8383604051806040016040528060158152602001747375627472616374696f6e20756e646572666c6f7760581b81525061463b565b60008054819060ff16612e4c576040805162461bcd60e51b815260206004820152600a6024820152691c994b595b9d195c995960b21b604482015290519081900360640190fd5b6000805460ff19169055612e5e6123eb565b50612e6b33338686614695565b915091506000805460ff1916600117905590939092509050565b600d5460009080612e9a57505060075461122c565b6000612ea4612d8f565b90506000612ebf612eb783600b54612d95565b600c54612dcb565b90506000612edb82604051806020016040528087815250614987565b945061122c9350505050565b5090565b6000612ef6846139b0565b612eff836139b0565b6001600160a01b0384166000908152600e60209081526040808320546015909252822054612f2d9190612dcb565b9050600081841115612f3e57508083035b600554604080516317b9b84b60e31b81523060048201526001600160a01b0389811660248301528881166044830152606482018590529151919092169163bdcdc2589160848083019260209291908290030181600087803b158015612fa257600080fd5b505af1158015612fb6573d6000803e3d6000fd5b505050506040513d6020811015612fcc57600080fd5b50511561300b576040805162461bcd60e51b81526020600482015260086024820152671c995a9958dd195960c21b604482015290519081900360640190fd5b846001600160a01b0316866001600160a01b0316141561305e576040805162461bcd60e51b8152602060048201526009602482015268189859081a5b9c1d5d60ba1b604482015290519081900360640190fd5b60006001600160a01b03888116908816141561307d57506000196130a5565b506001600160a01b038087166000908152600f60209081526040808320938b16835292905220545b6001600160a01b0387166000908152600e60205260409020546130c89086612dcb565b6001600160a01b038089166000908152600e602052604080822093909355908816815220546130f79086612d95565b6001600160a01b0387166000908152600e602052604090205581156131fb576001600160a01b0387166000908152601560205260409020546131399083612dcb565b6001600160a01b0380891660009081526015602052604080822093909355908816815220546131689083612d95565b6001600160a01b03808816600090815260156020908152604080832094909455918a1680825290839020548351918252918101919091528151600080516020615e8d833981519152929181900390910190a16001600160a01b038616600081815260156020908152604091829020548251938452908301528051600080516020615e8d8339815191529281900390910190a15b60001981146132355761320e8186612dcb565b6001600160a01b038089166000908152600f60209081526040808320938d16835292905220555b856001600160a01b0316876001600160a01b0316600080516020615e6d833981519152876040518082815260200191505060405180910390a36005546040805163352b4a3f60e11b81523060048201526001600160a01b038a8116602483015289811660448301526064820189905291519190921691636a56947e91608480830192600092919082900301818387803b1580156132d157600080fd5b505af11580156132e5573d6000803e3d6000fd5b50600092506132f2915050565b93505050505b949350505050565b60008054819060ff16613347576040805162461bcd60e51b815260206004820152600a6024820152691c994b595b9d195c995960b21b604482015290519081900360640190fd5b6000805460ff191690556133596123eb565b5061336633868686614695565b915091506000805460ff191660011790559094909350915050565b600061338b615ce4565b6133958484613eec565b90506132f8816149a5565b6000805460ff166133e5576040805162461bcd60e51b815260206004820152600a6024820152691c994b595b9d195c995960b21b604482015290519081900360640190fd5b6000805460ff191681556133f76123eb565b9050801561341d5761341581601081111561340e57fe5b603661343e565b915050612651565b61342784846149b4565b509150506000805460ff1916600117905592915050565b60007f45b96fe442630264581b197e84bbada861235052c5a1aadfff9ea4e40a969aa083601081111561346d57fe5b83603881111561347957fe5b604080519283526020830191909152600082820152519081900360600190a1826010811115611cfd57fe5b601154604080516370a0823160e01b815230600482015290516000926001600160a01b03169182916370a0823191602480820192602092909190829003018186803b1580156134f257600080fd5b505afa158015613506573d6000803e3d6000fd5b505050506040513d602081101561351c57600080fd5b505191505090565b6000611cfd613534836003614a52565b612710614a94565b6011546040805163a9059cbb60e01b81526001600160a01b0386811660048301526024820186905291519190921691829163a9059cbb9160448082019260009290919082900301818387803b15801561359457600080fd5b505af11580156135a8573d6000803e3d6000fd5b5050505060003d600081146135c457602081146135ce57600080fd5b60001991506135da565b60206000803e60005191505b508061361f576040805162461bcd60e51b815260206004820152600f60248201526e1d1c985b9cd9995c8819985a5b1959608a1b604482015290519081900360640190fd5b61362b60135485612dcb565b6013555050505050565b601154604080516370a0823160e01b815230600482015290516000926001600160a01b031691839183916370a08231916024808301926020929190829003018186803b15801561368457600080fd5b505afa158015613698573d6000803e3d6000fd5b505050506040513d60208110156136ae57600080fd5b5051604080516323b872dd60e01b81526001600160a01b038981166004830152306024830152604482018990529151929350908416916323b872dd9160648082019260009290919082900301818387803b15801561370b57600080fd5b505af115801561371f573d6000803e3d6000fd5b5050505060003d6000811461373b576020811461374557600080fd5b6000199150613751565b60206000803e60005191505b5080613796576040805162461bcd60e51b815260206004820152600f60248201526e1d1c985b9cd9995c8819985a5b1959608a1b604482015290519081900360640190fd5b601154604080516370a0823160e01b815230600482015290516000926001600160a01b0316916370a08231916024808301926020929190829003018186803b1580156137e157600080fd5b505afa1580156137f5573d6000803e3d6000fd5b505050506040513d602081101561380b57600080fd5b50519050600061381b8285612dcb565b905061382960135482612d95565b60135598975050505050505050565b600354600090819061010090046001600160a01b0316331461386057612c066001601e61343e565b613868613d20565b6009541461387c57612c06600a602061343e565b82613885612d8f565b101561389757612c06600e601f61343e565b600c548311156138ad57612c066002602161343e565b6138b9600c5484612dcb565b600c8190556003549091506138de9061010090046001600160a01b031684600061353c565b600354604080516101009092046001600160a01b0316825260208201859052818101839052517f3bad0c59cf2f06e7314077049f48a93578cd16f5ef92329f1dab1420a99c177e916060908290030190a1600061140c565b6000805460ff1661397b576040805162461bcd60e51b815260206004820152600a6024820152691c994b595b9d195c995960b21b604482015290519081900360640190fd5b6000805460ff1916905561398d6123eb565b5061399b3360008585614ac7565b90506000805460ff1916600117905592915050565b6001600160a01b03811660009081526016602052604090205460ff16612092576005546040805163929fe9a160e01b81526001600160a01b0384811660048301523060248301529151919092169163929fe9a1916044808301926020929190829003018186803b158015613a2357600080fd5b505afa158015613a37573d6000803e3d6000fd5b505050506040513d6020811015613a4d57600080fd5b505115613acc576001600160a01b0381166000908152600e6020818152604080842054601583529320839055601454919052613a8891612d95565b6014556001600160a01b038116600081815260156020908152604091829020548251938452908301528051600080516020615e8d8339815191529281900390910190a15b6001600160a01b0381166000908152601660205260409020805460ff1916600117905550565b600080613b0160145484612d95565b905060175460001480613b22575060175415801590613b2257506017548111155b15613b9d5760148190556001600160a01b038416600090815260156020526040902054613b4f9084612d95565b6001600160a01b03851660008181526015602090815260409182902084905581519283528201929092528151600080516020615e8d833981519152929181900390910190a182915050610f44565b6014546017541115613c3b576000613bb9601754601454612dcb565b9050613bc760145482612d95565b6014556001600160a01b038516600090815260156020526040902054613bed9082612d95565b6001600160a01b03861660008181526015602090815260409182902084905581519283528201929092528151600080516020615e8d833981519152929181900390910190a19150610f449050565b5060009392505050565b80613c4f57613cc7565b613c5b60145482612dcb565b6014556001600160a01b038216600090815260156020526040902054613c819082612dcb565b6001600160a01b03831660008181526015602090815260409182902084905581519283528201929092528151600080516020615e8d833981519152929181900390910190a15b5050565b6001600160a01b03811660009081526010602052604081208054613cf3576000915050611410565b6000613d058260000154600a54614a52565b90506000613d17828460010154614a94565b95945050505050565b4290565b600354600090819061010090046001600160a01b03163314613d4c57612c066001602c61343e565b613d54613d20565b60095414613d6857612c06600a602b61343e565b600660009054906101000a90046001600160a01b03169050826001600160a01b0316632191f92a6040518163ffffffff1660e01b815260040160206040518083038186803b158015613db957600080fd5b505afa158015613dcd573d6000803e3d6000fd5b505050506040513d6020811015613de357600080fd5b5051613e24576040805162461bcd60e51b815260206004820152600b60248201526a696e76616c69642049524d60a81b604482015290519081900360640190fd5b600680546001600160a01b0319166001600160a01b03858116918217909255604080519284168352602083019190915280517fedffc32e068c7c95dfd4bdfd5c4d939a084d6b11c4199eac8436ed234d72f9269281900390910190a1600061140c565b60008054819060ff16613ece576040805162461bcd60e51b815260206004820152600a6024820152691c994b595b9d195c995960b21b604482015290519081900360640190fd5b6000805460ff19169055613ee06123eb565b50612e6b338585614ea3565b613ef4615ce4565b6040518060200160405280613f0d856000015185614a52565b90529392505050565b6000613f20615ce4565b613f2a8585613eec565b9050613d17613f38826149a5565b84612d95565b6000613f49846139b0565b613f52836139b0565b6005546040805163d02f735160e01b81523060048201526001600160a01b03888116602483015287811660448301528681166064830152608482018690529151919092169163d02f73519160a48083019260209291908290030181600087803b158015613fbe57600080fd5b505af1158015613fd2573d6000803e3d6000fd5b505050506040513d6020811015613fe857600080fd5b505115614027576040805162461bcd60e51b81526020600482015260086024820152671c995a9958dd195960c21b604482015290519081900360640190fd5b81614034575060006132f8565b836001600160a01b0316836001600160a01b03161415614092576040805162461bcd60e51b815260206004820152601460248201527334b73b30b634b21030b1b1b7bab73a103830b4b960611b604482015290519081900360640190fd5b6001600160a01b0383166000908152600e60205260409020546140b59083612dcb565b6001600160a01b038085166000908152600e602052604080822093909355908616815220546140e49083612d95565b6001600160a01b038086166000908152600e602090815260408083209490945591861681526015909152205461411a9083612dcb565b6001600160a01b0380851660009081526015602052604080822093909355908616815220546141499083612d95565b6001600160a01b038086166000818152601560209081526040918290209490945580518681529051919392871692600080516020615e6d83398151915292918290030190a36001600160a01b038316600081815260156020908152604091829020548251938452908301528051600080516020615e8d8339815191529281900390910190a16001600160a01b038416600081815260156020908152604091829020548251938452908301528051600080516020615e8d8339815191529281900390910190a160055460408051636d35bf9160e01b81523060048201526001600160a01b038881166024830152878116604483015286811660648301526084820186905291519190921691636d35bf919160a480830192600092919082900301818387803b15801561427957600080fd5b505af115801561428d573d6000803e3d6000fd5b5060009250613d17915050565b6001600160a01b03811660009081526016602052604081205460ff16156142da57506001600160a01b038116600090815260156020526040902054611410565b506001600160a01b0381166000908152600e6020526040902054611410565b6000805460ff1661433e576040805162461bcd60e51b815260206004820152600a6024820152691c994b595b9d195c995960b21b604482015290519081900360640190fd5b6000805460ff191690556143506123eb565b5061399b338484615224565b6000805460ff166143a1576040805162461bcd60e51b815260206004820152600a6024820152691c994b595b9d195c995960b21b604482015290519081900360640190fd5b6000805460ff191690556143b36123eb565b5061399b3384600085614ac7565b60008054819060ff16614408576040805162461bcd60e51b815260206004820152600a6024820152691c994b595b9d195c995960b21b604482015290519081900360640190fd5b6000805460ff1916905561441a6123eb565b506000846001600160a01b031663a6afed956040518163ffffffff1660e01b8152600401602060405180830381600087803b15801561445857600080fd5b505af115801561446c573d6000803e3d6000fd5b505050506040513d602081101561448257600080fd5b5051146144cf576040805162461bcd60e51b81526020600482015260166024820152751858d8dc9d59481a5b9d195c995cdd0819985a5b195960521b604482015290519081900360640190fd5b6144dc33878787876154b2565b915091506000805460ff19166001179055909590945092505050565b60035460009061010090046001600160a01b0316331461451e5761149a6001603161343e565b614526613d20565b6009541461453a5761149a600a603261343e565b670de0b6b3a76400008211156145565761149a6002603361343e565b6008805490839055604080518281526020810185905281517faaa68312e2ea9d50e16af5068410ab56e1a1fd06037b1a35664812c30f821460929181900390910190a1600061140c565b600083830182858210156146325760405162461bcd60e51b81526004018080602001828103825283818151815260200191508051906020019080838360005b838110156145f75781810151838201526020016145df565b50505050905090810190601f1680156146245780820380516001836020036101000a031916815260200191505b509250505060405180910390fd5b50949350505050565b6000818484111561468d5760405162461bcd60e51b81526020600482018181528351602484015283519092839260449091019190850190808383600083156145f75781810151838201526020016145df565b505050900390565b60055460408051631200453160e11b81523060048201526001600160a01b0387811660248301528681166044830152606482018690529151600093849316916324008a6291608480830192602092919082900301818787803b1580156146fa57600080fd5b505af115801561470e573d6000803e3d6000fd5b505050506040513d602081101561472457600080fd5b505115614763576040805162461bcd60e51b81526020600482015260086024820152671c995a9958dd195960c21b604482015290519081900360640190fd5b61476b613d20565b600954146147b2576040805162461bcd60e51b815260206004820152600f60248201526e6d61726b6574206973207374616c6560881b604482015290519081900360640190fd5b6147ba615d71565b6001600160a01b03861660009081526010602052604090206001015460608201526147e486613ccb565b6080820152600019851415614802576080810151604082015261480a565b604081018590525b61481987826040015186613635565b60e08201819052608082015161482e91612dcb565b60a0820152600b5460e08201516148459190612dcb565b60c0820190815260a080830180516001600160a01b03808b16600081815260106020908152604091829020948555600a546001909501949094559551600b81905560e088015194518751938f16845293830191909152818601939093526060810191909152608081019190915291517f1a2a22cb034d26d1854bdc6666a5b91fe25efbbb5dcad3b0355478d6f5c362a19281900390910190a160055460e0820151606083015160408051631ededc9160e01b81523060048201526001600160a01b038c811660248301528b8116604483015260648201949094526084810192909252519190921691631ededc919160a480830192600092919082900301818387803b15801561495357600080fd5b505af1158015614967573d6000803e3d6000fd5b5060009250614974915050565b8160e00151925092505094509492505050565b6000611cfd61499e84670de0b6b3a7640000614a52565b8351614a94565b51670de0b6b3a7640000900490565b6000806000806149c2613d20565b600954146149e1576149d6600a603761343e565b93509150614a4b9050565b6149ec338787613635565b90506149fa600c5482612d95565b600c819055604080513381526020810184905280820183905290519193507fa91e67c5ea634cd43a12c5a482724b03de01e85ca68702a53d0c2f45cb7c1dc5919081900360600190a1600093509150505b9250929050565b6000611cfd83836040518060400160405280601781526020017f6d756c7469706c69636174696f6e206f766572666c6f77000000000000000000815250615bc0565b6000611cfd83836040518060400160405280600e81526020016d646976696465206279207a65726f60901b815250615c36565b6000614ad2856139b0565b831580614add575082155b614b1a576040805162461bcd60e51b8152602060048201526009602482015268189859081a5b9c1d5d60ba1b604482015290519081900360640190fd5b614b22615db7565b614b2a612e85565b81528415614b5b57602080820186905260408051918201905281518152614b519086613381565b6040820152614b84565b614b778460405180602001604052808460000151815250615c98565b6020820152604081018490525b6001600160a01b0386166000908152600e60209081526040808320546015909252822054614bb29190612dcb565b905060008090508183602001511115614bcf578183602001510390505b6005546040805163eabe7d9160e01b81523060048201526001600160a01b038b81166024830152604482018590529151919092169163eabe7d919160648083019260209291908290030181600087803b158015614c2b57600080fd5b505af1158015614c3f573d6000803e3d6000fd5b505050506040513d6020811015614c5557600080fd5b505115614c94576040805162461bcd60e51b81526020600482015260086024820152671c995a9958dd195960c21b604482015290519081900360640190fd5b614c9c613d20565b60095414614ce3576040805162461bcd60e51b815260206004820152600f60248201526e6d61726b6574206973207374616c6560881b604482015290519081900360640190fd5b8260400151614cf0612d8f565b1015614d37576040805162461bcd60e51b81526020600482015260116024820152700d2dce6eaccccd2c6d2cadce840c6c2e6d607b1b604482015290519081900360640190fd5b614d47600d548460200151612dcb565b600d556001600160a01b0388166000908152600e602090815260409091205490840151614d749190612dcb565b6001600160a01b0389166000908152600e6020526040902055614d978882613c45565b614da68884604001518761353c565b306001600160a01b0316886001600160a01b0316600080516020615e6d83398151915285602001516040518082815260200191505060405180910390a360408084015160208086015183516001600160a01b038d168152918201929092528083019190915290517fe5b754fb1abb7f01b499791d0b820ae3b6af3424ac1c59768edb53f4ec31a9299181900360600190a1600554604080850151602086015182516351dff98960e01b81523060048201526001600160a01b038d811660248301526044820193909352606481019190915291519216916351dff9899160848082019260009290919082900301818387803b1580156132d157600080fd5b600080614eaf856139b0565b60055460408051634ef4c3e160e01b81523060048201526001600160a01b0388811660248301526044820188905291519190921691634ef4c3e19160648083019260209291908290030181600087803b158015614f0b57600080fd5b505af1158015614f1f573d6000803e3d6000fd5b505050506040513d6020811015614f3557600080fd5b505115614f74576040805162461bcd60e51b81526020600482015260086024820152671c995a9958dd195960c21b604482015290519081900360640190fd5b83614f845750600090508061521c565b614f8c613d20565b60095414614fd3576040805162461bcd60e51b815260206004820152600f60248201526e6d61726b6574206973207374616c6560881b604482015290519081900360640190fd5b614fdb615db7565b614fe3612e85565b8152614ff0868686613635565b60408083018290528051602081019091528251815261500f9190615c98565b60208201819052600d5461502291612d95565b600d556001600160a01b0386166000908152600e60209081526040909120549082015161504f9190612d95565b6001600160a01b038088166000818152600e602090815260409182902094909455600554815163929fe9a160e01b81526004810193909352306024840152905192169263929fe9a192604480840193829003018186803b1580156150b257600080fd5b505afa1580156150c6573d6000803e3d6000fd5b505050506040513d60208110156150dc57600080fd5b5051156150f3576150f1868260200151613af2565b505b60408082015160208084015183516001600160a01b038b168152918201929092528083019190915290517f4c209b5fc8ad50758f13e2e1088ba56a560dff690a1c6fef26394f4c03821c4f9181900360600190a1856001600160a01b0316306001600160a01b0316600080516020615e6d83398151915283602001516040518082815260200191505060405180910390a3600554604080830151602084015182516341c728b960e01b81523060048201526001600160a01b038b811660248301526044820193909352606481019190915291519216916341c728b99160848082019260009290919082900301818387803b1580156151f057600080fd5b505af1158015615204573d6000803e3d6000fd5b5060009250615211915050565b816040015192509250505b935093915050565b6005546040805163368f515360e21b81523060048201526001600160a01b038681166024830152604482018690529151600093929092169163da3d454c9160648082019260209290919082900301818787803b15801561528357600080fd5b505af1158015615297573d6000803e3d6000fd5b505050506040513d60208110156152ad57600080fd5b5051156152ec576040805162461bcd60e51b81526020600482015260086024820152671c995a9958dd195960c21b604482015290519081900360640190fd5b6152f4613d20565b6009541461533b576040805162461bcd60e51b815260206004820152600f60248201526e6d61726b6574206973207374616c6560881b604482015290519081900360640190fd5b82615344612d8f565b101561538b576040805162461bcd60e51b81526020600482015260116024820152700d2dce6eaccccd2c6d2cadce840c6c2e6d607b1b604482015290519081900360640190fd5b615393615dd8565b61539c85613ccb565b602082018190526153ad9085612d95565b6040820152600b546153bf9085612d95565b606082019081526040808301516001600160a01b0388166000908152601060205291909120908155600a5460019091015551600b556153ff85858561353c565b60408082015160608084015183516001600160a01b038a16815260208101899052808501939093529082015290517f13ed6866d4e1ee6da46f845c46d7e54120883d75c5ea9a2dacc1c4ca8984ab809181900360800190a160055460408051635c77860560e01b81523060048201526001600160a01b0388811660248301526044820188905291519190921691635c77860591606480830192600092919082900301818387803b15801561427957600080fd5b60055460408051632fe3f38f60e11b81523060048201526001600160a01b0385811660248301528881166044830152878116606483015260848201879052915160009384931691635fc7e71e9160a480830192602092919082900301818787803b15801561551f57600080fd5b505af1158015615533573d6000803e3d6000fd5b505050506040513d602081101561554957600080fd5b505115615588576040805162461bcd60e51b81526020600482015260086024820152671c995a9958dd195960c21b604482015290519081900360640190fd5b615590613d20565b600954146155d7576040805162461bcd60e51b815260206004820152600f60248201526e6d61726b6574206973207374616c6560881b604482015290519081900360640190fd5b6155df613d20565b846001600160a01b0316636c540baf6040518163ffffffff1660e01b815260040160206040518083038186803b15801561561857600080fd5b505afa15801561562c573d6000803e3d6000fd5b505050506040513d602081101561564257600080fd5b505114615688576040805162461bcd60e51b815260206004820152600f60248201526e6d61726b6574206973207374616c6560881b604482015290519081900360640190fd5b866001600160a01b0316866001600160a01b031614156156e6576040805162461bcd60e51b815260206004820152601460248201527334b73b30b634b21030b1b1b7bab73a103830b4b960611b604482015290519081900360640190fd5b6000851180156156f857506000198514155b615749576040805162461bcd60e51b815260206004820152601e60248201527f696e76616c696420636c6f736520616d6f756e74207265717565737465640000604482015290519081900360640190fd5b615751615e01565b61575d88888887614695565b6020830152808252156157ad576040805162461bcd60e51b81526020600482015260136024820152721c995c185e48189bdc9c9bddc819985a5b1959606a1b604482015290519081900360640190fd5b60055460208201516040805163c488847b60e01b81523060048201526001600160a01b03898116602483015260448201939093528151929093169263c488847b9260648083019392829003018186803b15801561580957600080fd5b505afa15801561581d573d6000803e3d6000fd5b505050506040513d604081101561583357600080fd5b5080516020909101516060830152604082018190521561589a576040805162461bcd60e51b815260206004820181905260248201527f6661696c656420746f2063616c63756c617465207365697a6520616d6f756e74604482015290519081900360640190fd5b8060600151856001600160a01b03166370a08231896040518263ffffffff1660e01b815260040180826001600160a01b03166001600160a01b0316815260200191505060206040518083038186803b1580156158f557600080fd5b505afa158015615909573d6000803e3d6000fd5b505050506040513d602081101561591f57600080fd5b50511015615974576040805162461bcd60e51b815260206004820152601860248201527f4c49515549444154455f5345495a455f544f4f5f4d5543480000000000000000604482015290519081900360640190fd5b60006001600160a01b03861630141561599e57615997308a8a8560600151613f3e565b9050615a2e565b60608201516040805163b2a02ff160e01b81526001600160a01b038c811660048301528b81166024830152604482019390935290519188169163b2a02ff1916064808201926020929091908290030181600087803b1580156159ff57600080fd5b505af1158015615a13573d6000803e3d6000fd5b505050506040513d6020811015615a2957600080fd5b505190505b8015615a78576040805162461bcd60e51b81526020600482015260146024820152731d1bdad95b881cd95a5e9d5c994819985a5b195960621b604482015290519081900360640190fd5b7f298637f684da70674f26509b10f07ec2fbc77a335ab1e7d6215a4b2484d8bb528989846020015189866060015160405180866001600160a01b03166001600160a01b03168152602001856001600160a01b03166001600160a01b03168152602001848152602001836001600160a01b03166001600160a01b031681526020018281526020019550505050505060405180910390a160055460208301516060840151604080516347ef3b3b60e01b81523060048201526001600160a01b038b811660248301528e811660448301528d81166064830152608482019490945260a48101929092525191909216916347ef3b3b9160c480830192600092919082900301818387803b158015615b8a57600080fd5b505af1158015615b9e573d6000803e3d6000fd5b5060009250615bab915050565b82602001519350935050509550959350505050565b6000831580615bcd575082155b15615bda57506000611cfd565b83830283858281615be757fe5b041483906146325760405162461bcd60e51b81526020600482018181528351602484015283519092839260449091019190850190808383600083156145f75781810151838201526020016145df565b60008183615c855760405162461bcd60e51b81526020600482018181528351602484015283519092839260449091019190850190808383600083156145f75781810151838201526020016145df565b50828481615c8f57fe5b04949350505050565b6000615ca2615ce4565b6133958484615caf615ce4565b6000615cc3670de0b6b3a764000085614a52565b90506040518060200160405280615cda8386614987565b9052949350505050565b6040518060200160405280600081525090565b828054600181600116156101000203166002900490600052602060002090601f016020900481019282601f10615d3857805160ff1916838001178555615d65565b82800160010185558215615d65579182015b82811115615d65578251825591602001919060010190615d4a565b50612ee7929150615e29565b6040805161010081019091528060008152602001600081526020016000815260200160008152602001600081526020016000815260200160008152602001600081525090565b60405180606001604052806000815260200160008152602001600081525090565b604080516080810190915280600081526020016000815260200160008152602001600081525090565b6040518060800160405280600081526020016000815260200160008152602001600081525090565b61122c91905b80821115612ee75760008155600101615e2f56fe45524333313536466c617368426f72726f776572496e746572666163652e6f6e466c6173684c6f616eddf252ad1be2c89b69c2b068fc378daa952ba7f163c4a11628f55a4df523b3ef1d22042d9eb89f2620572acbf8d85b66fba5a2ca19d166d8659574440175c964a265627a7a7231582060e464e6027773e0ee60c2d28ab9b77037853b5139ef2ea753690ac604848cac64736f6c63430005110032",
  "devdoc": {
    "author": "Cream",
    "methods": {
      "_acceptAdmin()": {
        "details": "Admin function for pending admin to accept role and update admin",
        "return": "uint 0=success, otherwise a failure (see ErrorReporter.sol for details)"
      },
      "_addReserves(uint256)": {
        "params": {
          "addAmount": "The amount fo underlying token to add as reserves"
        },
        "return": "uint 0=success, otherwise a failure (see ErrorReporter.sol for details)"
      },
      "_becomeImplementation(bytes)": {
        "params": {
          "data": "The encoded bytes data for any initialization"
        }
      },
      "_reduceReserves(uint256)": {
        "params": {
          "reduceAmount": "Amount of reduction to reserves"
        },
        "return": "uint 0=success, otherwise a failure (see ErrorReporter.sol for details)"
      },
      "_setCollateralCap(uint256)": {
        "params": {
          "newCollateralCap": "New collateral cap for this market. A value of 0 corresponds to no cap."
        }
      },
      "_setComptroller(address)": {
        "details": "Admin function to set a new comptroller",
        "return": "uint 0=success, otherwise a failure (see ErrorReporter.sol for details)"
      },
      "_setInterestRateModel(address)": {
        "details": "Admin function to accrue interest and update the interest rate model",
        "params": {
          "newInterestRateModel": "the new interest rate model to use"
        },
        "return": "uint 0=success, otherwise a failure (see ErrorReporter.sol for details)"
      },
      "_setPendingAdmin(address)": {
        "details": "Admin function to begin change of admin. The newPendingAdmin must call `_acceptAdmin` to finalize the transfer.",
        "params": {
          "newPendingAdmin": "New pending admin."
        },
        "return": "uint 0=success, otherwise a failure (see ErrorReporter.sol for details)"
      },
      "_setReserveFactor(uint256)": {
        "details": "Admin function to accrue interest and set a new reserve factor",
        "return": "uint 0=success, otherwise a failure (see ErrorReporter.sol for details)"
      },
      "accrueInterest()": {
        "details": "This calculates interest accrued from the last checkpointed block  up to the current block and writes new checkpoint to storage."
      },
      "allowance(address,address)": {
        "params": {
          "owner": "The address of the account which owns the tokens to be spent",
          "spender": "The address of the account which may transfer tokens"
        },
        "return": "The number of tokens allowed to be spent (-1 means infinite)"
      },
      "approve(address,uint256)": {
        "details": "This will overwrite the approval amount for `spender` and is subject to issues noted [here](https://eips.ethereum.org/EIPS/eip-20#approve)",
        "params": {
          "amount": "The number of tokens that are approved (-1 means infinite)",
          "spender": "The address of the account which may transfer tokens"
        },
        "return": "Whether or not the approval succeeded"
      },
      "balanceOf(address)": {
        "params": {
          "owner": "The address of the account to query"
        },
        "return": "The number of tokens owned by `owner`"
      },
      "balanceOfUnderlying(address)": {
        "details": "This also accrues interest in a transaction",
        "params": {
          "owner": "The address of the account to query"
        },
        "return": "The amount of underlying owned by `owner`"
      },
      "borrow(uint256)": {
        "params": {
          "borrowAmount": "The amount of the underlying asset to borrow"
        },
        "return": "uint 0=success, otherwise a failure (see ErrorReporter.sol for details)"
      },
      "borrowBalanceCurrent(address)": {
        "params": {
          "account": "The address whose balance should be calculated after updating borrowIndex"
        },
        "return": "The calculated balance"
      },
      "borrowBalanceStored(address)": {
        "params": {
          "account": "The address whose balance should be calculated"
        },
        "return": "The calculated balance"
      },
      "borrowRatePerBlock()": {
        "return": "The borrow interest rate per block, scaled by 1e18"
      },
      "estimateBorrowRatePerBlockAfterChange(uint256,bool)": {
        "return": "The borrow interest rate per block, scaled by 1e18"
      },
      "estimateSupplyRatePerBlockAfterChange(uint256,bool)": {
        "return": "The supply interest rate per block, scaled by 1e18"
      },
      "exchangeRateCurrent()": {
        "return": "Calculated exchange rate scaled by 1e18"
      },
      "exchangeRateStored()": {
        "details": "This function does not accrue interest before calculating the exchange rate",
        "return": "Calculated exchange rate scaled by 1e18"
      },
      "flashFee(address,uint256)": {
        "params": {
          "amount": "amount of token to borrow",
          "token": "The loan currency. Must match the address of this contract's underlying."
        },
        "return": "The amount of `token` to be charged for the loan, on top of the returned principal."
      },
      "flashLoan(address,address,uint256,bytes)": {
        "params": {
          "amount": "The amount of the funds to be loaned",
          "data": "The other data",
          "receiver": "The receiver address for the funds",
          "token": "The loan currency. Must match the address of this contract's underlying."
        },
        "return": "uint 0=success, otherwise a failure (see ErrorReporter.sol for details)"
      },
      "getAccountSnapshot(address)": {
        "details": "This is used by comptroller to more efficiently perform liquidity checks.",
        "params": {
          "account": "Address of the account to snapshot"
        },
        "return": "(possible error, token balance, borrow balance, exchange rate mantissa)"
      },
      "getCash()": {
        "return": "The quantity of underlying asset owned by this contract"
      },
      "initialize(address,address,address,uint256,string,string,uint8)": {
        "params": {
          "comptroller_": "The address of the Comptroller",
          "decimals_": "ERC-20 decimal precision of this token",
          "initialExchangeRateMantissa_": "The initial exchange rate, scaled by 1e18",
          "interestRateModel_": "The address of the interest rate model",
          "name_": "ERC-20 name of this token",
          "symbol_": "ERC-20 symbol of this token",
          "underlying_": "The address of the underlying asset"
        }
      },
      "initialize(address,address,uint256,string,string,uint8)": {
        "params": {
          "comptroller_": "The address of the Comptroller",
          "decimals_": "EIP-20 decimal precision of this token",
          "initialExchangeRateMantissa_": "The initial exchange rate, scaled by 1e18",
          "interestRateModel_": "The address of the interest rate model",
          "name_": "EIP-20 name of this token",
          "symbol_": "EIP-20 symbol of this token"
        }
      },
      "liquidateBorrow(address,uint256,address)": {
        "params": {
          "borrower": "The borrower of this cToken to be liquidated",
          "cTokenCollateral": "The market in which to seize collateral from the borrower",
          "repayAmount": "The amount of the underlying borrowed asset to repay"
        },
        "return": "uint 0=success, otherwise a failure (see ErrorReporter.sol for details)"
      },
      "maxFlashLoan(address)": {
        "details": "The amount of currency available to be lent.",
        "params": {
          "token": "The loan currency."
        },
        "return": "The amount of `token` that can be borrowed."
      },
      "mint(uint256)": {
        "details": "Accrues interest whether or not the operation succeeds, unless reverted",
        "params": {
          "mintAmount": "The amount of the underlying asset to supply"
        },
        "return": "uint 0=success, otherwise a failure (see ErrorReporter.sol for details)"
      },
      "redeem(uint256)": {
        "details": "Accrues interest whether or not the operation succeeds, unless reverted",
        "params": {
          "redeemTokens": "The number of cTokens to redeem into underlying"
        },
        "return": "uint 0=success, otherwise a failure (see ErrorReporter.sol for details)"
      },
      "redeemUnderlying(uint256)": {
        "details": "Accrues interest whether or not the operation succeeds, unless reverted",
        "params": {
          "redeemAmount": "The amount of underlying to redeem"
        },
        "return": "uint 0=success, otherwise a failure (see ErrorReporter.sol for details)"
      },
      "registerCollateral(address)": {
        "details": "This function could only be called by comptroller.",
        "params": {
          "account": "The account to register"
        },
        "return": "The actual registered amount of collateral"
      },
      "repayBorrow(uint256)": {
        "params": {
          "repayAmount": "The amount to repay"
        },
        "return": "uint 0=success, otherwise a failure (see ErrorReporter.sol for details)"
      },
      "repayBorrowBehalf(address,uint256)": {
        "params": {
          "borrower": "the account with the debt being payed off",
          "repayAmount": "The amount to repay"
        },
        "return": "uint 0=success, otherwise a failure (see ErrorReporter.sol for details)"
      },
      "seize(address,address,uint256)": {
        "details": "Will fail unless called by another cToken during the process of liquidation. Its absolutely critical to use msg.sender as the borrowed cToken and not a parameter.",
        "params": {
          "borrower": "The account having collateral seized",
          "liquidator": "The account receiving seized collateral",
          "seizeTokens": "The number of cTokens to seize"
        },
        "return": "uint 0=success, otherwise a failure (see ErrorReporter.sol for details)"
      },
      "supplyRatePerBlock()": {
        "return": "The supply interest rate per block, scaled by 1e18"
      },
      "totalBorrowsCurrent()": {
        "return": "The total borrows with interest"
      },
      "transfer(address,uint256)": {
        "params": {
          "amount": "The number of tokens to transfer",
          "dst": "The address of the destination account"
        },
        "return": "Whether or not the transfer succeeded"
      },
      "transferFrom(address,address,uint256)": {
        "params": {
          "amount": "The number of tokens to transfer",
          "dst": "The address of the destination account",
          "src": "The address of the source account"
        },
        "return": "Whether or not the transfer succeeded"
      },
      "unregisterCollateral(address)": {
        "details": "This function could only be called by comptroller.",
        "params": {
          "account": "The account to unregister"
        }
      }
    },
    "title": "Cream's CCollateralCapErc20Delegate Contract"
  },
  "userdoc": {
    "methods": {
      "_acceptAdmin()": {
        "notice": "Accepts transfer of admin rights. msg.sender must be pendingAdmin"
      },
      "_addReserves(uint256)": {
        "notice": "The sender adds to reserves."
      },
      "_becomeImplementation(bytes)": {
        "notice": "Called by the delegator on a delegate to initialize it for duty"
      },
      "_reduceReserves(uint256)": {
        "notice": "Accrues interest and reduces reserves by transferring to admin"
      },
      "_resignImplementation()": {
        "notice": "Called by the delegator on a delegate to forfeit its responsibility"
      },
      "_setCollateralCap(uint256)": {
        "notice": "Set the given collateral cap for the market."
      },
      "_setComptroller(address)": {
        "notice": "Sets a new comptroller for the market"
      },
      "_setInterestRateModel(address)": {
        "notice": "accrues interest and updates the interest rate model using _setInterestRateModelFresh"
      },
      "_setPendingAdmin(address)": {
        "notice": "Begins transfer of admin rights. The newPendingAdmin must call `_acceptAdmin` to finalize the transfer."
      },
      "_setReserveFactor(uint256)": {
        "notice": "accrues interest and sets a new reserve factor for the protocol using _setReserveFactorFresh"
      },
      "accrueInterest()": {
        "notice": "Applies accrued interest to total borrows and reserves"
      },
      "allowance(address,address)": {
        "notice": "Get the current allowance from `owner` for `spender`"
      },
      "approve(address,uint256)": {
        "notice": "Approve `spender` to transfer up to `amount` from `src`"
      },
      "balanceOf(address)": {
        "notice": "Get the token balance of the `owner`"
      },
      "balanceOfUnderlying(address)": {
        "notice": "Get the underlying balance of the `owner`"
      },
      "borrow(uint256)": {
        "notice": "Sender borrows assets from the protocol to their own address"
      },
      "borrowBalanceCurrent(address)": {
        "notice": "Accrue interest to updated borrowIndex and then calculate account's borrow balance using the updated borrowIndex"
      },
      "borrowBalanceStored(address)": {
        "notice": "Return the borrow balance of account based on stored data"
      },
      "borrowRatePerBlock()": {
        "notice": "Returns the current per-block borrow interest rate for this cToken"
      },
      "constructor": "Construct an empty delegate",
      "estimateBorrowRatePerBlockAfterChange(uint256,bool)": {
        "notice": "Returns the estimated per-block borrow interest rate for this cToken after some change"
      },
      "estimateSupplyRatePerBlockAfterChange(uint256,bool)": {
        "notice": "Returns the estimated per-block supply interest rate for this cToken after some change"
      },
      "exchangeRateCurrent()": {
        "notice": "Accrue interest then return the up-to-date exchange rate"
      },
      "exchangeRateStored()": {
        "notice": "Calculates the exchange rate from the underlying to the CToken"
      },
      "flashFee(address,uint256)": {
        "notice": "Get the flash loan fees"
      },
      "flashLoan(address,address,uint256,bytes)": {
        "notice": "Flash loan funds to a given account."
      },
      "getAccountSnapshot(address)": {
        "notice": "Get a snapshot of the account's balances, and the cached exchange rate"
      },
      "getCash()": {
        "notice": "Get cash balance of this cToken in the underlying asset"
      },
      "gulp()": {
        "notice": "Absorb excess cash into reserves."
      },
      "initialize(address,address,address,uint256,string,string,uint8)": {
        "notice": "Initialize the new money market"
      },
      "initialize(address,address,uint256,string,string,uint8)": {
        "notice": "Initialize the money market"
      },
      "liquidateBorrow(address,uint256,address)": {
        "notice": "The sender liquidates the borrowers collateral. The collateral seized is transferred to the liquidator."
      },
      "mint(uint256)": {
        "notice": "Sender supplies assets into the market and receives cTokens in exchange"
      },
      "redeem(uint256)": {
        "notice": "Sender redeems cTokens in exchange for the underlying asset"
      },
      "redeemUnderlying(uint256)": {
        "notice": "Sender redeems cTokens in exchange for a specified amount of underlying asset"
      },
      "registerCollateral(address)": {
        "notice": "Register account collateral tokens if there is space."
      },
      "repayBorrow(uint256)": {
        "notice": "Sender repays their own borrow"
      },
      "repayBorrowBehalf(address,uint256)": {
        "notice": "Sender repays a borrow belonging to borrower"
      },
      "seize(address,address,uint256)": {
        "notice": "Transfers collateral tokens (this market) to the liquidator."
      },
      "supplyRatePerBlock()": {
        "notice": "Returns the current per-block supply interest rate for this cToken"
      },
      "totalBorrowsCurrent()": {
        "notice": "Returns the current total borrows plus accrued interest"
      },
      "transfer(address,uint256)": {
        "notice": "Transfer `amount` tokens from `msg.sender` to `dst`"
      },
      "transferFrom(address,address,uint256)": {
        "notice": "Transfer `amount` tokens from `src` to `dst`"
      },
      "unregisterCollateral(address)": {
        "notice": "Unregister account collateral tokens if the account still has enough collateral."
      }
    },
    "notice": "CTokens which wrap an EIP-20 underlying and are delegated to"
  },
  "storageLayout": {
    "storage": [
      {
        "astId": 12029,
        "contract": "contracts/CCollateralCapErc20Delegate.sol:CCollateralCapErc20Delegate",
        "label": "_notEntered",
        "offset": 0,
        "slot": "0",
        "type": "t_bool"
      },
      {
        "astId": 12031,
        "contract": "contracts/CCollateralCapErc20Delegate.sol:CCollateralCapErc20Delegate",
        "label": "name",
        "offset": 0,
        "slot": "1",
        "type": "t_string_storage"
      },
      {
        "astId": 12033,
        "contract": "contracts/CCollateralCapErc20Delegate.sol:CCollateralCapErc20Delegate",
        "label": "symbol",
        "offset": 0,
        "slot": "2",
        "type": "t_string_storage"
      },
      {
        "astId": 12035,
        "contract": "contracts/CCollateralCapErc20Delegate.sol:CCollateralCapErc20Delegate",
        "label": "decimals",
        "offset": 0,
        "slot": "3",
        "type": "t_uint8"
      },
      {
        "astId": 12043,
        "contract": "contracts/CCollateralCapErc20Delegate.sol:CCollateralCapErc20Delegate",
        "label": "admin",
        "offset": 1,
        "slot": "3",
        "type": "t_address_payable"
      },
      {
        "astId": 12045,
        "contract": "contracts/CCollateralCapErc20Delegate.sol:CCollateralCapErc20Delegate",
        "label": "pendingAdmin",
        "offset": 0,
        "slot": "4",
        "type": "t_address_payable"
      },
      {
        "astId": 12047,
        "contract": "contracts/CCollateralCapErc20Delegate.sol:CCollateralCapErc20Delegate",
        "label": "comptroller",
        "offset": 0,
        "slot": "5",
        "type": "t_contract(ComptrollerInterface)20605"
      },
      {
        "astId": 12049,
        "contract": "contracts/CCollateralCapErc20Delegate.sol:CCollateralCapErc20Delegate",
        "label": "interestRateModel",
        "offset": 0,
        "slot": "6",
        "type": "t_contract(InterestRateModel)23611"
      },
      {
        "astId": 12051,
        "contract": "contracts/CCollateralCapErc20Delegate.sol:CCollateralCapErc20Delegate",
        "label": "initialExchangeRateMantissa",
        "offset": 0,
        "slot": "7",
        "type": "t_uint256"
      },
      {
        "astId": 12053,
        "contract": "contracts/CCollateralCapErc20Delegate.sol:CCollateralCapErc20Delegate",
        "label": "reserveFactorMantissa",
        "offset": 0,
        "slot": "8",
        "type": "t_uint256"
      },
      {
        "astId": 12055,
        "contract": "contracts/CCollateralCapErc20Delegate.sol:CCollateralCapErc20Delegate",
        "label": "accrualBlockNumber",
        "offset": 0,
        "slot": "9",
        "type": "t_uint256"
      },
      {
        "astId": 12057,
        "contract": "contracts/CCollateralCapErc20Delegate.sol:CCollateralCapErc20Delegate",
        "label": "borrowIndex",
        "offset": 0,
        "slot": "10",
        "type": "t_uint256"
      },
      {
        "astId": 12059,
        "contract": "contracts/CCollateralCapErc20Delegate.sol:CCollateralCapErc20Delegate",
        "label": "totalBorrows",
        "offset": 0,
        "slot": "11",
        "type": "t_uint256"
      },
      {
        "astId": 12061,
        "contract": "contracts/CCollateralCapErc20Delegate.sol:CCollateralCapErc20Delegate",
        "label": "totalReserves",
        "offset": 0,
        "slot": "12",
        "type": "t_uint256"
      },
      {
        "astId": 12063,
        "contract": "contracts/CCollateralCapErc20Delegate.sol:CCollateralCapErc20Delegate",
        "label": "totalSupply",
        "offset": 0,
        "slot": "13",
        "type": "t_uint256"
      },
      {
        "astId": 12067,
        "contract": "contracts/CCollateralCapErc20Delegate.sol:CCollateralCapErc20Delegate",
        "label": "accountTokens",
        "offset": 0,
        "slot": "14",
        "type": "t_mapping(t_address,t_uint256)"
      },
      {
        "astId": 12073,
        "contract": "contracts/CCollateralCapErc20Delegate.sol:CCollateralCapErc20Delegate",
        "label": "transferAllowances",
        "offset": 0,
        "slot": "15",
        "type": "t_mapping(t_address,t_mapping(t_address,t_uint256))"
      },
      {
        "astId": 12082,
        "contract": "contracts/CCollateralCapErc20Delegate.sol:CCollateralCapErc20Delegate",
        "label": "accountBorrows",
        "offset": 0,
        "slot": "16",
        "type": "t_mapping(t_address,t_struct(BorrowSnapshot)12078_storage)"
      },
      {
        "astId": 12085,
        "contract": "contracts/CCollateralCapErc20Delegate.sol:CCollateralCapErc20Delegate",
        "label": "underlying",
        "offset": 0,
        "slot": "17",
        "type": "t_address"
      },
      {
        "astId": 12087,
        "contract": "contracts/CCollateralCapErc20Delegate.sol:CCollateralCapErc20Delegate",
        "label": "implementation",
        "offset": 0,
        "slot": "18",
        "type": "t_address"
      },
      {
        "astId": 12090,
        "contract": "contracts/CCollateralCapErc20Delegate.sol:CCollateralCapErc20Delegate",
        "label": "internalCash",
        "offset": 0,
        "slot": "19",
        "type": "t_uint256"
      },
      {
        "astId": 12093,
        "contract": "contracts/CCollateralCapErc20Delegate.sol:CCollateralCapErc20Delegate",
        "label": "totalCollateralTokens",
        "offset": 0,
        "slot": "20",
        "type": "t_uint256"
      },
      {
        "astId": 12097,
        "contract": "contracts/CCollateralCapErc20Delegate.sol:CCollateralCapErc20Delegate",
        "label": "accountCollateralTokens",
        "offset": 0,
        "slot": "21",
        "type": "t_mapping(t_address,t_uint256)"
      },
      {
        "astId": 12101,
        "contract": "contracts/CCollateralCapErc20Delegate.sol:CCollateralCapErc20Delegate",
        "label": "isCollateralTokenInit",
        "offset": 0,
        "slot": "22",
        "type": "t_mapping(t_address,t_bool)"
      },
      {
        "astId": 12103,
        "contract": "contracts/CCollateralCapErc20Delegate.sol:CCollateralCapErc20Delegate",
        "label": "collateralCap",
        "offset": 0,
        "slot": "23",
        "type": "t_uint256"
      }
    ],
    "types": {
      "t_address": {
        "encoding": "inplace",
        "label": "address",
        "numberOfBytes": "20"
      },
      "t_address_payable": {
        "encoding": "inplace",
        "label": "address payable",
        "numberOfBytes": "20"
      },
      "t_bool": {
        "encoding": "inplace",
        "label": "bool",
        "numberOfBytes": "1"
      },
      "t_contract(ComptrollerInterface)20605": {
        "encoding": "inplace",
        "label": "contract ComptrollerInterface",
        "numberOfBytes": "20"
      },
      "t_contract(InterestRateModel)23611": {
        "encoding": "inplace",
        "label": "contract InterestRateModel",
        "numberOfBytes": "20"
      },
      "t_mapping(t_address,t_bool)": {
        "encoding": "mapping",
        "key": "t_address",
        "label": "mapping(address => bool)",
        "numberOfBytes": "32",
        "value": "t_bool"
      },
      "t_mapping(t_address,t_mapping(t_address,t_uint256))": {
        "encoding": "mapping",
        "key": "t_address",
        "label": "mapping(address => mapping(address => uint256))",
        "numberOfBytes": "32",
        "value": "t_mapping(t_address,t_uint256)"
      },
      "t_mapping(t_address,t_struct(BorrowSnapshot)12078_storage)": {
        "encoding": "mapping",
        "key": "t_address",
        "label": "mapping(address => struct CTokenStorage.BorrowSnapshot)",
        "numberOfBytes": "32",
        "value": "t_struct(BorrowSnapshot)12078_storage"
      },
      "t_mapping(t_address,t_uint256)": {
        "encoding": "mapping",
        "key": "t_address",
        "label": "mapping(address => uint256)",
        "numberOfBytes": "32",
        "value": "t_uint256"
      },
      "t_string_storage": {
        "encoding": "bytes",
        "label": "string",
        "numberOfBytes": "32"
      },
      "t_struct(BorrowSnapshot)12078_storage": {
        "encoding": "inplace",
        "label": "struct CTokenStorage.BorrowSnapshot",
        "members": [
          {
            "astId": 12075,
            "contract": "contracts/CCollateralCapErc20Delegate.sol:CCollateralCapErc20Delegate",
            "label": "principal",
            "offset": 0,
            "slot": "0",
            "type": "t_uint256"
          },
          {
            "astId": 12077,
            "contract": "contracts/CCollateralCapErc20Delegate.sol:CCollateralCapErc20Delegate",
            "label": "interestIndex",
            "offset": 0,
            "slot": "1",
            "type": "t_uint256"
          }
        ],
        "numberOfBytes": "64"
      },
      "t_uint256": {
        "encoding": "inplace",
        "label": "uint256",
        "numberOfBytes": "32"
      },
      "t_uint8": {
        "encoding": "inplace",
        "label": "uint8",
        "numberOfBytes": "1"
      }
    }
  }
}