{
  "address": "0x0A008CCAe9a2e48852177A6b55Bf0e6fA91C83f0",
  "abi": [
    {
      "inputs": [],
      "payable": false,
      "stateMutability": "nonpayable",
      "type": "constructor"
    },
    {
      "anonymous": false,
      "inputs": [
        {
          "indexed": false,
          "internalType": "string",
          "name": "oldTokenName",
          "type": "string"
        },
        {
          "indexed": false,
          "internalType": "string",
          "name": "newTokenName",
          "type": "string"
        }
      ],
      "name": "NewTokenName",
      "type": "event"
    },
    {
      "anonymous": false,
      "inputs": [
        {
          "indexed": false,
          "internalType": "string",
          "name": "oldTokenSymbol",
          "type": "string"
        },
        {
          "indexed": false,
          "internalType": "string",
          "name": "newTokenSymbol",
          "type": "string"
        }
      ],
      "name": "NewTokenSymbol",
      "type": "event"
    },
    {
      "constant": false,
      "inputs": [
        {
          "internalType": "bytes",
          "name": "data",
          "type": "bytes"
        }
      ],
      "name": "_becomeImplementation",
      "outputs": [],
      "payable": false,
      "stateMutability": "nonpayable",
      "type": "function"
    },
    {
      "constant": false,
      "inputs": [],
      "name": "_resignImplementation",
      "outputs": [],
      "payable": false,
      "stateMutability": "nonpayable",
      "type": "function"
    },
    {
      "constant": true,
      "inputs": [],
      "name": "accrualBlockNumber",
      "outputs": [
        {
          "internalType": "uint256",
          "name": "",
          "type": "uint256"
        }
      ],
      "payable": false,
      "stateMutability": "view",
      "type": "function"
    },
    {
      "constant": true,
      "inputs": [],
      "name": "admin",
      "outputs": [
        {
          "internalType": "address payable",
          "name": "",
          "type": "address"
        }
      ],
      "payable": false,
      "stateMutability": "view",
      "type": "function"
    },
    {
      "constant": true,
      "inputs": [],
      "name": "borrowIndex",
      "outputs": [
        {
          "internalType": "uint256",
          "name": "",
          "type": "uint256"
        }
      ],
      "payable": false,
      "stateMutability": "view",
      "type": "function"
    },
    {
      "constant": true,
      "inputs": [],
      "name": "comptroller",
      "outputs": [
        {
          "internalType": "contract ComptrollerInterface",
          "name": "",
          "type": "address"
        }
      ],
      "payable": false,
      "stateMutability": "view",
      "type": "function"
    },
    {
      "constant": true,
      "inputs": [],
      "name": "decimals",
      "outputs": [
        {
          "internalType": "uint8",
          "name": "",
          "type": "uint8"
        }
      ],
      "payable": false,
      "stateMutability": "view",
      "type": "function"
    },
    {
      "constant": true,
      "inputs": [],
      "name": "implementation",
      "outputs": [
        {
          "internalType": "address",
          "name": "",
          "type": "address"
        }
      ],
      "payable": false,
      "stateMutability": "view",
      "type": "function"
    },
    {
      "constant": true,
      "inputs": [],
      "name": "interestRateModel",
      "outputs": [
        {
          "internalType": "contract InterestRateModel",
          "name": "",
          "type": "address"
        }
      ],
      "payable": false,
      "stateMutability": "view",
      "type": "function"
    },
    {
      "constant": true,
      "inputs": [],
      "name": "name",
      "outputs": [
        {
          "internalType": "string",
          "name": "",
          "type": "string"
        }
      ],
      "payable": false,
      "stateMutability": "view",
      "type": "function"
    },
    {
      "constant": true,
      "inputs": [],
      "name": "pendingAdmin",
      "outputs": [
        {
          "internalType": "address payable",
          "name": "",
          "type": "address"
        }
      ],
      "payable": false,
      "stateMutability": "view",
      "type": "function"
    },
    {
      "constant": true,
      "inputs": [],
      "name": "reserveFactorMantissa",
      "outputs": [
        {
          "internalType": "uint256",
          "name": "",
          "type": "uint256"
        }
      ],
      "payable": false,
      "stateMutability": "view",
      "type": "function"
    },
    {
      "constant": true,
      "inputs": [],
      "name": "symbol",
      "outputs": [
        {
          "internalType": "string",
          "name": "",
          "type": "string"
        }
      ],
      "payable": false,
      "stateMutability": "view",
      "type": "function"
    },
    {
      "constant": true,
      "inputs": [],
      "name": "totalBorrows",
      "outputs": [
        {
          "internalType": "uint256",
          "name": "",
          "type": "uint256"
        }
      ],
      "payable": false,
      "stateMutability": "view",
      "type": "function"
    },
    {
      "constant": true,
      "inputs": [],
      "name": "totalReserves",
      "outputs": [
        {
          "internalType": "uint256",
          "name": "",
          "type": "uint256"
        }
      ],
      "payable": false,
      "stateMutability": "view",
      "type": "function"
    },
    {
      "constant": true,
      "inputs": [],
      "name": "totalSupply",
      "outputs": [
        {
          "internalType": "uint256",
          "name": "",
          "type": "uint256"
        }
      ],
      "payable": false,
      "stateMutability": "view",
      "type": "function"
    },
    {
      "constant": true,
      "inputs": [],
      "name": "underlying",
      "outputs": [
        {
          "internalType": "address",
          "name": "",
          "type": "address"
        }
      ],
      "payable": false,
      "stateMutability": "view",
      "type": "function"
    }
  ],
  "transactionHash": "0x009909abed8f5f255ce1652e75aaf0d556519dc90b13da27abedf2352cf938b4",
  "args": [],
  "solcInputHash": "c10819813ce92ec43d065f20b7269f1e",
  "bytecode": "0x608060405234801561001057600080fd5b506109a3806100206000396000f3fe608060405234801561001057600080fd5b506004361061010b5760003560e01c80635c60da1b116100a25780638f840ddd116100715780638f840ddd146102c957806395d89b41146102d1578063aa5af0fd146102d9578063f3fdb15a146102e1578063f851a440146102e95761010b565b80635c60da1b146102a95780635fe3b567146102b15780636c540baf146102b95780636f307dc3146102c15761010b565b806326782247116100de57806326782247146101b9578063313ce567146101dd57806347bd3718146101fb57806356e67728146102035761010b565b806306fdde0314610110578063153ab5051461018d578063173b99041461019757806318160ddd146101b1575b600080fd5b6101186102f1565b6040805160208082528351818301528351919283929083019185019080838360005b8381101561015257818101518382015260200161013a565b50505050905090810190601f16801561017f5780820380516001836020036101000a031916815260200191505b509250505060405180910390f35b61019561037e565b005b61019f6103d1565b60408051918252519081900360200190f35b61019f6103d7565b6101c16103dd565b604080516001600160a01b039092168252519081900360200190f35b6101e56103ec565b6040805160ff9092168252519081900360200190f35b61019f6103f5565b6101956004803603602081101561021957600080fd5b81019060208101813564010000000081111561023457600080fd5b82018360208201111561024657600080fd5b8035906020019184600183028401116401000000008311171561026857600080fd5b91908080601f0160208091040260200160405190810160405280939291908181526020018383808284376000920191909152509295506103fb945050505050565b6101c1610819565b6101c1610828565b61019f610837565b6101c161083d565b61019f61084c565b610118610852565b61019f6108aa565b6101c16108b0565b6101c16108bf565b60018054604080516020600284861615610100026000190190941693909304601f810184900484028201840190925281815292918301828280156103765780601f1061034b57610100808354040283529160200191610376565b820191906000526020600020905b81548152906001019060200180831161035957829003601f168201915b505050505081565b60035461010090046001600160a01b031633146103cf576040805162461bcd60e51b815260206004820152600a60248201526961646d696e206f6e6c7960b01b604482015290519081900360640190fd5b565b60085481565b600d5481565b6004546001600160a01b031681565b60035460ff1681565b600b5481565b60035461010090046001600160a01b0316331461044c576040805162461bcd60e51b815260206004820152600a60248201526961646d696e206f6e6c7960b01b604482015290519081900360640190fd5b60608082806020019051604081101561046457600080fd5b810190808051604051939291908464010000000082111561048457600080fd5b90830190602082018581111561049957600080fd5b82516401000000008111828201881017156104b357600080fd5b82525081516020918201929091019080838360005b838110156104e05781810151838201526020016104c8565b50505050905090810190601f16801561050d5780820380516001836020036101000a031916815260200191505b506040526020018051604051939291908464010000000082111561053057600080fd5b90830190602082018581111561054557600080fd5b825164010000000081118282018810171561055f57600080fd5b82525081516020918201929091019080838360005b8381101561058c578181015183820152602001610574565b50505050905090810190601f1680156105b95780820380516001836020036101000a031916815260200191505b506040818152808252600180546002600019610100838516150201909116049183018290529698509496507f20458e457d1b0736de592832462793d56e10c6a26f7f526858e9ea3311557a7e959488945090925082915060208201906060830190869080156106695780601f1061063e57610100808354040283529160200191610669565b820191906000526020600020905b81548152906001019060200180831161064c57829003601f168201915b5050838103825284518152845160209182019186019080838360005b8381101561069d578181015183820152602001610685565b50505050905090810190601f1680156106ca5780820380516001836020036101000a031916815260200191505b5094505050505060405180910390a1604080518181526002805460001961010060018316150201168190049282018390527f30c7afc6099ca4057d1a431f7d8f0bdfb04492b3ad51abfb00dfc602db159a1392909184918190602082019060608301908690801561077c5780601f106107515761010080835404028352916020019161077c565b820191906000526020600020905b81548152906001019060200180831161075f57829003601f168201915b5050838103825284518152845160209182019186019080838360005b838110156107b0578181015183820152602001610798565b50505050905090810190601f1680156107dd5780820380516001836020036101000a031916815260200191505b5094505050505060405180910390a181516107ff9060019060208501906108d3565b5080516108139060029060208401906108d3565b50505050565b6012546001600160a01b031681565b6005546001600160a01b031681565b60095481565b6011546001600160a01b031681565b600c5481565b6002805460408051602060018416156101000260001901909316849004601f810184900484028201840190925281815292918301828280156103765780601f1061034b57610100808354040283529160200191610376565b600a5481565b6006546001600160a01b031681565b60035461010090046001600160a01b031681565b828054600181600116156101000203166002900490600052602060002090601f016020900481019282601f1061091457805160ff1916838001178555610941565b82800160010185558215610941579182015b82811115610941578251825591602001919060010190610926565b5061094d929150610951565b5090565b61096b91905b8082111561094d5760008155600101610957565b9056fea265627a7a723158201926e34f4531f1e14ea72a7866c5e50ac79033afaff547d3a17e120c0f93af6264736f6c63430005110032",
  "devdoc": {
    "author": "Cream",
    "methods": {
      "_becomeImplementation(bytes)": {
        "params": {
          "data": "The encoded bytes data for any initialization"
        }
      }
    },
    "title": "Cream's CCollateralCapErc20Delegate Contract"
  },
  "userdoc": {
    "methods": {
      "_becomeImplementation(bytes)": {
        "notice": "Called by the delegator on a delegate to initialize it for duty"
      },
      "_resignImplementation()": {
        "notice": "Called by the delegator on a delegate to forfeit its responsibility"
      },
      "constructor": "Construct an empty delegate"
    },
    "notice": "CTokens which wrap an EIP-20 underlying and are delegated to"
  },
  "storageLayout": {
    "storage": [
      {
        "astId": 10029,
        "contract": "contracts/CRenameDelegate.sol:CRenameDelegate",
        "label": "_notEntered",
        "offset": 0,
        "slot": "0",
        "type": "t_bool"
      },
      {
        "astId": 10031,
        "contract": "contracts/CRenameDelegate.sol:CRenameDelegate",
        "label": "name",
        "offset": 0,
        "slot": "1",
        "type": "t_string_storage"
      },
      {
        "astId": 10033,
        "contract": "contracts/CRenameDelegate.sol:CRenameDelegate",
        "label": "symbol",
        "offset": 0,
        "slot": "2",
        "type": "t_string_storage"
      },
      {
        "astId": 10035,
        "contract": "contracts/CRenameDelegate.sol:CRenameDelegate",
        "label": "decimals",
        "offset": 0,
        "slot": "3",
        "type": "t_uint8"
      },
      {
        "astId": 10043,
        "contract": "contracts/CRenameDelegate.sol:CRenameDelegate",
        "label": "admin",
        "offset": 1,
        "slot": "3",
        "type": "t_address_payable"
      },
      {
        "astId": 10045,
        "contract": "contracts/CRenameDelegate.sol:CRenameDelegate",
        "label": "pendingAdmin",
        "offset": 0,
        "slot": "4",
        "type": "t_address_payable"
      },
      {
        "astId": 10047,
        "contract": "contracts/CRenameDelegate.sol:CRenameDelegate",
        "label": "comptroller",
        "offset": 0,
        "slot": "5",
        "type": "t_contract(ComptrollerInterface)16493"
      },
      {
        "astId": 10049,
        "contract": "contracts/CRenameDelegate.sol:CRenameDelegate",
        "label": "interestRateModel",
        "offset": 0,
        "slot": "6",
        "type": "t_contract(InterestRateModel)19919"
      },
      {
        "astId": 10051,
        "contract": "contracts/CRenameDelegate.sol:CRenameDelegate",
        "label": "initialExchangeRateMantissa",
        "offset": 0,
        "slot": "7",
        "type": "t_uint256"
      },
      {
        "astId": 10053,
        "contract": "contracts/CRenameDelegate.sol:CRenameDelegate",
        "label": "reserveFactorMantissa",
        "offset": 0,
        "slot": "8",
        "type": "t_uint256"
      },
      {
        "astId": 10055,
        "contract": "contracts/CRenameDelegate.sol:CRenameDelegate",
        "label": "accrualBlockNumber",
        "offset": 0,
        "slot": "9",
        "type": "t_uint256"
      },
      {
        "astId": 10057,
        "contract": "contracts/CRenameDelegate.sol:CRenameDelegate",
        "label": "borrowIndex",
        "offset": 0,
        "slot": "10",
        "type": "t_uint256"
      },
      {
        "astId": 10059,
        "contract": "contracts/CRenameDelegate.sol:CRenameDelegate",
        "label": "totalBorrows",
        "offset": 0,
        "slot": "11",
        "type": "t_uint256"
      },
      {
        "astId": 10061,
        "contract": "contracts/CRenameDelegate.sol:CRenameDelegate",
        "label": "totalReserves",
        "offset": 0,
        "slot": "12",
        "type": "t_uint256"
      },
      {
        "astId": 10063,
        "contract": "contracts/CRenameDelegate.sol:CRenameDelegate",
        "label": "totalSupply",
        "offset": 0,
        "slot": "13",
        "type": "t_uint256"
      },
      {
        "astId": 10067,
        "contract": "contracts/CRenameDelegate.sol:CRenameDelegate",
        "label": "accountTokens",
        "offset": 0,
        "slot": "14",
        "type": "t_mapping(t_address,t_uint256)"
      },
      {
        "astId": 10073,
        "contract": "contracts/CRenameDelegate.sol:CRenameDelegate",
        "label": "transferAllowances",
        "offset": 0,
        "slot": "15",
        "type": "t_mapping(t_address,t_mapping(t_address,t_uint256))"
      },
      {
        "astId": 10082,
        "contract": "contracts/CRenameDelegate.sol:CRenameDelegate",
        "label": "accountBorrows",
        "offset": 0,
        "slot": "16",
        "type": "t_mapping(t_address,t_struct(BorrowSnapshot)10078_storage)"
      },
      {
        "astId": 10085,
        "contract": "contracts/CRenameDelegate.sol:CRenameDelegate",
        "label": "underlying",
        "offset": 0,
        "slot": "17",
        "type": "t_address"
      },
      {
        "astId": 10087,
        "contract": "contracts/CRenameDelegate.sol:CRenameDelegate",
        "label": "implementation",
        "offset": 0,
        "slot": "18",
        "type": "t_address"
      }
    ],
    "types": {
      "t_address": {
        "encoding": "inplace",
        "label": "address",
        "numberOfBytes": "20"
      },
      "t_address_payable": {
        "encoding": "inplace",
        "label": "address payable",
        "numberOfBytes": "20"
      },
      "t_bool": {
        "encoding": "inplace",
        "label": "bool",
        "numberOfBytes": "1"
      },
      "t_contract(ComptrollerInterface)16493": {
        "encoding": "inplace",
        "label": "contract ComptrollerInterface",
        "numberOfBytes": "20"
      },
      "t_contract(InterestRateModel)19919": {
        "encoding": "inplace",
        "label": "contract InterestRateModel",
        "numberOfBytes": "20"
      },
      "t_mapping(t_address,t_mapping(t_address,t_uint256))": {
        "encoding": "mapping",
        "key": "t_address",
        "label": "mapping(address => mapping(address => uint256))",
        "numberOfBytes": "32",
        "value": "t_mapping(t_address,t_uint256)"
      },
      "t_mapping(t_address,t_struct(BorrowSnapshot)10078_storage)": {
        "encoding": "mapping",
        "key": "t_address",
        "label": "mapping(address => struct CTokenStorage.BorrowSnapshot)",
        "numberOfBytes": "32",
        "value": "t_struct(BorrowSnapshot)10078_storage"
      },
      "t_mapping(t_address,t_uint256)": {
        "encoding": "mapping",
        "key": "t_address",
        "label": "mapping(address => uint256)",
        "numberOfBytes": "32",
        "value": "t_uint256"
      },
      "t_string_storage": {
        "encoding": "bytes",
        "label": "string",
        "numberOfBytes": "32"
      },
      "t_struct(BorrowSnapshot)10078_storage": {
        "encoding": "inplace",
        "label": "struct CTokenStorage.BorrowSnapshot",
        "members": [
          {
            "astId": 10075,
            "contract": "contracts/CRenameDelegate.sol:CRenameDelegate",
            "label": "principal",
            "offset": 0,
            "slot": "0",
            "type": "t_uint256"
          },
          {
            "astId": 10077,
            "contract": "contracts/CRenameDelegate.sol:CRenameDelegate",
            "label": "interestIndex",
            "offset": 0,
            "slot": "1",
            "type": "t_uint256"
          }
        ],
        "numberOfBytes": "64"
      },
      "t_uint256": {
        "encoding": "inplace",
        "label": "uint256",
        "numberOfBytes": "32"
      },
      "t_uint8": {
        "encoding": "inplace",
        "label": "uint8",
        "numberOfBytes": "1"
      }
    }
  }
}