{
  "address": "0xEA4b8dDb3aE257224dFD8C6aFc035204Eea75539",
  "abi": [
    {
      "inputs": [
        {
          "internalType": "address",
          "name": "_comptroller",
          "type": "address"
        },
        {
          "internalType": "address",
          "name": "_owner",
          "type": "address"
        }
      ],
      "payable": false,
      "stateMutability": "nonpayable",
      "type": "constructor"
    },
    {
      "constant": true,
      "inputs": [],
      "name": "comptroller",
      "outputs": [
        {
          "internalType": "address",
          "name": "",
          "type": "address"
        }
      ],
      "payable": false,
      "stateMutability": "view",
      "type": "function"
    },
    {
      "constant": true,
      "inputs": [
        {
          "internalType": "address",
          "name": "token",
          "type": "address"
        },
        {
          "internalType": "uint256",
          "name": "amount",
          "type": "uint256"
        }
      ],
      "name": "flashFee",
      "outputs": [
        {
          "internalType": "uint256",
          "name": "",
          "type": "uint256"
        }
      ],
      "payable": false,
      "stateMutability": "view",
      "type": "function"
    },
    {
      "constant": false,
      "inputs": [
        {
          "internalType": "contract ERC3156FlashBorrowerInterface",
          "name": "receiver",
          "type": "address"
        },
        {
          "internalType": "address",
          "name": "token",
          "type": "address"
        },
        {
          "internalType": "uint256",
          "name": "amount",
          "type": "uint256"
        },
        {
          "internalType": "bytes",
          "name": "data",
          "type": "bytes"
        }
      ],
      "name": "flashLoan",
      "outputs": [
        {
          "internalType": "bool",
          "name": "",
          "type": "bool"
        }
      ],
      "payable": false,
      "stateMutability": "nonpayable",
      "type": "function"
    },
    {
      "constant": true,
      "inputs": [
        {
          "internalType": "address",
          "name": "token",
          "type": "address"
        }
      ],
      "name": "maxFlashLoan",
      "outputs": [
        {
          "internalType": "uint256",
          "name": "",
          "type": "uint256"
        }
      ],
      "payable": false,
      "stateMutability": "view",
      "type": "function"
    },
    {
      "constant": true,
      "inputs": [],
      "name": "owner",
      "outputs": [
        {
          "internalType": "address",
          "name": "",
          "type": "address"
        }
      ],
      "payable": false,
      "stateMutability": "view",
      "type": "function"
    },
    {
      "constant": false,
      "inputs": [
        {
          "internalType": "contract CToken[]",
          "name": "cTokens",
          "type": "address[]"
        }
      ],
      "name": "removeUnderlyingMapping",
      "outputs": [
        {
          "internalType": "bool",
          "name": "",
          "type": "bool"
        }
      ],
      "payable": false,
      "stateMutability": "nonpayable",
      "type": "function"
    },
    {
      "constant": false,
      "inputs": [
        {
          "internalType": "address",
          "name": "newOwner",
          "type": "address"
        }
      ],
      "name": "transferOwnership",
      "outputs": [],
      "payable": false,
      "stateMutability": "nonpayable",
      "type": "function"
    },
    {
      "constant": true,
      "inputs": [
        {
          "internalType": "address",
          "name": "",
          "type": "address"
        }
      ],
      "name": "underlyingToCToken",
      "outputs": [
        {
          "internalType": "address",
          "name": "",
          "type": "address"
        }
      ],
      "payable": false,
      "stateMutability": "view",
      "type": "function"
    },
    {
      "constant": false,
      "inputs": [
        {
          "internalType": "contract CToken[]",
          "name": "cTokens",
          "type": "address[]"
        }
      ],
      "name": "updateUnderlyingMapping",
      "outputs": [
        {
          "internalType": "bool",
          "name": "",
          "type": "bool"
        }
      ],
      "payable": false,
      "stateMutability": "nonpayable",
      "type": "function"
    }
  ],
  "transactionHash": "0x5eea3482220045c8f28f8132e5c253823919969247ed4ff166da982175f28788",
  "args": [
    "0x2eE80614Ccbc5e28654324a66A396458Fa5cD7Cc",
    "0x3d4aBA3Af4EEe43d38D64EEf9Ea05340370e3cC9"
  ],
  "solcInputHash": "a2c9f893e5755922ea99d8cd4eb5b819",
  "bytecode": "0x60806040523480156200001157600080fd5b5060405162000df838038062000df8833981810160405260408110156200003757600080fd5b508051602090910151600180546001600160a01b038085166001600160a01b0319928316179092556002805492841692909116919091179055620000836001600160e01b036200008b16565b5050620004c9565b6001546040805163b0772d0b60e01b815290516060926001600160a01b03169163b0772d0b916004808301926000929190829003018186803b158015620000d157600080fd5b505afa158015620000e6573d6000803e3d6000fd5b505050506040513d6000823e601f3d908101601f1916820160405260208110156200011057600080fd5b81019080805160405193929190846401000000008211156200013157600080fd5b9083019060208201858111156200014757600080fd5b82518660208202830111640100000000821117156200016557600080fd5b82525081516020918201928201910280838360005b83811015620001945781810151838201526020016200017a565b50505050919091016040525050825192935060009150505b81811015620003d9576000838281518110620001c457fe5b6020026020010151905062000328816001600160a01b03166395d89b416040518163ffffffff1660e01b815260040160006040518083038186803b1580156200020c57600080fd5b505afa15801562000221573d6000803e3d6000fd5b505050506040513d6000823e601f3d908101601f1916820160405260208110156200024b57600080fd5b81019080805160405193929190846401000000008211156200026c57600080fd5b9083019060208201858111156200028257600080fd5b82516401000000008111828201881017156200029d57600080fd5b82525081516020918201929091019080838360005b83811015620002cc578181015183820152602001620002b2565b50505050905090810190601f168015620002fa5780820380516001836020036101000a031916815260200191505b506040818101905260058152640c6e48aa8960db1b60208201529250506001600160e01b03620003de169050565b15620003355750620003d0565b6000816001600160a01b0316636f307dc36040518163ffffffff1660e01b815260040160206040518083038186803b1580156200037157600080fd5b505afa15801562000386573d6000803e3d6000fd5b505050506040513d60208110156200039d57600080fd5b50516001600160a01b0390811660009081526020819052604090208054919093166001600160a01b031990911617909155505b600101620001ac565b505050565b6000816040516020018082805190602001908083835b60208310620004155780518252601f199092019160209182019101620003f4565b6001836020036101000a03801982511681845116808217855250505050505090500191505060405160208183030381529060405280519060200120836040516020018082805190602001908083835b60208310620004855780518252601f19909201916020918201910162000464565b6001836020036101000a0380198251168184511680821785525050505050509050019150506040516020818303038152906040528051906020012014905092915050565b61091f80620004d96000396000f3fe608060405234801561001057600080fd5b50600436106100935760003560e01c8063d473e09a11610066578063d473e09a146101a0578063d97af4f9146101c6578063d9d98ce414610236578063df3e993514610262578063f2fde38b146102d257610093565b80635cffe9de146100985780635fe3b5671461013c578063613255ab146101605780638da5cb5b14610198575b600080fd5b610128600480360360808110156100ae57600080fd5b6001600160a01b038235811692602081013590911691604082013591908101906080810160608201356401000000008111156100e957600080fd5b8201836020820111156100fb57600080fd5b8035906020019184600183028401116401000000008311171561011d57600080fd5b5090925090506102fa565b604080519115158252519081900360200190f35b61014461041d565b604080516001600160a01b039092168252519081900360200190f35b6101866004803603602081101561017657600080fd5b50356001600160a01b031661042c565b60408051918252519081900360200190f35b6101446104bf565b610144600480360360208110156101b657600080fd5b50356001600160a01b03166104ce565b610128600480360360208110156101dc57600080fd5b8101906020810181356401000000008111156101f757600080fd5b82018360208201111561020957600080fd5b8035906020019184602083028401116401000000008311171561022b57600080fd5b5090925090506104e9565b6101866004803603604081101561024c57600080fd5b506001600160a01b03813516906020013561060d565b6101286004803603602081101561027857600080fd5b81019060208101813564010000000081111561029357600080fd5b8201836020820111156102a557600080fd5b803590602001918460208302840111640100000000831117156102c757600080fd5b5090925090506106de565b6102f8600480360360208110156102e857600080fd5b50356001600160a01b03166107ee565b005b6001600160a01b03808516600090815260208190526040812054909116806103535760405162461bcd60e51b81526004018080602001828103825260348152602001806108b76034913960400191505060405180910390fd5b604051632e7ff4ef60e11b81526001600160a01b03888116600483019081523360248401819052604484018990526080606485019081526084850188905292851693635cffe9de938c938b928b928b929160a401848480828437600081840152601f19601f8201169050808301925050509650505050505050602060405180830381600087803b1580156103e657600080fd5b505af11580156103fa573d6000803e3d6000fd5b505050506040513d602081101561041057600080fd5b5051979650505050505050565b6001546001600160a01b031681565b6001600160a01b038082166000908152602081905260408120549091168181156104b857816001600160a01b031663242c127c6040518163ffffffff1660e01b815260040160206040518083038186803b15801561048957600080fd5b505afa15801561049d573d6000803e3d6000fd5b505050506040513d60208110156104b357600080fd5b505190505b9392505050565b6002546001600160a01b031681565b6000602081905290815260409020546001600160a01b031681565b6002546000906001600160a01b03163314610537576040805162461bcd60e51b81526020600482015260096024820152683737ba1037bbb732b960b91b604482015290519081900360640190fd5b8160005b8181101561060257600085858381811061055157fe5b905060200201356001600160a01b031690506000816001600160a01b0316636f307dc36040518163ffffffff1660e01b815260040160206040518083038186803b15801561059e57600080fd5b505afa1580156105b2573d6000803e3d6000fd5b505050506040513d60208110156105c857600080fd5b50516001600160a01b0390811660009081526020819052604090208054919093166001600160a01b0319909116179091555060010161053b565b506001949350505050565b6001600160a01b03808316600090815260208190526040812054909116806106665760405162461bcd60e51b81526004018080602001828103825260348152602001806108b76034913960400191505060405180910390fd5b806001600160a01b031663a7af467a846040518263ffffffff1660e01b81526004018082815260200191505060206040518083038186803b1580156106aa57600080fd5b505afa1580156106be573d6000803e3d6000fd5b505050506040513d60208110156106d457600080fd5b5051949350505050565b6002546000906001600160a01b0316331461072c576040805162461bcd60e51b81526020600482015260096024820152683737ba1037bbb732b960b91b604482015290519081900360640190fd5b8160005b8181101561060257600085858381811061074657fe5b905060200201356001600160a01b031690506000816001600160a01b0316636f307dc36040518163ffffffff1660e01b815260040160206040518083038186803b15801561079357600080fd5b505afa1580156107a7573d6000803e3d6000fd5b505050506040513d60208110156107bd57600080fd5b50516001600160a01b0316600090815260208190526040902080546001600160a01b03191690555050600101610730565b6002546001600160a01b03163314610839576040805162461bcd60e51b81526020600482015260096024820152683737ba1037bbb732b960b91b604482015290519081900360640190fd5b6001600160a01b038116610894576040805162461bcd60e51b815260206004820181905260248201527f6e6577206f776e65722063616e6e6f74206265207a65726f2061646472657373604482015290519081900360640190fd5b600280546001600160a01b0319166001600160a01b039290921691909117905556fe63616e6e6f742066696e642063546f6b656e206f66207468697320756e6465726c79696e6720696e20746865206d617070696e67a265627a7a7231582047c1db5d7f74598f3cae945358ebc1b597bc2f8ce960bfaba8986768722b07ed64736f6c63430005110032",
  "devdoc": {
    "methods": {}
  },
  "userdoc": {
    "methods": {}
  },
  "storageLayout": {
    "storage": [
      {
        "astId": 22392,
        "contract": "contracts/FlashloanLender.sol:FlashloanLender",
        "label": "underlyingToCToken",
        "offset": 0,
        "slot": "0",
        "type": "t_mapping(t_address,t_address)"
      },
      {
        "astId": 22394,
        "contract": "contracts/FlashloanLender.sol:FlashloanLender",
        "label": "comptroller",
        "offset": 0,
        "slot": "1",
        "type": "t_address"
      },
      {
        "astId": 22396,
        "contract": "contracts/FlashloanLender.sol:FlashloanLender",
        "label": "owner",
        "offset": 0,
        "slot": "2",
        "type": "t_address"
      }
    ],
    "types": {
      "t_address": {
        "encoding": "inplace",
        "label": "address",
        "numberOfBytes": "20"
      },
      "t_mapping(t_address,t_address)": {
        "encoding": "mapping",
        "key": "t_address",
        "label": "mapping(address => address)",
        "numberOfBytes": "32",
        "value": "t_address"
      }
    }
  }
}