{
  "address": "0x977507e3b4A63bCE87A777e7602949480631bE67",
  "abi": [
    {
      "inputs": [],
      "payable": false,
      "stateMutability": "nonpayable",
      "type": "constructor"
    },
    {
      "anonymous": false,
      "inputs": [
        {
          "indexed": false,
          "internalType": "uint256",
          "name": "cashPrior",
          "type": "uint256"
        },
        {
          "indexed": false,
          "internalType": "uint256",
          "name": "interestAccumulated",
          "type": "uint256"
        },
        {
          "indexed": false,
          "internalType": "uint256",
          "name": "borrowIndex",
          "type": "uint256"
        },
        {
          "indexed": false,
          "internalType": "uint256",
          "name": "totalBorrows",
          "type": "uint256"
        }
      ],
      "name": "AccrueInterest",
      "type": "event"
    },
    {
      "anonymous": false,
      "inputs": [
        {
          "indexed": true,
          "internalType": "address",
          "name": "owner",
          "type": "address"
        },
        {
          "indexed": true,
          "internalType": "address",
          "name": "spender",
          "type": "address"
        },
        {
          "indexed": false,
          "internalType": "uint256",
          "name": "amount",
          "type": "uint256"
        }
      ],
      "name": "Approval",
      "type": "event"
    },
    {
      "anonymous": false,
      "inputs": [
        {
          "indexed": false,
          "internalType": "address",
          "name": "borrower",
          "type": "address"
        },
        {
          "indexed": false,
          "internalType": "uint256",
          "name": "borrowAmount",
          "type": "uint256"
        },
        {
          "indexed": false,
          "internalType": "uint256",
          "name": "accountBorrows",
          "type": "uint256"
        },
        {
          "indexed": false,
          "internalType": "uint256",
          "name": "totalBorrows",
          "type": "uint256"
        }
      ],
      "name": "Borrow",
      "type": "event"
    },
    {
      "anonymous": false,
      "inputs": [
        {
          "indexed": false,
          "internalType": "uint256",
          "name": "error",
          "type": "uint256"
        },
        {
          "indexed": false,
          "internalType": "uint256",
          "name": "info",
          "type": "uint256"
        },
        {
          "indexed": false,
          "internalType": "uint256",
          "name": "detail",
          "type": "uint256"
        }
      ],
      "name": "Failure",
      "type": "event"
    },
    {
      "anonymous": false,
      "inputs": [
        {
          "indexed": true,
          "internalType": "address",
          "name": "receiver",
          "type": "address"
        },
        {
          "indexed": false,
          "internalType": "uint256",
          "name": "amount",
          "type": "uint256"
        },
        {
          "indexed": false,
          "internalType": "uint256",
          "name": "totalFee",
          "type": "uint256"
        },
        {
          "indexed": false,
          "internalType": "uint256",
          "name": "reservesFee",
          "type": "uint256"
        }
      ],
      "name": "Flashloan",
      "type": "event"
    },
    {
      "anonymous": false,
      "inputs": [
        {
          "indexed": false,
          "internalType": "address",
          "name": "liquidator",
          "type": "address"
        },
        {
          "indexed": false,
          "internalType": "address",
          "name": "borrower",
          "type": "address"
        },
        {
          "indexed": false,
          "internalType": "uint256",
          "name": "repayAmount",
          "type": "uint256"
        },
        {
          "indexed": false,
          "internalType": "address",
          "name": "cTokenCollateral",
          "type": "address"
        },
        {
          "indexed": false,
          "internalType": "uint256",
          "name": "seizeTokens",
          "type": "uint256"
        }
      ],
      "name": "LiquidateBorrow",
      "type": "event"
    },
    {
      "anonymous": false,
      "inputs": [
        {
          "indexed": false,
          "internalType": "address",
          "name": "minter",
          "type": "address"
        },
        {
          "indexed": false,
          "internalType": "uint256",
          "name": "mintAmount",
          "type": "uint256"
        },
        {
          "indexed": false,
          "internalType": "uint256",
          "name": "mintTokens",
          "type": "uint256"
        }
      ],
      "name": "Mint",
      "type": "event"
    },
    {
      "anonymous": false,
      "inputs": [
        {
          "indexed": false,
          "internalType": "address",
          "name": "oldAdmin",
          "type": "address"
        },
        {
          "indexed": false,
          "internalType": "address",
          "name": "newAdmin",
          "type": "address"
        }
      ],
      "name": "NewAdmin",
      "type": "event"
    },
    {
      "anonymous": false,
      "inputs": [
        {
          "indexed": false,
          "internalType": "address",
          "name": "token",
          "type": "address"
        },
        {
          "indexed": false,
          "internalType": "uint256",
          "name": "newCap",
          "type": "uint256"
        }
      ],
      "name": "NewCollateralCap",
      "type": "event"
    },
    {
      "anonymous": false,
      "inputs": [
        {
          "indexed": false,
          "internalType": "contract ComptrollerInterface",
          "name": "oldComptroller",
          "type": "address"
        },
        {
          "indexed": false,
          "internalType": "contract ComptrollerInterface",
          "name": "newComptroller",
          "type": "address"
        }
      ],
      "name": "NewComptroller",
      "type": "event"
    },
    {
      "anonymous": false,
      "inputs": [
        {
          "indexed": false,
          "internalType": "contract InterestRateModel",
          "name": "oldInterestRateModel",
          "type": "address"
        },
        {
          "indexed": false,
          "internalType": "contract InterestRateModel",
          "name": "newInterestRateModel",
          "type": "address"
        }
      ],
      "name": "NewMarketInterestRateModel",
      "type": "event"
    },
    {
      "anonymous": false,
      "inputs": [
        {
          "indexed": false,
          "internalType": "address",
          "name": "oldPendingAdmin",
          "type": "address"
        },
        {
          "indexed": false,
          "internalType": "address",
          "name": "newPendingAdmin",
          "type": "address"
        }
      ],
      "name": "NewPendingAdmin",
      "type": "event"
    },
    {
      "anonymous": false,
      "inputs": [
        {
          "indexed": false,
          "internalType": "uint256",
          "name": "oldReserveFactorMantissa",
          "type": "uint256"
        },
        {
          "indexed": false,
          "internalType": "uint256",
          "name": "newReserveFactorMantissa",
          "type": "uint256"
        }
      ],
      "name": "NewReserveFactor",
      "type": "event"
    },
    {
      "anonymous": false,
      "inputs": [
        {
          "indexed": false,
          "internalType": "address",
          "name": "redeemer",
          "type": "address"
        },
        {
          "indexed": false,
          "internalType": "uint256",
          "name": "redeemAmount",
          "type": "uint256"
        },
        {
          "indexed": false,
          "internalType": "uint256",
          "name": "redeemTokens",
          "type": "uint256"
        }
      ],
      "name": "Redeem",
      "type": "event"
    },
    {
      "anonymous": false,
      "inputs": [
        {
          "indexed": false,
          "internalType": "address",
          "name": "payer",
          "type": "address"
        },
        {
          "indexed": false,
          "internalType": "address",
          "name": "borrower",
          "type": "address"
        },
        {
          "indexed": false,
          "internalType": "uint256",
          "name": "repayAmount",
          "type": "uint256"
        },
        {
          "indexed": false,
          "internalType": "uint256",
          "name": "accountBorrows",
          "type": "uint256"
        },
        {
          "indexed": false,
          "internalType": "uint256",
          "name": "totalBorrows",
          "type": "uint256"
        }
      ],
      "name": "RepayBorrow",
      "type": "event"
    },
    {
      "anonymous": false,
      "inputs": [
        {
          "indexed": false,
          "internalType": "address",
          "name": "benefactor",
          "type": "address"
        },
        {
          "indexed": false,
          "internalType": "uint256",
          "name": "addAmount",
          "type": "uint256"
        },
        {
          "indexed": false,
          "internalType": "uint256",
          "name": "newTotalReserves",
          "type": "uint256"
        }
      ],
      "name": "ReservesAdded",
      "type": "event"
    },
    {
      "anonymous": false,
      "inputs": [
        {
          "indexed": false,
          "internalType": "address",
          "name": "admin",
          "type": "address"
        },
        {
          "indexed": false,
          "internalType": "uint256",
          "name": "reduceAmount",
          "type": "uint256"
        },
        {
          "indexed": false,
          "internalType": "uint256",
          "name": "newTotalReserves",
          "type": "uint256"
        }
      ],
      "name": "ReservesReduced",
      "type": "event"
    },
    {
      "anonymous": false,
      "inputs": [
        {
          "indexed": true,
          "internalType": "address",
          "name": "from",
          "type": "address"
        },
        {
          "indexed": true,
          "internalType": "address",
          "name": "to",
          "type": "address"
        },
        {
          "indexed": false,
          "internalType": "uint256",
          "name": "amount",
          "type": "uint256"
        }
      ],
      "name": "Transfer",
      "type": "event"
    },
    {
      "anonymous": false,
      "inputs": [
        {
          "indexed": false,
          "internalType": "address",
          "name": "account",
          "type": "address"
        },
        {
          "indexed": false,
          "internalType": "uint256",
          "name": "newCollateralTokens",
          "type": "uint256"
        }
      ],
      "name": "UserCollateralChanged",
      "type": "event"
    },
    {
      "constant": false,
      "inputs": [],
      "name": "_acceptAdmin",
      "outputs": [
        {
          "internalType": "uint256",
          "name": "",
          "type": "uint256"
        }
      ],
      "payable": false,
      "stateMutability": "nonpayable",
      "type": "function"
    },
    {
      "constant": false,
      "inputs": [
        {
          "internalType": "uint256",
          "name": "addAmount",
          "type": "uint256"
        }
      ],
      "name": "_addReserves",
      "outputs": [
        {
          "internalType": "uint256",
          "name": "",
          "type": "uint256"
        }
      ],
      "payable": false,
      "stateMutability": "nonpayable",
      "type": "function"
    },
    {
      "constant": false,
      "inputs": [
        {
          "internalType": "bytes",
          "name": "data",
          "type": "bytes"
        }
      ],
      "name": "_becomeImplementation",
      "outputs": [],
      "payable": false,
      "stateMutability": "nonpayable",
      "type": "function"
    },
    {
      "constant": false,
      "inputs": [
        {
          "internalType": "uint256",
          "name": "reduceAmount",
          "type": "uint256"
        }
      ],
      "name": "_reduceReserves",
      "outputs": [
        {
          "internalType": "uint256",
          "name": "",
          "type": "uint256"
        }
      ],
      "payable": false,
      "stateMutability": "nonpayable",
      "type": "function"
    },
    {
      "constant": false,
      "inputs": [],
      "name": "_resignImplementation",
      "outputs": [],
      "payable": false,
      "stateMutability": "nonpayable",
      "type": "function"
    },
    {
      "constant": false,
      "inputs": [
        {
          "internalType": "uint256",
          "name": "newCollateralCap",
          "type": "uint256"
        }
      ],
      "name": "_setCollateralCap",
      "outputs": [],
      "payable": false,
      "stateMutability": "nonpayable",
      "type": "function"
    },
    {
      "constant": false,
      "inputs": [
        {
          "internalType": "contract ComptrollerInterface",
          "name": "newComptroller",
          "type": "address"
        }
      ],
      "name": "_setComptroller",
      "outputs": [
        {
          "internalType": "uint256",
          "name": "",
          "type": "uint256"
        }
      ],
      "payable": false,
      "stateMutability": "nonpayable",
      "type": "function"
    },
    {
      "constant": false,
      "inputs": [
        {
          "internalType": "contract InterestRateModel",
          "name": "newInterestRateModel",
          "type": "address"
        }
      ],
      "name": "_setInterestRateModel",
      "outputs": [
        {
          "internalType": "uint256",
          "name": "",
          "type": "uint256"
        }
      ],
      "payable": false,
      "stateMutability": "nonpayable",
      "type": "function"
    },
    {
      "constant": false,
      "inputs": [
        {
          "internalType": "address payable",
          "name": "newPendingAdmin",
          "type": "address"
        }
      ],
      "name": "_setPendingAdmin",
      "outputs": [
        {
          "internalType": "uint256",
          "name": "",
          "type": "uint256"
        }
      ],
      "payable": false,
      "stateMutability": "nonpayable",
      "type": "function"
    },
    {
      "constant": false,
      "inputs": [
        {
          "internalType": "uint256",
          "name": "newReserveFactorMantissa",
          "type": "uint256"
        }
      ],
      "name": "_setReserveFactor",
      "outputs": [
        {
          "internalType": "uint256",
          "name": "",
          "type": "uint256"
        }
      ],
      "payable": false,
      "stateMutability": "nonpayable",
      "type": "function"
    },
    {
      "constant": true,
      "inputs": [
        {
          "internalType": "address",
          "name": "",
          "type": "address"
        }
      ],
      "name": "accountCollateralTokens",
      "outputs": [
        {
          "internalType": "uint256",
          "name": "",
          "type": "uint256"
        }
      ],
      "payable": false,
      "stateMutability": "view",
      "type": "function"
    },
    {
      "constant": true,
      "inputs": [],
      "name": "accrualBlockNumber",
      "outputs": [
        {
          "internalType": "uint256",
          "name": "",
          "type": "uint256"
        }
      ],
      "payable": false,
      "stateMutability": "view",
      "type": "function"
    },
    {
      "constant": false,
      "inputs": [],
      "name": "accrueInterest",
      "outputs": [
        {
          "internalType": "uint256",
          "name": "",
          "type": "uint256"
        }
      ],
      "payable": false,
      "stateMutability": "nonpayable",
      "type": "function"
    },
    {
      "constant": true,
      "inputs": [],
      "name": "admin",
      "outputs": [
        {
          "internalType": "address payable",
          "name": "",
          "type": "address"
        }
      ],
      "payable": false,
      "stateMutability": "view",
      "type": "function"
    },
    {
      "constant": true,
      "inputs": [
        {
          "internalType": "address",
          "name": "owner",
          "type": "address"
        },
        {
          "internalType": "address",
          "name": "spender",
          "type": "address"
        }
      ],
      "name": "allowance",
      "outputs": [
        {
          "internalType": "uint256",
          "name": "",
          "type": "uint256"
        }
      ],
      "payable": false,
      "stateMutability": "view",
      "type": "function"
    },
    {
      "constant": false,
      "inputs": [
        {
          "internalType": "address",
          "name": "spender",
          "type": "address"
        },
        {
          "internalType": "uint256",
          "name": "amount",
          "type": "uint256"
        }
      ],
      "name": "approve",
      "outputs": [
        {
          "internalType": "bool",
          "name": "",
          "type": "bool"
        }
      ],
      "payable": false,
      "stateMutability": "nonpayable",
      "type": "function"
    },
    {
      "constant": true,
      "inputs": [
        {
          "internalType": "address",
          "name": "owner",
          "type": "address"
        }
      ],
      "name": "balanceOf",
      "outputs": [
        {
          "internalType": "uint256",
          "name": "",
          "type": "uint256"
        }
      ],
      "payable": false,
      "stateMutability": "view",
      "type": "function"
    },
    {
      "constant": false,
      "inputs": [
        {
          "internalType": "address",
          "name": "owner",
          "type": "address"
        }
      ],
      "name": "balanceOfUnderlying",
      "outputs": [
        {
          "internalType": "uint256",
          "name": "",
          "type": "uint256"
        }
      ],
      "payable": false,
      "stateMutability": "nonpayable",
      "type": "function"
    },
    {
      "constant": false,
      "inputs": [
        {
          "internalType": "uint256",
          "name": "borrowAmount",
          "type": "uint256"
        }
      ],
      "name": "borrow",
      "outputs": [
        {
          "internalType": "uint256",
          "name": "",
          "type": "uint256"
        }
      ],
      "payable": false,
      "stateMutability": "nonpayable",
      "type": "function"
    },
    {
      "constant": false,
      "inputs": [
        {
          "internalType": "address",
          "name": "account",
          "type": "address"
        }
      ],
      "name": "borrowBalanceCurrent",
      "outputs": [
        {
          "internalType": "uint256",
          "name": "",
          "type": "uint256"
        }
      ],
      "payable": false,
      "stateMutability": "nonpayable",
      "type": "function"
    },
    {
      "constant": true,
      "inputs": [
        {
          "internalType": "address",
          "name": "account",
          "type": "address"
        }
      ],
      "name": "borrowBalanceStored",
      "outputs": [
        {
          "internalType": "uint256",
          "name": "",
          "type": "uint256"
        }
      ],
      "payable": false,
      "stateMutability": "view",
      "type": "function"
    },
    {
      "constant": true,
      "inputs": [],
      "name": "borrowIndex",
      "outputs": [
        {
          "internalType": "uint256",
          "name": "",
          "type": "uint256"
        }
      ],
      "payable": false,
      "stateMutability": "view",
      "type": "function"
    },
    {
      "constant": true,
      "inputs": [],
      "name": "borrowRatePerBlock",
      "outputs": [
        {
          "internalType": "uint256",
          "name": "",
          "type": "uint256"
        }
      ],
      "payable": false,
      "stateMutability": "view",
      "type": "function"
    },
    {
      "constant": true,
      "inputs": [],
      "name": "collateralCap",
      "outputs": [
        {
          "internalType": "uint256",
          "name": "",
          "type": "uint256"
        }
      ],
      "payable": false,
      "stateMutability": "view",
      "type": "function"
    },
    {
      "constant": true,
      "inputs": [],
      "name": "comptroller",
      "outputs": [
        {
          "internalType": "contract ComptrollerInterface",
          "name": "",
          "type": "address"
        }
      ],
      "payable": false,
      "stateMutability": "view",
      "type": "function"
    },
    {
      "constant": true,
      "inputs": [],
      "name": "decimals",
      "outputs": [
        {
          "internalType": "uint8",
          "name": "",
          "type": "uint8"
        }
      ],
      "payable": false,
      "stateMutability": "view",
      "type": "function"
    },
    {
      "constant": true,
      "inputs": [
        {
          "internalType": "uint256",
          "name": "change",
          "type": "uint256"
        },
        {
          "internalType": "bool",
          "name": "repay",
          "type": "bool"
        }
      ],
      "name": "estimateBorrowRatePerBlockAfterChange",
      "outputs": [
        {
          "internalType": "uint256",
          "name": "",
          "type": "uint256"
        }
      ],
      "payable": false,
      "stateMutability": "view",
      "type": "function"
    },
    {
      "constant": true,
      "inputs": [
        {
          "internalType": "uint256",
          "name": "change",
          "type": "uint256"
        },
        {
          "internalType": "bool",
          "name": "repay",
          "type": "bool"
        }
      ],
      "name": "estimateSupplyRatePerBlockAfterChange",
      "outputs": [
        {
          "internalType": "uint256",
          "name": "",
          "type": "uint256"
        }
      ],
      "payable": false,
      "stateMutability": "view",
      "type": "function"
    },
    {
      "constant": false,
      "inputs": [],
      "name": "exchangeRateCurrent",
      "outputs": [
        {
          "internalType": "uint256",
          "name": "",
          "type": "uint256"
        }
      ],
      "payable": false,
      "stateMutability": "nonpayable",
      "type": "function"
    },
    {
      "constant": true,
      "inputs": [],
      "name": "exchangeRateStored",
      "outputs": [
        {
          "internalType": "uint256",
          "name": "",
          "type": "uint256"
        }
      ],
      "payable": false,
      "stateMutability": "view",
      "type": "function"
    },
    {
      "constant": true,
      "inputs": [
        {
          "internalType": "uint256",
          "name": "amount",
          "type": "uint256"
        }
      ],
      "name": "flashFee",
      "outputs": [
        {
          "internalType": "uint256",
          "name": "",
          "type": "uint256"
        }
      ],
      "payable": false,
      "stateMutability": "view",
      "type": "function"
    },
    {
      "constant": true,
      "inputs": [],
      "name": "flashFeeBips",
      "outputs": [
        {
          "internalType": "uint256",
          "name": "",
          "type": "uint256"
        }
      ],
      "payable": false,
      "stateMutability": "view",
      "type": "function"
    },
    {
      "constant": false,
      "inputs": [
        {
          "internalType": "contract ERC3156FlashBorrowerInterface",
          "name": "receiver",
          "type": "address"
        },
        {
          "internalType": "address",
          "name": "initiator",
          "type": "address"
        },
        {
          "internalType": "uint256",
          "name": "amount",
          "type": "uint256"
        },
        {
          "internalType": "bytes",
          "name": "data",
          "type": "bytes"
        }
      ],
      "name": "flashLoan",
      "outputs": [
        {
          "internalType": "bool",
          "name": "",
          "type": "bool"
        }
      ],
      "payable": false,
      "stateMutability": "nonpayable",
      "type": "function"
    },
    {
      "constant": true,
      "inputs": [
        {
          "internalType": "address",
          "name": "account",
          "type": "address"
        }
      ],
      "name": "getAccountSnapshot",
      "outputs": [
        {
          "internalType": "uint256",
          "name": "",
          "type": "uint256"
        },
        {
          "internalType": "uint256",
          "name": "",
          "type": "uint256"
        },
        {
          "internalType": "uint256",
          "name": "",
          "type": "uint256"
        },
        {
          "internalType": "uint256",
          "name": "",
          "type": "uint256"
        }
      ],
      "payable": false,
      "stateMutability": "view",
      "type": "function"
    },
    {
      "constant": true,
      "inputs": [],
      "name": "getCash",
      "outputs": [
        {
          "internalType": "uint256",
          "name": "",
          "type": "uint256"
        }
      ],
      "payable": false,
      "stateMutability": "view",
      "type": "function"
    },
    {
      "constant": false,
      "inputs": [],
      "name": "gulp",
      "outputs": [],
      "payable": false,
      "stateMutability": "nonpayable",
      "type": "function"
    },
    {
      "constant": true,
      "inputs": [],
      "name": "implementation",
      "outputs": [
        {
          "internalType": "address",
          "name": "",
          "type": "address"
        }
      ],
      "payable": false,
      "stateMutability": "view",
      "type": "function"
    },
    {
      "constant": false,
      "inputs": [
        {
          "internalType": "address",
          "name": "underlying_",
          "type": "address"
        },
        {
          "internalType": "contract ComptrollerInterface",
          "name": "comptroller_",
          "type": "address"
        },
        {
          "internalType": "contract InterestRateModel",
          "name": "interestRateModel_",
          "type": "address"
        },
        {
          "internalType": "uint256",
          "name": "initialExchangeRateMantissa_",
          "type": "uint256"
        },
        {
          "internalType": "string",
          "name": "name_",
          "type": "string"
        },
        {
          "internalType": "string",
          "name": "symbol_",
          "type": "string"
        },
        {
          "internalType": "uint8",
          "name": "decimals_",
          "type": "uint8"
        }
      ],
      "name": "initialize",
      "outputs": [],
      "payable": false,
      "stateMutability": "nonpayable",
      "type": "function"
    },
    {
      "constant": false,
      "inputs": [
        {
          "internalType": "contract ComptrollerInterface",
          "name": "comptroller_",
          "type": "address"
        },
        {
          "internalType": "contract InterestRateModel",
          "name": "interestRateModel_",
          "type": "address"
        },
        {
          "internalType": "uint256",
          "name": "initialExchangeRateMantissa_",
          "type": "uint256"
        },
        {
          "internalType": "string",
          "name": "name_",
          "type": "string"
        },
        {
          "internalType": "string",
          "name": "symbol_",
          "type": "string"
        },
        {
          "internalType": "uint8",
          "name": "decimals_",
          "type": "uint8"
        }
      ],
      "name": "initialize",
      "outputs": [],
      "payable": false,
      "stateMutability": "nonpayable",
      "type": "function"
    },
    {
      "constant": true,
      "inputs": [],
      "name": "interestRateModel",
      "outputs": [
        {
          "internalType": "contract InterestRateModel",
          "name": "",
          "type": "address"
        }
      ],
      "payable": false,
      "stateMutability": "view",
      "type": "function"
    },
    {
      "constant": true,
      "inputs": [],
      "name": "internalCash",
      "outputs": [
        {
          "internalType": "uint256",
          "name": "",
          "type": "uint256"
        }
      ],
      "payable": false,
      "stateMutability": "view",
      "type": "function"
    },
    {
      "constant": true,
      "inputs": [],
      "name": "isCToken",
      "outputs": [
        {
          "internalType": "bool",
          "name": "",
          "type": "bool"
        }
      ],
      "payable": false,
      "stateMutability": "view",
      "type": "function"
    },
    {
      "constant": true,
      "inputs": [
        {
          "internalType": "address",
          "name": "",
          "type": "address"
        }
      ],
      "name": "isCollateralTokenInit",
      "outputs": [
        {
          "internalType": "bool",
          "name": "",
          "type": "bool"
        }
      ],
      "payable": false,
      "stateMutability": "view",
      "type": "function"
    },
    {
      "constant": false,
      "inputs": [
        {
          "internalType": "address",
          "name": "borrower",
          "type": "address"
        },
        {
          "internalType": "uint256",
          "name": "repayAmount",
          "type": "uint256"
        },
        {
          "internalType": "contract CTokenInterface",
          "name": "cTokenCollateral",
          "type": "address"
        }
      ],
      "name": "liquidateBorrow",
      "outputs": [
        {
          "internalType": "uint256",
          "name": "",
          "type": "uint256"
        }
      ],
      "payable": false,
      "stateMutability": "nonpayable",
      "type": "function"
    },
    {
      "constant": true,
      "inputs": [],
      "name": "maxFlashLoan",
      "outputs": [
        {
          "internalType": "uint256",
          "name": "",
          "type": "uint256"
        }
      ],
      "payable": false,
      "stateMutability": "view",
      "type": "function"
    },
    {
      "constant": false,
      "inputs": [
        {
          "internalType": "uint256",
          "name": "mintAmount",
          "type": "uint256"
        }
      ],
      "name": "mint",
      "outputs": [
        {
          "internalType": "uint256",
          "name": "",
          "type": "uint256"
        }
      ],
      "payable": false,
      "stateMutability": "nonpayable",
      "type": "function"
    },
    {
      "constant": true,
      "inputs": [],
      "name": "name",
      "outputs": [
        {
          "internalType": "string",
          "name": "",
          "type": "string"
        }
      ],
      "payable": false,
      "stateMutability": "view",
      "type": "function"
    },
    {
      "constant": true,
      "inputs": [],
      "name": "pendingAdmin",
      "outputs": [
        {
          "internalType": "address payable",
          "name": "",
          "type": "address"
        }
      ],
      "payable": false,
      "stateMutability": "view",
      "type": "function"
    },
    {
      "constant": false,
      "inputs": [
        {
          "internalType": "uint256",
          "name": "redeemTokens",
          "type": "uint256"
        }
      ],
      "name": "redeem",
      "outputs": [
        {
          "internalType": "uint256",
          "name": "",
          "type": "uint256"
        }
      ],
      "payable": false,
      "stateMutability": "nonpayable",
      "type": "function"
    },
    {
      "constant": false,
      "inputs": [
        {
          "internalType": "uint256",
          "name": "redeemAmount",
          "type": "uint256"
        }
      ],
      "name": "redeemUnderlying",
      "outputs": [
        {
          "internalType": "uint256",
          "name": "",
          "type": "uint256"
        }
      ],
      "payable": false,
      "stateMutability": "nonpayable",
      "type": "function"
    },
    {
      "constant": false,
      "inputs": [
        {
          "internalType": "address",
          "name": "account",
          "type": "address"
        }
      ],
      "name": "registerCollateral",
      "outputs": [
        {
          "internalType": "uint256",
          "name": "",
          "type": "uint256"
        }
      ],
      "payable": false,
      "stateMutability": "nonpayable",
      "type": "function"
    },
    {
      "constant": false,
      "inputs": [
        {
          "internalType": "uint256",
          "name": "repayAmount",
          "type": "uint256"
        }
      ],
      "name": "repayBorrow",
      "outputs": [
        {
          "internalType": "uint256",
          "name": "",
          "type": "uint256"
        }
      ],
      "payable": false,
      "stateMutability": "nonpayable",
      "type": "function"
    },
    {
      "constant": false,
      "inputs": [
        {
          "internalType": "address",
          "name": "borrower",
          "type": "address"
        },
        {
          "internalType": "uint256",
          "name": "repayAmount",
          "type": "uint256"
        }
      ],
      "name": "repayBorrowBehalf",
      "outputs": [
        {
          "internalType": "uint256",
          "name": "",
          "type": "uint256"
        }
      ],
      "payable": false,
      "stateMutability": "nonpayable",
      "type": "function"
    },
    {
      "constant": true,
      "inputs": [],
      "name": "reserveFactorMantissa",
      "outputs": [
        {
          "internalType": "uint256",
          "name": "",
          "type": "uint256"
        }
      ],
      "payable": false,
      "stateMutability": "view",
      "type": "function"
    },
    {
      "constant": false,
      "inputs": [
        {
          "internalType": "address",
          "name": "liquidator",
          "type": "address"
        },
        {
          "internalType": "address",
          "name": "borrower",
          "type": "address"
        },
        {
          "internalType": "uint256",
          "name": "seizeTokens",
          "type": "uint256"
        }
      ],
      "name": "seize",
      "outputs": [
        {
          "internalType": "uint256",
          "name": "",
          "type": "uint256"
        }
      ],
      "payable": false,
      "stateMutability": "nonpayable",
      "type": "function"
    },
    {
      "constant": true,
      "inputs": [],
      "name": "supplyRatePerBlock",
      "outputs": [
        {
          "internalType": "uint256",
          "name": "",
          "type": "uint256"
        }
      ],
      "payable": false,
      "stateMutability": "view",
      "type": "function"
    },
    {
      "constant": true,
      "inputs": [],
      "name": "symbol",
      "outputs": [
        {
          "internalType": "string",
          "name": "",
          "type": "string"
        }
      ],
      "payable": false,
      "stateMutability": "view",
      "type": "function"
    },
    {
      "constant": true,
      "inputs": [],
      "name": "totalBorrows",
      "outputs": [
        {
          "internalType": "uint256",
          "name": "",
          "type": "uint256"
        }
      ],
      "payable": false,
      "stateMutability": "view",
      "type": "function"
    },
    {
      "constant": false,
      "inputs": [],
      "name": "totalBorrowsCurrent",
      "outputs": [
        {
          "internalType": "uint256",
          "name": "",
          "type": "uint256"
        }
      ],
      "payable": false,
      "stateMutability": "nonpayable",
      "type": "function"
    },
    {
      "constant": true,
      "inputs": [],
      "name": "totalCollateralTokens",
      "outputs": [
        {
          "internalType": "uint256",
          "name": "",
          "type": "uint256"
        }
      ],
      "payable": false,
      "stateMutability": "view",
      "type": "function"
    },
    {
      "constant": true,
      "inputs": [],
      "name": "totalReserves",
      "outputs": [
        {
          "internalType": "uint256",
          "name": "",
          "type": "uint256"
        }
      ],
      "payable": false,
      "stateMutability": "view",
      "type": "function"
    },
    {
      "constant": true,
      "inputs": [],
      "name": "totalSupply",
      "outputs": [
        {
          "internalType": "uint256",
          "name": "",
          "type": "uint256"
        }
      ],
      "payable": false,
      "stateMutability": "view",
      "type": "function"
    },
    {
      "constant": false,
      "inputs": [
        {
          "internalType": "address",
          "name": "dst",
          "type": "address"
        },
        {
          "internalType": "uint256",
          "name": "amount",
          "type": "uint256"
        }
      ],
      "name": "transfer",
      "outputs": [
        {
          "internalType": "bool",
          "name": "",
          "type": "bool"
        }
      ],
      "payable": false,
      "stateMutability": "nonpayable",
      "type": "function"
    },
    {
      "constant": false,
      "inputs": [
        {
          "internalType": "address",
          "name": "src",
          "type": "address"
        },
        {
          "internalType": "address",
          "name": "dst",
          "type": "address"
        },
        {
          "internalType": "uint256",
          "name": "amount",
          "type": "uint256"
        }
      ],
      "name": "transferFrom",
      "outputs": [
        {
          "internalType": "bool",
          "name": "",
          "type": "bool"
        }
      ],
      "payable": false,
      "stateMutability": "nonpayable",
      "type": "function"
    },
    {
      "constant": true,
      "inputs": [],
      "name": "underlying",
      "outputs": [
        {
          "internalType": "address",
          "name": "",
          "type": "address"
        }
      ],
      "payable": false,
      "stateMutability": "view",
      "type": "function"
    },
    {
      "constant": false,
      "inputs": [
        {
          "internalType": "address",
          "name": "account",
          "type": "address"
        }
      ],
      "name": "unregisterCollateral",
      "outputs": [],
      "payable": false,
      "stateMutability": "nonpayable",
      "type": "function"
    }
  ],
  "transactionHash": "0x6d376b5bfaa09c771bdc2317594aaeadb070bffe8777f378a5d3ff79a0c2e181",
  "args": [],
  "solcInputHash": "c8d73f82c931d0fff0e1ec1082377d27",
  "bytecode": "0x608060405234801561001057600080fd5b50615e0d80620000216000396000f3fe608060405234801561001057600080fd5b50600436106103e65760003560e01c8063852a12e31161020a578063b71d1a0c11610125578063e9c714f2116100b8578063f5e3c46211610087578063f5e3c46214610dcb578063f851a44014610e01578063f8f9da2814610e09578063fca7820b14610e11578063fe9c44ae14610e2e576103e6565b8063e9c714f214610d8d578063ea11eea414610d95578063f2b3abbd14610d9d578063f3fdb15a14610dc3576103e6565b8063d240d64a116100f4578063d240d64a14610d14578063d2bb18e914610d3a578063db006a7514610d42578063dd62ed3e14610d5f576103e6565b8063b71d1a0c14610c7d578063bd6d894d14610ca3578063c37f68e214610cab578063c5ebeaec14610cf7576103e6565b806399d8c1b41161019d578063a9059cbb1161016c578063a9059cbb14610c0b578063aa5af0fd14610c37578063ae9d70b014610c3f578063b2a02ff114610c47576103e6565b806399d8c1b414610a7b578063a0712d6814610bc9578063a6afed9514610be6578063a7af467a14610bee576103e6565b80638f840ddd116101d95780638f840ddd14610a3d57806394909e6214610a4557806395d89b4114610a4d57806395dd919314610a55576103e6565b8063852a12e3146109ae57806385d8a2e6146109cb5780638897bd85146109f15780638b35776b14610a17576103e6565b806326782247116103055780635c60da1b116102985780636c540baf116102675780636c540baf146109535780636f307dc31461095b57806370a082311461096357806373acee981461098957806381cf00eb14610991576103e6565b80635c60da1b146108985780635cffe9de146108a05780635fe3b5671461092e578063601a0bf114610936576103e6565b80633e941010116102d45780633e941010146107a95780634576b5db146107c657806347bd3718146107ec57806356e67728146107f4576103e6565b80632678224714610739578063313ce5671461075d5780633af9e6691461077b5780633b1d21a2146107a1576103e6565b806318160ddd1161037d57806322abdbf51161034c57806322abdbf5146106c757806323b872dd146106cf578063242c127c146107055780632608f8181461070d576103e6565b806318160ddd14610559578063182df0f51461056157806319a4dd3c146105695780631a31d46514610571576103e6565b80630f226888116103b95780630f226888146104fc578063153ab50514610521578063173b99041461052b57806317bfdfbc14610533576103e6565b806305dd00b8146103eb57806306fdde0314610422578063095ea7b31461049f5780630e752702146104df575b600080fd5b6104106004803603604081101561040157600080fd5b50803590602001351515610e36565b60408051918252519081900360200190f35b61042a610f1d565b6040805160208082528351818301528351919283929083019185019080838360005b8381101561046457818101518382015260200161044c565b50505050905090810190601f1680156104915780820380516001836020036101000a031916815260200191505b509250505060405180910390f35b6104cb600480360360408110156104b557600080fd5b506001600160a01b038135169060200135610faa565b604080519115158252519081900360200190f35b610410600480360360208110156104f557600080fd5b5035611015565b6104106004803603604081101561051257600080fd5b5080359060200135151561102d565b6105296110dc565b005b61041061112c565b6104106004803603602081101561054957600080fd5b50356001600160a01b0316611132565b6104106111f2565b6104106111f8565b610410611208565b610529600480360360e081101561058757600080fd5b6001600160a01b03823581169260208101358216926040820135909216916060820135919081019060a081016080820135600160201b8111156105c957600080fd5b8201836020820111156105db57600080fd5b803590602001918460018302840111600160201b831117156105fc57600080fd5b91908080601f0160208091040260200160405190810160405280939291908181526020018383808284376000920191909152509295949360208101935035915050600160201b81111561064e57600080fd5b82018360208201111561066057600080fd5b803590602001918460018302840111600160201b8311171561068157600080fd5b91908080601f0160208091040260200160405190810160405280939291908181526020018383808284376000920191909152509295505050903560ff16915061120e9050565b6104106112ad565b6104cb600480360360608110156106e557600080fd5b506001600160a01b038135811691602081013590911690604001356112b3565b610410611325565b6104106004803603604081101561072357600080fd5b506001600160a01b0381351690602001356113ca565b6107416113e2565b604080516001600160a01b039092168252519081900360200190f35b6107656113f1565b6040805160ff9092168252519081900360200190f35b6104106004803603602081101561079157600080fd5b50356001600160a01b03166113fa565b610410611447565b610410600480360360208110156107bf57600080fd5b5035611451565b610410600480360360208110156107dc57600080fd5b50356001600160a01b031661145e565b6104106115b0565b6105296004803603602081101561080a57600080fd5b810190602081018135600160201b81111561082457600080fd5b82018360208201111561083657600080fd5b803590602001918460018302840111600160201b8311171561085757600080fd5b91908080601f0160208091040260200160405190810160405280939291908181526020018383808284376000920191909152509295506115b6945050505050565b61074161167d565b6104cb600480360360808110156108b657600080fd5b6001600160a01b03823581169260208101359091169160408201359190810190608081016060820135600160201b8111156108f057600080fd5b82018360208201111561090257600080fd5b803590602001918460018302840111600160201b8311171561092357600080fd5b50909250905061168c565b610741611bd0565b6104106004803603602081101561094c57600080fd5b5035611bdf565b610410611c7a565b610741611c80565b6104106004803603602081101561097957600080fd5b50356001600160a01b0316611c8f565b610410611caa565b610529600480360360208110156109a757600080fd5b5035611d60565b610410600480360360208110156109c457600080fd5b5035611df1565b6104cb600480360360208110156109e157600080fd5b50356001600160a01b0316611dfe565b61041060048036036020811015610a0757600080fd5b50356001600160a01b0316611e13565b61052960048036036020811015610a2d57600080fd5b50356001600160a01b0316611ea1565b610410611ffb565b610529612001565b61042a612096565b61041060048036036020811015610a6b57600080fd5b50356001600160a01b03166120ee565b610529600480360360c0811015610a9157600080fd5b6001600160a01b03823581169260208101359091169160408201359190810190608081016060820135600160201b811115610acb57600080fd5b820183602082011115610add57600080fd5b803590602001918460018302840111600160201b83111715610afe57600080fd5b91908080601f0160208091040260200160405190810160405280939291908181526020018383808284376000920191909152509295949360208101935035915050600160201b811115610b5057600080fd5b820183602082011115610b6257600080fd5b803590602001918460018302840111600160201b83111715610b8357600080fd5b91908080601f0160208091040260200160405190810160405280939291908181526020018383808284376000920191909152509295505050903560ff1691506120f99050565b61041060048036036020811015610bdf57600080fd5b50356122e0565b6104106122ee565b61041060048036036020811015610c0457600080fd5b50356124fe565b6104cb60048036036040811015610c2157600080fd5b506001600160a01b0381351690602001356125f0565b610410612662565b610410612668565b61041060048036036060811015610c5d57600080fd5b506001600160a01b03813581169160208101359091169060400135612707565b61041060048036036020811015610c9357600080fd5b50356001600160a01b0316612778565b610410612804565b610cd160048036036020811015610cc157600080fd5b50356001600160a01b03166128c0565b604080519485526020850193909352838301919091526060830152519081900360800190f35b61041060048036036020811015610d0d57600080fd5b50356128fc565b61041060048036036020811015610d2a57600080fd5b50356001600160a01b0316612909565b61041061291b565b61041060048036036020811015610d5857600080fd5b5035612921565b61041060048036036040811015610d7557600080fd5b506001600160a01b038135811691602001351661292e565b610410612959565b610410612a5c565b61041060048036036020811015610db357600080fd5b50356001600160a01b0316612a61565b610741612a9b565b61041060048036036060811015610de157600080fd5b506001600160a01b03813581169160208101359160409091013516612aaa565b610741612ac4565b610410612ad8565b61041060048036036020811015610e2757600080fd5b5035612b3c565b6104cb612bba565b60008060008315610e6757610e52610e4c612bbf565b86612bc5565b9150610e60600b5486612bfb565b9050610e89565b610e78610e72612bbf565b86612bfb565b9150610e86600b5486612bc5565b90505b600654600c54604080516315f2405360e01b815260048101869052602481018590526044810192909252516001600160a01b03909216916315f2405391606480820192602092909190829003018186803b158015610ee657600080fd5b505afa158015610efa573d6000803e3d6000fd5b505050506040513d6020811015610f1057600080fd5b5051925050505b92915050565b60018054604080516020600284861615610100026000190190941693909304601f81018490048402820184019092528181529291830182828015610fa25780601f10610f7757610100808354040283529160200191610fa2565b820191906000526020600020905b815481529060010190602001808311610f8557829003601f168201915b505050505081565b336000818152600f602090815260408083206001600160a01b03871680855290835281842086905581518681529151939493909284927f8c5be1e5ebec7d5bd14f71427d1e84f3dd0314c0f7b2291e5b200ac8c7c3b925929081900390910190a35060019392505050565b600080611023836000612c35565b509150505b919050565b6000806000831561105857611043610e4c612bbf565b9150611051600b5486612bfb565b9050611074565b611063610e72612bbf565b9150611071600b5486612bc5565b90505b600654600c5460085460408051635c0b440b60e11b8152600481018790526024810186905260448101939093526064830191909152516001600160a01b039092169163b816881691608480820192602092909190829003018186803b158015610ee657600080fd5b60035461010090046001600160a01b0316331461112a5760405162461bcd60e51b815260040180806020018281038252602d815260200180615c1f602d913960400191505060405180910390fd5b565b60085481565b6000805460ff16611177576040805162461bcd60e51b815260206004820152600a6024820152691c994b595b9d195c995960b21b604482015290519081900360640190fd5b6000805460ff191681556111896122ee565b146111d4576040805162461bcd60e51b81526020600482015260166024820152751858d8dc9d59481a5b9d195c995cdd0819985a5b195960521b604482015290519081900360640190fd5b6111dd826120ee565b90505b6000805460ff19166001179055919050565b600d5481565b6000611202612ce1565b90505b90565b60145481565b61121c8686868686866120f9565b601180546001600160a01b0319166001600160a01b038981169190911791829055604080516318160ddd60e01b8152905192909116916318160ddd91600480820192602092909190829003018186803b15801561127857600080fd5b505afa15801561128c573d6000803e3d6000fd5b505050506040513d60208110156112a257600080fd5b505050505050505050565b60135481565b6000805460ff166112f8576040805162461bcd60e51b815260206004820152600a6024820152691c994b595b9d195c995960b21b604482015290519081900360640190fd5b6000805460ff1916815561130e33868686612d47565b1490506000805460ff191660011790559392505050565b600554604080516358d5bc7360e11b81523060048201526000602482018190526044820181905260806064830152608482018190529151919283926001600160a01b039091169163b1ab78e69160c4808301926020929190829003018186803b15801561139157600080fd5b505afa1580156113a5573d6000803e3d6000fd5b505050506040513d60208110156113bb57600080fd5b50511561120257610f17612bbf565b6000806113d984846000613115565b50949350505050565b6004546001600160a01b031681565b60035460ff1681565b6000611404615a05565b6040518060200160405280611417612804565b90526001600160a01b0384166000908152600e60205260409020549091506114409082906131c2565b9392505050565b6000611202612bbf565b6000610f178260006131e1565b60035460009061010090046001600160a01b0316331461148b576114846001602961327f565b9050611028565b60055460408051623f1ee960e11b815290516001600160a01b0392831692851691627e3dd2916004808301926020929190829003018186803b1580156114d057600080fd5b505afa1580156114e4573d6000803e3d6000fd5b505050506040513d60208110156114fa57600080fd5b505161154d576040805162461bcd60e51b815260206004820152601c60248201527f6d61726b6572206d6574686f642072657475726e65642066616c736500000000604482015290519081900360640190fd5b600580546001600160a01b0319166001600160a01b03858116918217909255604080519284168352602083019190915280517f7ac369dbd14fa5ea3f473ed67cc9d598964a77501540ba6751eb0b3decf5870d9281900390910190a16000611440565b600b5481565b60035461010090046001600160a01b031633146116045760405162461bcd60e51b815260040180806020018281038252602d815260200180615d60602d913960400191505060405180910390fd5b61160c6132e5565b601355600554604080516344e3de7360e01b81523060048201526001602482015290516001600160a01b03909216916344e3de739160448082019260009290919082900301818387803b15801561166257600080fd5b505af1158015611676573d6000803e3d6000fd5b5050505050565b6012546001600160a01b031681565b6000805460ff166116d1576040805162461bcd60e51b815260206004820152600a6024820152691c994b595b9d195c995960b21b604482015290519081900360640190fd5b6000805460ff19169055836117175760405162461bcd60e51b815260040180806020018281038252602c815260200180615dad602c913960400191505060405180910390fd5b60006117216122ee565b1461176c576040805162461bcd60e51b81526020600482015260166024820152751858d8dc9d59481a5b9d195c995cdd0819985a5b195960521b604482015290519081900360640190fd5b6005546040516358d5bc7360e11b815230600482018181526001600160a01b038a81166024850152604484018990526080606485019081526084850188905294169363b1ab78e6938b928a928a928a92919060a401848480828437600081840152601f19601f820116905080830192505050965050505050505060206040518083038186803b1580156117fe57600080fd5b505afa158015611812573d6000803e3d6000fd5b505050506040513d602081101561182857600080fd5b5051611871576040805162461bcd60e51b8152602060048201526013602482015272199b185cda1b1bd85b881a5cc81c185d5cd959606a1b604482015290519081900360640190fd5b600061187b6132e5565b90506000611887612bbf565b9050858110156118d7576040805162461bcd60e51b8152602060048201526016602482015275494e53554646494349454e545f4c495155494449545960501b604482015290519081900360640190fd5b6000306001600160a01b031663a7af467a886040518263ffffffff1660e01b81526004018082815260200191505060206040518083038186803b15801561191d57600080fd5b505afa158015611931573d6000803e3d6000fd5b505050506040513d602081101561194757600080fd5b5051905061195789886000613365565b611963600b5488612bc5565b600b55604051806029615c4c82396040519081900360290181206011546323e30c8b60e01b83526001600160a01b038c81166004850190815291811660248501819052604485018d90526064850187905260a06084860190815260a486018c9052939550908e16936323e30c8b938e938e9289928f928f9290919060c401848480828437600081840152601f19601f820116905080830192505050975050505050505050602060405180830381600087803b158015611a2157600080fd5b505af1158015611a35573d6000803e3d6000fd5b505050506040513d6020811015611a4b57600080fd5b505114611a9f576040805162461bcd60e51b815260206004820152601960248201527f49455243333135363a2043616c6c6261636b206661696c656400000000000000604482015290519081900360640190fd5b6000611aab8883612bc5565b9050611ab98a82600061346c565b506000611ac46132e5565b9050611ad08584612bc5565b8114611b1a576040805162461bcd60e51b8152602060048201526014602482015273109053105390d157d25390d3d394d254d511539560621b604482015290519081900360640190fd5b6000611b366040518060200160405280600854815250856131c2565b9050611b44600c5482612bc5565b600c55611b518585612bc5565b601355600b54611b61908b612bfb565b600b55604080518b81526020810186905280820183905290516001600160a01b038e16917f33c8e097c526683cbdb29adf782fac95e9d0fbe0ed635c13d8c75fdf726557d9919081900360600190a2600196505050505050506000805460ff1916600117905595945050505050565b6005546001600160a01b031681565b6000805460ff16611c24576040805162461bcd60e51b815260206004820152600a6024820152691c994b595b9d195c995960b21b604482015290519081900360640190fd5b6000805460ff19168155611c366122ee565b90508015611c5c57611c54816010811115611c4d57fe5b601d61327f565b9150506111e0565b611c658361367d565b9150506000805460ff19166001179055919050565b60095481565b6011546001600160a01b031681565b6001600160a01b03166000908152600e602052604090205490565b6000805460ff16611cef576040805162461bcd60e51b815260206004820152600a6024820152691c994b595b9d195c995960b21b604482015290519081900360640190fd5b6000805460ff19168155611d016122ee565b14611d4c576040805162461bcd60e51b81526020600482015260166024820152751858d8dc9d59481a5b9d195c995cdd0819985a5b195960521b604482015290519081900360640190fd5b50600b546000805460ff1916600117905590565b60035461010090046001600160a01b03163314611dae5760405162461bcd60e51b8152600401808060200182810382526021815260200180615bdc6021913960400191505060405180910390fd5b6017819055604080513081526020810183905281517f01b7c780e0f385803fe80cbe0efc086d13b8eb443a2ce43e2061fd92bc0e34f1929181900390910190a150565b6000610f1782600061377b565b60166020526000908152604090205460ff1681565b6000611e1e82613813565b6005546001600160a01b03163314611e675760405162461bcd60e51b8152600401808060200182810382526031815260200180615cc86031913960400191505060405180910390fd5b6001600160a01b0382166000908152600e60209081526040808320546015909252822054611e959190612bfb565b90506114408382613955565b611eaa81613813565b6005546001600160a01b03163314611ef35760405162461bcd60e51b8152600401808060200182810382526033815260200180615cf96033913960400191505060405180910390fd5b6005546001600160a01b03828116600081815260156020908152604080832054815163eabe7d9160e01b81523060048201526024810195909552604485015251939094169363eabe7d9193606480850194929391928390030190829087803b158015611f5e57600080fd5b505af1158015611f72573d6000803e3d6000fd5b505050506040513d6020811015611f8857600080fd5b505115611fd4576040805162461bcd60e51b815260206004820152601560248201527431b7b6b83a3937b63632b9103932b532b1ba34b7b760591b604482015290519081900360640190fd5b6001600160a01b038116600090815260156020526040902054611ff8908290613aa8565b50565b600c5481565b60005460ff16612045576040805162461bcd60e51b815260206004820152600a6024820152691c994b595b9d195c995960b21b604482015290519081900360640190fd5b6000805460ff191681556120576132e5565b90506000612063612bbf565b905060006120718383612bfb565b905061207f600c5482612bc5565b600c5550506013556000805460ff19166001179055565b6002805460408051602060018416156101000260001901909316849004601f81018490048402820184019092528181529291830182828015610fa25780601f10610f7757610100808354040283529160200191610fa2565b6000610f1782613b2e565b60035461010090046001600160a01b031633146121475760405162461bcd60e51b8152600401808060200182810382526024815260200180615b656024913960400191505060405180910390fd5b6009541580156121575750600a54155b6121925760405162461bcd60e51b8152600401808060200182810382526023815260200180615b896023913960400191505060405180910390fd5b6007849055836121d35760405162461bcd60e51b8152600401808060200182810382526030815260200180615bac6030913960400191505060405180910390fd5b60006121de8761145e565b90508015612233576040805162461bcd60e51b815260206004820152601a60248201527f73657474696e6720636f6d7074726f6c6c6572206661696c6564000000000000604482015290519081900360640190fd5b61223b613b83565b600955670de0b6b3a7640000600a5561225386613b87565b905080156122925760405162461bcd60e51b8152600401808060200182810382526022815260200180615bfd6022913960400191505060405180910390fd5b83516122a5906001906020870190615a18565b5082516122b9906002906020860190615a18565b50506003805460ff90921660ff199283161790556000805490911660011790555050505050565b600080611023836000613cfc565b6000806122f9613b83565b6009549091508082141561231257600092505050611205565b600061231c612bbf565b600b54600c54600a54600654604080516315f2405360e01b815260048101879052602481018690526044810185905290519596509394929391926000926001600160a01b03909216916315f24053916064808301926020929190829003018186803b15801561238a57600080fd5b505afa15801561239e573d6000803e3d6000fd5b505050506040513d60208110156123b457600080fd5b5051905065048c27395000811115612413576040805162461bcd60e51b815260206004820152601c60248201527f626f72726f772072617465206973206162737572646c79206869676800000000604482015290519081900360640190fd5b600061241f8888612bfb565b9050612429615a05565b61244160405180602001604052808581525083613d7e565b9050600061244f82886131c2565b9050600061245d8289612bc5565b9050600061247c6040518060200160405280600854815250848a613da8565b9050600061248b85898a613da8565b60098e9055600a819055600b849055600c839055604080518d8152602081018790528082018390526060810186905290519192507f4dec04e750ca11537cabcd8a9eab06494de08da3735bc8871cd41250e190bc04919081900360800190a160009d505050505050505050505050505090565b600554604080516358d5bc7360e11b8152306004820152600060248201819052604482018590526080606483015260848201819052915191926001600160a01b03169163b1ab78e69160c480820192602092909190829003018186803b15801561256757600080fd5b505afa15801561257b573d6000803e3d6000fd5b505050506040513d602081101561259157600080fd5b50516125da576040805162461bcd60e51b8152602060048201526013602482015272199b185cda1b1bd85b881a5cc81c185d5cd959606a1b604482015290519081900360640190fd5b610f176125e8836003613dd0565b612710613e12565b6000805460ff16612635576040805162461bcd60e51b815260206004820152600a6024820152691c994b595b9d195c995960b21b604482015290519081900360640190fd5b6000805460ff1916815561264b33338686612d47565b1490505b6000805460ff1916600117905592915050565b600a5481565b6006546000906001600160a01b031663b8168816612684612bbf565b600b54600c546008546040518563ffffffff1660e01b81526004018085815260200184815260200183815260200182815260200194505050505060206040518083038186803b1580156126d657600080fd5b505afa1580156126ea573d6000803e3d6000fd5b505050506040513d602081101561270057600080fd5b5051905090565b6000805460ff1661274c576040805162461bcd60e51b815260206004820152600a6024820152691c994b595b9d195c995960b21b604482015290519081900360640190fd5b6000805460ff1916905561276233858585613e45565b90506000805460ff191660011790559392505050565b60035460009061010090046001600160a01b0316331461279e576114846001602f61327f565b600480546001600160a01b038481166001600160a01b0319831681179093556040805191909216808252602082019390935281517fca4f2f25d0898edd99413412fb94012f9e54ec8142f9b093e7720646a95b16a9929181900390910190a16000611440565b6000805460ff16612849576040805162461bcd60e51b815260206004820152600a6024820152691c994b595b9d195c995960b21b604482015290519081900360640190fd5b6000805460ff1916815561285b6122ee565b146128a6576040805162461bcd60e51b81526020600482015260166024820152751858d8dc9d59481a5b9d195c995cdd0819985a5b195960521b604482015290519081900360640190fd5b6128ae6111f8565b90506000805460ff1916600117905590565b60008060008060006128d186614155565b905060006128de87613b2e565b905060006128ea612ce1565b90506000989297509095509350915050565b6000610f178260006141b4565b60156020526000908152604090205481565b60175481565b6000610f17826000614234565b6001600160a01b039182166000908152600f6020908152604080832093909416825291909152205490565b6004546000906001600160a01b031633141580612974575033155b1561298c576129856001600061327f565b9050611205565b60038054600480546001600160a01b03818116610100818102610100600160a81b0319871617968790556001600160a01b031990931690935560408051948390048216808652929095041660208401528351909391927ff9ffabca9c8276e99321725bcb43fb076a6c66a54b7f21c4e8146d8519b417dc92908290030190a1600454604080516001600160a01b038085168252909216602083015280517fca4f2f25d0898edd99413412fb94012f9e54ec8142f9b093e7720646a95b16a99281900390910190a160009250505090565b600381565b600080612a6c6122ee565b90508015612a9257612a8a816010811115612a8357fe5b602a61327f565b915050611028565b61144083613b87565b6006546001600160a01b031681565b600080612aba85858560006142af565b5095945050505050565b60035461010090046001600160a01b031681565b6006546000906001600160a01b03166315f24053612af4612bbf565b600b54600c546040518463ffffffff1660e01b815260040180848152602001838152602001828152602001935050505060206040518083038186803b1580156126d657600080fd5b6000805460ff16612b81576040805162461bcd60e51b815260206004820152600a6024820152691c994b595b9d195c995960b21b604482015290519081900360640190fd5b6000805460ff19168155612b936122ee565b90508015612bb157611c54816010811115612baa57fe5b603061327f565b611c65836143e3565b600181565b60135490565b60006114408383604051806040016040528060118152602001706164646974696f6e206f766572666c6f7760781b81525061448b565b60006114408383604051806040016040528060158152602001747375627472616374696f6e20756e646572666c6f7760581b81525061451d565b60008054819060ff16612c7c576040805162461bcd60e51b815260206004820152600a6024820152691c994b595b9d195c995960b21b604482015290519081900360640190fd5b6000805460ff19168155612c8e6122ee565b90508015612cb957612cac816010811115612ca557fe5b602361327f565b925060009150612ccb9050565b612cc533338787614577565b92509250505b6000805460ff1916600117905590939092509050565b600d5460009080612cf6575050600754611205565b6000612d00612bbf565b90506000612d1b612d1383600b54612bc5565b600c54612bfb565b90506000612d37826040518060200160405280878152506148af565b94506112059350505050565b5090565b6000612d5284613813565b612d5b83613813565b6001600160a01b0384166000908152600e60209081526040808320546015909252822054612d899190612bfb565b9050600081841115612d9a57508083035b600554604080516317b9b84b60e31b81523060048201526001600160a01b0389811660248301528881166044830152606482018590529151600093929092169163bdcdc2589160848082019260209290919082900301818787803b158015612e0157600080fd5b505af1158015612e15573d6000803e3d6000fd5b505050506040513d6020811015612e2b57600080fd5b505190508015612e4c57612e4260036034836148cd565b935050505061310d565b856001600160a01b0316876001600160a01b03161415612e7257612e426002603561327f565b60006001600160a01b038981169089161415612e915750600019612eb9565b506001600160a01b038088166000908152600f60209081526040808320938c16835292905220545b6001600160a01b0388166000908152600e6020526040902054612edc9087612bfb565b6001600160a01b03808a166000908152600e60205260408082209390935590891681522054612f0b9087612bc5565b6001600160a01b0388166000908152600e6020526040902055821561300f576001600160a01b038816600090815260156020526040902054612f4d9084612bfb565b6001600160a01b03808a166000908152601560205260408082209390935590891681522054612f7c9084612bc5565b6001600160a01b03808916600090815260156020908152604080832094909455918b1680825290839020548351918252918101919091528151600080516020615d8d833981519152929181900390910190a16001600160a01b038716600081815260156020908152604091829020548251938452908301528051600080516020615d8d8339815191529281900390910190a15b6000198114613049576130228187612bfb565b6001600160a01b03808a166000908152600f60209081526040808320938e16835292905220555b866001600160a01b0316886001600160a01b0316600080516020615c75833981519152886040518082815260200191505060405180910390a36005546040805163352b4a3f60e11b81523060048201526001600160a01b038b811660248301528a81166044830152606482018a905291519190921691636a56947e91608480830192600092919082900301818387803b1580156130e557600080fd5b505af11580156130f9573d6000803e3d6000fd5b5060009250613106915050565b9450505050505b949350505050565b60008054819060ff1661315c576040805162461bcd60e51b815260206004820152600a6024820152691c994b595b9d195c995960b21b604482015290519081900360640190fd5b6000805460ff1916815561316e6122ee565b905080156131995761318c81601081111561318557fe5b602261327f565b9250600091506131ab9050565b6131a533878787614577565b92509250505b6000805460ff191660011790559094909350915050565b60006131cc615a05565b6131d68484613d7e565b905061310d81614933565b6000805460ff16613226576040805162461bcd60e51b815260206004820152600a6024820152691c994b595b9d195c995960b21b604482015290519081900360640190fd5b6000805460ff191681556132386122ee565b9050801561325e5761325681601081111561324f57fe5b603661327f565b91505061264f565b6132688484614942565b509150506000805460ff1916600117905592915050565b60007f45b96fe442630264581b197e84bbada861235052c5a1aadfff9ea4e40a969aa08360108111156132ae57fe5b8360388111156132ba57fe5b604080519283526020830191909152600082820152519081900360600190a182601081111561144057fe5b601154604080516370a0823160e01b815230600482015290516000926001600160a01b03169182916370a0823191602480820192602092909190829003018186803b15801561333357600080fd5b505afa158015613347573d6000803e3d6000fd5b505050506040513d602081101561335d57600080fd5b505191505090565b6011546040805163a9059cbb60e01b81526001600160a01b0386811660048301526024820186905291519190921691829163a9059cbb9160448082019260009290919082900301818387803b1580156133bd57600080fd5b505af11580156133d1573d6000803e3d6000fd5b5050505060003d600081146133ed57602081146133f757600080fd5b6000199150613403565b60206000803e60005191505b5080613456576040805162461bcd60e51b815260206004820152601960248201527f544f4b454e5f5452414e534645525f4f55545f4641494c454400000000000000604482015290519081900360640190fd5b61346260135485612bfb565b6013555050505050565b601154604080516370a0823160e01b815230600482015290516000926001600160a01b031691839183916370a08231916024808301926020929190829003018186803b1580156134bb57600080fd5b505afa1580156134cf573d6000803e3d6000fd5b505050506040513d60208110156134e557600080fd5b5051604080516323b872dd60e01b81526001600160a01b038981166004830152306024830152604482018990529151929350908416916323b872dd9160648082019260009290919082900301818387803b15801561354257600080fd5b505af1158015613556573d6000803e3d6000fd5b5050505060003d60008114613572576020811461357c57600080fd5b6000199150613588565b60206000803e60005191505b50806135db576040805162461bcd60e51b815260206004820152601860248201527f544f4b454e5f5452414e534645525f494e5f4641494c45440000000000000000604482015290519081900360640190fd5b601154604080516370a0823160e01b815230600482015290516000926001600160a01b0316916370a08231916024808301926020929190829003018186803b15801561362657600080fd5b505afa15801561363a573d6000803e3d6000fd5b505050506040513d602081101561365057600080fd5b5051905060006136608285612bfb565b905061366e60135482612bc5565b60135598975050505050505050565b600354600090819061010090046001600160a01b031633146136a557612a8a6001601e61327f565b6136ad613b83565b600954146136c157612a8a600a602061327f565b826136ca612bbf565b10156136dc57612a8a600e601f61327f565b600c548311156136f257612a8a6002602161327f565b6136fe600c5484612bfb565b600c8190556003549091506137239061010090046001600160a01b0316846001613365565b600354604080516101009092046001600160a01b0316825260208201859052818101839052517f3bad0c59cf2f06e7314077049f48a93578cd16f5ef92329f1dab1420a99c177e916060908290030190a16000611440565b6000805460ff166137c0576040805162461bcd60e51b815260206004820152600a6024820152691c994b595b9d195c995960b21b604482015290519081900360640190fd5b6000805460ff191681556137d26122ee565b905080156137f0576132568160108111156137e957fe5b601961327f565b6137fd33600086866149e0565b9150506000805460ff1916600117905592915050565b6001600160a01b03811660009081526016602052604090205460ff16611ff8576005546040805163929fe9a160e01b81526001600160a01b0384811660048301523060248301529151919092169163929fe9a1916044808301926020929190829003018186803b15801561388657600080fd5b505afa15801561389a573d6000803e3d6000fd5b505050506040513d60208110156138b057600080fd5b50511561392f576001600160a01b0381166000908152600e60208181526040808420546015835293208390556014549190526138eb91612bc5565b6014556001600160a01b038116600081815260156020908152604091829020548251938452908301528051600080516020615d8d8339815191529281900390910190a15b6001600160a01b0381166000908152601660205260409020805460ff1916600117905550565b60008061396460145484612bc5565b90506017546000148061398557506017541580159061398557506017548111155b15613a005760148190556001600160a01b0384166000908152601560205260409020546139b29084612bc5565b6001600160a01b03851660008181526015602090815260409182902084905581519283528201929092528151600080516020615d8d833981519152929181900390910190a182915050610f17565b6014546017541115613a9e576000613a1c601754601454612bfb565b9050613a2a60145482612bc5565b6014556001600160a01b038516600090815260156020526040902054613a509082612bc5565b6001600160a01b03861660008181526015602090815260409182902084905581519283528201929092528151600080516020615d8d833981519152929181900390910190a19150610f179050565b5060009392505050565b80613ab257613b2a565b613abe60145482612bfb565b6014556001600160a01b038216600090815260156020526040902054613ae49082612bfb565b6001600160a01b03831660008181526015602090815260409182902084905581519283528201929092528151600080516020615d8d833981519152929181900390910190a15b5050565b6001600160a01b03811660009081526010602052604081208054613b56576000915050611028565b6000613b688260000154600a54613dd0565b90506000613b7a828460010154613e12565b95945050505050565b4390565b600354600090819061010090046001600160a01b03163314613baf57612a8a6001602c61327f565b613bb7613b83565b60095414613bcb57612a8a600a602b61327f565b600660009054906101000a90046001600160a01b03169050826001600160a01b0316632191f92a6040518163ffffffff1660e01b815260040160206040518083038186803b158015613c1c57600080fd5b505afa158015613c30573d6000803e3d6000fd5b505050506040513d6020811015613c4657600080fd5b5051613c99576040805162461bcd60e51b815260206004820152601c60248201527f6d61726b6572206d6574686f642072657475726e65642066616c736500000000604482015290519081900360640190fd5b600680546001600160a01b0319166001600160a01b03858116918217909255604080519284168352602083019190915280517fedffc32e068c7c95dfd4bdfd5c4d939a084d6b11c4199eac8436ed234d72f9269281900390910190a16000611440565b60008054819060ff16613d43576040805162461bcd60e51b815260206004820152600a6024820152691c994b595b9d195c995960b21b604482015290519081900360640190fd5b6000805460ff19168155613d556122ee565b90508015613d7357612cac816010811115613d6c57fe5b601461327f565b612cc5338686614d92565b613d86615a05565b6040518060200160405280613d9f856000015185613dd0565b90529392505050565b6000613db2615a05565b613dbc8585613d7e565b9050613b7a613dca82614933565b84612bc5565b600061144083836040518060400160405280601781526020017f6d756c7469706c69636174696f6e206f766572666c6f770000000000000000008152506150c5565b600061144083836040518060400160405280600e81526020016d646976696465206279207a65726f60901b81525061513b565b6000613e5084613813565b613e5983613813565b6005546040805163d02f735160e01b81523060048201526001600160a01b03888116602483015287811660448301528681166064830152608482018690529151600093929092169163d02f73519160a48082019260209290919082900301818787803b158015613ec857600080fd5b505af1158015613edc573d6000803e3d6000fd5b505050506040513d6020811015613ef257600080fd5b505190508015613f1157613f0960036011836148cd565b91505061310d565b82613f1d576000613f09565b846001600160a01b0316846001600160a01b03161415613f4357613f096006601261327f565b6001600160a01b0384166000908152600e6020526040902054613f669084612bfb565b6001600160a01b038086166000908152600e60205260408082209390935590871681522054613f959084612bc5565b6001600160a01b038087166000908152600e6020908152604080832094909455918716815260159091522054613fcb9084612bfb565b6001600160a01b038086166000908152601560205260408082209390935590871681522054613ffa9084612bc5565b6001600160a01b038087166000818152601560209081526040918290209490945580518781529051919392881692600080516020615c7583398151915292918290030190a36001600160a01b038416600081815260156020908152604091829020548251938452908301528051600080516020615d8d8339815191529281900390910190a16001600160a01b038516600081815260156020908152604091829020548251938452908301528051600080516020615d8d8339815191529281900390910190a160055460408051636d35bf9160e01b81523060048201526001600160a01b038981166024830152888116604483015287811660648301526084820187905291519190921691636d35bf919160a480830192600092919082900301818387803b15801561412a57600080fd5b505af115801561413e573d6000803e3d6000fd5b506000925061414b915050565b9695505050505050565b6001600160a01b03811660009081526016602052604081205460ff161561419557506001600160a01b038116600090815260156020526040902054611028565b506001600160a01b0381166000908152600e6020526040902054611028565b6000805460ff166141f9576040805162461bcd60e51b815260206004820152600a6024820152691c994b595b9d195c995960b21b604482015290519081900360640190fd5b6000805460ff1916815561420b6122ee565b905080156142295761325681601081111561422257fe5b600261327f565b6137fd33858561519d565b6000805460ff16614279576040805162461bcd60e51b815260206004820152600a6024820152691c994b595b9d195c995960b21b604482015290519081900360640190fd5b6000805460ff1916815561428b6122ee565b905080156142a2576132568160108111156137e957fe5b6137fd33856000866149e0565b60008054819060ff166142f6576040805162461bcd60e51b815260206004820152600a6024820152691c994b595b9d195c995960b21b604482015290519081900360640190fd5b6000805460ff191681556143086122ee565b905080156143335761432681601081111561431f57fe5b600761327f565b9250600091506143cb9050565b846001600160a01b031663a6afed956040518163ffffffff1660e01b8152600401602060405180830381600087803b15801561436e57600080fd5b505af1158015614382573d6000803e3d6000fd5b505050506040513d602081101561439857600080fd5b5051905080156143b8576143268160108111156143b157fe5b600861327f565b6143c533888888886153cd565b92509250505b6000805460ff19166001179055909590945092505050565b60035460009061010090046001600160a01b03163314614409576114846001603161327f565b614411613b83565b6009541461442557611484600a603261327f565b670de0b6b3a7640000821115614441576114846002603361327f565b6008805490839055604080518281526020810185905281517faaa68312e2ea9d50e16af5068410ab56e1a1fd06037b1a35664812c30f821460929181900390910190a16000611440565b600083830182858210156113d95760405162461bcd60e51b81526004018080602001828103825283818151815260200191508051906020019080838360005b838110156144e25781810151838201526020016144ca565b50505050905090810190601f16801561450f5780820380516001836020036101000a031916815260200191505b509250505060405180910390fd5b6000818484111561456f5760405162461bcd60e51b81526020600482018181528351602484015283519092839260449091019190850190808383600083156144e25781810151838201526020016144ca565b505050900390565b60055460408051631200453160e11b81523060048201526001600160a01b0387811660248301528681166044830152606482018690529151600093849384939116916324008a629160848082019260209290919082900301818787803b1580156145e057600080fd5b505af11580156145f4573d6000803e3d6000fd5b505050506040513d602081101561460a57600080fd5b50519050801561462e5761462160036024836148cd565b9250600091506148a69050565b8461465a57600a546001600160a01b038716600090815260106020526040812060010191909155614621565b614662613b83565b6009541461467657614621600a602561327f565b61467e615a92565b6001600160a01b03871660009081526010602052604090206001015460608201526146a887613b2e565b60808201526000198614156146c657608081015160408201526146ce565b604081018690525b6146dd8882604001518761346c565b60e0820181905260808201516146f291612bfb565b60a0820152600b5460e08201516147099190612bfb565b8160c00181815250508060a0015160106000896001600160a01b03166001600160a01b0316815260200190815260200160002060000181905550600a5460106000896001600160a01b03166001600160a01b03168152602001908152602001600020600101819055508060c00151600b819055507f1a2a22cb034d26d1854bdc6666a5b91fe25efbbb5dcad3b0355478d6f5c362a188888360e001518460a001518560c0015160405180866001600160a01b03166001600160a01b03168152602001856001600160a01b03166001600160a01b031681526020018481526020018381526020018281526020019550505050505060405180910390a160055460e0820151606083015160408051631ededc9160e01b81523060048201526001600160a01b038d811660248301528c8116604483015260648201949094526084810192909252519190921691631ededc919160a480830192600092919082900301818387803b15801561487957600080fd5b505af115801561488d573d6000803e3d6000fd5b506000925061489a915050565b8160e001519350935050505b94509492505050565b60006114406148c684670de0b6b3a7640000613dd0565b8351613e12565b60007f45b96fe442630264581b197e84bbada861235052c5a1aadfff9ea4e40a969aa08460108111156148fc57fe5b84603881111561490857fe5b604080519283526020830191909152818101859052519081900360600190a183601081111561310d57fe5b51670de0b6b3a7640000900490565b600080600080614950613b83565b6009541461496f57614964600a603761327f565b935091506149d99050565b61497a33878761346c565b9050614988600c5482612bc5565b600c819055604080513381526020810184905280820183905290519193507fa91e67c5ea634cd43a12c5a482724b03de01e85ca68702a53d0c2f45cb7c1dc5919081900360600190a1600093509150505b9250929050565b60006149eb85613813565b8315806149f6575082155b614a315760405162461bcd60e51b8152600401808060200182810382526034815260200180615d2c6034913960400191505060405180910390fd5b614a39615ad8565b614a41612ce1565b81528415614a7257602080820186905260408051918201905281518152614a6890866131c2565b6040820152614a9b565b614a8e84604051806020016040528084600001518152506159b9565b6020820152604081018490525b6001600160a01b0386166000908152600e60209081526040808320546015909252822054614ac99190612bfb565b905060008090508183602001511115614ae6578183602001510390505b8015614bbe576005546040805163eabe7d9160e01b81523060048201526001600160a01b038b81166024830152604482018590529151919092169163eabe7d919160648083019260209291908290030181600087803b158015614b4857600080fd5b505af1158015614b5c573d6000803e3d6000fd5b505050506040513d6020811015614b7257600080fd5b505115614bbe576040805162461bcd60e51b815260206004820152601560248201527431b7b6b83a3937b63632b9103932b532b1ba34b7b760591b604482015290519081900360640190fd5b614bc6613b83565b60095414614bda57612e42600a601b61327f565b8260400151614be7612bbf565b1015614bf957612e42600e601c61327f565b614c09600d548460200151612bfb565b600d556001600160a01b0388166000908152600e602090815260409091205490840151614c369190612bfb565b6001600160a01b0389166000908152600e6020526040902055614c598882613aa8565b614c6888846040015187613365565b306001600160a01b0316886001600160a01b0316600080516020615c7583398151915285602001516040518082815260200191505060405180910390a360408084015160208086015183516001600160a01b038d168152918201929092528083019190915290517fe5b754fb1abb7f01b499791d0b820ae3b6af3424ac1c59768edb53f4ec31a9299181900360600190a1600554604080850151602086015182516351dff98960e01b81523060048201526001600160a01b038d811660248301526044820193909352606481019190915291519216916351dff9899160848082019260009290919082900301818387803b158015614d6557600080fd5b505af1158015614d79573d6000803e3d6000fd5b5060009250614d86915050565b98975050505050505050565b600080614d9e85613813565b60055460408051634ef4c3e160e01b81523060048201526001600160a01b0388811660248301526044820188905291516000939290921691634ef4c3e19160648082019260209290919082900301818787803b158015614dfd57600080fd5b505af1158015614e11573d6000803e3d6000fd5b505050506040513d6020811015614e2757600080fd5b505190508015614e4b57614e3e60036015836148cd565b9250600091506150bd9050565b84614e57576000614e3e565b614e5f613b83565b60095414614e7357614e3e600a601661327f565b614e7b615ad8565b614e83612ce1565b8152614e9087878761346c565b604080830182905280516020810190915282518152614eaf91906159b9565b60208201819052600d54614ec291612bc5565b600d556001600160a01b0387166000908152600e602090815260409091205490820151614eef9190612bc5565b6001600160a01b038089166000818152600e602090815260409182902094909455600554815163929fe9a160e01b81526004810193909352306024840152905192169263929fe9a192604480840193829003018186803b158015614f5257600080fd5b505afa158015614f66573d6000803e3d6000fd5b505050506040513d6020811015614f7c57600080fd5b505115614f9357614f91878260200151613955565b505b60408082015160208084015183516001600160a01b038c168152918201929092528083019190915290517f4c209b5fc8ad50758f13e2e1088ba56a560dff690a1c6fef26394f4c03821c4f9181900360600190a1866001600160a01b0316306001600160a01b0316600080516020615c7583398151915283602001516040518082815260200191505060405180910390a3600554604080830151602084015182516341c728b960e01b81523060048201526001600160a01b038c811660248301526044820193909352606481019190915291519216916341c728b99160848082019260009290919082900301818387803b15801561509057600080fd5b505af11580156150a4573d6000803e3d6000fd5b50600092506150b1915050565b81604001519350935050505b935093915050565b60008315806150d2575082155b156150df57506000611440565b838302838582816150ec57fe5b041483906113d95760405162461bcd60e51b81526020600482018181528351602484015283519092839260449091019190850190808383600083156144e25781810151838201526020016144ca565b6000818361518a5760405162461bcd60e51b81526020600482018181528351602484015283519092839260449091019190850190808383600083156144e25781810151838201526020016144ca565b5082848161519457fe5b04949350505050565b6005546040805163368f515360e21b81523060048201526001600160a01b0386811660248301526044820186905291516000938493169163da3d454c91606480830192602092919082900301818787803b1580156151fa57600080fd5b505af115801561520e573d6000803e3d6000fd5b505050506040513d602081101561522457600080fd5b5051905080156152435761523b60036006836148cd565b915050611440565b8361526f57600a546001600160a01b03861660009081526010602052604081206001019190915561523b565b615277613b83565b6009541461528b5761523b600a600461327f565b83615294612bbf565b10156152a65761523b600e600361327f565b6152ae615af9565b6152b786613b2e565b602082018190526152c89086612bc5565b6040820152600b546152da9086612bc5565b606082019081526040808301516001600160a01b0389166000908152601060205291909120908155600a5460019091015551600b5561531a868686613365565b60408082015160608084015183516001600160a01b038b168152602081018a9052808501939093529082015290517f13ed6866d4e1ee6da46f845c46d7e54120883d75c5ea9a2dacc1c4ca8984ab809181900360800190a160055460408051635c77860560e01b81523060048201526001600160a01b0389811660248301526044820189905291519190921691635c77860591606480830192600092919082900301818387803b15801561412a57600080fd5b60055460408051632fe3f38f60e11b81523060048201526001600160a01b0385811660248301528881166044830152878116606483015260848201879052915160009384938493911691635fc7e71e9160a48082019260209290919082900301818787803b15801561543e57600080fd5b505af1158015615452573d6000803e3d6000fd5b505050506040513d602081101561546857600080fd5b50519050801561548c5761547f6003600a836148cd565b9250600091506159af9050565b615494613b83565b600954146154a85761547f600a600e61327f565b6154b0613b83565b856001600160a01b0316636c540baf6040518163ffffffff1660e01b815260040160206040518083038186803b1580156154e957600080fd5b505afa1580156154fd573d6000803e3d6000fd5b505050506040513d602081101561551357600080fd5b5051146155265761547f600a600961327f565b876001600160a01b0316876001600160a01b0316141561554c5761547f6006600f61327f565b8561555d5761547f6007600d61327f565b6000198614156155735761547f6007600c61327f565b61557b615b22565b61558789898988614577565b6020830152808252156155ba5780516155ac9060108111156155a557fe5b601061327f565b9350600092506159af915050565b60055460208201516040805163c488847b60e01b81523060048201526001600160a01b038a8116602483015260448201939093528151929093169263c488847b9260648083019392829003018186803b15801561561657600080fd5b505afa15801561562a573d6000803e3d6000fd5b505050506040513d604081101561564057600080fd5b508051602090910151606083015260408201819052156156915760405162461bcd60e51b8152600401808060200182810382526033815260200180615c956033913960400191505060405180910390fd5b8060600151866001600160a01b03166370a082318a6040518263ffffffff1660e01b815260040180826001600160a01b03166001600160a01b0316815260200191505060206040518083038186803b1580156156ec57600080fd5b505afa158015615700573d6000803e3d6000fd5b505050506040513d602081101561571657600080fd5b5051101561576b576040805162461bcd60e51b815260206004820152601860248201527f4c49515549444154455f5345495a455f544f4f5f4d5543480000000000000000604482015290519081900360640190fd5b60006001600160a01b0387163014156157955761578e308b8b8560600151613e45565b9050615825565b60608201516040805163b2a02ff160e01b81526001600160a01b038d811660048301528c81166024830152604482019390935290519189169163b2a02ff1916064808201926020929091908290030181600087803b1580156157f657600080fd5b505af115801561580a573d6000803e3d6000fd5b505050506040513d602081101561582057600080fd5b505190505b801561586f576040805162461bcd60e51b81526020600482015260146024820152731d1bdad95b881cd95a5e9d5c994819985a5b195960621b604482015290519081900360640190fd5b7f298637f684da70674f26509b10f07ec2fbc77a335ab1e7d6215a4b2484d8bb528a8a84602001518a866060015160405180866001600160a01b03166001600160a01b03168152602001856001600160a01b03166001600160a01b03168152602001848152602001836001600160a01b03166001600160a01b031681526020018281526020019550505050505060405180910390a160055460208301516060840151604080516347ef3b3b60e01b81523060048201526001600160a01b038c811660248301528f811660448301528e81166064830152608482019490945260a48101929092525191909216916347ef3b3b9160c480830192600092919082900301818387803b15801561598157600080fd5b505af1158015615995573d6000803e3d6000fd5b50600092506159a2915050565b8260200151945094505050505b9550959350505050565b60006159c3615a05565b6131d684846159d0615a05565b60006159e4670de0b6b3a764000085613dd0565b905060405180602001604052806159fb83866148af565b9052949350505050565b6040518060200160405280600081525090565b828054600181600116156101000203166002900490600052602060002090601f016020900481019282601f10615a5957805160ff1916838001178555615a86565b82800160010185558215615a86579182015b82811115615a86578251825591602001919060010190615a6b565b50612d43929150615b4a565b6040805161010081019091528060008152602001600081526020016000815260200160008152602001600081526020016000815260200160008152602001600081525090565b60405180606001604052806000815260200160008152602001600081525090565b604080516080810190915280600081526020016000815260200160008152602001600081525090565b6040518060800160405280600081526020016000815260200160008152602001600081525090565b61120591905b80821115612d435760008155600101615b5056fe6f6e6c792061646d696e206d617920696e697469616c697a6520746865206d61726b65746d61726b6574206d6179206f6e6c7920626520696e697469616c697a6564206f6e6365696e697469616c2065786368616e67652072617465206d7573742062652067726561746572207468616e207a65726f2e6f6e6c792061646d696e2063616e2073657420636f6c6c61746572616c2063617073657474696e6720696e7465726573742072617465206d6f64656c206661696c65646f6e6c79207468652061646d696e206d61792063616c6c205f72657369676e496d706c656d656e746174696f6e45524333313536466c617368426f72726f776572496e746572666163652e6f6e466c6173684c6f616eddf252ad1be2c89b69c2b068fc378daa952ba7f163c4a11628f55a4df523b3ef4c49515549444154455f434f4d5054524f4c4c45525f43414c43554c4154455f414d4f554e545f5345495a455f4641494c45446f6e6c7920636f6d7074726f6c6c6572206d617920726567697374657220636f6c6c61746572616c20666f7220757365726f6e6c7920636f6d7074726f6c6c6572206d617920756e726567697374657220636f6c6c61746572616c20666f7220757365726f6e65206f662072656465656d546f6b656e73496e206f722072656465656d416d6f756e74496e206d757374206265207a65726f6f6e6c79207468652061646d696e206d61792063616c6c205f6265636f6d65496d706c656d656e746174696f6e1d22042d9eb89f2620572acbf8d85b66fba5a2ca19d166d8659574440175c964666c6173684c6f616e20616d6f756e742073686f756c642062652067726561746572207468616e207a65726fa265627a7a723158209fc9361f4fc987ee47cdac0d8b0b4c662918685c9470dd0f7afb5ccb1f3a67e964736f6c63430005110032",
  "devdoc": {
    "author": "Cream",
    "methods": {
      "_acceptAdmin()": {
        "details": "Admin function for pending admin to accept role and update admin",
        "return": "uint 0=success, otherwise a failure (see ErrorReporter.sol for details)"
      },
      "_addReserves(uint256)": {
        "params": {
          "addAmount": "The amount fo underlying token to add as reserves"
        },
        "return": "uint 0=success, otherwise a failure (see ErrorReporter.sol for details)"
      },
      "_becomeImplementation(bytes)": {
        "params": {
          "data": "The encoded bytes data for any initialization"
        }
      },
      "_reduceReserves(uint256)": {
        "params": {
          "reduceAmount": "Amount of reduction to reserves"
        },
        "return": "uint 0=success, otherwise a failure (see ErrorReporter.sol for details)"
      },
      "_setCollateralCap(uint256)": {
        "params": {
          "newCollateralCap": "New collateral cap for this market. A value of 0 corresponds to no cap."
        }
      },
      "_setComptroller(address)": {
        "details": "Admin function to set a new comptroller",
        "return": "uint 0=success, otherwise a failure (see ErrorReporter.sol for details)"
      },
      "_setInterestRateModel(address)": {
        "details": "Admin function to accrue interest and update the interest rate model",
        "params": {
          "newInterestRateModel": "the new interest rate model to use"
        },
        "return": "uint 0=success, otherwise a failure (see ErrorReporter.sol for details)"
      },
      "_setPendingAdmin(address)": {
        "details": "Admin function to begin change of admin. The newPendingAdmin must call `_acceptAdmin` to finalize the transfer.",
        "params": {
          "newPendingAdmin": "New pending admin."
        },
        "return": "uint 0=success, otherwise a failure (see ErrorReporter.sol for details)"
      },
      "_setReserveFactor(uint256)": {
        "details": "Admin function to accrue interest and set a new reserve factor",
        "return": "uint 0=success, otherwise a failure (see ErrorReporter.sol for details)"
      },
      "accrueInterest()": {
        "details": "This calculates interest accrued from the last checkpointed block  up to the current block and writes new checkpoint to storage."
      },
      "allowance(address,address)": {
        "params": {
          "owner": "The address of the account which owns the tokens to be spent",
          "spender": "The address of the account which may transfer tokens"
        },
        "return": "The number of tokens allowed to be spent (-1 means infinite)"
      },
      "approve(address,uint256)": {
        "details": "This will overwrite the approval amount for `spender` and is subject to issues noted [here](https://eips.ethereum.org/EIPS/eip-20#approve)",
        "params": {
          "amount": "The number of tokens that are approved (-1 means infinite)",
          "spender": "The address of the account which may transfer tokens"
        },
        "return": "Whether or not the approval succeeded"
      },
      "balanceOf(address)": {
        "params": {
          "owner": "The address of the account to query"
        },
        "return": "The number of tokens owned by `owner`"
      },
      "balanceOfUnderlying(address)": {
        "details": "This also accrues interest in a transaction",
        "params": {
          "owner": "The address of the account to query"
        },
        "return": "The amount of underlying owned by `owner`"
      },
      "borrow(uint256)": {
        "params": {
          "borrowAmount": "The amount of the underlying asset to borrow"
        },
        "return": "uint 0=success, otherwise a failure (see ErrorReporter.sol for details)"
      },
      "borrowBalanceCurrent(address)": {
        "params": {
          "account": "The address whose balance should be calculated after updating borrowIndex"
        },
        "return": "The calculated balance"
      },
      "borrowBalanceStored(address)": {
        "params": {
          "account": "The address whose balance should be calculated"
        },
        "return": "The calculated balance"
      },
      "borrowRatePerBlock()": {
        "return": "The borrow interest rate per block, scaled by 1e18"
      },
      "estimateBorrowRatePerBlockAfterChange(uint256,bool)": {
        "return": "The borrow interest rate per block, scaled by 1e18"
      },
      "estimateSupplyRatePerBlockAfterChange(uint256,bool)": {
        "return": "The supply interest rate per block, scaled by 1e18"
      },
      "exchangeRateCurrent()": {
        "return": "Calculated exchange rate scaled by 1e18"
      },
      "exchangeRateStored()": {
        "details": "This function does not accrue interest before calculating the exchange rate",
        "return": "Calculated exchange rate scaled by 1e18"
      },
      "flashFee(uint256)": {
        "params": {
          "amount": "amount of token to borrow"
        }
      },
      "flashLoan(address,address,uint256,bytes)": {
        "params": {
          "amount": "The amount of the funds to be loaned",
          "data": "The other data",
          "initiator": "flash loan initiator",
          "receiver": "The receiver address for the funds"
        },
        "return": "uint 0=success, otherwise a failure (see ErrorReporter.sol for details)"
      },
      "getAccountSnapshot(address)": {
        "details": "This is used by comptroller to more efficiently perform liquidity checks.",
        "params": {
          "account": "Address of the account to snapshot"
        },
        "return": "(possible error, token balance, borrow balance, exchange rate mantissa)"
      },
      "getCash()": {
        "return": "The quantity of underlying asset owned by this contract"
      },
      "initialize(address,address,address,uint256,string,string,uint8)": {
        "params": {
          "comptroller_": "The address of the Comptroller",
          "decimals_": "ERC-20 decimal precision of this token",
          "initialExchangeRateMantissa_": "The initial exchange rate, scaled by 1e18",
          "interestRateModel_": "The address of the interest rate model",
          "name_": "ERC-20 name of this token",
          "symbol_": "ERC-20 symbol of this token",
          "underlying_": "The address of the underlying asset"
        }
      },
      "initialize(address,address,uint256,string,string,uint8)": {
        "params": {
          "comptroller_": "The address of the Comptroller",
          "decimals_": "EIP-20 decimal precision of this token",
          "initialExchangeRateMantissa_": "The initial exchange rate, scaled by 1e18",
          "interestRateModel_": "The address of the interest rate model",
          "name_": "EIP-20 name of this token",
          "symbol_": "EIP-20 symbol of this token"
        }
      },
      "liquidateBorrow(address,uint256,address)": {
        "params": {
          "borrower": "The borrower of this cToken to be liquidated",
          "cTokenCollateral": "The market in which to seize collateral from the borrower",
          "repayAmount": "The amount of the underlying borrowed asset to repay"
        },
        "return": "uint 0=success, otherwise a failure (see ErrorReporter.sol for details)"
      },
      "mint(uint256)": {
        "details": "Accrues interest whether or not the operation succeeds, unless reverted",
        "params": {
          "mintAmount": "The amount of the underlying asset to supply"
        },
        "return": "uint 0=success, otherwise a failure (see ErrorReporter.sol for details)"
      },
      "redeem(uint256)": {
        "details": "Accrues interest whether or not the operation succeeds, unless reverted",
        "params": {
          "redeemTokens": "The number of cTokens to redeem into underlying"
        },
        "return": "uint 0=success, otherwise a failure (see ErrorReporter.sol for details)"
      },
      "redeemUnderlying(uint256)": {
        "details": "Accrues interest whether or not the operation succeeds, unless reverted",
        "params": {
          "redeemAmount": "The amount of underlying to redeem"
        },
        "return": "uint 0=success, otherwise a failure (see ErrorReporter.sol for details)"
      },
      "registerCollateral(address)": {
        "details": "This function could only be called by comptroller.",
        "params": {
          "account": "The account to register"
        },
        "return": "The actual registered amount of collateral"
      },
      "repayBorrow(uint256)": {
        "params": {
          "repayAmount": "The amount to repay"
        },
        "return": "uint 0=success, otherwise a failure (see ErrorReporter.sol for details)"
      },
      "repayBorrowBehalf(address,uint256)": {
        "params": {
          "borrower": "the account with the debt being payed off",
          "repayAmount": "The amount to repay"
        },
        "return": "uint 0=success, otherwise a failure (see ErrorReporter.sol for details)"
      },
      "seize(address,address,uint256)": {
        "details": "Will fail unless called by another cToken during the process of liquidation. Its absolutely critical to use msg.sender as the borrowed cToken and not a parameter.",
        "params": {
          "borrower": "The account having collateral seized",
          "liquidator": "The account receiving seized collateral",
          "seizeTokens": "The number of cTokens to seize"
        },
        "return": "uint 0=success, otherwise a failure (see ErrorReporter.sol for details)"
      },
      "supplyRatePerBlock()": {
        "return": "The supply interest rate per block, scaled by 1e18"
      },
      "totalBorrowsCurrent()": {
        "return": "The total borrows with interest"
      },
      "transfer(address,uint256)": {
        "params": {
          "amount": "The number of tokens to transfer",
          "dst": "The address of the destination account"
        },
        "return": "Whether or not the transfer succeeded"
      },
      "transferFrom(address,address,uint256)": {
        "params": {
          "amount": "The number of tokens to transfer",
          "dst": "The address of the destination account",
          "src": "The address of the source account"
        },
        "return": "Whether or not the transfer succeeded"
      },
      "unregisterCollateral(address)": {
        "details": "This function could only be called by comptroller.",
        "params": {
          "account": "The account to unregister"
        }
      }
    },
    "title": "Cream's CCollateralCapErc20Delegate Contract"
  },
  "userdoc": {
    "methods": {
      "_acceptAdmin()": {
        "notice": "Accepts transfer of admin rights. msg.sender must be pendingAdmin"
      },
      "_addReserves(uint256)": {
        "notice": "The sender adds to reserves."
      },
      "_becomeImplementation(bytes)": {
        "notice": "Called by the delegator on a delegate to initialize it for duty"
      },
      "_reduceReserves(uint256)": {
        "notice": "Accrues interest and reduces reserves by transferring to admin"
      },
      "_resignImplementation()": {
        "notice": "Called by the delegator on a delegate to forfeit its responsibility"
      },
      "_setCollateralCap(uint256)": {
        "notice": "Set the given collateral cap for the market."
      },
      "_setComptroller(address)": {
        "notice": "Sets a new comptroller for the market"
      },
      "_setInterestRateModel(address)": {
        "notice": "accrues interest and updates the interest rate model using _setInterestRateModelFresh"
      },
      "_setPendingAdmin(address)": {
        "notice": "Begins transfer of admin rights. The newPendingAdmin must call `_acceptAdmin` to finalize the transfer."
      },
      "_setReserveFactor(uint256)": {
        "notice": "accrues interest and sets a new reserve factor for the protocol using _setReserveFactorFresh"
      },
      "accrueInterest()": {
        "notice": "Applies accrued interest to total borrows and reserves"
      },
      "allowance(address,address)": {
        "notice": "Get the current allowance from `owner` for `spender`"
      },
      "approve(address,uint256)": {
        "notice": "Approve `spender` to transfer up to `amount` from `src`"
      },
      "balanceOf(address)": {
        "notice": "Get the token balance of the `owner`"
      },
      "balanceOfUnderlying(address)": {
        "notice": "Get the underlying balance of the `owner`"
      },
      "borrow(uint256)": {
        "notice": "Sender borrows assets from the protocol to their own address"
      },
      "borrowBalanceCurrent(address)": {
        "notice": "Accrue interest to updated borrowIndex and then calculate account's borrow balance using the updated borrowIndex"
      },
      "borrowBalanceStored(address)": {
        "notice": "Return the borrow balance of account based on stored data"
      },
      "borrowRatePerBlock()": {
        "notice": "Returns the current per-block borrow interest rate for this cToken"
      },
      "constructor": "Construct an empty delegate",
      "estimateBorrowRatePerBlockAfterChange(uint256,bool)": {
        "notice": "Returns the estimated per-block borrow interest rate for this cToken after some change"
      },
      "estimateSupplyRatePerBlockAfterChange(uint256,bool)": {
        "notice": "Returns the estimated per-block supply interest rate for this cToken after some change"
      },
      "exchangeRateCurrent()": {
        "notice": "Accrue interest then return the up-to-date exchange rate"
      },
      "exchangeRateStored()": {
        "notice": "Calculates the exchange rate from the underlying to the CToken"
      },
      "flashFee(uint256)": {
        "notice": "Get the flash loan fees"
      },
      "flashLoan(address,address,uint256,bytes)": {
        "notice": "Flash loan funds to a given account."
      },
      "getAccountSnapshot(address)": {
        "notice": "Get a snapshot of the account's balances, and the cached exchange rate"
      },
      "getCash()": {
        "notice": "Get cash balance of this cToken in the underlying asset"
      },
      "gulp()": {
        "notice": "Absorb excess cash into reserves."
      },
      "initialize(address,address,address,uint256,string,string,uint8)": {
        "notice": "Initialize the new money market"
      },
      "initialize(address,address,uint256,string,string,uint8)": {
        "notice": "Initialize the money market"
      },
      "liquidateBorrow(address,uint256,address)": {
        "notice": "The sender liquidates the borrowers collateral. The collateral seized is transferred to the liquidator."
      },
      "maxFlashLoan()": {
        "notice": "Get the max flash loan amount"
      },
      "mint(uint256)": {
        "notice": "Sender supplies assets into the market and receives cTokens in exchange"
      },
      "redeem(uint256)": {
        "notice": "Sender redeems cTokens in exchange for the underlying asset"
      },
      "redeemUnderlying(uint256)": {
        "notice": "Sender redeems cTokens in exchange for a specified amount of underlying asset"
      },
      "registerCollateral(address)": {
        "notice": "Register account collateral tokens if there is space."
      },
      "repayBorrow(uint256)": {
        "notice": "Sender repays their own borrow"
      },
      "repayBorrowBehalf(address,uint256)": {
        "notice": "Sender repays a borrow belonging to borrower"
      },
      "seize(address,address,uint256)": {
        "notice": "Transfers collateral tokens (this market) to the liquidator."
      },
      "supplyRatePerBlock()": {
        "notice": "Returns the current per-block supply interest rate for this cToken"
      },
      "totalBorrowsCurrent()": {
        "notice": "Returns the current total borrows plus accrued interest"
      },
      "transfer(address,uint256)": {
        "notice": "Transfer `amount` tokens from `msg.sender` to `dst`"
      },
      "transferFrom(address,address,uint256)": {
        "notice": "Transfer `amount` tokens from `src` to `dst`"
      },
      "unregisterCollateral(address)": {
        "notice": "Unregister account collateral tokens if the account still has enough collateral."
      }
    },
    "notice": "CTokens which wrap an EIP-20 underlying and are delegated to"
  },
  "storageLayout": {
    "storage": [
      {
        "astId": 8090,
        "contract": "contracts/CCollateralCapErc20Delegate.sol:CCollateralCapErc20Delegate",
        "label": "_notEntered",
        "offset": 0,
        "slot": "0",
        "type": "t_bool"
      },
      {
        "astId": 8092,
        "contract": "contracts/CCollateralCapErc20Delegate.sol:CCollateralCapErc20Delegate",
        "label": "name",
        "offset": 0,
        "slot": "1",
        "type": "t_string_storage"
      },
      {
        "astId": 8094,
        "contract": "contracts/CCollateralCapErc20Delegate.sol:CCollateralCapErc20Delegate",
        "label": "symbol",
        "offset": 0,
        "slot": "2",
        "type": "t_string_storage"
      },
      {
        "astId": 8096,
        "contract": "contracts/CCollateralCapErc20Delegate.sol:CCollateralCapErc20Delegate",
        "label": "decimals",
        "offset": 0,
        "slot": "3",
        "type": "t_uint8"
      },
      {
        "astId": 8104,
        "contract": "contracts/CCollateralCapErc20Delegate.sol:CCollateralCapErc20Delegate",
        "label": "admin",
        "offset": 1,
        "slot": "3",
        "type": "t_address_payable"
      },
      {
        "astId": 8106,
        "contract": "contracts/CCollateralCapErc20Delegate.sol:CCollateralCapErc20Delegate",
        "label": "pendingAdmin",
        "offset": 0,
        "slot": "4",
        "type": "t_address_payable"
      },
      {
        "astId": 8108,
        "contract": "contracts/CCollateralCapErc20Delegate.sol:CCollateralCapErc20Delegate",
        "label": "comptroller",
        "offset": 0,
        "slot": "5",
        "type": "t_contract(ComptrollerInterface)17006"
      },
      {
        "astId": 8110,
        "contract": "contracts/CCollateralCapErc20Delegate.sol:CCollateralCapErc20Delegate",
        "label": "interestRateModel",
        "offset": 0,
        "slot": "6",
        "type": "t_contract(InterestRateModel)20349"
      },
      {
        "astId": 8112,
        "contract": "contracts/CCollateralCapErc20Delegate.sol:CCollateralCapErc20Delegate",
        "label": "initialExchangeRateMantissa",
        "offset": 0,
        "slot": "7",
        "type": "t_uint256"
      },
      {
        "astId": 8114,
        "contract": "contracts/CCollateralCapErc20Delegate.sol:CCollateralCapErc20Delegate",
        "label": "reserveFactorMantissa",
        "offset": 0,
        "slot": "8",
        "type": "t_uint256"
      },
      {
        "astId": 8116,
        "contract": "contracts/CCollateralCapErc20Delegate.sol:CCollateralCapErc20Delegate",
        "label": "accrualBlockNumber",
        "offset": 0,
        "slot": "9",
        "type": "t_uint256"
      },
      {
        "astId": 8118,
        "contract": "contracts/CCollateralCapErc20Delegate.sol:CCollateralCapErc20Delegate",
        "label": "borrowIndex",
        "offset": 0,
        "slot": "10",
        "type": "t_uint256"
      },
      {
        "astId": 8120,
        "contract": "contracts/CCollateralCapErc20Delegate.sol:CCollateralCapErc20Delegate",
        "label": "totalBorrows",
        "offset": 0,
        "slot": "11",
        "type": "t_uint256"
      },
      {
        "astId": 8122,
        "contract": "contracts/CCollateralCapErc20Delegate.sol:CCollateralCapErc20Delegate",
        "label": "totalReserves",
        "offset": 0,
        "slot": "12",
        "type": "t_uint256"
      },
      {
        "astId": 8124,
        "contract": "contracts/CCollateralCapErc20Delegate.sol:CCollateralCapErc20Delegate",
        "label": "totalSupply",
        "offset": 0,
        "slot": "13",
        "type": "t_uint256"
      },
      {
        "astId": 8128,
        "contract": "contracts/CCollateralCapErc20Delegate.sol:CCollateralCapErc20Delegate",
        "label": "accountTokens",
        "offset": 0,
        "slot": "14",
        "type": "t_mapping(t_address,t_uint256)"
      },
      {
        "astId": 8134,
        "contract": "contracts/CCollateralCapErc20Delegate.sol:CCollateralCapErc20Delegate",
        "label": "transferAllowances",
        "offset": 0,
        "slot": "15",
        "type": "t_mapping(t_address,t_mapping(t_address,t_uint256))"
      },
      {
        "astId": 8143,
        "contract": "contracts/CCollateralCapErc20Delegate.sol:CCollateralCapErc20Delegate",
        "label": "accountBorrows",
        "offset": 0,
        "slot": "16",
        "type": "t_mapping(t_address,t_struct(BorrowSnapshot)8139_storage)"
      },
      {
        "astId": 8146,
        "contract": "contracts/CCollateralCapErc20Delegate.sol:CCollateralCapErc20Delegate",
        "label": "underlying",
        "offset": 0,
        "slot": "17",
        "type": "t_address"
      },
      {
        "astId": 8148,
        "contract": "contracts/CCollateralCapErc20Delegate.sol:CCollateralCapErc20Delegate",
        "label": "implementation",
        "offset": 0,
        "slot": "18",
        "type": "t_address"
      },
      {
        "astId": 8151,
        "contract": "contracts/CCollateralCapErc20Delegate.sol:CCollateralCapErc20Delegate",
        "label": "internalCash",
        "offset": 0,
        "slot": "19",
        "type": "t_uint256"
      },
      {
        "astId": 8154,
        "contract": "contracts/CCollateralCapErc20Delegate.sol:CCollateralCapErc20Delegate",
        "label": "totalCollateralTokens",
        "offset": 0,
        "slot": "20",
        "type": "t_uint256"
      },
      {
        "astId": 8158,
        "contract": "contracts/CCollateralCapErc20Delegate.sol:CCollateralCapErc20Delegate",
        "label": "accountCollateralTokens",
        "offset": 0,
        "slot": "21",
        "type": "t_mapping(t_address,t_uint256)"
      },
      {
        "astId": 8162,
        "contract": "contracts/CCollateralCapErc20Delegate.sol:CCollateralCapErc20Delegate",
        "label": "isCollateralTokenInit",
        "offset": 0,
        "slot": "22",
        "type": "t_mapping(t_address,t_bool)"
      },
      {
        "astId": 8164,
        "contract": "contracts/CCollateralCapErc20Delegate.sol:CCollateralCapErc20Delegate",
        "label": "collateralCap",
        "offset": 0,
        "slot": "23",
        "type": "t_uint256"
      }
    ],
    "types": {
      "t_address": {
        "encoding": "inplace",
        "label": "address",
        "numberOfBytes": "20"
      },
      "t_address_payable": {
        "encoding": "inplace",
        "label": "address payable",
        "numberOfBytes": "20"
      },
      "t_bool": {
        "encoding": "inplace",
        "label": "bool",
        "numberOfBytes": "1"
      },
      "t_contract(ComptrollerInterface)17006": {
        "encoding": "inplace",
        "label": "contract ComptrollerInterface",
        "numberOfBytes": "20"
      },
      "t_contract(InterestRateModel)20349": {
        "encoding": "inplace",
        "label": "contract InterestRateModel",
        "numberOfBytes": "20"
      },
      "t_mapping(t_address,t_bool)": {
        "encoding": "mapping",
        "key": "t_address",
        "label": "mapping(address => bool)",
        "numberOfBytes": "32",
        "value": "t_bool"
      },
      "t_mapping(t_address,t_mapping(t_address,t_uint256))": {
        "encoding": "mapping",
        "key": "t_address",
        "label": "mapping(address => mapping(address => uint256))",
        "numberOfBytes": "32",
        "value": "t_mapping(t_address,t_uint256)"
      },
      "t_mapping(t_address,t_struct(BorrowSnapshot)8139_storage)": {
        "encoding": "mapping",
        "key": "t_address",
        "label": "mapping(address => struct CTokenStorage.BorrowSnapshot)",
        "numberOfBytes": "32",
        "value": "t_struct(BorrowSnapshot)8139_storage"
      },
      "t_mapping(t_address,t_uint256)": {
        "encoding": "mapping",
        "key": "t_address",
        "label": "mapping(address => uint256)",
        "numberOfBytes": "32",
        "value": "t_uint256"
      },
      "t_string_storage": {
        "encoding": "bytes",
        "label": "string",
        "numberOfBytes": "32"
      },
      "t_struct(BorrowSnapshot)8139_storage": {
        "encoding": "inplace",
        "label": "struct CTokenStorage.BorrowSnapshot",
        "members": [
          {
            "astId": 8136,
            "contract": "contracts/CCollateralCapErc20Delegate.sol:CCollateralCapErc20Delegate",
            "label": "principal",
            "offset": 0,
            "slot": "0",
            "type": "t_uint256"
          },
          {
            "astId": 8138,
            "contract": "contracts/CCollateralCapErc20Delegate.sol:CCollateralCapErc20Delegate",
            "label": "interestIndex",
            "offset": 0,
            "slot": "1",
            "type": "t_uint256"
          }
        ],
        "numberOfBytes": "64"
      },
      "t_uint256": {
        "encoding": "inplace",
        "label": "uint256",
        "numberOfBytes": "32"
      },
      "t_uint8": {
        "encoding": "inplace",
        "label": "uint8",
        "numberOfBytes": "1"
      }
    }
  }
}