{
  "address": "0x98182BF525A4252C436ac349a4b79c7E6cd0EB7A",
  "abi": [
    {
      "constant": false,
      "inputs": [
        {
          "internalType": "contract CToken",
          "name": "cToken",
          "type": "address"
        },
        {
          "internalType": "address payable",
          "name": "account",
          "type": "address"
        }
      ],
      "name": "cTokenBalances",
      "outputs": [
        {
          "components": [
            {
              "internalType": "address",
              "name": "cToken",
              "type": "address"
            },
            {
              "internalType": "uint256",
              "name": "balanceOf",
              "type": "uint256"
            },
            {
              "internalType": "uint256",
              "name": "borrowBalanceCurrent",
              "type": "uint256"
            },
            {
              "internalType": "uint256",
              "name": "balanceOfUnderlying",
              "type": "uint256"
            },
            {
              "internalType": "uint256",
              "name": "tokenBalance",
              "type": "uint256"
            },
            {
              "internalType": "uint256",
              "name": "tokenAllowance",
              "type": "uint256"
            },
            {
              "internalType": "bool",
              "name": "collateralEnabled",
              "type": "bool"
            },
            {
              "internalType": "uint256",
              "name": "collateralBalance",
              "type": "uint256"
            },
            {
              "internalType": "uint256",
              "name": "nativeTokenBalance",
              "type": "uint256"
            }
          ],
          "internalType": "struct CompoundLens.CTokenBalances",
          "name": "",
          "type": "tuple"
        }
      ],
      "payable": false,
      "stateMutability": "nonpayable",
      "type": "function"
    },
    {
      "constant": false,
      "inputs": [
        {
          "internalType": "contract CToken[]",
          "name": "cTokens",
          "type": "address[]"
        },
        {
          "internalType": "address payable",
          "name": "account",
          "type": "address"
        }
      ],
      "name": "cTokenBalancesAll",
      "outputs": [
        {
          "components": [
            {
              "internalType": "address",
              "name": "cToken",
              "type": "address"
            },
            {
              "internalType": "uint256",
              "name": "balanceOf",
              "type": "uint256"
            },
            {
              "internalType": "uint256",
              "name": "borrowBalanceCurrent",
              "type": "uint256"
            },
            {
              "internalType": "uint256",
              "name": "balanceOfUnderlying",
              "type": "uint256"
            },
            {
              "internalType": "uint256",
              "name": "tokenBalance",
              "type": "uint256"
            },
            {
              "internalType": "uint256",
              "name": "tokenAllowance",
              "type": "uint256"
            },
            {
              "internalType": "bool",
              "name": "collateralEnabled",
              "type": "bool"
            },
            {
              "internalType": "uint256",
              "name": "collateralBalance",
              "type": "uint256"
            },
            {
              "internalType": "uint256",
              "name": "nativeTokenBalance",
              "type": "uint256"
            }
          ],
          "internalType": "struct CompoundLens.CTokenBalances[]",
          "name": "",
          "type": "tuple[]"
        }
      ],
      "payable": false,
      "stateMutability": "nonpayable",
      "type": "function"
    },
    {
      "constant": false,
      "inputs": [
        {
          "internalType": "contract CToken",
          "name": "cToken",
          "type": "address"
        }
      ],
      "name": "cTokenMetadata",
      "outputs": [
        {
          "components": [
            {
              "internalType": "address",
              "name": "cToken",
              "type": "address"
            },
            {
              "internalType": "uint256",
              "name": "exchangeRateCurrent",
              "type": "uint256"
            },
            {
              "internalType": "uint256",
              "name": "supplyRatePerBlock",
              "type": "uint256"
            },
            {
              "internalType": "uint256",
              "name": "borrowRatePerBlock",
              "type": "uint256"
            },
            {
              "internalType": "uint256",
              "name": "reserveFactorMantissa",
              "type": "uint256"
            },
            {
              "internalType": "uint256",
              "name": "totalBorrows",
              "type": "uint256"
            },
            {
              "internalType": "uint256",
              "name": "totalReserves",
              "type": "uint256"
            },
            {
              "internalType": "uint256",
              "name": "totalSupply",
              "type": "uint256"
            },
            {
              "internalType": "uint256",
              "name": "totalCash",
              "type": "uint256"
            },
            {
              "internalType": "uint256",
              "name": "totalCollateralTokens",
              "type": "uint256"
            },
            {
              "internalType": "bool",
              "name": "isListed",
              "type": "bool"
            },
            {
              "internalType": "uint256",
              "name": "collateralFactorMantissa",
              "type": "uint256"
            },
            {
              "internalType": "address",
              "name": "underlyingAssetAddress",
              "type": "address"
            },
            {
              "internalType": "uint256",
              "name": "cTokenDecimals",
              "type": "uint256"
            },
            {
              "internalType": "uint256",
              "name": "underlyingDecimals",
              "type": "uint256"
            },
            {
              "internalType": "enum ComptrollerV1Storage.Version",
              "name": "version",
              "type": "uint8"
            },
            {
              "internalType": "uint256",
              "name": "collateralCap",
              "type": "uint256"
            },
            {
              "internalType": "uint256",
              "name": "underlyingPrice",
              "type": "uint256"
            },
            {
              "internalType": "bool",
              "name": "supplyPaused",
              "type": "bool"
            },
            {
              "internalType": "bool",
              "name": "borrowPaused",
              "type": "bool"
            },
            {
              "internalType": "uint256",
              "name": "supplyCap",
              "type": "uint256"
            },
            {
              "internalType": "uint256",
              "name": "borrowCap",
              "type": "uint256"
            }
          ],
          "internalType": "struct CompoundLens.CTokenMetadata",
          "name": "",
          "type": "tuple"
        }
      ],
      "payable": false,
      "stateMutability": "nonpayable",
      "type": "function"
    },
    {
      "constant": false,
      "inputs": [
        {
          "internalType": "contract CToken[]",
          "name": "cTokens",
          "type": "address[]"
        }
      ],
      "name": "cTokenMetadataAll",
      "outputs": [
        {
          "components": [
            {
              "internalType": "address",
              "name": "cToken",
              "type": "address"
            },
            {
              "internalType": "uint256",
              "name": "exchangeRateCurrent",
              "type": "uint256"
            },
            {
              "internalType": "uint256",
              "name": "supplyRatePerBlock",
              "type": "uint256"
            },
            {
              "internalType": "uint256",
              "name": "borrowRatePerBlock",
              "type": "uint256"
            },
            {
              "internalType": "uint256",
              "name": "reserveFactorMantissa",
              "type": "uint256"
            },
            {
              "internalType": "uint256",
              "name": "totalBorrows",
              "type": "uint256"
            },
            {
              "internalType": "uint256",
              "name": "totalReserves",
              "type": "uint256"
            },
            {
              "internalType": "uint256",
              "name": "totalSupply",
              "type": "uint256"
            },
            {
              "internalType": "uint256",
              "name": "totalCash",
              "type": "uint256"
            },
            {
              "internalType": "uint256",
              "name": "totalCollateralTokens",
              "type": "uint256"
            },
            {
              "internalType": "bool",
              "name": "isListed",
              "type": "bool"
            },
            {
              "internalType": "uint256",
              "name": "collateralFactorMantissa",
              "type": "uint256"
            },
            {
              "internalType": "address",
              "name": "underlyingAssetAddress",
              "type": "address"
            },
            {
              "internalType": "uint256",
              "name": "cTokenDecimals",
              "type": "uint256"
            },
            {
              "internalType": "uint256",
              "name": "underlyingDecimals",
              "type": "uint256"
            },
            {
              "internalType": "enum ComptrollerV1Storage.Version",
              "name": "version",
              "type": "uint8"
            },
            {
              "internalType": "uint256",
              "name": "collateralCap",
              "type": "uint256"
            },
            {
              "internalType": "uint256",
              "name": "underlyingPrice",
              "type": "uint256"
            },
            {
              "internalType": "bool",
              "name": "supplyPaused",
              "type": "bool"
            },
            {
              "internalType": "bool",
              "name": "borrowPaused",
              "type": "bool"
            },
            {
              "internalType": "uint256",
              "name": "supplyCap",
              "type": "uint256"
            },
            {
              "internalType": "uint256",
              "name": "borrowCap",
              "type": "uint256"
            }
          ],
          "internalType": "struct CompoundLens.CTokenMetadata[]",
          "name": "",
          "type": "tuple[]"
        }
      ],
      "payable": false,
      "stateMutability": "nonpayable",
      "type": "function"
    },
    {
      "constant": false,
      "inputs": [
        {
          "internalType": "contract Comptroller",
          "name": "comptroller",
          "type": "address"
        },
        {
          "internalType": "address",
          "name": "account",
          "type": "address"
        }
      ],
      "name": "getAccountLimits",
      "outputs": [
        {
          "components": [
            {
              "internalType": "contract CToken[]",
              "name": "markets",
              "type": "address[]"
            },
            {
              "internalType": "uint256",
              "name": "liquidity",
              "type": "uint256"
            },
            {
              "internalType": "uint256",
              "name": "shortfall",
              "type": "uint256"
            }
          ],
          "internalType": "struct CompoundLens.AccountLimits",
          "name": "",
          "type": "tuple"
        }
      ],
      "payable": false,
      "stateMutability": "nonpayable",
      "type": "function"
    },
    {
      "constant": false,
      "inputs": [
        {
          "internalType": "contract CSLPInterface[]",
          "name": "cTokens",
          "type": "address[]"
        },
        {
          "internalType": "address",
          "name": "sushi",
          "type": "address"
        },
        {
          "internalType": "address",
          "name": "account",
          "type": "address"
        }
      ],
      "name": "getClaimableSushiRewards",
      "outputs": [
        {
          "internalType": "uint256[]",
          "name": "",
          "type": "uint256[]"
        }
      ],
      "payable": false,
      "stateMutability": "nonpayable",
      "type": "function"
    }
  ],
  "transactionHash": "0x189787185785a1d0b76b2bc7d123d872cbbd000c7b470193bb51d2d28e21b8e5",
  "args": [],
  "solcInputHash": "37e3d3dfb39e9e1f5de97dd1794520f4",
  "bytecode": "0x608060405234801561001057600080fd5b506124de806100206000396000f3fe608060405234801561001057600080fd5b50600436106100625760003560e01c80630972bf8b146100675780630e23cffd14610090578063158eca8b146100b05780634b70d84b146100d05780637dd8f6d9146100f0578063bdf950c914610110575b600080fd5b61007a610075366004611b33565b610130565b60405161008791906122c7565b60405180910390f35b6100a361009e366004611a88565b6101d3565b60405161008791906122e9565b6100c36100be366004611c1e565b6103e8565b6040516100879190612359565b6100e36100de366004611af1565b6104ef565b60405161008791906122d8565b6101036100fe366004611c3c565b610786565b6040516100879190612339565b61012361011e366004611c3c565b6108c2565b604051610087919061234a565b6040805183815260208085028201019091526060908390829082801561017057816020015b61015d611800565b8152602001906001900390816101555790505b50905060005b828110156101c7576101a887878381811061018d57fe5b90506020020160206101a29190810190611c1e565b866108c2565b8282815181106101b457fe5b6020908102919091010152600101610176565b509150505b9392505050565b60408051848152602080860282010190915260609084908290828015610203578160200160208202803883390190505b50905060005b828110156103dd576040516370a0823160e01b81526000906001600160a01b038816906370a0823190610240908990600401612275565b60206040518083038186803b15801561025857600080fd5b505afa15801561026c573d6000803e3d6000fd5b505050506040513d601f19601f820116820180604052506102909190810190611c94565b905088888381811061029e57fe5b90506020020160206102b39190810190611c1e565b6001600160a01b0316632781e0d5876040518263ffffffff1660e01b81526004016102de9190612275565b602060405180830381600087803b1580156102f857600080fd5b505af115801561030c573d6000803e3d6000fd5b505050506040513d601f19601f820116820180604052506103309190810190611c94565b506040516370a0823160e01b81526000906001600160a01b038916906370a0823190610360908a90600401612275565b60206040518083038186803b15801561037857600080fd5b505afa15801561038c573d6000803e3d6000fd5b505050506040513d601f19601f820116820180604052506103b09190810190611c94565b90506103bc8183610d98565b8484815181106103c857fe5b60209081029190910101525050600101610209565b509695505050505050565b6103f0611857565b6000826001600160a01b0316635fe3b5676040518163ffffffff1660e01b815260040160206040518083038186803b15801561042b57600080fd5b505afa15801561043f573d6000803e3d6000fd5b505050506040513d601f19601f820116820180604052506104639190810190611c76565b90506000816001600160a01b0316637dc0d1d06040518163ffffffff1660e01b815260040160206040518083038186803b1580156104a057600080fd5b505afa1580156104b4573d6000803e3d6000fd5b505050506040513d601f19601f820116820180604052506104d89190810190611c76565b90506104e5848383610dd2565b925050505b919050565b606081806105185760405162461bcd60e51b815260040161050f90612329565b60405180910390fd5b60608160405190808252806020026020018201604052801561055457816020015b610541611857565b8152602001906001900390816105395790505b50905060008585600081811061056657fe5b905060200201602061057b9190810190611c1e565b6001600160a01b0316635fe3b5676040518163ffffffff1660e01b815260040160206040518083038186803b1580156105b357600080fd5b505afa1580156105c7573d6000803e3d6000fd5b505050506040513d601f19601f820116820180604052506105eb9190810190611c76565b90506000816001600160a01b0316637dc0d1d06040518163ffffffff1660e01b815260040160206040518083038186803b15801561062857600080fd5b505afa15801561063c573d6000803e3d6000fd5b505050506040513d601f19601f820116820180604052506106609190810190611c76565b905060005b848110156107785787878281811061067957fe5b905060200201602061068e9190810190611c1e565b6001600160a01b0316635fe3b5676040518163ffffffff1660e01b815260040160206040518083038186803b1580156106c657600080fd5b505afa1580156106da573d6000803e3d6000fd5b505050506040513d601f19601f820116820180604052506106fe9190810190611c76565b6001600160a01b0316836001600160a01b03161461072e5760405162461bcd60e51b815260040161050f90612319565b61075988888381811061073d57fe5b90506020020160206107529190810190611c1e565b8484610dd2565b84828151811061076557fe5b6020908102919091010152600101610665565b509193505050505b92915050565b61078e611921565b6000806000856001600160a01b0316635ec88c79866040518263ffffffff1660e01b81526004016107bf9190612275565b60606040518083038186803b1580156107d757600080fd5b505afa1580156107eb573d6000803e3d6000fd5b505050506040513d601f19601f8201168201806040525061080f9190810190611cb2565b9250925092508260001461082257600080fd5b604080516060810191829052632aff3bff60e21b909152806001600160a01b03881663abfceffc6108568960648501612275565b60006040518083038186803b15801561086e57600080fd5b505afa158015610882573d6000803e3d6000fd5b505050506040513d6000823e601f3d908101601f191682016040526108aa9190810190611b88565b81526020810193909352604090920152949350505050565b6108ca611800565b6000836001600160a01b0316635fe3b5676040518163ffffffff1660e01b815260040160206040518083038186803b15801561090557600080fd5b505afa158015610919573d6000803e3d6000fd5b505050506040513d601f19601f8201168201806040525061093d9190810190611c76565b90506000816001600160a01b031663929fe9a185876040518363ffffffff1660e01b815260040161096f9291906122ac565b60206040518083038186803b15801561098757600080fd5b505afa15801561099b573d6000803e3d6000fd5b505050506040513d601f19601f820116820180604052506109bf9190810190611bbd565b90506000808690506000816001600160a01b0316636f307dc36040518163ffffffff1660e01b815260040160206040518083038186803b158015610a0257600080fd5b505afa158015610a16573d6000803e3d6000fd5b505050506040513d601f19601f82011682018060405250610a3a9190810190611a62565b90506000816001600160a01b03166370a08231896040518263ffffffff1660e01b8152600401610a6a9190612283565b60206040518083038186803b158015610a8257600080fd5b505afa158015610a96573d6000803e3d6000fd5b505050506040513d601f19601f82011682018060405250610aba9190810190611c94565b90506000826001600160a01b031663dd62ed3e8a8c6040518363ffffffff1660e01b8152600401610aec929190612291565b60206040518083038186803b158015610b0457600080fd5b505afa158015610b18573d6000803e3d6000fd5b505050506040513d601f19601f82011682018060405250610b3c9190810190611c94565b90508515610bc7576040516361bfb47160e11b81526001600160a01b038b169063c37f68e290610b70908c90600401612283565b60806040518083038186803b158015610b8857600080fd5b505afa158015610b9c573d6000803e3d6000fd5b505050506040513d601f19601f82011682018060405250610bc09190810190611cf5565b5090965050505b60408051610120810182526001600160a01b038c1680825291516370a0823160e01b8152909160208301916370a0823190610c06908e90600401612283565b60206040518083038186803b158015610c1e57600080fd5b505afa158015610c32573d6000803e3d6000fd5b505050506040513d601f19601f82011682018060405250610c569190810190611c94565b81526020018b6001600160a01b03166317bfdfbc8c6040518263ffffffff1660e01b8152600401610c879190612283565b602060405180830381600087803b158015610ca157600080fd5b505af1158015610cb5573d6000803e3d6000fd5b505050506040513d601f19601f82011682018060405250610cd99190810190611c94565b81526020018b6001600160a01b0316633af9e6698c6040518263ffffffff1660e01b8152600401610d0a9190612283565b602060405180830381600087803b158015610d2457600080fd5b505af1158015610d38573d6000803e3d6000fd5b505050506040513d601f19601f82011682018060405250610d5c9190810190611c94565b815260200183815260200182815260200187151581526020018681526020018a6001600160a01b03163181525097505050505050505092915050565b60006101cc8383604051806040016040528060158152602001747375627472616374696f6e20756e646572666c6f7760581b8152506117d4565b610dda611857565b6000846001600160a01b031663bd6d894d6040518163ffffffff1660e01b8152600401602060405180830381600087803b158015610e1757600080fd5b505af1158015610e2b573d6000803e3d6000fd5b505050506040513d601f19601f82011682018060405250610e4f9190810190611c94565b90506000806000866001600160a01b0316638e8f294b896040518263ffffffff1660e01b8152600401610e829190612275565b60606040518083038186803b158015610e9a57600080fd5b505afa158015610eae573d6000803e3d6000fd5b505050506040513d601f19601f82011682018060405250610ed29190810190611bdb565b91945092509050876000806001846002811115610eeb57fe5b1415610fd8578a6001600160a01b031663d2bb18e96040518163ffffffff1660e01b815260040160206040518083038186803b158015610f2a57600080fd5b505afa158015610f3e573d6000803e3d6000fd5b505050506040513d601f19601f82011682018060405250610f629190810190611c94565b91508a6001600160a01b03166319a4dd3c6040518163ffffffff1660e01b815260040160206040518083038186803b158015610f9d57600080fd5b505afa158015610fb1573d6000803e3d6000fd5b505050506040513d601f19601f82011682018060405250610fd59190810190611c94565b90505b604051806102c001604052808c6001600160a01b031681526020018881526020018c6001600160a01b031663ae9d70b06040518163ffffffff1660e01b815260040160206040518083038186803b15801561103257600080fd5b505afa158015611046573d6000803e3d6000fd5b505050506040513d601f19601f8201168201806040525061106a9190810190611c94565b81526020018c6001600160a01b031663f8f9da286040518163ffffffff1660e01b815260040160206040518083038186803b1580156110a857600080fd5b505afa1580156110bc573d6000803e3d6000fd5b505050506040513d601f19601f820116820180604052506110e09190810190611c94565b81526020018c6001600160a01b031663173b99046040518163ffffffff1660e01b815260040160206040518083038186803b15801561111e57600080fd5b505afa158015611132573d6000803e3d6000fd5b505050506040513d601f19601f820116820180604052506111569190810190611c94565b81526020018c6001600160a01b03166347bd37186040518163ffffffff1660e01b815260040160206040518083038186803b15801561119457600080fd5b505afa1580156111a8573d6000803e3d6000fd5b505050506040513d601f19601f820116820180604052506111cc9190810190611c94565b81526020018c6001600160a01b0316638f840ddd6040518163ffffffff1660e01b815260040160206040518083038186803b15801561120a57600080fd5b505afa15801561121e573d6000803e3d6000fd5b505050506040513d601f19601f820116820180604052506112429190810190611c94565b81526020018c6001600160a01b03166318160ddd6040518163ffffffff1660e01b815260040160206040518083038186803b15801561128057600080fd5b505afa158015611294573d6000803e3d6000fd5b505050506040513d601f19601f820116820180604052506112b89190810190611c94565b81526020018c6001600160a01b0316633b1d21a26040518163ffffffff1660e01b815260040160206040518083038186803b1580156112f657600080fd5b505afa15801561130a573d6000803e3d6000fd5b505050506040513d601f19601f8201168201806040525061132e9190810190611c94565b81526020018281526020018715158152602001868152602001846001600160a01b0316636f307dc36040518163ffffffff1660e01b815260040160206040518083038186803b15801561138057600080fd5b505afa158015611394573d6000803e3d6000fd5b505050506040513d601f19601f820116820180604052506113b89190810190611a62565b6001600160a01b031681526020018c6001600160a01b031663313ce5676040518163ffffffff1660e01b815260040160206040518083038186803b1580156113ff57600080fd5b505afa158015611413573d6000803e3d6000fd5b505050506040513d601f19601f820116820180604052506114379190810190611d4a565b60ff168152602001846001600160a01b0316636f307dc36040518163ffffffff1660e01b815260040160206040518083038186803b15801561147857600080fd5b505afa15801561148c573d6000803e3d6000fd5b505050506040513d601f19601f820116820180604052506114b09190810190611a62565b6001600160a01b031663313ce5676040518163ffffffff1660e01b815260040160206040518083038186803b1580156114e857600080fd5b505afa1580156114fc573d6000803e3d6000fd5b505050506040513d601f19601f820116820180604052506115209190810190611d4a565b60ff16815260200185600281111561153457fe5b81526020018381526020018a6001600160a01b031663fc57d4df8e6040518263ffffffff1660e01b815260040161156b91906122fa565b60206040518083038186803b15801561158357600080fd5b505afa158015611597573d6000803e3d6000fd5b505050506040513d601f19601f820116820180604052506115bb9190810190611c94565b81526020018b6001600160a01b031663731f0c2b8e6040518263ffffffff1660e01b81526004016115ec9190612275565b60206040518083038186803b15801561160457600080fd5b505afa158015611618573d6000803e3d6000fd5b505050506040513d601f19601f8201168201806040525061163c9190810190611bbd565b151581526020018b6001600160a01b0316636d154ea58e6040518263ffffffff1660e01b815260040161166f9190612275565b60206040518083038186803b15801561168757600080fd5b505afa15801561169b573d6000803e3d6000fd5b505050506040513d601f19601f820116820180604052506116bf9190810190611bbd565b151581526020018b6001600160a01b03166302c3bcbb8e6040518263ffffffff1660e01b81526004016116f29190612275565b60206040518083038186803b15801561170a57600080fd5b505afa15801561171e573d6000803e3d6000fd5b505050506040513d601f19601f820116820180604052506117429190810190611c94565b81526020018b6001600160a01b0316634a5844328e6040518263ffffffff1660e01b81526004016117739190612275565b60206040518083038186803b15801561178b57600080fd5b505afa15801561179f573d6000803e3d6000fd5b505050506040513d601f19601f820116820180604052506117c39190810190611c94565b90529b9a5050505050505050505050565b600081848411156117f85760405162461bcd60e51b815260040161050f9190612308565b505050900390565b60405180610120016040528060006001600160a01b03168152602001600081526020016000815260200160008152602001600081526020016000815260200160001515815260200160008152602001600081525090565b604051806102c0016040528060006001600160a01b031681526020016000815260200160008152602001600081526020016000815260200160008152602001600081526020016000815260200160008152602001600081526020016000151581526020016000815260200160006001600160a01b031681526020016000815260200160008152602001600060028111156118ed57fe5b8152602001600081526020016000815260200160001515815260200160001515815260200160008152602001600081525090565b60405180606001604052806060815260200160008152602001600081525090565b803561078081612456565b805161078081612456565b60008083601f84011261196a57600080fd5b50813567ffffffffffffffff81111561198257600080fd5b60208301915083602082028301111561199a57600080fd5b9250929050565b600082601f8301126119b257600080fd5b81516119c56119c08261238f565b612368565b915081818352602084019350602081019050838560208402820111156119ea57600080fd5b60005b83811015611a165781611a008882611a36565b84525060209283019291909101906001016119ed565b5050505092915050565b80516107808161246a565b803561078081612473565b805161078081612473565b80516107808161247c565b805161078081612489565b805161078081612492565b600060208284031215611a7457600080fd5b6000611a80848461194d565b949350505050565b60008060008060608587031215611a9e57600080fd5b843567ffffffffffffffff811115611ab557600080fd5b611ac187828801611958565b94509450506020611ad487828801611942565b9250506040611ae587828801611942565b91505092959194509250565b60008060208385031215611b0457600080fd5b823567ffffffffffffffff811115611b1b57600080fd5b611b2785828601611958565b92509250509250929050565b600080600060408486031215611b4857600080fd5b833567ffffffffffffffff811115611b5f57600080fd5b611b6b86828701611958565b93509350506020611b7e86828701611942565b9150509250925092565b600060208284031215611b9a57600080fd5b815167ffffffffffffffff811115611bb157600080fd5b611a80848285016119a1565b600060208284031215611bcf57600080fd5b6000611a808484611a20565b600080600060608486031215611bf057600080fd5b6000611bfc8686611a20565b9350506020611c0d86828701611a4c565b9250506040611b7e86828701611a41565b600060208284031215611c3057600080fd5b6000611a808484611a2b565b60008060408385031215611c4f57600080fd5b6000611c5b8585611a2b565b9250506020611c6c85828601611942565b9150509250929050565b600060208284031215611c8857600080fd5b6000611a808484611a36565b600060208284031215611ca657600080fd5b6000611a808484611a4c565b600080600060608486031215611cc757600080fd5b6000611cd38686611a4c565b9350506020611ce486828701611a4c565b9250506040611b7e86828701611a4c565b60008060008060808587031215611d0b57600080fd5b6000611d178787611a4c565b9450506020611d2887828801611a4c565b9350506040611d3987828801611a4c565b9250506060611ae587828801611a4c565b600060208284031215611d5c57600080fd5b6000611a808484611a57565b6000611d748383611f16565b505060200190565b6000611d888383612001565b50506101200190565b6000611d9d83836120b3565b50506102c00190565b6000611d74838361226c565b611dbb816123fd565b82525050565b611dbb816123c3565b6000611dd5826123b6565b611ddf81856123ba565b9350611dea836123b0565b8060005b83811015611e18578151611e028882611d68565b9750611e0d836123b0565b925050600101611dee565b509495945050505050565b6000611e2e826123b6565b611e3881856123ba565b9350611e43836123b0565b8060005b83811015611e18578151611e5b8882611d7c565b9750611e66836123b0565b925050600101611e47565b6000611e7c826123b6565b611e8681856123ba565b9350611e91836123b0565b8060005b83811015611e18578151611ea98882611d91565b9750611eb4836123b0565b925050600101611e95565b6000611eca826123b6565b611ed481856123ba565b9350611edf836123b0565b8060005b83811015611e18578151611ef78882611da6565b9750611f02836123b0565b925050600101611ee3565b611dbb816123ce565b611dbb816123d3565b611dbb81612408565b6000611f33826123b6565b611f3d81856123ba565b9350611f4d818560208601612413565b611f568161243f565b9093019392505050565b6000611f6d6014836123ba565b7336b4b9b6b0ba31b41031b7b6b83a3937b63632b960611b815260200192915050565b6000611f9d600d836123ba565b6c1a5b9d985b1a59081a5b9c1d5d609a1b815260200192915050565b8051606080845260009190840190611fd18282611dca565b9150506020830151611fe6602086018261226c565b506040830151611ff9604086018261226c565b509392505050565b80516101208301906120138482611dc1565b506020820151612026602085018261226c565b506040820151612039604085018261226c565b50606082015161204c606085018261226c565b50608082015161205f608085018261226c565b5060a082015161207260a085018261226c565b5060c082015161208560c0850182611f0d565b5060e082015161209860e085018261226c565b506101008201516120ad61010085018261226c565b50505050565b80516102c08301906120c58482611dc1565b5060208201516120d8602085018261226c565b5060408201516120eb604085018261226c565b5060608201516120fe606085018261226c565b506080820151612111608085018261226c565b5060a082015161212460a085018261226c565b5060c082015161213760c085018261226c565b5060e082015161214a60e085018261226c565b5061010082015161215f61010085018261226c565b5061012082015161217461012085018261226c565b50610140820151612189610140850182611f0d565b5061016082015161219e61016085018261226c565b506101808201516121b3610180850182611dc1565b506101a08201516121c86101a085018261226c565b506101c08201516121dd6101c085018261226c565b506101e08201516121f26101e0850182611f1f565b5061020082015161220761020085018261226c565b5061022082015161221c61022085018261226c565b50610240820151612231610240850182611f0d565b50610260820151612246610260850182611f0d565b5061028082015161225b61028085018261226c565b506102a08201516120ad6102a08501825b611dbb816123f4565b602081016107808284611dc1565b602081016107808284611db2565b6040810161229f8285611db2565b6101cc6020830184611dc1565b604081016122ba8285611db2565b6101cc6020830184611f16565b602080825281016101cc8184611e23565b602080825281016101cc8184611e71565b602080825281016101cc8184611ebf565b602081016107808284611f16565b602080825281016101cc8184611f28565b6020808252810161078081611f60565b6020808252810161078081611f90565b602080825281016101cc8184611fb9565b61012081016107808284612001565b6102c0810161078082846120b3565b60405181810167ffffffffffffffff8111828210171561238757600080fd5b604052919050565b600067ffffffffffffffff8211156123a657600080fd5b5060209081020190565b60200190565b5190565b90815260200190565b6000610780826123e8565b151590565b6000610780826123c3565b806104ea81612449565b6001600160a01b031690565b90565b60ff1690565b6000610780826123d3565b6000610780826123de565b60005b8381101561242e578181015183820152602001612416565b838111156120ad5750506000910152565b601f01601f191690565b6003811061245357fe5b50565b61245f816123c3565b811461245357600080fd5b61245f816123ce565b61245f816123d3565b6003811061245357600080fd5b61245f816123f4565b61245f816123f756fea365627a7a72315820b565560bce623728f74b607beeeb273bbcf2c4ec2c8683f8e91156348decf69e6c6578706572696d656e74616cf564736f6c63430005110040",
  "devdoc": {
    "methods": {}
  },
  "userdoc": {
    "methods": {}
  },
  "storageLayout": {
    "storage": [],
    "types": null
  }
}