{
  "address": "0x48b4a7D479aC40A92795E5E88D2C7e9490F2DBC5",
  "abi": [
    {
      "inputs": [],
      "payable": false,
      "stateMutability": "nonpayable",
      "type": "constructor"
    },
    {
      "anonymous": false,
      "inputs": [
        {
          "indexed": false,
          "internalType": "uint256",
          "name": "cashPrior",
          "type": "uint256"
        },
        {
          "indexed": false,
          "internalType": "uint256",
          "name": "interestAccumulated",
          "type": "uint256"
        },
        {
          "indexed": false,
          "internalType": "uint256",
          "name": "borrowIndex",
          "type": "uint256"
        },
        {
          "indexed": false,
          "internalType": "uint256",
          "name": "totalBorrows",
          "type": "uint256"
        }
      ],
      "name": "AccrueInterest",
      "type": "event"
    },
    {
      "anonymous": false,
      "inputs": [
        {
          "indexed": true,
          "internalType": "address",
          "name": "owner",
          "type": "address"
        },
        {
          "indexed": true,
          "internalType": "address",
          "name": "spender",
          "type": "address"
        },
        {
          "indexed": false,
          "internalType": "uint256",
          "name": "amount",
          "type": "uint256"
        }
      ],
      "name": "Approval",
      "type": "event"
    },
    {
      "anonymous": false,
      "inputs": [
        {
          "indexed": false,
          "internalType": "address",
          "name": "borrower",
          "type": "address"
        },
        {
          "indexed": false,
          "internalType": "uint256",
          "name": "borrowAmount",
          "type": "uint256"
        },
        {
          "indexed": false,
          "internalType": "uint256",
          "name": "accountBorrows",
          "type": "uint256"
        },
        {
          "indexed": false,
          "internalType": "uint256",
          "name": "totalBorrows",
          "type": "uint256"
        }
      ],
      "name": "Borrow",
      "type": "event"
    },
    {
      "anonymous": false,
      "inputs": [
        {
          "indexed": false,
          "internalType": "uint256",
          "name": "error",
          "type": "uint256"
        },
        {
          "indexed": false,
          "internalType": "uint256",
          "name": "info",
          "type": "uint256"
        },
        {
          "indexed": false,
          "internalType": "uint256",
          "name": "detail",
          "type": "uint256"
        }
      ],
      "name": "Failure",
      "type": "event"
    },
    {
      "anonymous": false,
      "inputs": [
        {
          "indexed": true,
          "internalType": "address",
          "name": "receiver",
          "type": "address"
        },
        {
          "indexed": false,
          "internalType": "uint256",
          "name": "amount",
          "type": "uint256"
        },
        {
          "indexed": false,
          "internalType": "uint256",
          "name": "totalFee",
          "type": "uint256"
        },
        {
          "indexed": false,
          "internalType": "uint256",
          "name": "reservesFee",
          "type": "uint256"
        }
      ],
      "name": "Flashloan",
      "type": "event"
    },
    {
      "anonymous": false,
      "inputs": [
        {
          "indexed": false,
          "internalType": "address",
          "name": "liquidator",
          "type": "address"
        },
        {
          "indexed": false,
          "internalType": "address",
          "name": "borrower",
          "type": "address"
        },
        {
          "indexed": false,
          "internalType": "uint256",
          "name": "repayAmount",
          "type": "uint256"
        },
        {
          "indexed": false,
          "internalType": "address",
          "name": "cTokenCollateral",
          "type": "address"
        },
        {
          "indexed": false,
          "internalType": "uint256",
          "name": "seizeTokens",
          "type": "uint256"
        }
      ],
      "name": "LiquidateBorrow",
      "type": "event"
    },
    {
      "anonymous": false,
      "inputs": [
        {
          "indexed": false,
          "internalType": "address",
          "name": "minter",
          "type": "address"
        },
        {
          "indexed": false,
          "internalType": "uint256",
          "name": "mintAmount",
          "type": "uint256"
        },
        {
          "indexed": false,
          "internalType": "uint256",
          "name": "mintTokens",
          "type": "uint256"
        }
      ],
      "name": "Mint",
      "type": "event"
    },
    {
      "anonymous": false,
      "inputs": [
        {
          "indexed": false,
          "internalType": "address",
          "name": "oldAdmin",
          "type": "address"
        },
        {
          "indexed": false,
          "internalType": "address",
          "name": "newAdmin",
          "type": "address"
        }
      ],
      "name": "NewAdmin",
      "type": "event"
    },
    {
      "anonymous": false,
      "inputs": [
        {
          "indexed": false,
          "internalType": "address",
          "name": "token",
          "type": "address"
        },
        {
          "indexed": false,
          "internalType": "uint256",
          "name": "newCap",
          "type": "uint256"
        }
      ],
      "name": "NewCollateralCap",
      "type": "event"
    },
    {
      "anonymous": false,
      "inputs": [
        {
          "indexed": false,
          "internalType": "contract ComptrollerInterface",
          "name": "oldComptroller",
          "type": "address"
        },
        {
          "indexed": false,
          "internalType": "contract ComptrollerInterface",
          "name": "newComptroller",
          "type": "address"
        }
      ],
      "name": "NewComptroller",
      "type": "event"
    },
    {
      "anonymous": false,
      "inputs": [
        {
          "indexed": false,
          "internalType": "contract InterestRateModel",
          "name": "oldInterestRateModel",
          "type": "address"
        },
        {
          "indexed": false,
          "internalType": "contract InterestRateModel",
          "name": "newInterestRateModel",
          "type": "address"
        }
      ],
      "name": "NewMarketInterestRateModel",
      "type": "event"
    },
    {
      "anonymous": false,
      "inputs": [
        {
          "indexed": false,
          "internalType": "address",
          "name": "oldPendingAdmin",
          "type": "address"
        },
        {
          "indexed": false,
          "internalType": "address",
          "name": "newPendingAdmin",
          "type": "address"
        }
      ],
      "name": "NewPendingAdmin",
      "type": "event"
    },
    {
      "anonymous": false,
      "inputs": [
        {
          "indexed": false,
          "internalType": "uint256",
          "name": "oldReserveFactorMantissa",
          "type": "uint256"
        },
        {
          "indexed": false,
          "internalType": "uint256",
          "name": "newReserveFactorMantissa",
          "type": "uint256"
        }
      ],
      "name": "NewReserveFactor",
      "type": "event"
    },
    {
      "anonymous": false,
      "inputs": [
        {
          "indexed": false,
          "internalType": "address",
          "name": "redeemer",
          "type": "address"
        },
        {
          "indexed": false,
          "internalType": "uint256",
          "name": "redeemAmount",
          "type": "uint256"
        },
        {
          "indexed": false,
          "internalType": "uint256",
          "name": "redeemTokens",
          "type": "uint256"
        }
      ],
      "name": "Redeem",
      "type": "event"
    },
    {
      "anonymous": false,
      "inputs": [
        {
          "indexed": false,
          "internalType": "address",
          "name": "payer",
          "type": "address"
        },
        {
          "indexed": false,
          "internalType": "address",
          "name": "borrower",
          "type": "address"
        },
        {
          "indexed": false,
          "internalType": "uint256",
          "name": "repayAmount",
          "type": "uint256"
        },
        {
          "indexed": false,
          "internalType": "uint256",
          "name": "accountBorrows",
          "type": "uint256"
        },
        {
          "indexed": false,
          "internalType": "uint256",
          "name": "totalBorrows",
          "type": "uint256"
        }
      ],
      "name": "RepayBorrow",
      "type": "event"
    },
    {
      "anonymous": false,
      "inputs": [
        {
          "indexed": false,
          "internalType": "address",
          "name": "benefactor",
          "type": "address"
        },
        {
          "indexed": false,
          "internalType": "uint256",
          "name": "addAmount",
          "type": "uint256"
        },
        {
          "indexed": false,
          "internalType": "uint256",
          "name": "newTotalReserves",
          "type": "uint256"
        }
      ],
      "name": "ReservesAdded",
      "type": "event"
    },
    {
      "anonymous": false,
      "inputs": [
        {
          "indexed": false,
          "internalType": "address",
          "name": "admin",
          "type": "address"
        },
        {
          "indexed": false,
          "internalType": "uint256",
          "name": "reduceAmount",
          "type": "uint256"
        },
        {
          "indexed": false,
          "internalType": "uint256",
          "name": "newTotalReserves",
          "type": "uint256"
        }
      ],
      "name": "ReservesReduced",
      "type": "event"
    },
    {
      "anonymous": false,
      "inputs": [
        {
          "indexed": true,
          "internalType": "address",
          "name": "from",
          "type": "address"
        },
        {
          "indexed": true,
          "internalType": "address",
          "name": "to",
          "type": "address"
        },
        {
          "indexed": false,
          "internalType": "uint256",
          "name": "amount",
          "type": "uint256"
        }
      ],
      "name": "Transfer",
      "type": "event"
    },
    {
      "anonymous": false,
      "inputs": [
        {
          "indexed": false,
          "internalType": "address",
          "name": "account",
          "type": "address"
        },
        {
          "indexed": false,
          "internalType": "uint256",
          "name": "newCollateralTokens",
          "type": "uint256"
        }
      ],
      "name": "UserCollateralChanged",
      "type": "event"
    },
    {
      "constant": true,
      "inputs": [],
      "name": "EVIL_SPELL",
      "outputs": [
        {
          "internalType": "address",
          "name": "",
          "type": "address"
        }
      ],
      "payable": false,
      "stateMutability": "view",
      "type": "function"
    },
    {
      "constant": false,
      "inputs": [],
      "name": "_acceptAdmin",
      "outputs": [
        {
          "internalType": "uint256",
          "name": "",
          "type": "uint256"
        }
      ],
      "payable": false,
      "stateMutability": "nonpayable",
      "type": "function"
    },
    {
      "constant": false,
      "inputs": [
        {
          "internalType": "uint256",
          "name": "addAmount",
          "type": "uint256"
        }
      ],
      "name": "_addReserves",
      "outputs": [
        {
          "internalType": "uint256",
          "name": "",
          "type": "uint256"
        }
      ],
      "payable": false,
      "stateMutability": "nonpayable",
      "type": "function"
    },
    {
      "constant": false,
      "inputs": [
        {
          "internalType": "bytes",
          "name": "data",
          "type": "bytes"
        }
      ],
      "name": "_becomeImplementation",
      "outputs": [],
      "payable": false,
      "stateMutability": "nonpayable",
      "type": "function"
    },
    {
      "constant": false,
      "inputs": [
        {
          "internalType": "uint256",
          "name": "reduceAmount",
          "type": "uint256"
        }
      ],
      "name": "_reduceReserves",
      "outputs": [
        {
          "internalType": "uint256",
          "name": "",
          "type": "uint256"
        }
      ],
      "payable": false,
      "stateMutability": "nonpayable",
      "type": "function"
    },
    {
      "constant": false,
      "inputs": [],
      "name": "_resignImplementation",
      "outputs": [],
      "payable": false,
      "stateMutability": "nonpayable",
      "type": "function"
    },
    {
      "constant": false,
      "inputs": [
        {
          "internalType": "uint256",
          "name": "newCollateralCap",
          "type": "uint256"
        }
      ],
      "name": "_setCollateralCap",
      "outputs": [],
      "payable": false,
      "stateMutability": "nonpayable",
      "type": "function"
    },
    {
      "constant": false,
      "inputs": [
        {
          "internalType": "contract ComptrollerInterface",
          "name": "newComptroller",
          "type": "address"
        }
      ],
      "name": "_setComptroller",
      "outputs": [
        {
          "internalType": "uint256",
          "name": "",
          "type": "uint256"
        }
      ],
      "payable": false,
      "stateMutability": "nonpayable",
      "type": "function"
    },
    {
      "constant": false,
      "inputs": [
        {
          "internalType": "contract InterestRateModel",
          "name": "newInterestRateModel",
          "type": "address"
        }
      ],
      "name": "_setInterestRateModel",
      "outputs": [
        {
          "internalType": "uint256",
          "name": "",
          "type": "uint256"
        }
      ],
      "payable": false,
      "stateMutability": "nonpayable",
      "type": "function"
    },
    {
      "constant": false,
      "inputs": [
        {
          "internalType": "address payable",
          "name": "newPendingAdmin",
          "type": "address"
        }
      ],
      "name": "_setPendingAdmin",
      "outputs": [
        {
          "internalType": "uint256",
          "name": "",
          "type": "uint256"
        }
      ],
      "payable": false,
      "stateMutability": "nonpayable",
      "type": "function"
    },
    {
      "constant": false,
      "inputs": [
        {
          "internalType": "uint256",
          "name": "newReserveFactorMantissa",
          "type": "uint256"
        }
      ],
      "name": "_setReserveFactor",
      "outputs": [
        {
          "internalType": "uint256",
          "name": "",
          "type": "uint256"
        }
      ],
      "payable": false,
      "stateMutability": "nonpayable",
      "type": "function"
    },
    {
      "constant": true,
      "inputs": [
        {
          "internalType": "address",
          "name": "",
          "type": "address"
        }
      ],
      "name": "accountCollateralTokens",
      "outputs": [
        {
          "internalType": "uint256",
          "name": "",
          "type": "uint256"
        }
      ],
      "payable": false,
      "stateMutability": "view",
      "type": "function"
    },
    {
      "constant": true,
      "inputs": [],
      "name": "accrualBlockNumber",
      "outputs": [
        {
          "internalType": "uint256",
          "name": "",
          "type": "uint256"
        }
      ],
      "payable": false,
      "stateMutability": "view",
      "type": "function"
    },
    {
      "constant": false,
      "inputs": [],
      "name": "accrueInterest",
      "outputs": [
        {
          "internalType": "uint256",
          "name": "",
          "type": "uint256"
        }
      ],
      "payable": false,
      "stateMutability": "nonpayable",
      "type": "function"
    },
    {
      "constant": true,
      "inputs": [],
      "name": "admin",
      "outputs": [
        {
          "internalType": "address payable",
          "name": "",
          "type": "address"
        }
      ],
      "payable": false,
      "stateMutability": "view",
      "type": "function"
    },
    {
      "constant": true,
      "inputs": [
        {
          "internalType": "address",
          "name": "owner",
          "type": "address"
        },
        {
          "internalType": "address",
          "name": "spender",
          "type": "address"
        }
      ],
      "name": "allowance",
      "outputs": [
        {
          "internalType": "uint256",
          "name": "",
          "type": "uint256"
        }
      ],
      "payable": false,
      "stateMutability": "view",
      "type": "function"
    },
    {
      "constant": false,
      "inputs": [
        {
          "internalType": "address",
          "name": "spender",
          "type": "address"
        },
        {
          "internalType": "uint256",
          "name": "amount",
          "type": "uint256"
        }
      ],
      "name": "approve",
      "outputs": [
        {
          "internalType": "bool",
          "name": "",
          "type": "bool"
        }
      ],
      "payable": false,
      "stateMutability": "nonpayable",
      "type": "function"
    },
    {
      "constant": true,
      "inputs": [
        {
          "internalType": "address",
          "name": "owner",
          "type": "address"
        }
      ],
      "name": "balanceOf",
      "outputs": [
        {
          "internalType": "uint256",
          "name": "",
          "type": "uint256"
        }
      ],
      "payable": false,
      "stateMutability": "view",
      "type": "function"
    },
    {
      "constant": false,
      "inputs": [
        {
          "internalType": "address",
          "name": "owner",
          "type": "address"
        }
      ],
      "name": "balanceOfUnderlying",
      "outputs": [
        {
          "internalType": "uint256",
          "name": "",
          "type": "uint256"
        }
      ],
      "payable": false,
      "stateMutability": "nonpayable",
      "type": "function"
    },
    {
      "constant": false,
      "inputs": [
        {
          "internalType": "uint256",
          "name": "borrowAmount",
          "type": "uint256"
        }
      ],
      "name": "borrow",
      "outputs": [
        {
          "internalType": "uint256",
          "name": "",
          "type": "uint256"
        }
      ],
      "payable": false,
      "stateMutability": "nonpayable",
      "type": "function"
    },
    {
      "constant": false,
      "inputs": [
        {
          "internalType": "address",
          "name": "account",
          "type": "address"
        }
      ],
      "name": "borrowBalanceCurrent",
      "outputs": [
        {
          "internalType": "uint256",
          "name": "",
          "type": "uint256"
        }
      ],
      "payable": false,
      "stateMutability": "nonpayable",
      "type": "function"
    },
    {
      "constant": true,
      "inputs": [
        {
          "internalType": "address",
          "name": "account",
          "type": "address"
        }
      ],
      "name": "borrowBalanceStored",
      "outputs": [
        {
          "internalType": "uint256",
          "name": "",
          "type": "uint256"
        }
      ],
      "payable": false,
      "stateMutability": "view",
      "type": "function"
    },
    {
      "constant": true,
      "inputs": [],
      "name": "borrowIndex",
      "outputs": [
        {
          "internalType": "uint256",
          "name": "",
          "type": "uint256"
        }
      ],
      "payable": false,
      "stateMutability": "view",
      "type": "function"
    },
    {
      "constant": true,
      "inputs": [],
      "name": "borrowRatePerBlock",
      "outputs": [
        {
          "internalType": "uint256",
          "name": "",
          "type": "uint256"
        }
      ],
      "payable": false,
      "stateMutability": "view",
      "type": "function"
    },
    {
      "constant": true,
      "inputs": [],
      "name": "collateralCap",
      "outputs": [
        {
          "internalType": "uint256",
          "name": "",
          "type": "uint256"
        }
      ],
      "payable": false,
      "stateMutability": "view",
      "type": "function"
    },
    {
      "constant": true,
      "inputs": [],
      "name": "comptroller",
      "outputs": [
        {
          "internalType": "contract ComptrollerInterface",
          "name": "",
          "type": "address"
        }
      ],
      "payable": false,
      "stateMutability": "view",
      "type": "function"
    },
    {
      "constant": true,
      "inputs": [],
      "name": "decimals",
      "outputs": [
        {
          "internalType": "uint8",
          "name": "",
          "type": "uint8"
        }
      ],
      "payable": false,
      "stateMutability": "view",
      "type": "function"
    },
    {
      "constant": true,
      "inputs": [
        {
          "internalType": "uint256",
          "name": "change",
          "type": "uint256"
        },
        {
          "internalType": "bool",
          "name": "repay",
          "type": "bool"
        }
      ],
      "name": "estimateBorrowRatePerBlockAfterChange",
      "outputs": [
        {
          "internalType": "uint256",
          "name": "",
          "type": "uint256"
        }
      ],
      "payable": false,
      "stateMutability": "view",
      "type": "function"
    },
    {
      "constant": true,
      "inputs": [
        {
          "internalType": "uint256",
          "name": "change",
          "type": "uint256"
        },
        {
          "internalType": "bool",
          "name": "repay",
          "type": "bool"
        }
      ],
      "name": "estimateSupplyRatePerBlockAfterChange",
      "outputs": [
        {
          "internalType": "uint256",
          "name": "",
          "type": "uint256"
        }
      ],
      "payable": false,
      "stateMutability": "view",
      "type": "function"
    },
    {
      "constant": false,
      "inputs": [],
      "name": "exchangeRateCurrent",
      "outputs": [
        {
          "internalType": "uint256",
          "name": "",
          "type": "uint256"
        }
      ],
      "payable": false,
      "stateMutability": "nonpayable",
      "type": "function"
    },
    {
      "constant": true,
      "inputs": [],
      "name": "exchangeRateStored",
      "outputs": [
        {
          "internalType": "uint256",
          "name": "",
          "type": "uint256"
        }
      ],
      "payable": false,
      "stateMutability": "view",
      "type": "function"
    },
    {
      "constant": true,
      "inputs": [
        {
          "internalType": "address",
          "name": "token",
          "type": "address"
        },
        {
          "internalType": "uint256",
          "name": "amount",
          "type": "uint256"
        }
      ],
      "name": "flashFee",
      "outputs": [
        {
          "internalType": "uint256",
          "name": "",
          "type": "uint256"
        }
      ],
      "payable": false,
      "stateMutability": "view",
      "type": "function"
    },
    {
      "constant": true,
      "inputs": [],
      "name": "flashFeeBips",
      "outputs": [
        {
          "internalType": "uint256",
          "name": "",
          "type": "uint256"
        }
      ],
      "payable": false,
      "stateMutability": "view",
      "type": "function"
    },
    {
      "constant": false,
      "inputs": [
        {
          "internalType": "contract ERC3156FlashBorrowerInterface",
          "name": "receiver",
          "type": "address"
        },
        {
          "internalType": "address",
          "name": "token",
          "type": "address"
        },
        {
          "internalType": "uint256",
          "name": "amount",
          "type": "uint256"
        },
        {
          "internalType": "bytes",
          "name": "data",
          "type": "bytes"
        }
      ],
      "name": "flashLoan",
      "outputs": [
        {
          "internalType": "bool",
          "name": "",
          "type": "bool"
        }
      ],
      "payable": false,
      "stateMutability": "nonpayable",
      "type": "function"
    },
    {
      "constant": true,
      "inputs": [
        {
          "internalType": "address",
          "name": "account",
          "type": "address"
        }
      ],
      "name": "getAccountSnapshot",
      "outputs": [
        {
          "internalType": "uint256",
          "name": "",
          "type": "uint256"
        },
        {
          "internalType": "uint256",
          "name": "",
          "type": "uint256"
        },
        {
          "internalType": "uint256",
          "name": "",
          "type": "uint256"
        },
        {
          "internalType": "uint256",
          "name": "",
          "type": "uint256"
        }
      ],
      "payable": false,
      "stateMutability": "view",
      "type": "function"
    },
    {
      "constant": true,
      "inputs": [],
      "name": "getCash",
      "outputs": [
        {
          "internalType": "uint256",
          "name": "",
          "type": "uint256"
        }
      ],
      "payable": false,
      "stateMutability": "view",
      "type": "function"
    },
    {
      "constant": false,
      "inputs": [],
      "name": "gulp",
      "outputs": [],
      "payable": false,
      "stateMutability": "nonpayable",
      "type": "function"
    },
    {
      "constant": true,
      "inputs": [],
      "name": "implementation",
      "outputs": [
        {
          "internalType": "address",
          "name": "",
          "type": "address"
        }
      ],
      "payable": false,
      "stateMutability": "view",
      "type": "function"
    },
    {
      "constant": false,
      "inputs": [
        {
          "internalType": "address",
          "name": "underlying_",
          "type": "address"
        },
        {
          "internalType": "contract ComptrollerInterface",
          "name": "comptroller_",
          "type": "address"
        },
        {
          "internalType": "contract InterestRateModel",
          "name": "interestRateModel_",
          "type": "address"
        },
        {
          "internalType": "uint256",
          "name": "initialExchangeRateMantissa_",
          "type": "uint256"
        },
        {
          "internalType": "string",
          "name": "name_",
          "type": "string"
        },
        {
          "internalType": "string",
          "name": "symbol_",
          "type": "string"
        },
        {
          "internalType": "uint8",
          "name": "decimals_",
          "type": "uint8"
        }
      ],
      "name": "initialize",
      "outputs": [],
      "payable": false,
      "stateMutability": "nonpayable",
      "type": "function"
    },
    {
      "constant": false,
      "inputs": [
        {
          "internalType": "contract ComptrollerInterface",
          "name": "comptroller_",
          "type": "address"
        },
        {
          "internalType": "contract InterestRateModel",
          "name": "interestRateModel_",
          "type": "address"
        },
        {
          "internalType": "uint256",
          "name": "initialExchangeRateMantissa_",
          "type": "uint256"
        },
        {
          "internalType": "string",
          "name": "name_",
          "type": "string"
        },
        {
          "internalType": "string",
          "name": "symbol_",
          "type": "string"
        },
        {
          "internalType": "uint8",
          "name": "decimals_",
          "type": "uint8"
        }
      ],
      "name": "initialize",
      "outputs": [],
      "payable": false,
      "stateMutability": "nonpayable",
      "type": "function"
    },
    {
      "constant": true,
      "inputs": [],
      "name": "interestRateModel",
      "outputs": [
        {
          "internalType": "contract InterestRateModel",
          "name": "",
          "type": "address"
        }
      ],
      "payable": false,
      "stateMutability": "view",
      "type": "function"
    },
    {
      "constant": true,
      "inputs": [],
      "name": "internalCash",
      "outputs": [
        {
          "internalType": "uint256",
          "name": "",
          "type": "uint256"
        }
      ],
      "payable": false,
      "stateMutability": "view",
      "type": "function"
    },
    {
      "constant": true,
      "inputs": [],
      "name": "isCToken",
      "outputs": [
        {
          "internalType": "bool",
          "name": "",
          "type": "bool"
        }
      ],
      "payable": false,
      "stateMutability": "view",
      "type": "function"
    },
    {
      "constant": true,
      "inputs": [
        {
          "internalType": "address",
          "name": "",
          "type": "address"
        }
      ],
      "name": "isCollateralTokenInit",
      "outputs": [
        {
          "internalType": "bool",
          "name": "",
          "type": "bool"
        }
      ],
      "payable": false,
      "stateMutability": "view",
      "type": "function"
    },
    {
      "constant": false,
      "inputs": [
        {
          "internalType": "address",
          "name": "borrower",
          "type": "address"
        },
        {
          "internalType": "uint256",
          "name": "repayAmount",
          "type": "uint256"
        },
        {
          "internalType": "contract CTokenInterface",
          "name": "cTokenCollateral",
          "type": "address"
        }
      ],
      "name": "liquidateBorrow",
      "outputs": [
        {
          "internalType": "uint256",
          "name": "",
          "type": "uint256"
        }
      ],
      "payable": false,
      "stateMutability": "nonpayable",
      "type": "function"
    },
    {
      "constant": true,
      "inputs": [
        {
          "internalType": "address",
          "name": "token",
          "type": "address"
        }
      ],
      "name": "maxFlashLoan",
      "outputs": [
        {
          "internalType": "uint256",
          "name": "",
          "type": "uint256"
        }
      ],
      "payable": false,
      "stateMutability": "view",
      "type": "function"
    },
    {
      "constant": false,
      "inputs": [
        {
          "internalType": "uint256",
          "name": "mintAmount",
          "type": "uint256"
        }
      ],
      "name": "mint",
      "outputs": [
        {
          "internalType": "uint256",
          "name": "",
          "type": "uint256"
        }
      ],
      "payable": false,
      "stateMutability": "nonpayable",
      "type": "function"
    },
    {
      "constant": true,
      "inputs": [],
      "name": "name",
      "outputs": [
        {
          "internalType": "string",
          "name": "",
          "type": "string"
        }
      ],
      "payable": false,
      "stateMutability": "view",
      "type": "function"
    },
    {
      "constant": true,
      "inputs": [],
      "name": "pendingAdmin",
      "outputs": [
        {
          "internalType": "address payable",
          "name": "",
          "type": "address"
        }
      ],
      "payable": false,
      "stateMutability": "view",
      "type": "function"
    },
    {
      "constant": false,
      "inputs": [
        {
          "internalType": "uint256",
          "name": "redeemTokens",
          "type": "uint256"
        }
      ],
      "name": "redeem",
      "outputs": [
        {
          "internalType": "uint256",
          "name": "",
          "type": "uint256"
        }
      ],
      "payable": false,
      "stateMutability": "nonpayable",
      "type": "function"
    },
    {
      "constant": false,
      "inputs": [
        {
          "internalType": "uint256",
          "name": "redeemAmount",
          "type": "uint256"
        }
      ],
      "name": "redeemUnderlying",
      "outputs": [
        {
          "internalType": "uint256",
          "name": "",
          "type": "uint256"
        }
      ],
      "payable": false,
      "stateMutability": "nonpayable",
      "type": "function"
    },
    {
      "constant": false,
      "inputs": [
        {
          "internalType": "address",
          "name": "account",
          "type": "address"
        }
      ],
      "name": "registerCollateral",
      "outputs": [
        {
          "internalType": "uint256",
          "name": "",
          "type": "uint256"
        }
      ],
      "payable": false,
      "stateMutability": "nonpayable",
      "type": "function"
    },
    {
      "constant": false,
      "inputs": [
        {
          "internalType": "uint256",
          "name": "repayAmount",
          "type": "uint256"
        }
      ],
      "name": "repayBorrow",
      "outputs": [
        {
          "internalType": "uint256",
          "name": "",
          "type": "uint256"
        }
      ],
      "payable": false,
      "stateMutability": "nonpayable",
      "type": "function"
    },
    {
      "constant": false,
      "inputs": [
        {
          "internalType": "address",
          "name": "borrower",
          "type": "address"
        },
        {
          "internalType": "uint256",
          "name": "repayAmount",
          "type": "uint256"
        }
      ],
      "name": "repayBorrowBehalf",
      "outputs": [
        {
          "internalType": "uint256",
          "name": "",
          "type": "uint256"
        }
      ],
      "payable": false,
      "stateMutability": "nonpayable",
      "type": "function"
    },
    {
      "constant": true,
      "inputs": [],
      "name": "reserveFactorMantissa",
      "outputs": [
        {
          "internalType": "uint256",
          "name": "",
          "type": "uint256"
        }
      ],
      "payable": false,
      "stateMutability": "view",
      "type": "function"
    },
    {
      "constant": false,
      "inputs": [
        {
          "internalType": "address",
          "name": "liquidator",
          "type": "address"
        },
        {
          "internalType": "address",
          "name": "borrower",
          "type": "address"
        },
        {
          "internalType": "uint256",
          "name": "seizeTokens",
          "type": "uint256"
        }
      ],
      "name": "seize",
      "outputs": [
        {
          "internalType": "uint256",
          "name": "",
          "type": "uint256"
        }
      ],
      "payable": false,
      "stateMutability": "nonpayable",
      "type": "function"
    },
    {
      "constant": true,
      "inputs": [],
      "name": "supplyRatePerBlock",
      "outputs": [
        {
          "internalType": "uint256",
          "name": "",
          "type": "uint256"
        }
      ],
      "payable": false,
      "stateMutability": "view",
      "type": "function"
    },
    {
      "constant": true,
      "inputs": [],
      "name": "symbol",
      "outputs": [
        {
          "internalType": "string",
          "name": "",
          "type": "string"
        }
      ],
      "payable": false,
      "stateMutability": "view",
      "type": "function"
    },
    {
      "constant": true,
      "inputs": [],
      "name": "totalBorrows",
      "outputs": [
        {
          "internalType": "uint256",
          "name": "",
          "type": "uint256"
        }
      ],
      "payable": false,
      "stateMutability": "view",
      "type": "function"
    },
    {
      "constant": false,
      "inputs": [],
      "name": "totalBorrowsCurrent",
      "outputs": [
        {
          "internalType": "uint256",
          "name": "",
          "type": "uint256"
        }
      ],
      "payable": false,
      "stateMutability": "nonpayable",
      "type": "function"
    },
    {
      "constant": true,
      "inputs": [],
      "name": "totalCollateralTokens",
      "outputs": [
        {
          "internalType": "uint256",
          "name": "",
          "type": "uint256"
        }
      ],
      "payable": false,
      "stateMutability": "view",
      "type": "function"
    },
    {
      "constant": true,
      "inputs": [],
      "name": "totalReserves",
      "outputs": [
        {
          "internalType": "uint256",
          "name": "",
          "type": "uint256"
        }
      ],
      "payable": false,
      "stateMutability": "view",
      "type": "function"
    },
    {
      "constant": true,
      "inputs": [],
      "name": "totalSupply",
      "outputs": [
        {
          "internalType": "uint256",
          "name": "",
          "type": "uint256"
        }
      ],
      "payable": false,
      "stateMutability": "view",
      "type": "function"
    },
    {
      "constant": false,
      "inputs": [
        {
          "internalType": "address",
          "name": "dst",
          "type": "address"
        },
        {
          "internalType": "uint256",
          "name": "amount",
          "type": "uint256"
        }
      ],
      "name": "transfer",
      "outputs": [
        {
          "internalType": "bool",
          "name": "",
          "type": "bool"
        }
      ],
      "payable": false,
      "stateMutability": "nonpayable",
      "type": "function"
    },
    {
      "constant": false,
      "inputs": [
        {
          "internalType": "address",
          "name": "src",
          "type": "address"
        },
        {
          "internalType": "address",
          "name": "dst",
          "type": "address"
        },
        {
          "internalType": "uint256",
          "name": "amount",
          "type": "uint256"
        }
      ],
      "name": "transferFrom",
      "outputs": [
        {
          "internalType": "bool",
          "name": "",
          "type": "bool"
        }
      ],
      "payable": false,
      "stateMutability": "nonpayable",
      "type": "function"
    },
    {
      "constant": true,
      "inputs": [],
      "name": "underlying",
      "outputs": [
        {
          "internalType": "address",
          "name": "",
          "type": "address"
        }
      ],
      "payable": false,
      "stateMutability": "view",
      "type": "function"
    },
    {
      "constant": false,
      "inputs": [
        {
          "internalType": "address",
          "name": "account",
          "type": "address"
        }
      ],
      "name": "unregisterCollateral",
      "outputs": [],
      "payable": false,
      "stateMutability": "nonpayable",
      "type": "function"
    }
  ],
  "transactionHash": "0x9b3c13a6dce4e1f04c639bd1e208e384e8785c9245f47ce044ca23b6f72f9ef3",
  "args": [],
  "solcInputHash": "9511343eded638a41755ae2ea77da5fe",
  "bytecode": "0x608060405234801561001057600080fd5b50615fb580620000216000396000f3fe608060405234801561001057600080fd5b50600436106103f15760003560e01c8063852a12e311610215578063c37f68e211610125578063e9c714f2116100b8578063f5e3c46211610087578063f5e3c46214610e0b578063f851a44014610e41578063f8f9da2814610e49578063fca7820b14610e51578063fe9c44ae14610e6e576103f1565b8063e9c714f214610dcd578063ea11eea414610dd5578063f2b3abbd14610ddd578063f3fdb15a14610e03576103f1565b8063d2bb18e9116100f4578063d2bb18e914610d4e578063d9d98ce414610d56578063db006a7514610d82578063dd62ed3e14610d9f576103f1565b8063c37f68e214610cb7578063c5ebeaec14610d03578063c8c2f68e14610d20578063d240d64a14610d28576103f1565b806399d8c1b4116101a8578063aa5af0fd11610177578063aa5af0fd14610c43578063ae9d70b014610c4b578063b2a02ff114610c53578063b71d1a0c14610c89578063bd6d894d14610caf576103f1565b806399d8c1b414610aa4578063a0712d6814610bf2578063a6afed9514610c0f578063a9059cbb14610c17576103f1565b80638f840ddd116101e45780638f840ddd14610a6657806394909e6214610a6e57806395d89b4114610a7657806395dd919314610a7e576103f1565b8063852a12e3146109d757806385d8a2e6146109f45780638897bd8514610a1a5780638b35776b14610a40576103f1565b8063313ce567116103105780635cffe9de116102a35780636c540baf116102725780636c540baf1461097c5780636f307dc31461098457806370a082311461098c57806373acee98146109b257806381cf00eb146109ba576103f1565b80635cffe9de146108a35780635fe3b56714610931578063601a0bf114610939578063613255ab14610956576103f1565b80634576b5db116102df5780634576b5db146107c957806347bd3718146107ef57806356e67728146107f75780635c60da1b1461089b576103f1565b8063313ce567146107605780633af9e6691461077e5780633b1d21a2146107a45780633e941010146107ac576103f1565b806318160ddd1161038857806322abdbf51161035757806322abdbf5146106d257806323b872dd146106da5780632608f81814610710578063267822471461073c576103f1565b806318160ddd14610564578063182df0f51461056c57806319a4dd3c146105745780631a31d4651461057c576103f1565b80630f226888116103c45780630f22688814610507578063153ab5051461052c578063173b99041461053657806317bfdfbc1461053e576103f1565b806305dd00b8146103f657806306fdde031461042d578063095ea7b3146104aa5780630e752702146104ea575b600080fd5b61041b6004803603604081101561040c57600080fd5b50803590602001351515610e76565b60408051918252519081900360200190f35b610435610f68565b6040805160208082528351818301528351919283929083019185019080838360005b8381101561046f578181015183820152602001610457565b50505050905090810190601f16801561049c5780820380516001836020036101000a031916815260200191505b509250505060405180910390f35b6104d6600480360360408110156104c057600080fd5b506001600160a01b038135169060200135610ff5565b604080519115158252519081900360200190f35b61041b6004803603602081101561050057600080fd5b5035611060565b61041b6004803603604081101561051d57600080fd5b508035906020013515156110b9565b6105346111ee565b005b61041b611241565b61041b6004803603602081101561055457600080fd5b50356001600160a01b0316611247565b61041b6112bc565b61041b6112c2565b61041b6112d2565b610534600480360360e081101561059257600080fd5b6001600160a01b03823581169260208101358216926040820135909216916060820135919081019060a081016080820135600160201b8111156105d457600080fd5b8201836020820111156105e657600080fd5b803590602001918460018302840111600160201b8311171561060757600080fd5b91908080601f0160208091040260200160405190810160405280939291908181526020018383808284376000920191909152509295949360208101935035915050600160201b81111561065957600080fd5b82018360208201111561066b57600080fd5b803590602001918460018302840111600160201b8311171561068c57600080fd5b91908080601f0160208091040260200160405190810160405280939291908181526020018383808284376000920191909152509295505050903560ff1691506112d89050565b61041b611377565b6104d6600480360360608110156106f057600080fd5b506001600160a01b0381358116916020810135909116906040013561137d565b61041b6004803603604081101561072657600080fd5b506001600160a01b0381351690602001356113ef565b610744611451565b604080516001600160a01b039092168252519081900360200190f35b610768611460565b6040805160ff9092168252519081900360200190f35b61041b6004803603602081101561079457600080fd5b50356001600160a01b0316611469565b61041b6114b8565b61041b600480360360208110156107c257600080fd5b50356114c2565b61041b600480360360208110156107df57600080fd5b50356001600160a01b0316611517565b61041b61165b565b6105346004803603602081101561080d57600080fd5b810190602081018135600160201b81111561082757600080fd5b82018360208201111561083957600080fd5b803590602001918460018302840111600160201b8311171561085a57600080fd5b91908080601f016020809104026020016040519081016040528093929190818152602001838380828437600092019190915250929550611661945050505050565b61074461172b565b6104d6600480360360808110156108b957600080fd5b6001600160a01b03823581169260208101359091169160408201359190810190608081016060820135600160201b8111156108f357600080fd5b82018360208201111561090557600080fd5b803590602001918460018302840111600160201b8311171561092657600080fd5b50909250905061173a565b610744611c13565b61041b6004803603602081101561094f57600080fd5b5035611c22565b61041b6004803603602081101561096c57600080fd5b50356001600160a01b0316611c83565b61041b611d48565b610744611d4e565b61041b600480360360208110156109a257600080fd5b50356001600160a01b0316611d5d565b61041b611d78565b610534600480360360208110156109d057600080fd5b5035611de4565b61041b600480360360208110156109ed57600080fd5b5035611e78565b6104d660048036036020811015610a0a57600080fd5b50356001600160a01b0316611ed7565b61041b60048036036020811015610a3057600080fd5b50356001600160a01b0316611eec565b61053460048036036020811015610a5657600080fd5b50356001600160a01b0316611f83565b61041b6120d9565b6105346120df565b610435612174565b61041b60048036036020811015610a9457600080fd5b50356001600160a01b03166121cc565b610534600480360360c0811015610aba57600080fd5b6001600160a01b03823581169260208101359091169160408201359190810190608081016060820135600160201b811115610af457600080fd5b820183602082011115610b0657600080fd5b803590602001918460018302840111600160201b83111715610b2757600080fd5b91908080601f0160208091040260200160405190810160405280939291908181526020018383808284376000920191909152509295949360208101935035915050600160201b811115610b7957600080fd5b820183602082011115610b8b57600080fd5b803590602001918460018302840111600160201b83111715610bac57600080fd5b91908080601f0160208091040260200160405190810160405280939291908181526020018383808284376000920191909152509295505050903560ff1691506121d79050565b61041b60048036036020811015610c0857600080fd5b50356123d3565b61041b612425565b6104d660048036036040811015610c2d57600080fd5b506001600160a01b03813516906020013561263b565b61041b6126ac565b61041b6126b2565b61041b60048036036060811015610c6957600080fd5b506001600160a01b0381358116916020810135909116906040013561279c565b61041b60048036036020811015610c9f57600080fd5b50356001600160a01b031661280d565b61041b612899565b610cdd60048036036020811015610ccd57600080fd5b50356001600160a01b031661290b565b604080519485526020850193909352838301919091526060830152519081900360800190f35b61041b60048036036020811015610d1957600080fd5b5035612947565b610744612996565b61041b60048036036020811015610d3e57600080fd5b50356001600160a01b03166129ae565b61041b6129c0565b61041b60048036036040811015610d6c57600080fd5b506001600160a01b0381351690602001356129c6565b61041b60048036036020811015610d9857600080fd5b5035612b06565b61041b60048036036040811015610db557600080fd5b506001600160a01b0381358116916020013516612b55565b61041b612b80565b61041b612c83565b61041b60048036036020811015610df357600080fd5b50356001600160a01b0316612c88565b610744612c9c565b61041b60048036036060811015610e2157600080fd5b506001600160a01b03813581169160208101359160409091013516612cab565b610744612d19565b61041b612d2d565b61041b60048036036020811015610e6757600080fd5b5035612dcd565b6104d6612e2e565b60008060008315610ea757610e92610e8c612e33565b86612e39565b9150610ea0600b5486612e6f565b9050610ec9565b610eb8610eb2612e33565b86612e6f565b9150610ec6600b5486612e39565b90505b6006546001600160a01b03166315f2405383610eec84610ee7612ea9565b612e6f565b600c546040518463ffffffff1660e01b815260040180848152602001838152602001828152602001935050505060206040518083038186803b158015610f3157600080fd5b505afa158015610f45573d6000803e3d6000fd5b505050506040513d6020811015610f5b57600080fd5b5051925050505b92915050565b60018054604080516020600284861615610100026000190190941693909304601f81018490048402820184019092528181529291830182828015610fed5780601f10610fc257610100808354040283529160200191610fed565b820191906000526020600020905b815481529060010190602001808311610fd057829003601f168201915b505050505081565b336000818152600f602090815260408083206001600160a01b03871680855290835281842086905581518681529151939493909284927f8c5be1e5ebec7d5bd14f71427d1e84f3dd0314c0f7b2291e5b200ac8c7c3b925929081900390910190a35060019392505050565b60008061106e836000612eeb565b50905080156110b3576040805162461bcd60e51b815260206004820152600c60248201526b1c995c185e4819985a5b195960a21b604482015290519081900360640190fd5b50919050565b600080600083156110e4576110cf610e8c612e33565b91506110dd600b5486612e6f565b9050611100565b6110ef610eb2612e33565b91506110fd600b5486612e39565b90505b600061110e82610ee7612ea9565b600654600c5460085460408051635c0b440b60e11b8152600481018990526024810186905260448101939093526064830191909152519293506000926001600160a01b039092169163b816881691608480820192602092909190829003018186803b15801561117c57600080fd5b505afa158015611190573d6000803e3d6000fd5b505050506040513d60208110156111a657600080fd5b5051905060006111ca826111c56111bd8887612e39565b600c54612e6f565b612f6b565b90506111e2816111dd6111bd8888612e39565b612fad565b98975050505050505050565b60035461010090046001600160a01b0316331461123f576040805162461bcd60e51b815260206004820152600a60248201526961646d696e206f6e6c7960b01b604482015290519081900360640190fd5b565b60085481565b6000805460ff1661128c576040805162461bcd60e51b815260206004820152600a6024820152691c994b595b9d195c995960b21b604482015290519081900360640190fd5b6000805460ff1916905561129e612425565b506112a8826121cc565b90506000805460ff19166001179055919050565b600d5481565b60006112cc612fe0565b90505b90565b60145481565b6112e68686868686866121d7565b601180546001600160a01b0319166001600160a01b038981169190911791829055604080516318160ddd60e01b8152905192909116916318160ddd91600480820192602092909190829003018186803b15801561134257600080fd5b505afa158015611356573d6000803e3d6000fd5b505050506040513d602081101561136c57600080fd5b505050505050505050565b60135481565b6000805460ff166113c2576040805162461bcd60e51b815260206004820152600a6024820152691c994b595b9d195c995960b21b604482015290519081900360640190fd5b6000805460ff191681556113d83386868661303e565b1490506000805460ff191660011790559392505050565b6000806113fe84846000613453565b509050801561144a576040805162461bcd60e51b81526020600482015260136024820152721c995c185e4818995a185b198819985a5b1959606a1b604482015290519081900360640190fd5b5092915050565b6004546001600160a01b031681565b60035460ff1681565b6000611473615db8565b6040518060200160405280611486612899565b90526001600160a01b0384166000908152600e60205260409020549091506114af9082906134d4565b9150505b919050565b60006112cc612e33565b60006114cf8260006134f3565b156114b3576040805162461bcd60e51b8152602060048201526013602482015272185919081c995cd95c9d995cc819985a5b1959606a1b604482015290519081900360640190fd5b60035460009061010090046001600160a01b031633146115445761153d6001602961356e565b90506114b3565b60055460408051623f1ee960e11b815290516001600160a01b0392831692851691627e3dd2916004808301926020929190829003018186803b15801561158957600080fd5b505afa15801561159d573d6000803e3d6000fd5b505050506040513d60208110156115b357600080fd5b50516115f8576040805162461bcd60e51b815260206004820152600f60248201526e3737ba1031b7b6b83a3937b63632b960891b604482015290519081900360640190fd5b600580546001600160a01b0319166001600160a01b03858116918217909255604080519284168352602083019190915280517f7ac369dbd14fa5ea3f473ed67cc9d598964a77501540ba6751eb0b3decf5870d9281900390910190a160006114af565b600b5481565b60035461010090046001600160a01b031633146116b2576040805162461bcd60e51b815260206004820152600a60248201526961646d696e206f6e6c7960b01b604482015290519081900360640190fd5b6116ba6135d4565b601355600554604080516344e3de7360e01b81523060048201526001602482015290516001600160a01b03909216916344e3de739160448082019260009290919082900301818387803b15801561171057600080fd5b505af1158015611724573d6000803e3d6000fd5b5050505050565b6012546001600160a01b031681565b6000805460ff1661177f576040805162461bcd60e51b815260206004820152600a6024820152691c994b595b9d195c995960b21b604482015290519081900360640190fd5b6000805460ff19169055836117cc576040805162461bcd60e51b815260206004820152600e60248201526d1a5b9d985b1a5908185b5bdd5b9d60921b604482015290519081900360640190fd5b6011546001600160a01b03868116911614611825576040805162461bcd60e51b8152602060048201526014602482015273756e737570706f727465642063757272656e637960601b604482015290519081900360640190fd5b61182d612425565b506005546040516358d5bc7360e11b815230600482018181526001600160a01b038a81166024850152604484018990526080606485019081526084850188905294169363b1ab78e6938b928a928a928a92919060a401848480828437600081840152601f19601f820116905080830192505050965050505050505060206040518083038186803b1580156118c057600080fd5b505afa1580156118d4573d6000803e3d6000fd5b505050506040513d60208110156118ea57600080fd5b5051611930576040805162461bcd60e51b815260206004820152601060248201526f199b185cda1b1bd85b881c185d5cd95960821b604482015290519081900360640190fd5b600061193a6135d4565b90506000611946612e33565b905085811015611991576040805162461bcd60e51b81526020600482015260116024820152700d2dce6eaccccd2c6d2cadce840c6c2e6d607b1b604482015290519081900360640190fd5b600061199d8888613654565b90506119ab8988600061366c565b6119b7600b5488612e39565b600b55604051806029615f1882396040519081900360290181206011546323e30c8b60e01b835233600484018181526001600160a01b0392831660248601819052604486018e90526064860188905260a06084870190815260a487018d9052949650928f16946323e30c8b949293928e9289928f928f929160c401848480828437600081840152601f19601f820116905080830192505050975050505050505050602060405180830381600087803b158015611a7257600080fd5b505af1158015611a86573d6000803e3d6000fd5b505050506040513d6020811015611a9c57600080fd5b505114611ae2576040805162461bcd60e51b815260206004820152600f60248201526e18d85b1b189858dac819985a5b1959608a1b604482015290519081900360640190fd5b6000611aee8883612e39565b9050611afc8a826000613765565b506000611b076135d4565b9050611b138584612e39565b8114611b5d576040805162461bcd60e51b8152602060048201526014602482015273696e636f6e73697374656e742062616c616e636560601b604482015290519081900360640190fd5b6000611b796040518060200160405280600854815250856134d4565b9050611b87600c5482612e39565b600c55611b948585612e39565b601355600b54611ba4908b612e6f565b600b55604080518b81526020810186905280820183905290516001600160a01b038e16917f33c8e097c526683cbdb29adf782fac95e9d0fbe0ed635c13d8c75fdf726557d9919081900360600190a2600196505050505050506000805460ff1916600117905595945050505050565b6005546001600160a01b031681565b6000805460ff16611c67576040805162461bcd60e51b815260206004820152600a6024820152691c994b595b9d195c995960b21b604482015290519081900360640190fd5b6000805460ff19169055611c79612425565b506112a882613968565b60115460009081906001600160a01b038481169116148015611d345750600554604080516358d5bc7360e11b81523060048201526000602482018190526044820185905260806064830152608482015290516001600160a01b039092169163b1ab78e69160c480820192602092909190829003018186803b158015611d0757600080fd5b505afa158015611d1b573d6000803e3d6000fd5b505050506040513d6020811015611d3157600080fd5b50515b15610f6257611d41612e33565b9392505050565b60095481565b6011546001600160a01b031681565b6001600160a01b03166000908152600e602052604090205490565b6000805460ff16611dbd576040805162461bcd60e51b815260206004820152600a6024820152691c994b595b9d195c995960b21b604482015290519081900360640190fd5b6000805460ff19169055611dcf612425565b5050600b546000805460ff1916600117905590565b60035461010090046001600160a01b03163314611e35576040805162461bcd60e51b815260206004820152600a60248201526961646d696e206f6e6c7960b01b604482015290519081900360640190fd5b6017819055604080513081526020810183905281517f01b7c780e0f385803fe80cbe0efc086d13b8eb443a2ce43e2061fd92bc0e34f1929181900390910190a150565b6000611e85826000613a6e565b156114b3576040805162461bcd60e51b815260206004820152601860248201527f72656465656d20756e6465726c79696e67206661696c65640000000000000000604482015290519081900360640190fd5b60166020526000908152604090205460ff1681565b6000611ef782613ae8565b6005546001600160a01b03163314611f49576040805162461bcd60e51b815260206004820152601060248201526f636f6d7074726f6c6c6572206f6e6c7960801b604482015290519081900360640190fd5b6001600160a01b0382166000908152600e60209081526040808320546015909252822054611f779190612e6f565b90506114af8382613c2a565b611f8c81613ae8565b6005546001600160a01b03163314611fde576040805162461bcd60e51b815260206004820152601060248201526f636f6d7074726f6c6c6572206f6e6c7960801b604482015290519081900360640190fd5b6005546001600160a01b03828116600081815260156020908152604080832054815163eabe7d9160e01b81523060048201526024810195909552604485015251939094169363eabe7d9193606480850194929391928390030190829087803b15801561204957600080fd5b505af115801561205d573d6000803e3d6000fd5b505050506040513d602081101561207357600080fd5b5051156120b2576040805162461bcd60e51b81526020600482015260086024820152671c995a9958dd195960c21b604482015290519081900360640190fd5b6001600160a01b0381166000908152601560205260409020546120d6908290613d7d565b50565b600c5481565b60005460ff16612123576040805162461bcd60e51b815260206004820152600a6024820152691c994b595b9d195c995960b21b604482015290519081900360640190fd5b6000805460ff191681556121356135d4565b90506000612141612e33565b9050600061214f8383612e6f565b905061215d600c5482612e39565b600c5550506013556000805460ff19166001179055565b6002805460408051602060018416156101000260001901909316849004601f81018490048402820184019092528181529291830182828015610fed5780601f10610fc257610100808354040283529160200191610fed565b6000610f6282613e03565b60035461010090046001600160a01b03163314612228576040805162461bcd60e51b815260206004820152600a60248201526961646d696e206f6e6c7960b01b604482015290519081900360640190fd5b6009541580156122385750600a54155b612277576040805162461bcd60e51b815260206004820152600b60248201526a1a5b9a5d1a585b1a5e995960aa1b604482015290519081900360640190fd5b6007849055836122c6576040805162461bcd60e51b8152602060048201526015602482015274696e76616c69642065786368616e6765207261746560581b604482015290519081900360640190fd5b60006122d187611517565b9050801561231f576040805162461bcd60e51b81526020600482015260166024820152751cd95d0818dbdb5c1d1c9bdb1b195c8819985a5b195960521b604482015290519081900360640190fd5b612327613e87565b600955670de0b6b3a7640000600a5561233f86613e8b565b90508015612385576040805162461bcd60e51b815260206004820152600e60248201526d1cd95d081254934819985a5b195960921b604482015290519081900360640190fd5b8351612398906001906020870190615dcb565b5082516123ac906002906020860190615dcb565b50506003805460ff90921660ff199283161790556000805490911660011790555050505050565b6000806123e1836000613fee565b50905080156110b3576040805162461bcd60e51b815260206004820152600b60248201526a1b5a5b9d0819985a5b195960aa1b604482015290519081900360640190fd5b600080612430613e87565b60095490915080821415612449576000925050506112cf565b6000612453612e33565b600b54600c54600a549293509091600061246f84610ee7612ea9565b600654604080516315f2405360e01b815260048101899052602481018490526044810187905290519293506000926001600160a01b03909216916315f2405391606480820192602092909190829003018186803b1580156124cf57600080fd5b505afa1580156124e3573d6000803e3d6000fd5b505050506040513d60208110156124f957600080fd5b5051905065048c2739500081111561254f576040805162461bcd60e51b81526020600482015260146024820152730c4dee4e4deee40e4c2e8ca40e8dede40d0d2ced60631b604482015290519081900360640190fd5b600061255b8989612e6f565b9050612565615db8565b61257d60405180602001604052808581525083614053565b9050600061258b82866134d4565b90506000612599828a612e39565b905060006125b86040518060200160405280600854815250848b61407d565b905060006125c7858a8b61407d565b60098f9055600a819055600b849055600c839055604080518e8152602081018790528082018390526060810186905290519192507f4dec04e750ca11537cabcd8a9eab06494de08da3735bc8871cd41250e190bc04919081900360800190a160009e50505050505050505050505050505090565b6000805460ff16612680576040805162461bcd60e51b815260206004820152600a6024820152691c994b595b9d195c995960b21b604482015290519081900360640190fd5b6000805460ff191681556126963333868661303e565b1490506000805460ff1916600117905592915050565b600a5481565b6000806126bd612e33565b905060006126cf600b54610ee7612ea9565b600654600c5460085460408051635c0b440b60e11b8152600481018890526024810186905260448101939093526064830191909152519293506000926001600160a01b039092169163b816881691608480820192602092909190829003018186803b15801561273d57600080fd5b505afa158015612751573d6000803e3d6000fd5b505050506040513d602081101561276757600080fd5b50519050600061277e826111c56111bd8787612e39565b9050612793816111dd6111bd87600b54612e39565b94505050505090565b6000805460ff166127e1576040805162461bcd60e51b815260206004820152600a6024820152691c994b595b9d195c995960b21b604482015290519081900360640190fd5b6000805460ff191690556127f7338585856140a5565b90506000805460ff191660011790559392505050565b60035460009061010090046001600160a01b031633146128335761153d6001602f61356e565b600480546001600160a01b038481166001600160a01b0319831681179093556040805191909216808252602082019390935281517fca4f2f25d0898edd99413412fb94012f9e54ec8142f9b093e7720646a95b16a9929181900390910190a160006114af565b6000805460ff166128de576040805162461bcd60e51b815260206004820152600a6024820152691c994b595b9d195c995960b21b604482015290519081900360640190fd5b6000805460ff191690556128f0612425565b506128f96112c2565b90506000805460ff1916600117905590565b600080600080600061291c86614401565b9050600061292987613e03565b90506000612935612fe0565b90506000989297509095509350915050565b6000612954826000614460565b156114b3576040805162461bcd60e51b815260206004820152600d60248201526c189bdc9c9bddc819985a5b1959609a1b604482015290519081900360640190fd5b73560a8e3b79d23b0a525e15c6f3486c6a293ddad281565b60156020526000908152604090205481565b60175481565b6011546000906001600160a01b03848116911614612a22576040805162461bcd60e51b8152602060048201526014602482015273756e737570706f727465642063757272656e637960601b604482015290519081900360640190fd5b600554604080516358d5bc7360e11b81523060048201526000602482018190526044820186905260806064830152608482015290516001600160a01b039092169163b1ab78e69160c480820192602092909190829003018186803b158015612a8957600080fd5b505afa158015612a9d573d6000803e3d6000fd5b505050506040513d6020811015612ab357600080fd5b5051612afc576040805162461bcd60e51b8152602060048201526013602482015272199b185cda1b1bd85b881a5cc81c185d5cd959606a1b604482015290519081900360640190fd5b611d418383613654565b6000612b138260006144c3565b156114b3576040805162461bcd60e51b815260206004820152600d60248201526c1c995919595b4819985a5b1959609a1b604482015290519081900360640190fd5b6001600160a01b039182166000908152600f6020908152604080832093909416825291909152205490565b6004546000906001600160a01b031633141580612b9b575033155b15612bb357612bac6001600061356e565b90506112cf565b60038054600480546001600160a01b03818116610100818102610100600160a81b0319871617968790556001600160a01b031990931690935560408051948390048216808652929095041660208401528351909391927ff9ffabca9c8276e99321725bcb43fb076a6c66a54b7f21c4e8146d8519b417dc92908290030190a1600454604080516001600160a01b038085168252909216602083015280517fca4f2f25d0898edd99413412fb94012f9e54ec8142f9b093e7720646a95b16a99281900390910190a160009250505090565b600381565b6000612c92612425565b50610f6282613e8b565b6006546001600160a01b031681565b600080612cbb8585856000614528565b5090508015612d11576040805162461bcd60e51b815260206004820152601760248201527f6c697175696461746520626f72726f77206661696c6564000000000000000000604482015290519081900360640190fd5b509392505050565b60035461010090046001600160a01b031681565b6006546000906001600160a01b03166315f24053612d49612e33565b612d57600b54610ee7612ea9565b600c546040518463ffffffff1660e01b815260040180848152602001838152602001828152602001935050505060206040518083038186803b158015612d9c57600080fd5b505afa158015612db0573d6000803e3d6000fd5b505050506040513d6020811015612dc657600080fd5b5051905090565b6000805460ff16612e12576040805162461bcd60e51b815260206004820152600a6024820152691c994b595b9d195c995960b21b604482015290519081900360640190fd5b6000805460ff19169055612e24612425565b506112a88261465f565b600181565b60135490565b6000611d418383604051806040016040528060118152602001706164646974696f6e206f766572666c6f7760781b815250614707565b6000611d418383604051806040016040528060158152602001747375627472616374696f6e20756e646572666c6f7760581b8152506147a2565b73560a8e3b79d23b0a525e15c6f3486c6a293ddad260005260106020527f508f1f5095a9603eb76e3393afdd76c11f023f7b192a759614f544fa4d90cefd5490565b60008054819060ff16612f32576040805162461bcd60e51b815260206004820152600a6024820152691c994b595b9d195c995960b21b604482015290519081900360640190fd5b6000805460ff19169055612f44612425565b50612f51333386866147fc565b915091506000805460ff1916600117905590939092509050565b6000611d4183836040518060400160405280601781526020017f6d756c7469706c69636174696f6e206f766572666c6f77000000000000000000815250614aee565b6000611d4183836040518060400160405280600e81526020016d646976696465206279207a65726f60901b815250614b64565b600d5460009080612ff55750506007546112cf565b6000612fff612e33565b905060006130126111bd83600b54612e39565b9050600061302e82604051806020016040528087815250614bc6565b94506112cf9350505050565b5090565b600061304984613ae8565b61305283613ae8565b6001600160a01b0384166000908152600e602090815260408083205460159092528220546130809190612e6f565b905060008184111561309157508083035b600554604080516317b9b84b60e31b81523060048201526001600160a01b0389811660248301528881166044830152606482018590529151919092169163bdcdc2589160848083019260209291908290030181600087803b1580156130f557600080fd5b505af1158015613109573d6000803e3d6000fd5b505050506040513d602081101561311f57600080fd5b50511561315e576040805162461bcd60e51b81526020600482015260086024820152671c995a9958dd195960c21b604482015290519081900360640190fd5b846001600160a01b0316866001600160a01b031614156131b1576040805162461bcd60e51b8152602060048201526009602482015268189859081a5b9c1d5d60ba1b604482015290519081900360640190fd5b60006001600160a01b0388811690881614156131d057506000196131f8565b506001600160a01b038087166000908152600f60209081526040808320938b16835292905220545b6001600160a01b0387166000908152600e602052604090205461321b9086612e6f565b6001600160a01b038089166000908152600e6020526040808220939093559088168152205461324a9086612e39565b6001600160a01b0387166000908152600e6020526040902055811561334e576001600160a01b03871660009081526015602052604090205461328c9083612e6f565b6001600160a01b0380891660009081526015602052604080822093909355908816815220546132bb9083612e39565b6001600160a01b03808816600090815260156020908152604080832094909455918a1680825290839020548351918252918101919091528151600080516020615f61833981519152929181900390910190a16001600160a01b038616600081815260156020908152604091829020548251938452908301528051600080516020615f618339815191529281900390910190a15b6000198114613388576133618186612e6f565b6001600160a01b038089166000908152600f60209081526040808320938d16835292905220555b856001600160a01b0316876001600160a01b0316600080516020615f41833981519152876040518082815260200191505060405180910390a36005546040805163352b4a3f60e11b81523060048201526001600160a01b038a8116602483015289811660448301526064820189905291519190921691636a56947e91608480830192600092919082900301818387803b15801561342457600080fd5b505af1158015613438573d6000803e3d6000fd5b5060009250613445915050565b93505050505b949350505050565b60008054819060ff1661349a576040805162461bcd60e51b815260206004820152600a6024820152691c994b595b9d195c995960b21b604482015290519081900360640190fd5b6000805460ff191690556134ac612425565b506134b9338686866147fc565b915091506000805460ff191660011790559094909350915050565b60006134de615db8565b6134e88484614053565b905061344b81614be4565b6000805460ff16613538576040805162461bcd60e51b815260206004820152600a6024820152691c994b595b9d195c995960b21b604482015290519081900360640190fd5b6000805460ff1916905561354a612425565b5060006135578484614bf3565b509150506000805460ff1916600117905592915050565b60007f45b96fe442630264581b197e84bbada861235052c5a1aadfff9ea4e40a969aa083601081111561359d57fe5b8360388111156135a957fe5b604080519283526020830191909152600082820152519081900360600190a1826010811115611d4157fe5b601154604080516370a0823160e01b815230600482015290516000926001600160a01b03169182916370a0823191602480820192602092909190829003018186803b15801561362257600080fd5b505afa158015613636573d6000803e3d6000fd5b505050506040513d602081101561364c57600080fd5b505191505090565b6000611d41613664836003612f6b565b612710612fad565b6011546040805163a9059cbb60e01b81526001600160a01b0386811660048301526024820186905291519190921691829163a9059cbb9160448082019260009290919082900301818387803b1580156136c457600080fd5b505af11580156136d8573d6000803e3d6000fd5b5050505060003d600081146136f457602081146136fe57600080fd5b600019915061370a565b60206000803e60005191505b508061374f576040805162461bcd60e51b815260206004820152600f60248201526e1d1c985b9cd9995c8819985a5b1959608a1b604482015290519081900360640190fd5b61375b60135485612e6f565b6013555050505050565b601154604080516370a0823160e01b815230600482015290516000926001600160a01b031691839183916370a08231916024808301926020929190829003018186803b1580156137b457600080fd5b505afa1580156137c8573d6000803e3d6000fd5b505050506040513d60208110156137de57600080fd5b5051604080516323b872dd60e01b81526001600160a01b038981166004830152306024830152604482018990529151929350908416916323b872dd9160648082019260009290919082900301818387803b15801561383b57600080fd5b505af115801561384f573d6000803e3d6000fd5b5050505060003d6000811461386b576020811461387557600080fd5b6000199150613881565b60206000803e60005191505b50806138c6576040805162461bcd60e51b815260206004820152600f60248201526e1d1c985b9cd9995c8819985a5b1959608a1b604482015290519081900360640190fd5b601154604080516370a0823160e01b815230600482015290516000926001600160a01b0316916370a08231916024808301926020929190829003018186803b15801561391157600080fd5b505afa158015613925573d6000803e3d6000fd5b505050506040513d602081101561393b57600080fd5b50519050600061394b8285612e6f565b905061395960135482612e39565b60135598975050505050505050565b600354600090819061010090046001600160a01b03163314613998576139906001601e61356e565b9150506114b3565b6139a0613e87565b600954146139b457613990600a602061356e565b826139bd612e33565b10156139cf57613990600e601f61356e565b600c548311156139e5576139906002602161356e565b6139f1600c5484612e6f565b600c819055600354909150613a169061010090046001600160a01b031684600061366c565b600354604080516101009092046001600160a01b0316825260208201859052818101839052517f3bad0c59cf2f06e7314077049f48a93578cd16f5ef92329f1dab1420a99c177e916060908290030190a160006114af565b6000805460ff16613ab3576040805162461bcd60e51b815260206004820152600a6024820152691c994b595b9d195c995960b21b604482015290519081900360640190fd5b6000805460ff19169055613ac5612425565b50613ad33360008585614c91565b90506000805460ff1916600117905592915050565b6001600160a01b03811660009081526016602052604090205460ff166120d6576005546040805163929fe9a160e01b81526001600160a01b0384811660048301523060248301529151919092169163929fe9a1916044808301926020929190829003018186803b158015613b5b57600080fd5b505afa158015613b6f573d6000803e3d6000fd5b505050506040513d6020811015613b8557600080fd5b505115613c04576001600160a01b0381166000908152600e6020818152604080842054601583529320839055601454919052613bc091612e39565b6014556001600160a01b038116600081815260156020908152604091829020548251938452908301528051600080516020615f618339815191529281900390910190a15b6001600160a01b0381166000908152601660205260409020805460ff1916600117905550565b600080613c3960145484612e39565b905060175460001480613c5a575060175415801590613c5a57506017548111155b15613cd55760148190556001600160a01b038416600090815260156020526040902054613c879084612e39565b6001600160a01b03851660008181526015602090815260409182902084905581519283528201929092528151600080516020615f61833981519152929181900390910190a182915050610f62565b6014546017541115613d73576000613cf1601754601454612e6f565b9050613cff60145482612e39565b6014556001600160a01b038516600090815260156020526040902054613d259082612e39565b6001600160a01b03861660008181526015602090815260409182902084905581519283528201929092528151600080516020615f61833981519152929181900390910190a19150610f629050565b5060009392505050565b80613d8757613dff565b613d9360145482612e6f565b6014556001600160a01b038216600090815260156020526040902054613db99082612e6f565b6001600160a01b03831660008181526015602090815260409182902084905581519283528201929092528151600080516020615f61833981519152929181900390910190a15b5050565b60006001600160a01b03821673560a8e3b79d23b0a525e15c6f3486c6a293ddad21415613e325761153d612ea9565b6001600160a01b03821660009081526010602052604090208054613e5a5760009150506114b3565b6000613e6c8260000154600a54612f6b565b90506000613e7e828460010154612fad565b95945050505050565b4390565b600354600090819061010090046001600160a01b03163314613eb3576139906001602c61356e565b613ebb613e87565b60095414613ecf57613990600a602b61356e565b600660009054906101000a90046001600160a01b03169050826001600160a01b0316632191f92a6040518163ffffffff1660e01b815260040160206040518083038186803b158015613f2057600080fd5b505afa158015613f34573d6000803e3d6000fd5b505050506040513d6020811015613f4a57600080fd5b5051613f8b576040805162461bcd60e51b815260206004820152600b60248201526a696e76616c69642049524d60a81b604482015290519081900360640190fd5b600680546001600160a01b0319166001600160a01b03858116918217909255604080519284168352602083019190915280517fedffc32e068c7c95dfd4bdfd5c4d939a084d6b11c4199eac8436ed234d72f9269281900390910190a160006114af565b60008054819060ff16614035576040805162461bcd60e51b815260206004820152600a6024820152691c994b595b9d195c995960b21b604482015290519081900360640190fd5b6000805460ff19169055614047612425565b50612f5133858561506d565b61405b615db8565b6040518060200160405280614074856000015185612f6b565b90529392505050565b6000614087615db8565b6140918585614053565b9050613e7e61409f82614be4565b84612e39565b60006140b084613ae8565b6140b983613ae8565b6005546040805163d02f735160e01b81523060048201526001600160a01b03888116602483015287811660448301528681166064830152608482018690529151919092169163d02f73519160a48083019260209291908290030181600087803b15801561412557600080fd5b505af1158015614139573d6000803e3d6000fd5b505050506040513d602081101561414f57600080fd5b50511561418e576040805162461bcd60e51b81526020600482015260086024820152671c995a9958dd195960c21b604482015290519081900360640190fd5b8161419b5750600061344b565b836001600160a01b0316836001600160a01b031614156141f9576040805162461bcd60e51b815260206004820152601460248201527334b73b30b634b21030b1b1b7bab73a103830b4b960611b604482015290519081900360640190fd5b6001600160a01b0383166000908152600e602052604090205461421c9083612e6f565b6001600160a01b038085166000908152600e6020526040808220939093559086168152205461424b9083612e39565b6001600160a01b038086166000908152600e60209081526040808320949094559186168152601590915220546142819083612e6f565b6001600160a01b0380851660009081526015602052604080822093909355908616815220546142b09083612e39565b6001600160a01b038086166000818152601560209081526040918290209490945580518681529051919392871692600080516020615f4183398151915292918290030190a36001600160a01b038316600081815260156020908152604091829020548251938452908301528051600080516020615f618339815191529281900390910190a16001600160a01b038416600081815260156020908152604091829020548251938452908301528051600080516020615f618339815191529281900390910190a160055460408051636d35bf9160e01b81523060048201526001600160a01b038881166024830152878116604483015286811660648301526084820186905291519190921691636d35bf919160a480830192600092919082900301818387803b1580156143e057600080fd5b505af11580156143f4573d6000803e3d6000fd5b5060009250613e7e915050565b6001600160a01b03811660009081526016602052604081205460ff161561444157506001600160a01b0381166000908152601560205260409020546114b3565b506001600160a01b0381166000908152600e60205260409020546114b3565b6000805460ff166144a5576040805162461bcd60e51b815260206004820152600a6024820152691c994b595b9d195c995960b21b604482015290519081900360640190fd5b6000805460ff191690556144b7612425565b50613ad33384846153ee565b6000805460ff16614508576040805162461bcd60e51b815260206004820152600a6024820152691c994b595b9d195c995960b21b604482015290519081900360640190fd5b6000805460ff1916905561451a612425565b50613ad33384600085614c91565b60008054819060ff1661456f576040805162461bcd60e51b815260206004820152600a6024820152691c994b595b9d195c995960b21b604482015290519081900360640190fd5b6000805460ff19169055614581612425565b506000846001600160a01b031663a6afed956040518163ffffffff1660e01b8152600401602060405180830381600087803b1580156145bf57600080fd5b505af11580156145d3573d6000803e3d6000fd5b505050506040513d60208110156145e957600080fd5b505114614636576040805162461bcd60e51b81526020600482015260166024820152751858d8dc9d59481a5b9d195c995cdd0819985a5b195960521b604482015290519081900360640190fd5b614643338787878761567c565b915091506000805460ff19166001179055909590945092505050565b60035460009061010090046001600160a01b031633146146855761153d6001603161356e565b61468d613e87565b600954146146a15761153d600a603261356e565b670de0b6b3a76400008211156146bd5761153d6002603361356e565b6008805490839055604080518281526020810185905281517faaa68312e2ea9d50e16af5068410ab56e1a1fd06037b1a35664812c30f821460929181900390910190a160006114af565b600083830182858210156147995760405162461bcd60e51b81526004018080602001828103825283818151815260200191508051906020019080838360005b8381101561475e578181015183820152602001614746565b50505050905090810190601f16801561478b5780820380516001836020036101000a031916815260200191505b509250505060405180910390fd5b50949350505050565b600081848411156147f45760405162461bcd60e51b815260206004820181815283516024840152835190928392604490910191908501908083836000831561475e578181015183820152602001614746565b505050900390565b60055460408051631200453160e11b81523060048201526001600160a01b0387811660248301528681166044830152606482018690529151600093849316916324008a6291608480830192602092919082900301818787803b15801561486157600080fd5b505af1158015614875573d6000803e3d6000fd5b505050506040513d602081101561488b57600080fd5b5051156148ca576040805162461bcd60e51b81526020600482015260086024820152671c995a9958dd195960c21b604482015290519081900360640190fd5b6148d2613e87565b60095414614919576040805162461bcd60e51b815260206004820152600f60248201526e6d61726b6574206973207374616c6560881b604482015290519081900360640190fd5b614921615e45565b6001600160a01b038616600090815260106020526040902060010154606082015261494b86613e03565b60808201526000198514156149695760808101516040820152614971565b604081018590525b61498087826040015186613765565b60e08201819052608082015161499591612e6f565b60a0820152600b5460e08201516149ac9190612e6f565b60c0820190815260a080830180516001600160a01b03808b16600081815260106020908152604091829020948555600a546001909501949094559551600b81905560e088015194518751938f16845293830191909152818601939093526060810191909152608081019190915291517f1a2a22cb034d26d1854bdc6666a5b91fe25efbbb5dcad3b0355478d6f5c362a19281900390910190a160055460e0820151606083015160408051631ededc9160e01b81523060048201526001600160a01b038c811660248301528b8116604483015260648201949094526084810192909252519190921691631ededc919160a480830192600092919082900301818387803b158015614aba57600080fd5b505af1158015614ace573d6000803e3d6000fd5b5060009250614adb915050565b8160e00151925092505094509492505050565b6000831580614afb575082155b15614b0857506000611d41565b83830283858281614b1557fe5b041483906147995760405162461bcd60e51b815260206004820181815283516024840152835190928392604490910191908501908083836000831561475e578181015183820152602001614746565b60008183614bb35760405162461bcd60e51b815260206004820181815283516024840152835190928392604490910191908501908083836000831561475e578181015183820152602001614746565b50828481614bbd57fe5b04949350505050565b6000611d41614bdd84670de0b6b3a7640000612f6b565b8351612fad565b51670de0b6b3a7640000900490565b600080600080614c01613e87565b60095414614c2057614c15600a603761356e565b93509150614c8a9050565b614c2b338787613765565b9050614c39600c5482612e39565b600c819055604080513381526020810184905280820183905290519193507fa91e67c5ea634cd43a12c5a482724b03de01e85ca68702a53d0c2f45cb7c1dc5919081900360600190a1600093509150505b9250929050565b6000614c9c85613ae8565b831580614ca7575082155b614ce4576040805162461bcd60e51b8152602060048201526009602482015268189859081a5b9c1d5d60ba1b604482015290519081900360640190fd5b614cec615e8b565b614cf4612fe0565b81528415614d2557602080820186905260408051918201905281518152614d1b90866134d4565b6040820152614d4e565b614d418460405180602001604052808460000151815250615d6c565b6020820152604081018490525b6001600160a01b0386166000908152600e60209081526040808320546015909252822054614d7c9190612e6f565b905060008090508183602001511115614d99578183602001510390505b6005546040805163eabe7d9160e01b81523060048201526001600160a01b038b81166024830152604482018590529151919092169163eabe7d919160648083019260209291908290030181600087803b158015614df557600080fd5b505af1158015614e09573d6000803e3d6000fd5b505050506040513d6020811015614e1f57600080fd5b505115614e5e576040805162461bcd60e51b81526020600482015260086024820152671c995a9958dd195960c21b604482015290519081900360640190fd5b614e66613e87565b60095414614ead576040805162461bcd60e51b815260206004820152600f60248201526e6d61726b6574206973207374616c6560881b604482015290519081900360640190fd5b8260400151614eba612e33565b1015614f01576040805162461bcd60e51b81526020600482015260116024820152700d2dce6eaccccd2c6d2cadce840c6c2e6d607b1b604482015290519081900360640190fd5b614f11600d548460200151612e6f565b600d556001600160a01b0388166000908152600e602090815260409091205490840151614f3e9190612e6f565b6001600160a01b0389166000908152600e6020526040902055614f618882613d7d565b614f708884604001518761366c565b306001600160a01b0316886001600160a01b0316600080516020615f4183398151915285602001516040518082815260200191505060405180910390a360408084015160208086015183516001600160a01b038d168152918201929092528083019190915290517fe5b754fb1abb7f01b499791d0b820ae3b6af3424ac1c59768edb53f4ec31a9299181900360600190a1600554604080850151602086015182516351dff98960e01b81523060048201526001600160a01b038d811660248301526044820193909352606481019190915291519216916351dff9899160848082019260009290919082900301818387803b15801561342457600080fd5b60008061507985613ae8565b60055460408051634ef4c3e160e01b81523060048201526001600160a01b0388811660248301526044820188905291519190921691634ef4c3e19160648083019260209291908290030181600087803b1580156150d557600080fd5b505af11580156150e9573d6000803e3d6000fd5b505050506040513d60208110156150ff57600080fd5b50511561513e576040805162461bcd60e51b81526020600482015260086024820152671c995a9958dd195960c21b604482015290519081900360640190fd5b8361514e575060009050806153e6565b615156613e87565b6009541461519d576040805162461bcd60e51b815260206004820152600f60248201526e6d61726b6574206973207374616c6560881b604482015290519081900360640190fd5b6151a5615e8b565b6151ad612fe0565b81526151ba868686613765565b6040808301829052805160208101909152825181526151d99190615d6c565b60208201819052600d546151ec91612e39565b600d556001600160a01b0386166000908152600e6020908152604090912054908201516152199190612e39565b6001600160a01b038088166000818152600e602090815260409182902094909455600554815163929fe9a160e01b81526004810193909352306024840152905192169263929fe9a192604480840193829003018186803b15801561527c57600080fd5b505afa158015615290573d6000803e3d6000fd5b505050506040513d60208110156152a657600080fd5b5051156152bd576152bb868260200151613c2a565b505b60408082015160208084015183516001600160a01b038b168152918201929092528083019190915290517f4c209b5fc8ad50758f13e2e1088ba56a560dff690a1c6fef26394f4c03821c4f9181900360600190a1856001600160a01b0316306001600160a01b0316600080516020615f4183398151915283602001516040518082815260200191505060405180910390a3600554604080830151602084015182516341c728b960e01b81523060048201526001600160a01b038b811660248301526044820193909352606481019190915291519216916341c728b99160848082019260009290919082900301818387803b1580156153ba57600080fd5b505af11580156153ce573d6000803e3d6000fd5b50600092506153db915050565b816040015192509250505b935093915050565b6005546040805163368f515360e21b81523060048201526001600160a01b038681166024830152604482018690529151600093929092169163da3d454c9160648082019260209290919082900301818787803b15801561544d57600080fd5b505af1158015615461573d6000803e3d6000fd5b505050506040513d602081101561547757600080fd5b5051156154b6576040805162461bcd60e51b81526020600482015260086024820152671c995a9958dd195960c21b604482015290519081900360640190fd5b6154be613e87565b60095414615505576040805162461bcd60e51b815260206004820152600f60248201526e6d61726b6574206973207374616c6560881b604482015290519081900360640190fd5b8261550e612e33565b1015615555576040805162461bcd60e51b81526020600482015260116024820152700d2dce6eaccccd2c6d2cadce840c6c2e6d607b1b604482015290519081900360640190fd5b61555d615eac565b61556685613e03565b602082018190526155779085612e39565b6040820152600b546155899085612e39565b606082019081526040808301516001600160a01b0388166000908152601060205291909120908155600a5460019091015551600b556155c985858561366c565b60408082015160608084015183516001600160a01b038a16815260208101899052808501939093529082015290517f13ed6866d4e1ee6da46f845c46d7e54120883d75c5ea9a2dacc1c4ca8984ab809181900360800190a160055460408051635c77860560e01b81523060048201526001600160a01b0388811660248301526044820188905291519190921691635c77860591606480830192600092919082900301818387803b1580156143e057600080fd5b60055460408051632fe3f38f60e11b81523060048201526001600160a01b0385811660248301528881166044830152878116606483015260848201879052915160009384931691635fc7e71e9160a480830192602092919082900301818787803b1580156156e957600080fd5b505af11580156156fd573d6000803e3d6000fd5b505050506040513d602081101561571357600080fd5b505115615752576040805162461bcd60e51b81526020600482015260086024820152671c995a9958dd195960c21b604482015290519081900360640190fd5b61575a613e87565b600954146157a1576040805162461bcd60e51b815260206004820152600f60248201526e6d61726b6574206973207374616c6560881b604482015290519081900360640190fd5b6157a9613e87565b846001600160a01b0316636c540baf6040518163ffffffff1660e01b815260040160206040518083038186803b1580156157e257600080fd5b505afa1580156157f6573d6000803e3d6000fd5b505050506040513d602081101561580c57600080fd5b505114615852576040805162461bcd60e51b815260206004820152600f60248201526e6d61726b6574206973207374616c6560881b604482015290519081900360640190fd5b866001600160a01b0316866001600160a01b031614156158b0576040805162461bcd60e51b815260206004820152601460248201527334b73b30b634b21030b1b1b7bab73a103830b4b960611b604482015290519081900360640190fd5b6000851180156158c257506000198514155b615904576040805162461bcd60e51b815260206004820152600e60248201526d1a5b9d985b1a5908185b5bdd5b9d60921b604482015290519081900360640190fd5b61590c615ed5565b615918888888876147fc565b602083015280825215615968576040805162461bcd60e51b81526020600482015260136024820152721c995c185e48189bdc9c9bddc819985a5b1959606a1b604482015290519081900360640190fd5b60055460208201516040805163c488847b60e01b81523060048201526001600160a01b03898116602483015260448201939093528151929093169263c488847b9260648083019392829003018186803b1580156159c457600080fd5b505afa1580156159d8573d6000803e3d6000fd5b505050506040513d60408110156159ee57600080fd5b50805160209091015160608301526040820181905215615a55576040805162461bcd60e51b815260206004820152601d60248201527f63616c63756c617465207365697a6520616d6f756e74206661696c6564000000604482015290519081900360640190fd5b8060600151856001600160a01b03166370a08231896040518263ffffffff1660e01b815260040180826001600160a01b03166001600160a01b0316815260200191505060206040518083038186803b158015615ab057600080fd5b505afa158015615ac4573d6000803e3d6000fd5b505050506040513d6020811015615ada57600080fd5b50511015615b20576040805162461bcd60e51b815260206004820152600e60248201526d0e6cad2f4ca40e8dede40daeac6d60931b604482015290519081900360640190fd5b60006001600160a01b038616301415615b4a57615b43308a8a85606001516140a5565b9050615bda565b60608201516040805163b2a02ff160e01b81526001600160a01b038c811660048301528b81166024830152604482019390935290519188169163b2a02ff1916064808201926020929091908290030181600087803b158015615bab57600080fd5b505af1158015615bbf573d6000803e3d6000fd5b505050506040513d6020811015615bd557600080fd5b505190505b8015615c24576040805162461bcd60e51b81526020600482015260146024820152731d1bdad95b881cd95a5e9d5c994819985a5b195960621b604482015290519081900360640190fd5b7f298637f684da70674f26509b10f07ec2fbc77a335ab1e7d6215a4b2484d8bb528989846020015189866060015160405180866001600160a01b03166001600160a01b03168152602001856001600160a01b03166001600160a01b03168152602001848152602001836001600160a01b03166001600160a01b031681526020018281526020019550505050505060405180910390a160055460208301516060840151604080516347ef3b3b60e01b81523060048201526001600160a01b038b811660248301528e811660448301528d81166064830152608482019490945260a48101929092525191909216916347ef3b3b9160c480830192600092919082900301818387803b158015615d3657600080fd5b505af1158015615d4a573d6000803e3d6000fd5b5060009250615d57915050565b82602001519350935050509550959350505050565b6000615d76615db8565b6134e88484615d83615db8565b6000615d97670de0b6b3a764000085612f6b565b90506040518060200160405280615dae8386614bc6565b9052949350505050565b6040518060200160405280600081525090565b828054600181600116156101000203166002900490600052602060002090601f016020900481019282601f10615e0c57805160ff1916838001178555615e39565b82800160010185558215615e39579182015b82811115615e39578251825591602001919060010190615e1e565b5061303a929150615efd565b6040805161010081019091528060008152602001600081526020016000815260200160008152602001600081526020016000815260200160008152602001600081525090565b60405180606001604052806000815260200160008152602001600081525090565b604080516080810190915280600081526020016000815260200160008152602001600081525090565b6040518060800160405280600081526020016000815260200160008152602001600081525090565b6112cf91905b8082111561303a5760008155600101615f0356fe45524333313536466c617368426f72726f776572496e746572666163652e6f6e466c6173684c6f616eddf252ad1be2c89b69c2b068fc378daa952ba7f163c4a11628f55a4df523b3ef1d22042d9eb89f2620572acbf8d85b66fba5a2ca19d166d8659574440175c964a265627a7a72315820f07adaf9c58fe539b65bd5c3bdf7d211d39a4d6cbea710ed6c206e1fbe2e668064736f6c63430005110032",
  "devdoc": {
    "author": "Cream",
    "methods": {
      "_acceptAdmin()": {
        "details": "Admin function for pending admin to accept role and update admin",
        "return": "uint 0=success, otherwise a failure (see ErrorReporter.sol for details)"
      },
      "_addReserves(uint256)": {
        "params": {
          "addAmount": "The amount fo underlying token to add as reserves"
        },
        "return": "uint 0=success, otherwise a failure (see ErrorReporter.sol for details)"
      },
      "_becomeImplementation(bytes)": {
        "params": {
          "data": "The encoded bytes data for any initialization"
        }
      },
      "_reduceReserves(uint256)": {
        "params": {
          "reduceAmount": "Amount of reduction to reserves"
        },
        "return": "uint 0=success, otherwise a failure (see ErrorReporter.sol for details)"
      },
      "_setCollateralCap(uint256)": {
        "params": {
          "newCollateralCap": "New collateral cap for this market. A value of 0 corresponds to no cap."
        }
      },
      "_setComptroller(address)": {
        "details": "Admin function to set a new comptroller",
        "return": "uint 0=success, otherwise a failure (see ErrorReporter.sol for details)"
      },
      "_setInterestRateModel(address)": {
        "details": "Admin function to accrue interest and update the interest rate model",
        "params": {
          "newInterestRateModel": "the new interest rate model to use"
        },
        "return": "uint 0=success, otherwise a failure (see ErrorReporter.sol for details)"
      },
      "_setPendingAdmin(address)": {
        "details": "Admin function to begin change of admin. The newPendingAdmin must call `_acceptAdmin` to finalize the transfer.",
        "params": {
          "newPendingAdmin": "New pending admin."
        },
        "return": "uint 0=success, otherwise a failure (see ErrorReporter.sol for details)"
      },
      "_setReserveFactor(uint256)": {
        "details": "Admin function to accrue interest and set a new reserve factor",
        "return": "uint 0=success, otherwise a failure (see ErrorReporter.sol for details)"
      },
      "accrueInterest()": {
        "details": "This calculates interest accrued from the last checkpointed block  up to the current block and writes new checkpoint to storage."
      },
      "allowance(address,address)": {
        "params": {
          "owner": "The address of the account which owns the tokens to be spent",
          "spender": "The address of the account which may transfer tokens"
        },
        "return": "The number of tokens allowed to be spent (-1 means infinite)"
      },
      "approve(address,uint256)": {
        "details": "This will overwrite the approval amount for `spender` and is subject to issues noted [here](https://eips.ethereum.org/EIPS/eip-20#approve)",
        "params": {
          "amount": "The number of tokens that are approved (-1 means infinite)",
          "spender": "The address of the account which may transfer tokens"
        },
        "return": "Whether or not the approval succeeded"
      },
      "balanceOf(address)": {
        "params": {
          "owner": "The address of the account to query"
        },
        "return": "The number of tokens owned by `owner`"
      },
      "balanceOfUnderlying(address)": {
        "details": "This also accrues interest in a transaction",
        "params": {
          "owner": "The address of the account to query"
        },
        "return": "The amount of underlying owned by `owner`"
      },
      "borrow(uint256)": {
        "params": {
          "borrowAmount": "The amount of the underlying asset to borrow"
        },
        "return": "uint 0=success, otherwise a failure (see ErrorReporter.sol for details)"
      },
      "borrowBalanceCurrent(address)": {
        "params": {
          "account": "The address whose balance should be calculated after updating borrowIndex"
        },
        "return": "The calculated balance"
      },
      "borrowBalanceStored(address)": {
        "params": {
          "account": "The address whose balance should be calculated"
        },
        "return": "The calculated balance"
      },
      "borrowRatePerBlock()": {
        "details": "The total borrows exclude the debts from Alpha",
        "return": "The borrow interest rate per block, scaled by 1e18"
      },
      "estimateBorrowRatePerBlockAfterChange(uint256,bool)": {
        "return": "The borrow interest rate per block, scaled by 1e18"
      },
      "estimateSupplyRatePerBlockAfterChange(uint256,bool)": {
        "return": "The supply interest rate per block, scaled by 1e18"
      },
      "exchangeRateCurrent()": {
        "return": "Calculated exchange rate scaled by 1e18"
      },
      "exchangeRateStored()": {
        "details": "This function does not accrue interest before calculating the exchange rate",
        "return": "Calculated exchange rate scaled by 1e18"
      },
      "flashFee(address,uint256)": {
        "params": {
          "amount": "amount of token to borrow",
          "token": "The loan currency. Must match the address of this contract's underlying."
        },
        "return": "The amount of `token` to be charged for the loan, on top of the returned principal."
      },
      "flashLoan(address,address,uint256,bytes)": {
        "params": {
          "amount": "The amount of the funds to be loaned",
          "data": "The other data",
          "receiver": "The receiver address for the funds",
          "token": "The loan currency. Must match the address of this contract's underlying."
        },
        "return": "uint 0=success, otherwise a failure (see ErrorReporter.sol for details)"
      },
      "getAccountSnapshot(address)": {
        "details": "This is used by comptroller to more efficiently perform liquidity checks.",
        "params": {
          "account": "Address of the account to snapshot"
        },
        "return": "(possible error, token balance, borrow balance, exchange rate mantissa)"
      },
      "getCash()": {
        "return": "The quantity of underlying asset owned by this contract"
      },
      "initialize(address,address,address,uint256,string,string,uint8)": {
        "params": {
          "comptroller_": "The address of the Comptroller",
          "decimals_": "ERC-20 decimal precision of this token",
          "initialExchangeRateMantissa_": "The initial exchange rate, scaled by 1e18",
          "interestRateModel_": "The address of the interest rate model",
          "name_": "ERC-20 name of this token",
          "symbol_": "ERC-20 symbol of this token",
          "underlying_": "The address of the underlying asset"
        }
      },
      "initialize(address,address,uint256,string,string,uint8)": {
        "params": {
          "comptroller_": "The address of the Comptroller",
          "decimals_": "EIP-20 decimal precision of this token",
          "initialExchangeRateMantissa_": "The initial exchange rate, scaled by 1e18",
          "interestRateModel_": "The address of the interest rate model",
          "name_": "EIP-20 name of this token",
          "symbol_": "EIP-20 symbol of this token"
        }
      },
      "liquidateBorrow(address,uint256,address)": {
        "params": {
          "borrower": "The borrower of this cToken to be liquidated",
          "cTokenCollateral": "The market in which to seize collateral from the borrower",
          "repayAmount": "The amount of the underlying borrowed asset to repay"
        },
        "return": "uint 0=success, otherwise a failure (see ErrorReporter.sol for details)"
      },
      "maxFlashLoan(address)": {
        "details": "The amount of currency available to be lent.",
        "params": {
          "token": "The loan currency."
        },
        "return": "The amount of `token` that can be borrowed."
      },
      "mint(uint256)": {
        "details": "Accrues interest whether or not the operation succeeds, unless reverted",
        "params": {
          "mintAmount": "The amount of the underlying asset to supply"
        },
        "return": "uint 0=success, otherwise a failure (see ErrorReporter.sol for details)"
      },
      "redeem(uint256)": {
        "details": "Accrues interest whether or not the operation succeeds, unless reverted",
        "params": {
          "redeemTokens": "The number of cTokens to redeem into underlying"
        },
        "return": "uint 0=success, otherwise a failure (see ErrorReporter.sol for details)"
      },
      "redeemUnderlying(uint256)": {
        "details": "Accrues interest whether or not the operation succeeds, unless reverted",
        "params": {
          "redeemAmount": "The amount of underlying to redeem"
        },
        "return": "uint 0=success, otherwise a failure (see ErrorReporter.sol for details)"
      },
      "registerCollateral(address)": {
        "details": "This function could only be called by comptroller.",
        "params": {
          "account": "The account to register"
        },
        "return": "The actual registered amount of collateral"
      },
      "repayBorrow(uint256)": {
        "params": {
          "repayAmount": "The amount to repay"
        },
        "return": "uint 0=success, otherwise a failure (see ErrorReporter.sol for details)"
      },
      "repayBorrowBehalf(address,uint256)": {
        "params": {
          "borrower": "the account with the debt being payed off",
          "repayAmount": "The amount to repay"
        },
        "return": "uint 0=success, otherwise a failure (see ErrorReporter.sol for details)"
      },
      "seize(address,address,uint256)": {
        "details": "Will fail unless called by another cToken during the process of liquidation. Its absolutely critical to use msg.sender as the borrowed cToken and not a parameter.",
        "params": {
          "borrower": "The account having collateral seized",
          "liquidator": "The account receiving seized collateral",
          "seizeTokens": "The number of cTokens to seize"
        },
        "return": "uint 0=success, otherwise a failure (see ErrorReporter.sol for details)"
      },
      "supplyRatePerBlock()": {
        "details": "The total borrows exclude the debts from Alpha",
        "return": "The supply interest rate per block, scaled by 1e18"
      },
      "totalBorrowsCurrent()": {
        "return": "The total borrows with interest"
      },
      "transfer(address,uint256)": {
        "params": {
          "amount": "The number of tokens to transfer",
          "dst": "The address of the destination account"
        },
        "return": "Whether or not the transfer succeeded"
      },
      "transferFrom(address,address,uint256)": {
        "params": {
          "amount": "The number of tokens to transfer",
          "dst": "The address of the destination account",
          "src": "The address of the source account"
        },
        "return": "Whether or not the transfer succeeded"
      },
      "unregisterCollateral(address)": {
        "details": "This function could only be called by comptroller.",
        "params": {
          "account": "The account to unregister"
        }
      }
    },
    "title": "Cream's CCollateralCapErc20Delegate Contract"
  },
  "userdoc": {
    "methods": {
      "_acceptAdmin()": {
        "notice": "Accepts transfer of admin rights. msg.sender must be pendingAdmin"
      },
      "_addReserves(uint256)": {
        "notice": "The sender adds to reserves."
      },
      "_becomeImplementation(bytes)": {
        "notice": "Called by the delegator on a delegate to initialize it for duty"
      },
      "_reduceReserves(uint256)": {
        "notice": "Accrues interest and reduces reserves by transferring to admin"
      },
      "_resignImplementation()": {
        "notice": "Called by the delegator on a delegate to forfeit its responsibility"
      },
      "_setCollateralCap(uint256)": {
        "notice": "Set the given collateral cap for the market."
      },
      "_setComptroller(address)": {
        "notice": "Sets a new comptroller for the market"
      },
      "_setInterestRateModel(address)": {
        "notice": "accrues interest and updates the interest rate model using _setInterestRateModelFresh"
      },
      "_setPendingAdmin(address)": {
        "notice": "Begins transfer of admin rights. The newPendingAdmin must call `_acceptAdmin` to finalize the transfer."
      },
      "_setReserveFactor(uint256)": {
        "notice": "accrues interest and sets a new reserve factor for the protocol using _setReserveFactorFresh"
      },
      "accrueInterest()": {
        "notice": "Applies accrued interest to total borrows and reserves"
      },
      "allowance(address,address)": {
        "notice": "Get the current allowance from `owner` for `spender`"
      },
      "approve(address,uint256)": {
        "notice": "Approve `spender` to transfer up to `amount` from `src`"
      },
      "balanceOf(address)": {
        "notice": "Get the token balance of the `owner`"
      },
      "balanceOfUnderlying(address)": {
        "notice": "Get the underlying balance of the `owner`"
      },
      "borrow(uint256)": {
        "notice": "Sender borrows assets from the protocol to their own address"
      },
      "borrowBalanceCurrent(address)": {
        "notice": "Accrue interest to updated borrowIndex and then calculate account's borrow balance using the updated borrowIndex"
      },
      "borrowBalanceStored(address)": {
        "notice": "Return the borrow balance of account based on stored data"
      },
      "borrowRatePerBlock()": {
        "notice": "Returns the current per-block borrow interest rate for this cToken"
      },
      "constructor": "Construct an empty delegate",
      "estimateBorrowRatePerBlockAfterChange(uint256,bool)": {
        "notice": "Returns the estimated per-block borrow interest rate for this cToken after some change"
      },
      "estimateSupplyRatePerBlockAfterChange(uint256,bool)": {
        "notice": "Returns the estimated per-block supply interest rate for this cToken after some change"
      },
      "exchangeRateCurrent()": {
        "notice": "Accrue interest then return the up-to-date exchange rate"
      },
      "exchangeRateStored()": {
        "notice": "Calculates the exchange rate from the underlying to the CToken"
      },
      "flashFee(address,uint256)": {
        "notice": "Get the flash loan fees"
      },
      "flashLoan(address,address,uint256,bytes)": {
        "notice": "Flash loan funds to a given account."
      },
      "getAccountSnapshot(address)": {
        "notice": "Get a snapshot of the account's balances, and the cached exchange rate"
      },
      "getCash()": {
        "notice": "Get cash balance of this cToken in the underlying asset"
      },
      "gulp()": {
        "notice": "Absorb excess cash into reserves."
      },
      "initialize(address,address,address,uint256,string,string,uint8)": {
        "notice": "Initialize the new money market"
      },
      "initialize(address,address,uint256,string,string,uint8)": {
        "notice": "Initialize the money market"
      },
      "liquidateBorrow(address,uint256,address)": {
        "notice": "The sender liquidates the borrowers collateral. The collateral seized is transferred to the liquidator."
      },
      "mint(uint256)": {
        "notice": "Sender supplies assets into the market and receives cTokens in exchange"
      },
      "redeem(uint256)": {
        "notice": "Sender redeems cTokens in exchange for the underlying asset"
      },
      "redeemUnderlying(uint256)": {
        "notice": "Sender redeems cTokens in exchange for a specified amount of underlying asset"
      },
      "registerCollateral(address)": {
        "notice": "Register account collateral tokens if there is space."
      },
      "repayBorrow(uint256)": {
        "notice": "Sender repays their own borrow"
      },
      "repayBorrowBehalf(address,uint256)": {
        "notice": "Sender repays a borrow belonging to borrower"
      },
      "seize(address,address,uint256)": {
        "notice": "Transfers collateral tokens (this market) to the liquidator."
      },
      "supplyRatePerBlock()": {
        "notice": "Returns the current per-block supply interest rate for this cToken"
      },
      "totalBorrowsCurrent()": {
        "notice": "Returns the current total borrows plus accrued interest"
      },
      "transfer(address,uint256)": {
        "notice": "Transfer `amount` tokens from `msg.sender` to `dst`"
      },
      "transferFrom(address,address,uint256)": {
        "notice": "Transfer `amount` tokens from `src` to `dst`"
      },
      "unregisterCollateral(address)": {
        "notice": "Unregister account collateral tokens if the account still has enough collateral."
      }
    },
    "notice": "CTokens which wrap an EIP-20 underlying and are delegated to"
  },
  "storageLayout": {
    "storage": [
      {
        "astId": 11883,
        "contract": "contracts/CCollateralCapErc20NoInterestDelegate.sol:CCollateralCapErc20NoInterestDelegate",
        "label": "_notEntered",
        "offset": 0,
        "slot": "0",
        "type": "t_bool"
      },
      {
        "astId": 11885,
        "contract": "contracts/CCollateralCapErc20NoInterestDelegate.sol:CCollateralCapErc20NoInterestDelegate",
        "label": "name",
        "offset": 0,
        "slot": "1",
        "type": "t_string_storage"
      },
      {
        "astId": 11887,
        "contract": "contracts/CCollateralCapErc20NoInterestDelegate.sol:CCollateralCapErc20NoInterestDelegate",
        "label": "symbol",
        "offset": 0,
        "slot": "2",
        "type": "t_string_storage"
      },
      {
        "astId": 11889,
        "contract": "contracts/CCollateralCapErc20NoInterestDelegate.sol:CCollateralCapErc20NoInterestDelegate",
        "label": "decimals",
        "offset": 0,
        "slot": "3",
        "type": "t_uint8"
      },
      {
        "astId": 11897,
        "contract": "contracts/CCollateralCapErc20NoInterestDelegate.sol:CCollateralCapErc20NoInterestDelegate",
        "label": "admin",
        "offset": 1,
        "slot": "3",
        "type": "t_address_payable"
      },
      {
        "astId": 11899,
        "contract": "contracts/CCollateralCapErc20NoInterestDelegate.sol:CCollateralCapErc20NoInterestDelegate",
        "label": "pendingAdmin",
        "offset": 0,
        "slot": "4",
        "type": "t_address_payable"
      },
      {
        "astId": 11901,
        "contract": "contracts/CCollateralCapErc20NoInterestDelegate.sol:CCollateralCapErc20NoInterestDelegate",
        "label": "comptroller",
        "offset": 0,
        "slot": "5",
        "type": "t_contract(ComptrollerInterface)20414"
      },
      {
        "astId": 11903,
        "contract": "contracts/CCollateralCapErc20NoInterestDelegate.sol:CCollateralCapErc20NoInterestDelegate",
        "label": "interestRateModel",
        "offset": 0,
        "slot": "6",
        "type": "t_contract(InterestRateModel)23457"
      },
      {
        "astId": 11905,
        "contract": "contracts/CCollateralCapErc20NoInterestDelegate.sol:CCollateralCapErc20NoInterestDelegate",
        "label": "initialExchangeRateMantissa",
        "offset": 0,
        "slot": "7",
        "type": "t_uint256"
      },
      {
        "astId": 11907,
        "contract": "contracts/CCollateralCapErc20NoInterestDelegate.sol:CCollateralCapErc20NoInterestDelegate",
        "label": "reserveFactorMantissa",
        "offset": 0,
        "slot": "8",
        "type": "t_uint256"
      },
      {
        "astId": 11909,
        "contract": "contracts/CCollateralCapErc20NoInterestDelegate.sol:CCollateralCapErc20NoInterestDelegate",
        "label": "accrualBlockNumber",
        "offset": 0,
        "slot": "9",
        "type": "t_uint256"
      },
      {
        "astId": 11911,
        "contract": "contracts/CCollateralCapErc20NoInterestDelegate.sol:CCollateralCapErc20NoInterestDelegate",
        "label": "borrowIndex",
        "offset": 0,
        "slot": "10",
        "type": "t_uint256"
      },
      {
        "astId": 11913,
        "contract": "contracts/CCollateralCapErc20NoInterestDelegate.sol:CCollateralCapErc20NoInterestDelegate",
        "label": "totalBorrows",
        "offset": 0,
        "slot": "11",
        "type": "t_uint256"
      },
      {
        "astId": 11915,
        "contract": "contracts/CCollateralCapErc20NoInterestDelegate.sol:CCollateralCapErc20NoInterestDelegate",
        "label": "totalReserves",
        "offset": 0,
        "slot": "12",
        "type": "t_uint256"
      },
      {
        "astId": 11917,
        "contract": "contracts/CCollateralCapErc20NoInterestDelegate.sol:CCollateralCapErc20NoInterestDelegate",
        "label": "totalSupply",
        "offset": 0,
        "slot": "13",
        "type": "t_uint256"
      },
      {
        "astId": 11921,
        "contract": "contracts/CCollateralCapErc20NoInterestDelegate.sol:CCollateralCapErc20NoInterestDelegate",
        "label": "accountTokens",
        "offset": 0,
        "slot": "14",
        "type": "t_mapping(t_address,t_uint256)"
      },
      {
        "astId": 11927,
        "contract": "contracts/CCollateralCapErc20NoInterestDelegate.sol:CCollateralCapErc20NoInterestDelegate",
        "label": "transferAllowances",
        "offset": 0,
        "slot": "15",
        "type": "t_mapping(t_address,t_mapping(t_address,t_uint256))"
      },
      {
        "astId": 11936,
        "contract": "contracts/CCollateralCapErc20NoInterestDelegate.sol:CCollateralCapErc20NoInterestDelegate",
        "label": "accountBorrows",
        "offset": 0,
        "slot": "16",
        "type": "t_mapping(t_address,t_struct(BorrowSnapshot)11932_storage)"
      },
      {
        "astId": 11939,
        "contract": "contracts/CCollateralCapErc20NoInterestDelegate.sol:CCollateralCapErc20NoInterestDelegate",
        "label": "underlying",
        "offset": 0,
        "slot": "17",
        "type": "t_address"
      },
      {
        "astId": 11941,
        "contract": "contracts/CCollateralCapErc20NoInterestDelegate.sol:CCollateralCapErc20NoInterestDelegate",
        "label": "implementation",
        "offset": 0,
        "slot": "18",
        "type": "t_address"
      },
      {
        "astId": 11944,
        "contract": "contracts/CCollateralCapErc20NoInterestDelegate.sol:CCollateralCapErc20NoInterestDelegate",
        "label": "internalCash",
        "offset": 0,
        "slot": "19",
        "type": "t_uint256"
      },
      {
        "astId": 11947,
        "contract": "contracts/CCollateralCapErc20NoInterestDelegate.sol:CCollateralCapErc20NoInterestDelegate",
        "label": "totalCollateralTokens",
        "offset": 0,
        "slot": "20",
        "type": "t_uint256"
      },
      {
        "astId": 11951,
        "contract": "contracts/CCollateralCapErc20NoInterestDelegate.sol:CCollateralCapErc20NoInterestDelegate",
        "label": "accountCollateralTokens",
        "offset": 0,
        "slot": "21",
        "type": "t_mapping(t_address,t_uint256)"
      },
      {
        "astId": 11955,
        "contract": "contracts/CCollateralCapErc20NoInterestDelegate.sol:CCollateralCapErc20NoInterestDelegate",
        "label": "isCollateralTokenInit",
        "offset": 0,
        "slot": "22",
        "type": "t_mapping(t_address,t_bool)"
      },
      {
        "astId": 11957,
        "contract": "contracts/CCollateralCapErc20NoInterestDelegate.sol:CCollateralCapErc20NoInterestDelegate",
        "label": "collateralCap",
        "offset": 0,
        "slot": "23",
        "type": "t_uint256"
      }
    ],
    "types": {
      "t_address": {
        "encoding": "inplace",
        "label": "address",
        "numberOfBytes": "20"
      },
      "t_address_payable": {
        "encoding": "inplace",
        "label": "address payable",
        "numberOfBytes": "20"
      },
      "t_bool": {
        "encoding": "inplace",
        "label": "bool",
        "numberOfBytes": "1"
      },
      "t_contract(ComptrollerInterface)20414": {
        "encoding": "inplace",
        "label": "contract ComptrollerInterface",
        "numberOfBytes": "20"
      },
      "t_contract(InterestRateModel)23457": {
        "encoding": "inplace",
        "label": "contract InterestRateModel",
        "numberOfBytes": "20"
      },
      "t_mapping(t_address,t_bool)": {
        "encoding": "mapping",
        "key": "t_address",
        "label": "mapping(address => bool)",
        "numberOfBytes": "32",
        "value": "t_bool"
      },
      "t_mapping(t_address,t_mapping(t_address,t_uint256))": {
        "encoding": "mapping",
        "key": "t_address",
        "label": "mapping(address => mapping(address => uint256))",
        "numberOfBytes": "32",
        "value": "t_mapping(t_address,t_uint256)"
      },
      "t_mapping(t_address,t_struct(BorrowSnapshot)11932_storage)": {
        "encoding": "mapping",
        "key": "t_address",
        "label": "mapping(address => struct CTokenStorage.BorrowSnapshot)",
        "numberOfBytes": "32",
        "value": "t_struct(BorrowSnapshot)11932_storage"
      },
      "t_mapping(t_address,t_uint256)": {
        "encoding": "mapping",
        "key": "t_address",
        "label": "mapping(address => uint256)",
        "numberOfBytes": "32",
        "value": "t_uint256"
      },
      "t_string_storage": {
        "encoding": "bytes",
        "label": "string",
        "numberOfBytes": "32"
      },
      "t_struct(BorrowSnapshot)11932_storage": {
        "encoding": "inplace",
        "label": "struct CTokenStorage.BorrowSnapshot",
        "members": [
          {
            "astId": 11929,
            "contract": "contracts/CCollateralCapErc20NoInterestDelegate.sol:CCollateralCapErc20NoInterestDelegate",
            "label": "principal",
            "offset": 0,
            "slot": "0",
            "type": "t_uint256"
          },
          {
            "astId": 11931,
            "contract": "contracts/CCollateralCapErc20NoInterestDelegate.sol:CCollateralCapErc20NoInterestDelegate",
            "label": "interestIndex",
            "offset": 0,
            "slot": "1",
            "type": "t_uint256"
          }
        ],
        "numberOfBytes": "64"
      },
      "t_uint256": {
        "encoding": "inplace",
        "label": "uint256",
        "numberOfBytes": "32"
      },
      "t_uint8": {
        "encoding": "inplace",
        "label": "uint8",
        "numberOfBytes": "1"
      }
    }
  }
}