{
  "address": "0x599E990b1fA96b6783AeC0f37933FE91e8D1e451",
  "abi": [
    {
      "inputs": [],
      "payable": false,
      "stateMutability": "nonpayable",
      "type": "constructor"
    },
    {
      "anonymous": false,
      "inputs": [
        {
          "indexed": false,
          "internalType": "uint256",
          "name": "cashPrior",
          "type": "uint256"
        },
        {
          "indexed": false,
          "internalType": "uint256",
          "name": "interestAccumulated",
          "type": "uint256"
        },
        {
          "indexed": false,
          "internalType": "uint256",
          "name": "borrowIndex",
          "type": "uint256"
        },
        {
          "indexed": false,
          "internalType": "uint256",
          "name": "totalBorrows",
          "type": "uint256"
        }
      ],
      "name": "AccrueInterest",
      "type": "event"
    },
    {
      "anonymous": false,
      "inputs": [
        {
          "indexed": true,
          "internalType": "address",
          "name": "owner",
          "type": "address"
        },
        {
          "indexed": true,
          "internalType": "address",
          "name": "spender",
          "type": "address"
        },
        {
          "indexed": false,
          "internalType": "uint256",
          "name": "amount",
          "type": "uint256"
        }
      ],
      "name": "Approval",
      "type": "event"
    },
    {
      "anonymous": false,
      "inputs": [
        {
          "indexed": false,
          "internalType": "address",
          "name": "borrower",
          "type": "address"
        },
        {
          "indexed": false,
          "internalType": "uint256",
          "name": "borrowAmount",
          "type": "uint256"
        },
        {
          "indexed": false,
          "internalType": "uint256",
          "name": "accountBorrows",
          "type": "uint256"
        },
        {
          "indexed": false,
          "internalType": "uint256",
          "name": "totalBorrows",
          "type": "uint256"
        }
      ],
      "name": "Borrow",
      "type": "event"
    },
    {
      "anonymous": false,
      "inputs": [
        {
          "indexed": false,
          "internalType": "uint256",
          "name": "error",
          "type": "uint256"
        },
        {
          "indexed": false,
          "internalType": "uint256",
          "name": "info",
          "type": "uint256"
        },
        {
          "indexed": false,
          "internalType": "uint256",
          "name": "detail",
          "type": "uint256"
        }
      ],
      "name": "Failure",
      "type": "event"
    },
    {
      "anonymous": false,
      "inputs": [
        {
          "indexed": false,
          "internalType": "address",
          "name": "liquidator",
          "type": "address"
        },
        {
          "indexed": false,
          "internalType": "address",
          "name": "borrower",
          "type": "address"
        },
        {
          "indexed": false,
          "internalType": "uint256",
          "name": "repayAmount",
          "type": "uint256"
        },
        {
          "indexed": false,
          "internalType": "address",
          "name": "cTokenCollateral",
          "type": "address"
        },
        {
          "indexed": false,
          "internalType": "uint256",
          "name": "seizeTokens",
          "type": "uint256"
        }
      ],
      "name": "LiquidateBorrow",
      "type": "event"
    },
    {
      "anonymous": false,
      "inputs": [
        {
          "indexed": false,
          "internalType": "address",
          "name": "minter",
          "type": "address"
        },
        {
          "indexed": false,
          "internalType": "uint256",
          "name": "mintAmount",
          "type": "uint256"
        },
        {
          "indexed": false,
          "internalType": "uint256",
          "name": "mintTokens",
          "type": "uint256"
        }
      ],
      "name": "Mint",
      "type": "event"
    },
    {
      "anonymous": false,
      "inputs": [
        {
          "indexed": false,
          "internalType": "address",
          "name": "oldAdmin",
          "type": "address"
        },
        {
          "indexed": false,
          "internalType": "address",
          "name": "newAdmin",
          "type": "address"
        }
      ],
      "name": "NewAdmin",
      "type": "event"
    },
    {
      "anonymous": false,
      "inputs": [
        {
          "indexed": false,
          "internalType": "contract ComptrollerInterface",
          "name": "oldComptroller",
          "type": "address"
        },
        {
          "indexed": false,
          "internalType": "contract ComptrollerInterface",
          "name": "newComptroller",
          "type": "address"
        }
      ],
      "name": "NewComptroller",
      "type": "event"
    },
    {
      "anonymous": false,
      "inputs": [
        {
          "indexed": false,
          "internalType": "contract InterestRateModel",
          "name": "oldInterestRateModel",
          "type": "address"
        },
        {
          "indexed": false,
          "internalType": "contract InterestRateModel",
          "name": "newInterestRateModel",
          "type": "address"
        }
      ],
      "name": "NewMarketInterestRateModel",
      "type": "event"
    },
    {
      "anonymous": false,
      "inputs": [
        {
          "indexed": false,
          "internalType": "address",
          "name": "oldPendingAdmin",
          "type": "address"
        },
        {
          "indexed": false,
          "internalType": "address",
          "name": "newPendingAdmin",
          "type": "address"
        }
      ],
      "name": "NewPendingAdmin",
      "type": "event"
    },
    {
      "anonymous": false,
      "inputs": [
        {
          "indexed": false,
          "internalType": "uint256",
          "name": "oldReserveFactorMantissa",
          "type": "uint256"
        },
        {
          "indexed": false,
          "internalType": "uint256",
          "name": "newReserveFactorMantissa",
          "type": "uint256"
        }
      ],
      "name": "NewReserveFactor",
      "type": "event"
    },
    {
      "anonymous": false,
      "inputs": [
        {
          "indexed": false,
          "internalType": "address",
          "name": "redeemer",
          "type": "address"
        },
        {
          "indexed": false,
          "internalType": "uint256",
          "name": "redeemAmount",
          "type": "uint256"
        },
        {
          "indexed": false,
          "internalType": "uint256",
          "name": "redeemTokens",
          "type": "uint256"
        }
      ],
      "name": "Redeem",
      "type": "event"
    },
    {
      "anonymous": false,
      "inputs": [
        {
          "indexed": false,
          "internalType": "address",
          "name": "payer",
          "type": "address"
        },
        {
          "indexed": false,
          "internalType": "address",
          "name": "borrower",
          "type": "address"
        },
        {
          "indexed": false,
          "internalType": "uint256",
          "name": "repayAmount",
          "type": "uint256"
        },
        {
          "indexed": false,
          "internalType": "uint256",
          "name": "accountBorrows",
          "type": "uint256"
        },
        {
          "indexed": false,
          "internalType": "uint256",
          "name": "totalBorrows",
          "type": "uint256"
        }
      ],
      "name": "RepayBorrow",
      "type": "event"
    },
    {
      "anonymous": false,
      "inputs": [
        {
          "indexed": false,
          "internalType": "address",
          "name": "benefactor",
          "type": "address"
        },
        {
          "indexed": false,
          "internalType": "uint256",
          "name": "addAmount",
          "type": "uint256"
        },
        {
          "indexed": false,
          "internalType": "uint256",
          "name": "newTotalReserves",
          "type": "uint256"
        }
      ],
      "name": "ReservesAdded",
      "type": "event"
    },
    {
      "anonymous": false,
      "inputs": [
        {
          "indexed": false,
          "internalType": "address",
          "name": "admin",
          "type": "address"
        },
        {
          "indexed": false,
          "internalType": "uint256",
          "name": "reduceAmount",
          "type": "uint256"
        },
        {
          "indexed": false,
          "internalType": "uint256",
          "name": "newTotalReserves",
          "type": "uint256"
        }
      ],
      "name": "ReservesReduced",
      "type": "event"
    },
    {
      "anonymous": false,
      "inputs": [
        {
          "indexed": true,
          "internalType": "address",
          "name": "from",
          "type": "address"
        },
        {
          "indexed": true,
          "internalType": "address",
          "name": "to",
          "type": "address"
        },
        {
          "indexed": false,
          "internalType": "uint256",
          "name": "amount",
          "type": "uint256"
        }
      ],
      "name": "Transfer",
      "type": "event"
    },
    {
      "constant": false,
      "inputs": [],
      "name": "_acceptAdmin",
      "outputs": [
        {
          "internalType": "uint256",
          "name": "",
          "type": "uint256"
        }
      ],
      "payable": false,
      "stateMutability": "nonpayable",
      "type": "function"
    },
    {
      "constant": false,
      "inputs": [
        {
          "internalType": "uint256",
          "name": "addAmount",
          "type": "uint256"
        }
      ],
      "name": "_addReserves",
      "outputs": [
        {
          "internalType": "uint256",
          "name": "",
          "type": "uint256"
        }
      ],
      "payable": false,
      "stateMutability": "nonpayable",
      "type": "function"
    },
    {
      "constant": false,
      "inputs": [
        {
          "internalType": "bytes",
          "name": "data",
          "type": "bytes"
        }
      ],
      "name": "_becomeImplementation",
      "outputs": [],
      "payable": false,
      "stateMutability": "nonpayable",
      "type": "function"
    },
    {
      "constant": false,
      "inputs": [
        {
          "internalType": "uint256",
          "name": "reduceAmount",
          "type": "uint256"
        }
      ],
      "name": "_reduceReserves",
      "outputs": [
        {
          "internalType": "uint256",
          "name": "",
          "type": "uint256"
        }
      ],
      "payable": false,
      "stateMutability": "nonpayable",
      "type": "function"
    },
    {
      "constant": false,
      "inputs": [],
      "name": "_resignImplementation",
      "outputs": [],
      "payable": false,
      "stateMutability": "nonpayable",
      "type": "function"
    },
    {
      "constant": false,
      "inputs": [
        {
          "internalType": "contract ComptrollerInterface",
          "name": "newComptroller",
          "type": "address"
        }
      ],
      "name": "_setComptroller",
      "outputs": [
        {
          "internalType": "uint256",
          "name": "",
          "type": "uint256"
        }
      ],
      "payable": false,
      "stateMutability": "nonpayable",
      "type": "function"
    },
    {
      "constant": false,
      "inputs": [
        {
          "internalType": "contract InterestRateModel",
          "name": "newInterestRateModel",
          "type": "address"
        }
      ],
      "name": "_setInterestRateModel",
      "outputs": [
        {
          "internalType": "uint256",
          "name": "",
          "type": "uint256"
        }
      ],
      "payable": false,
      "stateMutability": "nonpayable",
      "type": "function"
    },
    {
      "constant": false,
      "inputs": [
        {
          "internalType": "address payable",
          "name": "newPendingAdmin",
          "type": "address"
        }
      ],
      "name": "_setPendingAdmin",
      "outputs": [
        {
          "internalType": "uint256",
          "name": "",
          "type": "uint256"
        }
      ],
      "payable": false,
      "stateMutability": "nonpayable",
      "type": "function"
    },
    {
      "constant": false,
      "inputs": [
        {
          "internalType": "uint256",
          "name": "newReserveFactorMantissa",
          "type": "uint256"
        }
      ],
      "name": "_setReserveFactor",
      "outputs": [
        {
          "internalType": "uint256",
          "name": "",
          "type": "uint256"
        }
      ],
      "payable": false,
      "stateMutability": "nonpayable",
      "type": "function"
    },
    {
      "constant": true,
      "inputs": [],
      "name": "accrualBlockNumber",
      "outputs": [
        {
          "internalType": "uint256",
          "name": "",
          "type": "uint256"
        }
      ],
      "payable": false,
      "stateMutability": "view",
      "type": "function"
    },
    {
      "constant": false,
      "inputs": [],
      "name": "accrueInterest",
      "outputs": [
        {
          "internalType": "uint256",
          "name": "",
          "type": "uint256"
        }
      ],
      "payable": false,
      "stateMutability": "nonpayable",
      "type": "function"
    },
    {
      "constant": true,
      "inputs": [],
      "name": "admin",
      "outputs": [
        {
          "internalType": "address payable",
          "name": "",
          "type": "address"
        }
      ],
      "payable": false,
      "stateMutability": "view",
      "type": "function"
    },
    {
      "constant": true,
      "inputs": [
        {
          "internalType": "address",
          "name": "owner",
          "type": "address"
        },
        {
          "internalType": "address",
          "name": "spender",
          "type": "address"
        }
      ],
      "name": "allowance",
      "outputs": [
        {
          "internalType": "uint256",
          "name": "",
          "type": "uint256"
        }
      ],
      "payable": false,
      "stateMutability": "view",
      "type": "function"
    },
    {
      "constant": false,
      "inputs": [
        {
          "internalType": "address",
          "name": "spender",
          "type": "address"
        },
        {
          "internalType": "uint256",
          "name": "amount",
          "type": "uint256"
        }
      ],
      "name": "approve",
      "outputs": [
        {
          "internalType": "bool",
          "name": "",
          "type": "bool"
        }
      ],
      "payable": false,
      "stateMutability": "nonpayable",
      "type": "function"
    },
    {
      "constant": true,
      "inputs": [
        {
          "internalType": "address",
          "name": "owner",
          "type": "address"
        }
      ],
      "name": "balanceOf",
      "outputs": [
        {
          "internalType": "uint256",
          "name": "",
          "type": "uint256"
        }
      ],
      "payable": false,
      "stateMutability": "view",
      "type": "function"
    },
    {
      "constant": false,
      "inputs": [
        {
          "internalType": "address",
          "name": "owner",
          "type": "address"
        }
      ],
      "name": "balanceOfUnderlying",
      "outputs": [
        {
          "internalType": "uint256",
          "name": "",
          "type": "uint256"
        }
      ],
      "payable": false,
      "stateMutability": "nonpayable",
      "type": "function"
    },
    {
      "constant": false,
      "inputs": [
        {
          "internalType": "uint256",
          "name": "borrowAmount",
          "type": "uint256"
        }
      ],
      "name": "borrow",
      "outputs": [
        {
          "internalType": "uint256",
          "name": "",
          "type": "uint256"
        }
      ],
      "payable": false,
      "stateMutability": "nonpayable",
      "type": "function"
    },
    {
      "constant": false,
      "inputs": [
        {
          "internalType": "address",
          "name": "account",
          "type": "address"
        }
      ],
      "name": "borrowBalanceCurrent",
      "outputs": [
        {
          "internalType": "uint256",
          "name": "",
          "type": "uint256"
        }
      ],
      "payable": false,
      "stateMutability": "nonpayable",
      "type": "function"
    },
    {
      "constant": true,
      "inputs": [
        {
          "internalType": "address",
          "name": "account",
          "type": "address"
        }
      ],
      "name": "borrowBalanceStored",
      "outputs": [
        {
          "internalType": "uint256",
          "name": "",
          "type": "uint256"
        }
      ],
      "payable": false,
      "stateMutability": "view",
      "type": "function"
    },
    {
      "constant": true,
      "inputs": [],
      "name": "borrowIndex",
      "outputs": [
        {
          "internalType": "uint256",
          "name": "",
          "type": "uint256"
        }
      ],
      "payable": false,
      "stateMutability": "view",
      "type": "function"
    },
    {
      "constant": true,
      "inputs": [],
      "name": "borrowRatePerBlock",
      "outputs": [
        {
          "internalType": "uint256",
          "name": "",
          "type": "uint256"
        }
      ],
      "payable": false,
      "stateMutability": "view",
      "type": "function"
    },
    {
      "constant": true,
      "inputs": [],
      "name": "comptroller",
      "outputs": [
        {
          "internalType": "contract ComptrollerInterface",
          "name": "",
          "type": "address"
        }
      ],
      "payable": false,
      "stateMutability": "view",
      "type": "function"
    },
    {
      "constant": true,
      "inputs": [],
      "name": "decimals",
      "outputs": [
        {
          "internalType": "uint8",
          "name": "",
          "type": "uint8"
        }
      ],
      "payable": false,
      "stateMutability": "view",
      "type": "function"
    },
    {
      "constant": false,
      "inputs": [],
      "name": "exchangeRateCurrent",
      "outputs": [
        {
          "internalType": "uint256",
          "name": "",
          "type": "uint256"
        }
      ],
      "payable": false,
      "stateMutability": "nonpayable",
      "type": "function"
    },
    {
      "constant": true,
      "inputs": [],
      "name": "exchangeRateStored",
      "outputs": [
        {
          "internalType": "uint256",
          "name": "",
          "type": "uint256"
        }
      ],
      "payable": false,
      "stateMutability": "view",
      "type": "function"
    },
    {
      "constant": true,
      "inputs": [
        {
          "internalType": "address",
          "name": "account",
          "type": "address"
        }
      ],
      "name": "getAccountSnapshot",
      "outputs": [
        {
          "internalType": "uint256",
          "name": "",
          "type": "uint256"
        },
        {
          "internalType": "uint256",
          "name": "",
          "type": "uint256"
        },
        {
          "internalType": "uint256",
          "name": "",
          "type": "uint256"
        },
        {
          "internalType": "uint256",
          "name": "",
          "type": "uint256"
        }
      ],
      "payable": false,
      "stateMutability": "view",
      "type": "function"
    },
    {
      "constant": true,
      "inputs": [],
      "name": "getCash",
      "outputs": [
        {
          "internalType": "uint256",
          "name": "",
          "type": "uint256"
        }
      ],
      "payable": false,
      "stateMutability": "view",
      "type": "function"
    },
    {
      "constant": true,
      "inputs": [],
      "name": "ibMultisig",
      "outputs": [
        {
          "internalType": "address",
          "name": "",
          "type": "address"
        }
      ],
      "payable": false,
      "stateMutability": "view",
      "type": "function"
    },
    {
      "constant": true,
      "inputs": [],
      "name": "implementation",
      "outputs": [
        {
          "internalType": "address",
          "name": "",
          "type": "address"
        }
      ],
      "payable": false,
      "stateMutability": "view",
      "type": "function"
    },
    {
      "constant": false,
      "inputs": [
        {
          "internalType": "address",
          "name": "underlying_",
          "type": "address"
        },
        {
          "internalType": "contract ComptrollerInterface",
          "name": "comptroller_",
          "type": "address"
        },
        {
          "internalType": "contract InterestRateModel",
          "name": "interestRateModel_",
          "type": "address"
        },
        {
          "internalType": "uint256",
          "name": "initialExchangeRateMantissa_",
          "type": "uint256"
        },
        {
          "internalType": "string",
          "name": "name_",
          "type": "string"
        },
        {
          "internalType": "string",
          "name": "symbol_",
          "type": "string"
        },
        {
          "internalType": "uint8",
          "name": "decimals_",
          "type": "uint8"
        }
      ],
      "name": "initialize",
      "outputs": [],
      "payable": false,
      "stateMutability": "nonpayable",
      "type": "function"
    },
    {
      "constant": false,
      "inputs": [
        {
          "internalType": "contract ComptrollerInterface",
          "name": "comptroller_",
          "type": "address"
        },
        {
          "internalType": "contract InterestRateModel",
          "name": "interestRateModel_",
          "type": "address"
        },
        {
          "internalType": "uint256",
          "name": "initialExchangeRateMantissa_",
          "type": "uint256"
        },
        {
          "internalType": "string",
          "name": "name_",
          "type": "string"
        },
        {
          "internalType": "string",
          "name": "symbol_",
          "type": "string"
        },
        {
          "internalType": "uint8",
          "name": "decimals_",
          "type": "uint8"
        }
      ],
      "name": "initialize",
      "outputs": [],
      "payable": false,
      "stateMutability": "nonpayable",
      "type": "function"
    },
    {
      "constant": true,
      "inputs": [],
      "name": "interestRateModel",
      "outputs": [
        {
          "internalType": "contract InterestRateModel",
          "name": "",
          "type": "address"
        }
      ],
      "payable": false,
      "stateMutability": "view",
      "type": "function"
    },
    {
      "constant": true,
      "inputs": [],
      "name": "isCToken",
      "outputs": [
        {
          "internalType": "bool",
          "name": "",
          "type": "bool"
        }
      ],
      "payable": false,
      "stateMutability": "view",
      "type": "function"
    },
    {
      "constant": false,
      "inputs": [
        {
          "internalType": "address",
          "name": "borrower",
          "type": "address"
        },
        {
          "internalType": "uint256",
          "name": "repayAmount",
          "type": "uint256"
        },
        {
          "internalType": "contract CTokenInterface",
          "name": "cTokenCollateral",
          "type": "address"
        }
      ],
      "name": "liquidateBorrow",
      "outputs": [
        {
          "internalType": "uint256",
          "name": "",
          "type": "uint256"
        }
      ],
      "payable": false,
      "stateMutability": "nonpayable",
      "type": "function"
    },
    {
      "constant": false,
      "inputs": [
        {
          "internalType": "uint256",
          "name": "mintAmount",
          "type": "uint256"
        }
      ],
      "name": "mint",
      "outputs": [
        {
          "internalType": "uint256",
          "name": "",
          "type": "uint256"
        }
      ],
      "payable": false,
      "stateMutability": "nonpayable",
      "type": "function"
    },
    {
      "constant": true,
      "inputs": [],
      "name": "name",
      "outputs": [
        {
          "internalType": "string",
          "name": "",
          "type": "string"
        }
      ],
      "payable": false,
      "stateMutability": "view",
      "type": "function"
    },
    {
      "constant": true,
      "inputs": [],
      "name": "pendingAdmin",
      "outputs": [
        {
          "internalType": "address payable",
          "name": "",
          "type": "address"
        }
      ],
      "payable": false,
      "stateMutability": "view",
      "type": "function"
    },
    {
      "constant": false,
      "inputs": [
        {
          "internalType": "uint256",
          "name": "redeemTokens",
          "type": "uint256"
        }
      ],
      "name": "redeem",
      "outputs": [
        {
          "internalType": "uint256",
          "name": "",
          "type": "uint256"
        }
      ],
      "payable": false,
      "stateMutability": "nonpayable",
      "type": "function"
    },
    {
      "constant": false,
      "inputs": [
        {
          "internalType": "uint256",
          "name": "redeemAmount",
          "type": "uint256"
        }
      ],
      "name": "redeemUnderlying",
      "outputs": [
        {
          "internalType": "uint256",
          "name": "",
          "type": "uint256"
        }
      ],
      "payable": false,
      "stateMutability": "nonpayable",
      "type": "function"
    },
    {
      "constant": false,
      "inputs": [
        {
          "internalType": "uint256",
          "name": "repayAmount",
          "type": "uint256"
        }
      ],
      "name": "repayBorrow",
      "outputs": [
        {
          "internalType": "uint256",
          "name": "",
          "type": "uint256"
        }
      ],
      "payable": false,
      "stateMutability": "nonpayable",
      "type": "function"
    },
    {
      "constant": true,
      "inputs": [],
      "name": "reserveFactorMantissa",
      "outputs": [
        {
          "internalType": "uint256",
          "name": "",
          "type": "uint256"
        }
      ],
      "payable": false,
      "stateMutability": "view",
      "type": "function"
    },
    {
      "constant": false,
      "inputs": [
        {
          "internalType": "address",
          "name": "liquidator",
          "type": "address"
        },
        {
          "internalType": "address",
          "name": "borrower",
          "type": "address"
        },
        {
          "internalType": "uint256",
          "name": "seizeTokens",
          "type": "uint256"
        }
      ],
      "name": "seize",
      "outputs": [
        {
          "internalType": "uint256",
          "name": "",
          "type": "uint256"
        }
      ],
      "payable": false,
      "stateMutability": "nonpayable",
      "type": "function"
    },
    {
      "constant": true,
      "inputs": [],
      "name": "supplyRatePerBlock",
      "outputs": [
        {
          "internalType": "uint256",
          "name": "",
          "type": "uint256"
        }
      ],
      "payable": false,
      "stateMutability": "view",
      "type": "function"
    },
    {
      "constant": true,
      "inputs": [],
      "name": "symbol",
      "outputs": [
        {
          "internalType": "string",
          "name": "",
          "type": "string"
        }
      ],
      "payable": false,
      "stateMutability": "view",
      "type": "function"
    },
    {
      "constant": true,
      "inputs": [],
      "name": "totalBorrows",
      "outputs": [
        {
          "internalType": "uint256",
          "name": "",
          "type": "uint256"
        }
      ],
      "payable": false,
      "stateMutability": "view",
      "type": "function"
    },
    {
      "constant": false,
      "inputs": [],
      "name": "totalBorrowsCurrent",
      "outputs": [
        {
          "internalType": "uint256",
          "name": "",
          "type": "uint256"
        }
      ],
      "payable": false,
      "stateMutability": "nonpayable",
      "type": "function"
    },
    {
      "constant": true,
      "inputs": [],
      "name": "totalReserves",
      "outputs": [
        {
          "internalType": "uint256",
          "name": "",
          "type": "uint256"
        }
      ],
      "payable": false,
      "stateMutability": "view",
      "type": "function"
    },
    {
      "constant": true,
      "inputs": [],
      "name": "totalSupply",
      "outputs": [
        {
          "internalType": "uint256",
          "name": "",
          "type": "uint256"
        }
      ],
      "payable": false,
      "stateMutability": "view",
      "type": "function"
    },
    {
      "constant": false,
      "inputs": [
        {
          "internalType": "address",
          "name": "dst",
          "type": "address"
        },
        {
          "internalType": "uint256",
          "name": "amount",
          "type": "uint256"
        }
      ],
      "name": "transfer",
      "outputs": [
        {
          "internalType": "bool",
          "name": "",
          "type": "bool"
        }
      ],
      "payable": false,
      "stateMutability": "nonpayable",
      "type": "function"
    },
    {
      "constant": false,
      "inputs": [
        {
          "internalType": "address",
          "name": "src",
          "type": "address"
        },
        {
          "internalType": "address",
          "name": "dst",
          "type": "address"
        },
        {
          "internalType": "uint256",
          "name": "amount",
          "type": "uint256"
        }
      ],
      "name": "transferFrom",
      "outputs": [
        {
          "internalType": "bool",
          "name": "",
          "type": "bool"
        }
      ],
      "payable": false,
      "stateMutability": "nonpayable",
      "type": "function"
    },
    {
      "constant": true,
      "inputs": [],
      "name": "underlying",
      "outputs": [
        {
          "internalType": "address",
          "name": "",
          "type": "address"
        }
      ],
      "payable": false,
      "stateMutability": "view",
      "type": "function"
    }
  ],
  "transactionHash": "0xd551ebb575b0e4845d253f17b0f0edbb757a817687cb7d21690f976930d0f86b",
  "args": [],
  "solcInputHash": "28b41f7fa92e14943a55d50d1e456589",
  "bytecode": "0x608060405234801561001057600080fd5b50613fae806100206000396000f3fe608060405234801561001057600080fd5b50600436106102f15760003560e01c806373acee981161019d578063bd6d894d116100e9578063f2b3abbd116100a2578063f851a4401161007c578063f851a44014610b0e578063f8f9da2814610b16578063fca7820b14610b1e578063fe9c44ae14610b3b576102f1565b8063f2b3abbd14610aaa578063f3fdb15a14610ad0578063f5e3c46214610ad8576102f1565b8063bd6d894d146109e6578063c37f68e2146109ee578063c5ebeaec14610a3a578063db006a7514610a57578063dd62ed3e14610a74578063e9c714f214610aa2576102f1565b8063a0712d6811610156578063aa5af0fd11610130578063aa5af0fd1461097a578063ae9d70b014610982578063b2a02ff11461098a578063b71d1a0c146109c0576102f1565b8063a0712d6814610929578063a6afed9514610946578063a9059cbb1461094e576102f1565b806373acee9814610780578063852a12e3146107885780638f840ddd146107a557806395d89b41146107ad57806395dd9193146107b557806399d8c1b4146107db576102f1565b80633af9e6691161025c57806356e6772811610215578063601a0bf1116101ef578063601a0bf11461072d5780636c540baf1461074a5780636f307dc31461075257806370a082311461075a576102f1565b806356e67728146106795780635c60da1b1461071d5780635fe3b56714610725576102f1565b80633af9e669146105f85780633b1d21a21461061e5780633e941010146106265780634576b5db1461064357806347bd3718146106695780634b0b685f14610671576102f1565b806318160ddd116102ae57806318160ddd1461041a578063182df0f5146104225780631a31d4651461042a57806323b872dd1461058057806326782247146105b6578063313ce567146105da576102f1565b806306fdde03146102f6578063095ea7b3146103735780630e752702146103b3578063153ab505146103e2578063173b9904146103ec57806317bfdfbc146103f4575b600080fd5b6102fe610b43565b6040805160208082528351818301528351919283929083019185019080838360005b83811015610338578181015183820152602001610320565b50505050905090810190601f1680156103655780820380516001836020036101000a031916815260200191505b509250505060405180910390f35b61039f6004803603604081101561038957600080fd5b506001600160a01b038135169060200135610bd0565b604080519115158252519081900360200190f35b6103d0600480360360208110156103c957600080fd5b5035610c3d565b60408051918252519081900360200190f35b6103ea610c53565b005b6103d0610ca3565b6103d06004803603602081101561040a57600080fd5b50356001600160a01b0316610ca9565b6103d0610d69565b6103d0610d6f565b6103ea600480360360e081101561044057600080fd5b6001600160a01b03823581169260208101358216926040820135909216916060820135919081019060a081016080820135600160201b81111561048257600080fd5b82018360208201111561049457600080fd5b803590602001918460018302840111600160201b831117156104b557600080fd5b91908080601f0160208091040260200160405190810160405280939291908181526020018383808284376000920191909152509295949360208101935035915050600160201b81111561050757600080fd5b82018360208201111561051957600080fd5b803590602001918460018302840111600160201b8311171561053a57600080fd5b91908080601f0160208091040260200160405190810160405280939291908181526020018383808284376000920191909152509295505050903560ff169150610d7f9050565b61039f6004803603606081101561059657600080fd5b506001600160a01b03813581169160208101359091169060400135610e1e565b6105be610e90565b604080516001600160a01b039092168252519081900360200190f35b6105e2610e9f565b6040805160ff9092168252519081900360200190f35b6103d06004803603602081101561060e57600080fd5b50356001600160a01b0316610ea8565b6103d0610ef5565b6103d06004803603602081101561063c57600080fd5b5035610eff565b6103d06004803603602081101561065957600080fd5b50356001600160a01b0316610f0a565b6103d061105c565b6105be611062565b6103ea6004803603602081101561068f57600080fd5b810190602081018135600160201b8111156106a957600080fd5b8201836020820111156106bb57600080fd5b803590602001918460018302840111600160201b831117156106dc57600080fd5b91908080601f01602080910402602001604051908101604052809392919081815260200183838082843760009201919091525092955061107a945050505050565b6105be6110cb565b6105be6110da565b6103d06004803603602081101561074357600080fd5b50356110e9565b6103d0611184565b6105be61118a565b6103d06004803603602081101561077057600080fd5b50356001600160a01b0316611199565b6103d06111b4565b6103d06004803603602081101561079e57600080fd5b503561126a565b6103d0611275565b6102fe61127b565b6103d0600480360360208110156107cb57600080fd5b50356001600160a01b03166112d3565b6103ea600480360360c08110156107f157600080fd5b6001600160a01b03823581169260208101359091169160408201359190810190608081016060820135600160201b81111561082b57600080fd5b82018360208201111561083d57600080fd5b803590602001918460018302840111600160201b8311171561085e57600080fd5b91908080601f0160208091040260200160405190810160405280939291908181526020018383808284376000920191909152509295949360208101935035915050600160201b8111156108b057600080fd5b8201836020820111156108c257600080fd5b803590602001918460018302840111600160201b831117156108e357600080fd5b91908080601f0160208091040260200160405190810160405280939291908181526020018383808284376000920191909152509295505050903560ff1691506112de9050565b6103d06004803603602081101561093f57600080fd5b50356114c5565b6103d06114d1565b61039f6004803603604081101561096457600080fd5b506001600160a01b0381351690602001356116e1565b6103d0611752565b6103d0611758565b6103d0600480360360608110156109a057600080fd5b506001600160a01b038135811691602081013590911690604001356117f7565b6103d0600480360360208110156109d657600080fd5b50356001600160a01b0316611868565b6103d06118f4565b610a1460048036036020811015610a0457600080fd5b50356001600160a01b03166119b0565b604080519485526020850193909352838301919091526060830152519081900360800190f35b6103d060048036036020811015610a5057600080fd5b50356119f7565b6103d060048036036020811015610a6d57600080fd5b5035611a02565b6103d060048036036040811015610a8a57600080fd5b506001600160a01b0381358116916020013516611a0d565b6103d0611a38565b6103d060048036036020811015610ac057600080fd5b50356001600160a01b0316611b3b565b6105be611b75565b6103d060048036036060811015610aee57600080fd5b506001600160a01b03813581169160208101359160409091013516611b84565b6105be611b9c565b6103d0611bb0565b6103d060048036036020811015610b3457600080fd5b5035611c14565b61039f611c92565b60018054604080516020600284861615610100026000190190941693909304601f81018490048402820184019092528181529291830182828015610bc85780601f10610b9d57610100808354040283529160200191610bc8565b820191906000526020600020905b815481529060010190602001808311610bab57829003601f168201915b505050505081565b336000818152600f602090815260408083206001600160a01b03871680855290835281842086905581518681529151939493909284927f8c5be1e5ebec7d5bd14f71427d1e84f3dd0314c0f7b2291e5b200ac8c7c3b925929081900390910190a360019150505b92915050565b600080610c4983611c97565b509150505b919050565b60035461010090046001600160a01b03163314610ca15760405162461bcd60e51b815260040180806020018281038252602d815260200180613ec2602d913960400191505060405180910390fd5b565b60085481565b6000805460ff16610cee576040805162461bcd60e51b815260206004820152600a6024820152691c994b595b9d195c995960b21b604482015290519081900360640190fd5b6000805460ff19168155610d006114d1565b14610d4b576040805162461bcd60e51b81526020600482015260166024820152751858d8dc9d59481a5b9d195c995cdd0819985a5b195960521b604482015290519081900360640190fd5b610d54826112d3565b90505b6000805460ff19166001179055919050565b600d5481565b6000610d79611d40565b90505b90565b610d8d8686868686866112de565b601180546001600160a01b0319166001600160a01b038981169190911791829055604080516318160ddd60e01b8152905192909116916318160ddd91600480820192602092909190829003018186803b158015610de957600080fd5b505afa158015610dfd573d6000803e3d6000fd5b505050506040513d6020811015610e1357600080fd5b505050505050505050565b6000805460ff16610e63576040805162461bcd60e51b815260206004820152600a6024820152691c994b595b9d195c995960b21b604482015290519081900360640190fd5b6000805460ff19168155610e7933868686611da6565b1490506000805460ff191660011790559392505050565b6004546001600160a01b031681565b60035460ff1681565b6000610eb2613cd4565b6040518060200160405280610ec56118f4565b90526001600160a01b0384166000908152600e6020526040902054909150610eee908290611db9565b9392505050565b6000610d79611dd8565b6000610c3782611e58565b60035460009061010090046001600160a01b03163314610f3757610f3060016028611eec565b9050610c4e565b60055460408051623f1ee960e11b815290516001600160a01b0392831692851691627e3dd2916004808301926020929190829003018186803b158015610f7c57600080fd5b505afa158015610f90573d6000803e3d6000fd5b505050506040513d6020811015610fa657600080fd5b5051610ff9576040805162461bcd60e51b815260206004820152601c60248201527f6d61726b6572206d6574686f642072657475726e65642066616c736500000000604482015290519081900360640190fd5b600580546001600160a01b0319166001600160a01b03858116918217909255604080519284168352602083019190915280517f7ac369dbd14fa5ea3f473ed67cc9d598964a77501540ba6751eb0b3decf5870d9281900390910190a16000610eee565b600b5481565b73a5fc0bbfcd05827ed582869b7254b6f141ba84eb81565b60035461010090046001600160a01b031633146110c85760405162461bcd60e51b815260040180806020018281038252602d815260200180613f4d602d913960400191505060405180910390fd5b50565b6012546001600160a01b031681565b6005546001600160a01b031681565b6000805460ff1661112e576040805162461bcd60e51b815260206004820152600a6024820152691c994b595b9d195c995960b21b604482015290519081900360640190fd5b6000805460ff191681556111406114d1565b905080156111665761115e81601081111561115757fe5b601d611eec565b915050610d57565b61116f83611f52565b9150506000805460ff19166001179055919050565b60095481565b6011546001600160a01b031681565b6001600160a01b03166000908152600e602052604090205490565b6000805460ff166111f9576040805162461bcd60e51b815260206004820152600a6024820152691c994b595b9d195c995960b21b604482015290519081900360640190fd5b6000805460ff1916815561120b6114d1565b14611256576040805162461bcd60e51b81526020600482015260166024820152751858d8dc9d59481a5b9d195c995cdd0819985a5b195960521b604482015290519081900360640190fd5b50600b546000805460ff1916600117905590565b6000610c378261204e565b600c5481565b6002805460408051602060018416156101000260001901909316849004601f81018490048402820184019092528181529291830182828015610bc85780601f10610b9d57610100808354040283529160200191610bc8565b6000610c37826120cf565b60035461010090046001600160a01b0316331461132c5760405162461bcd60e51b8152600401808060200182810382526024815260200180613e296024913960400191505060405180910390fd5b60095415801561133c5750600a54155b6113775760405162461bcd60e51b8152600401808060200182810382526023815260200180613e4d6023913960400191505060405180910390fd5b6007849055836113b85760405162461bcd60e51b8152600401808060200182810382526030815260200180613e706030913960400191505060405180910390fd5b60006113c387610f0a565b90508015611418576040805162461bcd60e51b815260206004820152601a60248201527f73657474696e6720636f6d7074726f6c6c6572206661696c6564000000000000604482015290519081900360640190fd5b611420612124565b600955670de0b6b3a7640000600a5561143886612128565b905080156114775760405162461bcd60e51b8152600401808060200182810382526022815260200180613ea06022913960400191505060405180910390fd5b835161148a906001906020870190613ce7565b50825161149e906002906020860190613ce7565b50506003805460ff90921660ff199283161790556000805490911660011790555050505050565b600080610c498361229d565b6000806114dc612124565b600954909150808214156114f557600092505050610d7c565b60006114ff611dd8565b600b54600c54600a54600654604080516315f2405360e01b815260048101879052602481018690526044810185905290519596509394929391926000926001600160a01b03909216916315f24053916064808301926020929190829003018186803b15801561156d57600080fd5b505afa158015611581573d6000803e3d6000fd5b505050506040513d602081101561159757600080fd5b5051905065048c273950008111156115f6576040805162461bcd60e51b815260206004820152601c60248201527f626f72726f772072617465206973206162737572646c79206869676800000000604482015290519081900360640190fd5b6000611602888861231e565b905061160c613cd4565b61162460405180602001604052808581525083612358565b905060006116328288611db9565b905060006116408289612382565b9050600061165f6040518060200160405280600854815250848a6123b8565b9050600061166e85898a6123b8565b60098e9055600a819055600b849055600c839055604080518d8152602081018790528082018390526060810186905290519192507f4dec04e750ca11537cabcd8a9eab06494de08da3735bc8871cd41250e190bc04919081900360800190a160009d505050505050505050505050505090565b6000805460ff16611726576040805162461bcd60e51b815260206004820152600a6024820152691c994b595b9d195c995960b21b604482015290519081900360640190fd5b6000805460ff1916815561173c33338686611da6565b1490506000805460ff1916600117905592915050565b600a5481565b6006546000906001600160a01b031663b8168816611774611dd8565b600b54600c546008546040518563ffffffff1660e01b81526004018085815260200184815260200183815260200182815260200194505050505060206040518083038186803b1580156117c657600080fd5b505afa1580156117da573d6000803e3d6000fd5b505050506040513d60208110156117f057600080fd5b5051905090565b6000805460ff1661183c576040805162461bcd60e51b815260206004820152600a6024820152691c994b595b9d195c995960b21b604482015290519081900360640190fd5b6000805460ff19169055611852338585856123e0565b90506000805460ff191660011790559392505050565b60035460009061010090046001600160a01b0316331461188e57610f306001602e611eec565b600480546001600160a01b038481166001600160a01b0319831681179093556040805191909216808252602082019390935281517fca4f2f25d0898edd99413412fb94012f9e54ec8142f9b093e7720646a95b16a9929181900390910190a16000610eee565b6000805460ff16611939576040805162461bcd60e51b815260206004820152600a6024820152691c994b595b9d195c995960b21b604482015290519081900360640190fd5b6000805460ff1916815561194b6114d1565b14611996576040805162461bcd60e51b81526020600482015260166024820152751858d8dc9d59481a5b9d195c995cdd0819985a5b195960521b604482015290519081900360640190fd5b61199e610d6f565b90506000805460ff1916600117905590565b6001600160a01b0381166000908152600e6020526040812054819081908190816119d9876120cf565b905060006119e5611d40565b90506000989297509095509350915050565b6000610c378261265a565b6000610c37826126d9565b6001600160a01b039182166000908152600f6020908152604080832093909416825291909152205490565b6004546000906001600160a01b031633141580611a53575033155b15611a6b57611a6460016000611eec565b9050610d7c565b60038054600480546001600160a01b03818116610100818102610100600160a81b0319871617968790556001600160a01b031990931690935560408051948390048216808652929095041660208401528351909391927ff9ffabca9c8276e99321725bcb43fb076a6c66a54b7f21c4e8146d8519b417dc92908290030190a1600454604080516001600160a01b038085168252909216602083015280517fca4f2f25d0898edd99413412fb94012f9e54ec8142f9b093e7720646a95b16a99281900390910190a160009250505090565b600080611b466114d1565b90508015611b6c57611b64816010811115611b5d57fe5b6029611eec565b915050610c4e565b610eee83612128565b6006546001600160a01b031681565b600080611b92858585612753565b5095945050505050565b60035461010090046001600160a01b031681565b6006546000906001600160a01b03166315f24053611bcc611dd8565b600b54600c546040518463ffffffff1660e01b815260040180848152602001838152602001828152602001935050505060206040518083038186803b1580156117c657600080fd5b6000805460ff16611c59576040805162461bcd60e51b815260206004820152600a6024820152691c994b595b9d195c995960b21b604482015290519081900360640190fd5b6000805460ff19168155611c6b6114d1565b90508015611c895761115e816010811115611c8257fe5b602f611eec565b61116f83612885565b600181565b60008054819060ff16611cde576040805162461bcd60e51b815260206004820152600a6024820152691c994b595b9d195c995960b21b604482015290519081900360640190fd5b6000805460ff19168155611cf06114d1565b90508015611d1b57611d0e816010811115611d0757fe5b6022611eec565b925060009150611d2c9050565b611d2633338661292d565b92509250505b6000805460ff191660011790559092909150565b600d5460009080611d55575050600754610d7c565b6000611d5f611dd8565b90506000611d7a611d7283600b54612382565b600c5461231e565b90506000611d9682604051806020016040528087815250612bd5565b9450610d7c9350505050565b5090565b6000806000fd5b9150505b949350505050565b6000611dc3613cd4565b611dcd8484612358565b9050611db181612c59565b601154604080516370a0823160e01b815230600482015290516000926001600160a01b03169182916370a0823191602480820192602092909190829003018186803b158015611e2657600080fd5b505afa158015611e3a573d6000803e3d6000fd5b505050506040513d6020811015611e5057600080fd5b505191505090565b6000805460ff16611e9d576040805162461bcd60e51b815260206004820152600a6024820152691c994b595b9d195c995960b21b604482015290519081900360640190fd5b6000805460ff19168155611eaf6114d1565b90508015611ecd5761115e816010811115611ec657fe5b6035611eec565b611ed683612c68565b509150506000805460ff19166001179055919050565b60007f45b96fe442630264581b197e84bbada861235052c5a1aadfff9ea4e40a969aa0836010811115611f1b57fe5b836037811115611f2757fe5b604080519283526020830191909152600082820152519081900360600190a1826010811115610eee57fe5b600354600090819061010090046001600160a01b03163314611f7a57611b646001601e611eec565b611f82612124565b60095414611f9657611b64600a6020611eec565b82611f9f611dd8565b1015611fb157611b64600e601f611eec565b600c54831115611fc757611b6460026021611eec565b611fd3600c548461231e565b600c819055600354909150611ff69061010090046001600160a01b031684612d03565b600354604080516101009092046001600160a01b0316825260208201859052818101839052517f3bad0c59cf2f06e7314077049f48a93578cd16f5ef92329f1dab1420a99c177e916060908290030190a16000610eee565b6000805460ff16612093576040805162461bcd60e51b815260206004820152600a6024820152691c994b595b9d195c995960b21b604482015290519081900360640190fd5b6000805460ff191681556120a56114d1565b905080156120c35761115e8160108111156120bc57fe5b6019611eec565b61116f33600085611da6565b6001600160a01b038116600090815260106020526040812080546120f7576000915050610c4e565b60006121098260000154600a54612dfa565b9050600061211b828460010154612e3c565b95945050505050565b4390565b600354600090819061010090046001600160a01b0316331461215057611b646001602b611eec565b612158612124565b6009541461216c57611b64600a602a611eec565b600660009054906101000a90046001600160a01b03169050826001600160a01b0316632191f92a6040518163ffffffff1660e01b815260040160206040518083038186803b1580156121bd57600080fd5b505afa1580156121d1573d6000803e3d6000fd5b505050506040513d60208110156121e757600080fd5b505161223a576040805162461bcd60e51b815260206004820152601c60248201527f6d61726b6572206d6574686f642072657475726e65642066616c736500000000604482015290519081900360640190fd5b600680546001600160a01b0319166001600160a01b03858116918217909255604080519284168352602083019190915280517fedffc32e068c7c95dfd4bdfd5c4d939a084d6b11c4199eac8436ed234d72f9269281900390910190a16000610eee565b60008054819060ff166122e4576040805162461bcd60e51b815260206004820152600a6024820152691c994b595b9d195c995960b21b604482015290519081900360640190fd5b6000805460ff191681556122f66114d1565b9050801561231457611d0e81601081111561230d57fe5b6014611eec565b611d263385612e6f565b6000610eee8383604051806040016040528060158152602001747375627472616374696f6e20756e646572666c6f7760581b815250613118565b612360613cd4565b6040518060200160405280612379856000015185612dfa565b90529392505050565b6000610eee8383604051806040016040528060118152602001706164646974696f6e206f766572666c6f7760781b8152506131af565b60006123c2613cd4565b6123cc8585612358565b905061211b6123da82612c59565b84612382565b60006001600160a01b03841673a5fc0bbfcd05827ed582869b7254b6f141ba84eb1461243d5760405162461bcd60e51b815260040180806020018281038252602b815260200180613eef602b913960400191505060405180910390fd5b6005546040805163d02f735160e01b81523060048201526001600160a01b03888116602483015287811660448301528681166064830152608482018690529151600093929092169163d02f73519160a48082019260209290919082900301818787803b1580156124ac57600080fd5b505af11580156124c0573d6000803e3d6000fd5b505050506040513d60208110156124d657600080fd5b5051905080156124ed57611dad6003601183612bf3565b846001600160a01b0316846001600160a01b0316141561251357611dad60066012611eec565b6001600160a01b0384166000908152600e6020526040812054612536908561231e565b6001600160a01b0387166000908152600e60205260408120549192509061255d9086612382565b6001600160a01b038088166000818152600e60209081526040808320889055938c168083529184902085905583518a81529351949550909391927fddf252ad1be2c89b69c2b068fc378daa952ba7f163c4a11628f55a4df523b3ef929081900390910190a360055460408051636d35bf9160e01b81523060048201526001600160a01b038b811660248301528a8116604483015289811660648301526084820189905291519190921691636d35bf919160a480830192600092919082900301818387803b15801561262d57600080fd5b505af1158015612641573d6000803e3d6000fd5b506000925061264e915050565b98975050505050505050565b6000805460ff1661269f576040805162461bcd60e51b815260206004820152600a6024820152691c994b595b9d195c995960b21b604482015290519081900360640190fd5b6000805460ff191681556126b16114d1565b905080156126cf5761115e8160108111156126c857fe5b6002611eec565b61116f338461320d565b6000805460ff1661271e576040805162461bcd60e51b815260206004820152600a6024820152691c994b595b9d195c995960b21b604482015290519081900360640190fd5b6000805460ff191681556127306114d1565b905080156127475761115e8160108111156120bc57fe5b61116f33846000611da6565b60008054819060ff1661279a576040805162461bcd60e51b815260206004820152600a6024820152691c994b595b9d195c995960b21b604482015290519081900360640190fd5b6000805460ff191681556127ac6114d1565b905080156127d7576127ca8160108111156127c357fe5b6007611eec565b92506000915061286e9050565b836001600160a01b031663a6afed956040518163ffffffff1660e01b8152600401602060405180830381600087803b15801561281257600080fd5b505af1158015612826573d6000803e3d6000fd5b505050506040513d602081101561283c57600080fd5b50519050801561285c576127ca81601081111561285557fe5b6008611eec565b6128683387878761342b565b92509250505b6000805460ff191660011790559094909350915050565b60035460009061010090046001600160a01b031633146128ab57610f3060016030611eec565b6128b3612124565b600954146128c757610f30600a6031611eec565b670de0b6b3a76400008211156128e357610f3060026032611eec565b6008805490839055604080518281526020810185905281517faaa68312e2ea9d50e16af5068410ab56e1a1fd06037b1a35664812c30f821460929181900390910190a16000610eee565b60055460408051631200453160e11b81523060048201526001600160a01b0386811660248301528581166044830152606482018590529151600093849384939116916324008a629160848082019260209290919082900301818787803b15801561299657600080fd5b505af11580156129aa573d6000803e3d6000fd5b505050506040513d60208110156129c057600080fd5b5051905080156129e4576129d76003602383612bf3565b925060009150612bcd9050565b6129ec612124565b60095414612a00576129d7600a6024611eec565b612a08613d61565b6001600160a01b0386166000908152601060205260409020600101546060820152612a32866120cf565b6080820152600019851415612a505760808101516040820152612a58565b604081018590525b612a668782604001516139ae565b60e082018190526080820151612a7b9161231e565b60a0820152600b5460e0820151612a92919061231e565b60c0820190815260a080830180516001600160a01b03808b16600081815260106020908152604091829020948555600a546001909501949094559551600b81905560e088015194518751938f16845293830191909152818601939093526060810191909152608081019190915291517f1a2a22cb034d26d1854bdc6666a5b91fe25efbbb5dcad3b0355478d6f5c362a19281900390910190a160055460e0820151606083015160408051631ededc9160e01b81523060048201526001600160a01b038c811660248301528b8116604483015260648201949094526084810192909252519190921691631ededc919160a480830192600092919082900301818387803b158015612ba057600080fd5b505af1158015612bb4573d6000803e3d6000fd5b5060009250612bc1915050565b8160e001519350935050505b935093915050565b6000610eee612bec84670de0b6b3a7640000612dfa565b8351612e3c565b60007f45b96fe442630264581b197e84bbada861235052c5a1aadfff9ea4e40a969aa0846010811115612c2257fe5b846037811115612c2e57fe5b604080519283526020830191909152818101859052519081900360600190a1836010811115611db157fe5b51670de0b6b3a7640000900490565b600080600080612c76612124565b60095414612c9557612c8a600a6036611eec565b93509150612cfe9050565b612c9f33866139ae565b9050612cad600c5482612382565b600c819055604080513381526020810184905280820183905290519193507fa91e67c5ea634cd43a12c5a482724b03de01e85ca68702a53d0c2f45cb7c1dc5919081900360600190a1600093509150505b915091565b6011546040805163a9059cbb60e01b81526001600160a01b0385811660048301526024820185905291519190921691829163a9059cbb9160448082019260009290919082900301818387803b158015612d5b57600080fd5b505af1158015612d6f573d6000803e3d6000fd5b5050505060003d60008114612d8b5760208114612d9557600080fd5b6000199150612da1565b60206000803e60005191505b5080612df4576040805162461bcd60e51b815260206004820152601960248201527f544f4b454e5f5452414e534645525f4f55545f4641494c454400000000000000604482015290519081900360640190fd5b50505050565b6000610eee83836040518060400160405280601781526020017f6d756c7469706c69636174696f6e206f766572666c6f77000000000000000000815250613bbf565b6000610eee83836040518060400160405280600e81526020016d646976696465206279207a65726f60901b815250613c35565b60055460408051634ef4c3e160e01b81523060048201526001600160a01b03858116602483015260448201859052915160009384938493911691634ef4c3e19160648082019260209290919082900301818787803b158015612ed057600080fd5b505af1158015612ee4573d6000803e3d6000fd5b505050506040513d6020811015612efa57600080fd5b505190508015612f1e57612f116003601583612bf3565b9250600091506131119050565b612f26612124565b60095414612f3a57612f11600a6016611eec565b612f42613da7565b612f4a611d40565b6040820152612f5986866139ae565b60c0820181905260408051602081018252908301518152612f7a9190613bab565b60608201819052600d54612f8d91612382565b60808201526001600160a01b0386166000908152600e60205260409020546060820151612fba9190612382565b60a082018190526080820151600d556001600160a01b0387166000818152600e60209081526040918290209390935560c084015160608086015183519485529484019190915282820193909352517f4c209b5fc8ad50758f13e2e1088ba56a560dff690a1c6fef26394f4c03821c4f929181900390910190a1606081015160408051918252516001600160a01b0388169130917fddf252ad1be2c89b69c2b068fc378daa952ba7f163c4a11628f55a4df523b3ef9181900360200190a360055460c08201516060830151604080516341c728b960e01b81523060048201526001600160a01b038b81166024830152604482019490945260648101929092525191909216916341c728b991608480830192600092919082900301818387803b1580156130e457600080fd5b505af11580156130f8573d6000803e3d6000fd5b5060009250613105915050565b8160c001519350935050505b9250929050565b600081848411156131a75760405162461bcd60e51b81526004018080602001828103825283818151815260200191508051906020019080838360005b8381101561316c578181015183820152602001613154565b50505050905090810190601f1680156131995780820380516001836020036101000a031916815260200191505b509250505060405180910390fd5b505050900390565b600083830182858210156132045760405162461bcd60e51b815260206004820181815283516024840152835190928392604490910191908501908083836000831561316c578181015183820152602001613154565b50949350505050565b6005546040805163368f515360e21b81523060048201526001600160a01b0385811660248301526044820185905291516000938493169163da3d454c91606480830192602092919082900301818787803b15801561326a57600080fd5b505af115801561327e573d6000803e3d6000fd5b505050506040513d602081101561329457600080fd5b5051905080156132b3576132ab6003600683612bf3565b915050610c37565b6132bb612124565b600954146132cf576132ab600a6004611eec565b826132d8611dd8565b10156132ea576132ab600e6003611eec565b6132f2613de5565b6132fb856120cf565b6020820181905261330c9085612382565b6040820152600b5461331e9085612382565b606082015261332d8585612d03565b604080820180516001600160a01b03881660008181526010602090815290859020928355600a54600190930192909255606080860151600b81905593518551928352928201899052818501929092529081019190915290517f13ed6866d4e1ee6da46f845c46d7e54120883d75c5ea9a2dacc1c4ca8984ab809181900360800190a160055460408051635c77860560e01b81523060048201526001600160a01b0388811660248301526044820188905291519190921691635c77860591606480830192600092919082900301818387803b15801561340a57600080fd5b505af115801561341e573d6000803e3d6000fd5b506000925061211b915050565b60055460408051632fe3f38f60e11b81523060048201526001600160a01b0384811660248301528781166044830152868116606483015260848201869052915160009384938493911691635fc7e71e9160a48082019260209290919082900301818787803b15801561349c57600080fd5b505af11580156134b0573d6000803e3d6000fd5b505050506040513d60208110156134c657600080fd5b5051905080156134ea576134dd6003600a83612bf3565b9250600091506139a59050565b6134f2612124565b60095414613506576134dd600a600e611eec565b61350e612124565b846001600160a01b0316636c540baf6040518163ffffffff1660e01b815260040160206040518083038186803b15801561354757600080fd5b505afa15801561355b573d6000803e3d6000fd5b505050506040513d602081101561357157600080fd5b505114613584576134dd600a6009611eec565b866001600160a01b0316866001600160a01b031614156135aa576134dd6006600f611eec565b846135bb576134dd6007600d611eec565b6000198514156135d1576134dd6007600c611eec565b6000806135df89898961292d565b9092509050811561360f576136008260108111156135f957fe5b6010611eec565b9450600093506139a592505050565b6005546040805163c488847b60e01b81523060048201526001600160a01b038981166024830152604482018590528251600094859492169263c488847b926064808301939192829003018186803b15801561366957600080fd5b505afa15801561367d573d6000803e3d6000fd5b505050506040513d604081101561369357600080fd5b508051602090910151909250905081156136de5760405162461bcd60e51b8152600401808060200182810382526033815260200180613f1a6033913960400191505060405180910390fd5b80886001600160a01b03166370a082318c6040518263ffffffff1660e01b815260040180826001600160a01b03166001600160a01b0316815260200191505060206040518083038186803b15801561373557600080fd5b505afa158015613749573d6000803e3d6000fd5b505050506040513d602081101561375f57600080fd5b505110156137b4576040805162461bcd60e51b815260206004820152601860248201527f4c49515549444154455f5345495a455f544f4f5f4d5543480000000000000000604482015290519081900360640190fd5b60006001600160a01b0389163014156137da576137d3308d8d856123e0565b9050613864565b6040805163b2a02ff160e01b81526001600160a01b038e811660048301528d81166024830152604482018590529151918b169163b2a02ff1916064808201926020929091908290030181600087803b15801561383557600080fd5b505af1158015613849573d6000803e3d6000fd5b505050506040513d602081101561385f57600080fd5b505190505b80156138ae576040805162461bcd60e51b81526020600482015260146024820152731d1bdad95b881cd95a5e9d5c994819985a5b195960621b604482015290519081900360640190fd5b604080516001600160a01b03808f168252808e1660208301528183018790528b1660608201526080810184905290517f298637f684da70674f26509b10f07ec2fbc77a335ab1e7d6215a4b2484d8bb529181900360a00190a1600554604080516347ef3b3b60e01b81523060048201526001600160a01b038c811660248301528f811660448301528e811660648301526084820188905260a48201869052915191909216916347ef3b3b9160c480830192600092919082900301818387803b15801561397957600080fd5b505af115801561398d573d6000803e3d6000fd5b506000925061399a915050565b975092955050505050505b94509492505050565b601154604080516370a0823160e01b815230600482015290516000926001600160a01b031691839183916370a08231916024808301926020929190829003018186803b1580156139fd57600080fd5b505afa158015613a11573d6000803e3d6000fd5b505050506040513d6020811015613a2757600080fd5b5051604080516323b872dd60e01b81526001600160a01b038881166004830152306024830152604482018890529151929350908416916323b872dd9160648082019260009290919082900301818387803b158015613a8457600080fd5b505af1158015613a98573d6000803e3d6000fd5b5050505060003d60008114613ab45760208114613abe57600080fd5b6000199150613aca565b60206000803e60005191505b5080613b1d576040805162461bcd60e51b815260206004820152601860248201527f544f4b454e5f5452414e534645525f494e5f4641494c45440000000000000000604482015290519081900360640190fd5b601154604080516370a0823160e01b815230600482015290516000926001600160a01b0316916370a08231916024808301926020929190829003018186803b158015613b6857600080fd5b505afa158015613b7c573d6000803e3d6000fd5b505050506040513d6020811015613b9257600080fd5b50519050613ba0818461231e565b979650505050505050565b6000613bb5613cd4565b611dcd8484613c97565b6000831580613bcc575082155b15613bd957506000610eee565b83830283858281613be657fe5b041483906132045760405162461bcd60e51b815260206004820181815283516024840152835190928392604490910191908501908083836000831561316c578181015183820152602001613154565b60008183613c845760405162461bcd60e51b815260206004820181815283516024840152835190928392604490910191908501908083836000831561316c578181015183820152602001613154565b50828481613c8e57fe5b04949350505050565b613c9f613cd4565b6000613cb3670de0b6b3a764000085612dfa565b90506040518060200160405280613cca8386612bd5565b9052949350505050565b6040518060200160405280600081525090565b828054600181600116156101000203166002900490600052602060002090601f016020900481019282601f10613d2857805160ff1916838001178555613d55565b82800160010185558215613d55579182015b82811115613d55578251825591602001919060010190613d3a565b50611da2929150613e0e565b6040805161010081019091528060008152602001600081526020016000815260200160008152602001600081526020016000815260200160008152602001600081525090565b6040805160e0810190915280600081526020016000815260200160008152602001600081526020016000815260200160008152602001600081525090565b604080516080810190915280600081526020016000815260200160008152602001600081525090565b610d7c91905b80821115611da25760008155600101613e1456fe6f6e6c792061646d696e206d617920696e697469616c697a6520746865206d61726b65746d61726b6574206d6179206f6e6c7920626520696e697469616c697a6564206f6e6365696e697469616c2065786368616e67652072617465206d7573742062652067726561746572207468616e207a65726f2e73657474696e6720696e7465726573742072617465206d6f64656c206661696c65646f6e6c79207468652061646d696e206d61792063616c6c205f72657369676e496d706c656d656e746174696f6e6f6e6c79206962206d756c7469736967206164647265737320636f756c64207365697a65206379535553444c49515549444154455f434f4d5054524f4c4c45525f43414c43554c4154455f414d4f554e545f5345495a455f4641494c45446f6e6c79207468652061646d696e206d61792063616c6c205f6265636f6d65496d706c656d656e746174696f6ea265627a7a7231582075f19019f03171f06828302686739e7b8d045514a03d34710c7b3536565d873564736f6c63430005110032",
  "devdoc": {
    "author": "Compound",
    "methods": {
      "_acceptAdmin()": {
        "details": "Admin function for pending admin to accept role and update admin",
        "return": "uint 0=success, otherwise a failure (see ErrorReporter.sol for details)"
      },
      "_addReserves(uint256)": {
        "params": {
          "addAmount": "The amount fo underlying token to add as reserves"
        },
        "return": "uint 0=success, otherwise a failure (see ErrorReporter.sol for details)"
      },
      "_becomeImplementation(bytes)": {
        "params": {
          "data": "The encoded bytes data for any initialization"
        }
      },
      "_reduceReserves(uint256)": {
        "params": {
          "reduceAmount": "Amount of reduction to reserves"
        },
        "return": "uint 0=success, otherwise a failure (see ErrorReporter.sol for details)"
      },
      "_setComptroller(address)": {
        "details": "Admin function to set a new comptroller",
        "return": "uint 0=success, otherwise a failure (see ErrorReporter.sol for details)"
      },
      "_setInterestRateModel(address)": {
        "details": "Admin function to accrue interest and update the interest rate model",
        "params": {
          "newInterestRateModel": "the new interest rate model to use"
        },
        "return": "uint 0=success, otherwise a failure (see ErrorReporter.sol for details)"
      },
      "_setPendingAdmin(address)": {
        "details": "Admin function to begin change of admin. The newPendingAdmin must call `_acceptAdmin` to finalize the transfer.",
        "params": {
          "newPendingAdmin": "New pending admin."
        },
        "return": "uint 0=success, otherwise a failure (see ErrorReporter.sol for details)"
      },
      "_setReserveFactor(uint256)": {
        "details": "Admin function to accrue interest and set a new reserve factor",
        "return": "uint 0=success, otherwise a failure (see ErrorReporter.sol for details)"
      },
      "accrueInterest()": {
        "details": "This calculates interest accrued from the last checkpointed block  up to the current block and writes new checkpoint to storage."
      },
      "allowance(address,address)": {
        "params": {
          "owner": "The address of the account which owns the tokens to be spent",
          "spender": "The address of the account which may transfer tokens"
        },
        "return": "The number of tokens allowed to be spent (-1 means infinite)"
      },
      "approve(address,uint256)": {
        "details": "This will overwrite the approval amount for `spender` and is subject to issues noted [here](https://eips.ethereum.org/EIPS/eip-20#approve)",
        "params": {
          "amount": "The number of tokens that are approved (-1 means infinite)",
          "spender": "The address of the account which may transfer tokens"
        },
        "return": "Whether or not the approval succeeded"
      },
      "balanceOf(address)": {
        "params": {
          "owner": "The address of the account to query"
        },
        "return": "The number of tokens owned by `owner`"
      },
      "balanceOfUnderlying(address)": {
        "details": "This also accrues interest in a transaction",
        "params": {
          "owner": "The address of the account to query"
        },
        "return": "The amount of underlying owned by `owner`"
      },
      "borrow(uint256)": {
        "params": {
          "borrowAmount": "The amount of the underlying asset to borrow"
        },
        "return": "uint 0=success, otherwise a failure (see ErrorReporter.sol for details)"
      },
      "borrowBalanceCurrent(address)": {
        "params": {
          "account": "The address whose balance should be calculated after updating borrowIndex"
        },
        "return": "The calculated balance"
      },
      "borrowBalanceStored(address)": {
        "params": {
          "account": "The address whose balance should be calculated"
        },
        "return": "The calculated balance"
      },
      "borrowRatePerBlock()": {
        "return": "The borrow interest rate per block, scaled by 1e18"
      },
      "exchangeRateCurrent()": {
        "return": "Calculated exchange rate scaled by 1e18"
      },
      "exchangeRateStored()": {
        "details": "This function does not accrue interest before calculating the exchange rate",
        "return": "Calculated exchange rate scaled by 1e18"
      },
      "getAccountSnapshot(address)": {
        "details": "This is used by comptroller to more efficiently perform liquidity checks.",
        "params": {
          "account": "Address of the account to snapshot"
        },
        "return": "(possible error, token balance, borrow balance, exchange rate mantissa)"
      },
      "getCash()": {
        "return": "The quantity of underlying asset owned by this contract"
      },
      "initialize(address,address,address,uint256,string,string,uint8)": {
        "params": {
          "comptroller_": "The address of the Comptroller",
          "decimals_": "ERC-20 decimal precision of this token",
          "initialExchangeRateMantissa_": "The initial exchange rate, scaled by 1e18",
          "interestRateModel_": "The address of the interest rate model",
          "name_": "ERC-20 name of this token",
          "symbol_": "ERC-20 symbol of this token",
          "underlying_": "The address of the underlying asset"
        }
      },
      "initialize(address,address,uint256,string,string,uint8)": {
        "params": {
          "comptroller_": "The address of the Comptroller",
          "decimals_": "EIP-20 decimal precision of this token",
          "initialExchangeRateMantissa_": "The initial exchange rate, scaled by 1e18",
          "interestRateModel_": "The address of the interest rate model",
          "name_": "EIP-20 name of this token",
          "symbol_": "EIP-20 symbol of this token"
        }
      },
      "liquidateBorrow(address,uint256,address)": {
        "params": {
          "borrower": "The borrower of this cToken to be liquidated",
          "cTokenCollateral": "The market in which to seize collateral from the borrower",
          "repayAmount": "The amount of the underlying borrowed asset to repay"
        },
        "return": "uint 0=success, otherwise a failure (see ErrorReporter.sol for details)"
      },
      "mint(uint256)": {
        "details": "Accrues interest whether or not the operation succeeds, unless reverted",
        "params": {
          "mintAmount": "The amount of the underlying asset to supply"
        },
        "return": "uint 0=success, otherwise a failure (see ErrorReporter.sol for details)"
      },
      "redeem(uint256)": {
        "details": "Accrues interest whether or not the operation succeeds, unless reverted",
        "params": {
          "redeemTokens": "The number of cTokens to redeem into underlying"
        },
        "return": "uint 0=success, otherwise a failure (see ErrorReporter.sol for details)"
      },
      "redeemUnderlying(uint256)": {
        "details": "Accrues interest whether or not the operation succeeds, unless reverted",
        "params": {
          "redeemAmount": "The amount of underlying to redeem"
        },
        "return": "uint 0=success, otherwise a failure (see ErrorReporter.sol for details)"
      },
      "repayBorrow(uint256)": {
        "params": {
          "repayAmount": "The amount to repay"
        },
        "return": "uint 0=success, otherwise a failure (see ErrorReporter.sol for details)"
      },
      "seize(address,address,uint256)": {
        "details": "Will fail unless called by another cToken during the process of liquidation. Its absolutely critical to use msg.sender as the borrowed cToken and not a parameter.",
        "params": {
          "borrower": "The account having collateral seized",
          "liquidator": "The account receiving seized collateral",
          "seizeTokens": "The number of cTokens to seize"
        },
        "return": "uint 0=success, otherwise a failure (see ErrorReporter.sol for details)"
      },
      "supplyRatePerBlock()": {
        "return": "The supply interest rate per block, scaled by 1e18"
      },
      "totalBorrowsCurrent()": {
        "return": "The total borrows with interest"
      },
      "transfer(address,uint256)": {
        "params": {
          "amount": "The number of tokens to transfer",
          "dst": "The address of the destination account"
        },
        "return": "Whether or not the transfer succeeded"
      },
      "transferFrom(address,address,uint256)": {
        "params": {
          "amount": "The number of tokens to transfer",
          "dst": "The address of the destination account",
          "src": "The address of the source account"
        },
        "return": "Whether or not the transfer succeeded"
      }
    },
    "title": "Compound's CErc20Delegate Contract"
  },
  "userdoc": {
    "methods": {
      "_acceptAdmin()": {
        "notice": "Accepts transfer of admin rights. msg.sender must be pendingAdmin"
      },
      "_addReserves(uint256)": {
        "notice": "The sender adds to reserves."
      },
      "_becomeImplementation(bytes)": {
        "notice": "Called by the delegator on a delegate to initialize it for duty"
      },
      "_reduceReserves(uint256)": {
        "notice": "Accrues interest and reduces reserves by transferring to admin"
      },
      "_resignImplementation()": {
        "notice": "Called by the delegator on a delegate to forfeit its responsibility"
      },
      "_setComptroller(address)": {
        "notice": "Sets a new comptroller for the market"
      },
      "_setInterestRateModel(address)": {
        "notice": "accrues interest and updates the interest rate model using _setInterestRateModelFresh"
      },
      "_setPendingAdmin(address)": {
        "notice": "Begins transfer of admin rights. The newPendingAdmin must call `_acceptAdmin` to finalize the transfer."
      },
      "_setReserveFactor(uint256)": {
        "notice": "accrues interest and sets a new reserve factor for the protocol using _setReserveFactorFresh"
      },
      "accrueInterest()": {
        "notice": "Applies accrued interest to total borrows and reserves"
      },
      "allowance(address,address)": {
        "notice": "Get the current allowance from `owner` for `spender`"
      },
      "approve(address,uint256)": {
        "notice": "Approve `spender` to transfer up to `amount` from `src`"
      },
      "balanceOf(address)": {
        "notice": "Get the token balance of the `owner`"
      },
      "balanceOfUnderlying(address)": {
        "notice": "Get the underlying balance of the `owner`"
      },
      "borrow(uint256)": {
        "notice": "Sender borrows assets from the protocol to their own address"
      },
      "borrowBalanceCurrent(address)": {
        "notice": "Accrue interest to updated borrowIndex and then calculate account's borrow balance using the updated borrowIndex"
      },
      "borrowBalanceStored(address)": {
        "notice": "Return the borrow balance of account based on stored data"
      },
      "borrowRatePerBlock()": {
        "notice": "Returns the current per-block borrow interest rate for this cToken"
      },
      "constructor": "Construct an empty delegate",
      "exchangeRateCurrent()": {
        "notice": "Accrue interest then return the up-to-date exchange rate"
      },
      "exchangeRateStored()": {
        "notice": "Calculates the exchange rate from the underlying to the CToken"
      },
      "getAccountSnapshot(address)": {
        "notice": "Get a snapshot of the account's balances, and the cached exchange rate"
      },
      "getCash()": {
        "notice": "Get cash balance of this cToken in the underlying asset"
      },
      "initialize(address,address,address,uint256,string,string,uint8)": {
        "notice": "Initialize the new money market"
      },
      "initialize(address,address,uint256,string,string,uint8)": {
        "notice": "Initialize the money market"
      },
      "liquidateBorrow(address,uint256,address)": {
        "notice": "The sender liquidates the borrowers collateral. The collateral seized is transferred to the liquidator."
      },
      "mint(uint256)": {
        "notice": "Sender supplies assets into the market and receives cTokens in exchange"
      },
      "redeem(uint256)": {
        "notice": "Sender redeems cTokens in exchange for the underlying asset"
      },
      "redeemUnderlying(uint256)": {
        "notice": "Sender redeems cTokens in exchange for a specified amount of underlying asset"
      },
      "repayBorrow(uint256)": {
        "notice": "Sender repays their own borrow"
      },
      "seize(address,address,uint256)": {
        "notice": "Transfers collateral tokens (this market) to the liquidator."
      },
      "supplyRatePerBlock()": {
        "notice": "Returns the current per-block supply interest rate for this cToken"
      },
      "totalBorrowsCurrent()": {
        "notice": "Returns the current total borrows plus accrued interest"
      },
      "transfer(address,uint256)": {
        "notice": "Transfer `amount` tokens from `msg.sender` to `dst`"
      },
      "transferFrom(address,address,uint256)": {
        "notice": "Transfer `amount` tokens from `src` to `dst`"
      }
    },
    "notice": "CTokens which wrap an EIP-20 underlying and are delegated to"
  },
  "storageLayout": {
    "storage": [
      {
        "astId": 5583,
        "contract": "contracts/CErc20Delegate.sol:CErc20Delegate",
        "label": "_notEntered",
        "offset": 0,
        "slot": "0",
        "type": "t_bool"
      },
      {
        "astId": 5585,
        "contract": "contracts/CErc20Delegate.sol:CErc20Delegate",
        "label": "name",
        "offset": 0,
        "slot": "1",
        "type": "t_string_storage"
      },
      {
        "astId": 5587,
        "contract": "contracts/CErc20Delegate.sol:CErc20Delegate",
        "label": "symbol",
        "offset": 0,
        "slot": "2",
        "type": "t_string_storage"
      },
      {
        "astId": 5589,
        "contract": "contracts/CErc20Delegate.sol:CErc20Delegate",
        "label": "decimals",
        "offset": 0,
        "slot": "3",
        "type": "t_uint8"
      },
      {
        "astId": 5597,
        "contract": "contracts/CErc20Delegate.sol:CErc20Delegate",
        "label": "admin",
        "offset": 1,
        "slot": "3",
        "type": "t_address_payable"
      },
      {
        "astId": 5599,
        "contract": "contracts/CErc20Delegate.sol:CErc20Delegate",
        "label": "pendingAdmin",
        "offset": 0,
        "slot": "4",
        "type": "t_address_payable"
      },
      {
        "astId": 5601,
        "contract": "contracts/CErc20Delegate.sol:CErc20Delegate",
        "label": "comptroller",
        "offset": 0,
        "slot": "5",
        "type": "t_contract(ComptrollerInterface)10088"
      },
      {
        "astId": 5603,
        "contract": "contracts/CErc20Delegate.sol:CErc20Delegate",
        "label": "interestRateModel",
        "offset": 0,
        "slot": "6",
        "type": "t_contract(InterestRateModel)13010"
      },
      {
        "astId": 5605,
        "contract": "contracts/CErc20Delegate.sol:CErc20Delegate",
        "label": "initialExchangeRateMantissa",
        "offset": 0,
        "slot": "7",
        "type": "t_uint256"
      },
      {
        "astId": 5607,
        "contract": "contracts/CErc20Delegate.sol:CErc20Delegate",
        "label": "reserveFactorMantissa",
        "offset": 0,
        "slot": "8",
        "type": "t_uint256"
      },
      {
        "astId": 5609,
        "contract": "contracts/CErc20Delegate.sol:CErc20Delegate",
        "label": "accrualBlockNumber",
        "offset": 0,
        "slot": "9",
        "type": "t_uint256"
      },
      {
        "astId": 5611,
        "contract": "contracts/CErc20Delegate.sol:CErc20Delegate",
        "label": "borrowIndex",
        "offset": 0,
        "slot": "10",
        "type": "t_uint256"
      },
      {
        "astId": 5613,
        "contract": "contracts/CErc20Delegate.sol:CErc20Delegate",
        "label": "totalBorrows",
        "offset": 0,
        "slot": "11",
        "type": "t_uint256"
      },
      {
        "astId": 5615,
        "contract": "contracts/CErc20Delegate.sol:CErc20Delegate",
        "label": "totalReserves",
        "offset": 0,
        "slot": "12",
        "type": "t_uint256"
      },
      {
        "astId": 5617,
        "contract": "contracts/CErc20Delegate.sol:CErc20Delegate",
        "label": "totalSupply",
        "offset": 0,
        "slot": "13",
        "type": "t_uint256"
      },
      {
        "astId": 5621,
        "contract": "contracts/CErc20Delegate.sol:CErc20Delegate",
        "label": "accountTokens",
        "offset": 0,
        "slot": "14",
        "type": "t_mapping(t_address,t_uint256)"
      },
      {
        "astId": 5627,
        "contract": "contracts/CErc20Delegate.sol:CErc20Delegate",
        "label": "transferAllowances",
        "offset": 0,
        "slot": "15",
        "type": "t_mapping(t_address,t_mapping(t_address,t_uint256))"
      },
      {
        "astId": 5636,
        "contract": "contracts/CErc20Delegate.sol:CErc20Delegate",
        "label": "accountBorrows",
        "offset": 0,
        "slot": "16",
        "type": "t_mapping(t_address,t_struct(BorrowSnapshot)5632_storage)"
      },
      {
        "astId": 5940,
        "contract": "contracts/CErc20Delegate.sol:CErc20Delegate",
        "label": "underlying",
        "offset": 0,
        "slot": "17",
        "type": "t_address"
      },
      {
        "astId": 6058,
        "contract": "contracts/CErc20Delegate.sol:CErc20Delegate",
        "label": "implementation",
        "offset": 0,
        "slot": "18",
        "type": "t_address"
      }
    ],
    "types": {
      "t_address": {
        "encoding": "inplace",
        "label": "address",
        "numberOfBytes": "20"
      },
      "t_address_payable": {
        "encoding": "inplace",
        "label": "address payable",
        "numberOfBytes": "20"
      },
      "t_bool": {
        "encoding": "inplace",
        "label": "bool",
        "numberOfBytes": "1"
      },
      "t_contract(ComptrollerInterface)10088": {
        "encoding": "inplace",
        "label": "contract ComptrollerInterface",
        "numberOfBytes": "20"
      },
      "t_contract(InterestRateModel)13010": {
        "encoding": "inplace",
        "label": "contract InterestRateModel",
        "numberOfBytes": "20"
      },
      "t_mapping(t_address,t_mapping(t_address,t_uint256))": {
        "encoding": "mapping",
        "key": "t_address",
        "label": "mapping(address => mapping(address => uint256))",
        "numberOfBytes": "32",
        "value": "t_mapping(t_address,t_uint256)"
      },
      "t_mapping(t_address,t_struct(BorrowSnapshot)5632_storage)": {
        "encoding": "mapping",
        "key": "t_address",
        "label": "mapping(address => struct CTokenStorage.BorrowSnapshot)",
        "numberOfBytes": "32",
        "value": "t_struct(BorrowSnapshot)5632_storage"
      },
      "t_mapping(t_address,t_uint256)": {
        "encoding": "mapping",
        "key": "t_address",
        "label": "mapping(address => uint256)",
        "numberOfBytes": "32",
        "value": "t_uint256"
      },
      "t_string_storage": {
        "encoding": "bytes",
        "label": "string",
        "numberOfBytes": "32"
      },
      "t_struct(BorrowSnapshot)5632_storage": {
        "encoding": "inplace",
        "label": "struct CTokenStorage.BorrowSnapshot",
        "members": [
          {
            "astId": 5629,
            "contract": "contracts/CErc20Delegate.sol:CErc20Delegate",
            "label": "principal",
            "offset": 0,
            "slot": "0",
            "type": "t_uint256"
          },
          {
            "astId": 5631,
            "contract": "contracts/CErc20Delegate.sol:CErc20Delegate",
            "label": "interestIndex",
            "offset": 0,
            "slot": "1",
            "type": "t_uint256"
          }
        ],
        "numberOfBytes": "64"
      },
      "t_uint256": {
        "encoding": "inplace",
        "label": "uint256",
        "numberOfBytes": "32"
      },
      "t_uint8": {
        "encoding": "inplace",
        "label": "uint8",
        "numberOfBytes": "1"
      }
    }
  }
}